{
    "contractName": "AddressFreeBridge",
    "abi": [
        {
            "inputs": [
                {
                    "internalType": "contract IVerifier",
                    "name": "_verifier",
                    "type": "address"
                },
                {
                    "internalType": "contract IHasher",
                    "name": "_hasher",
                    "type": "address"
                },
                {
                    "internalType": "uint32",
                    "name": "_merkleTreeHeight",
                    "type": "uint32"
                },
                {
                    "internalType": "address",
                    "name": "_lzEndpoint",
                    "type": "address"
                },
                {
                    "internalType": "address",
                    "name": "_lzExecutor",
                    "type": "address"
                }
            ],
            "stateMutability": "nonpayable",
            "type": "constructor"
        },
        {
            "inputs": [
                {
                    "internalType": "address",
                    "name": "target",
                    "type": "address"
                }
            ],
            "name": "AddressEmptyCode",
            "type": "error"
        },
        {
            "inputs": [
                {
                    "internalType": "address",
                    "name": "account",
                    "type": "address"
                }
            ],
            "name": "AddressInsufficientBalance",
            "type": "error"
        },
        {
            "inputs": [],
            "name": "FailedInnerCall",
            "type": "error"
        },
        {
            "inputs": [],
            "name": "InvalidDelegate",
            "type": "error"
        },
        {
            "inputs": [],
            "name": "InvalidEndpointCall",
            "type": "error"
        },
        {
            "inputs": [],
            "name": "InvalidMsgType",
            "type": "error"
        },
        {
            "inputs": [
                {
                    "internalType": "bytes",
                    "name": "options",
                    "type": "bytes"
                }
            ],
            "name": "InvalidOptions",
            "type": "error"
        },
        {
            "inputs": [],
            "name": "LzTokenUnavailable",
            "type": "error"
        },
        {
            "inputs": [
                {
                    "internalType": "uint32",
                    "name": "eid",
                    "type": "uint32"
                }
            ],
            "name": "NoPeer",
            "type": "error"
        },
        {
            "inputs": [
                {
                    "internalType": "uint256",
                    "name": "msgValue",
                    "type": "uint256"
                }
            ],
            "name": "NotEnoughNative",
            "type": "error"
        },
        {
            "inputs": [
                {
                    "internalType": "address",
                    "name": "addr",
                    "type": "address"
                }
            ],
            "name": "OnlyEndpoint",
            "type": "error"
        },
        {
            "inputs": [
                {
                    "internalType": "uint32",
                    "name": "eid",
                    "type": "uint32"
                },
                {
                    "internalType": "bytes32",
                    "name": "sender",
                    "type": "bytes32"
                }
            ],
            "name": "OnlyPeer",
            "type": "error"
        },
        {
            "inputs": [
                {
                    "internalType": "address",
                    "name": "owner",
                    "type": "address"
                }
            ],
            "name": "OwnableInvalidOwner",
            "type": "error"
        },
        {
            "inputs": [
                {
                    "internalType": "address",
                    "name": "account",
                    "type": "address"
                }
            ],
            "name": "OwnableUnauthorizedAccount",
            "type": "error"
        },
        {
            "inputs": [],
            "name": "ReentrancyGuardReentrantCall",
            "type": "error"
        },
        {
            "inputs": [
                {
                    "internalType": "address",
                    "name": "token",
                    "type": "address"
                }
            ],
            "name": "SafeERC20FailedOperation",
            "type": "error"
        },
        {
            "anonymous": false,
            "inputs": [
                {
                    "indexed": false,
                    "internalType": "bytes32",
                    "name": "commitment",
                    "type": "bytes32"
                },
                {
                    "indexed": false,
                    "internalType": "address",
                    "name": "to",
                    "type": "address"
                }
            ],
            "name": "BridgeConsumed",
            "type": "event"
        },
        {
            "anonymous": false,
            "inputs": [
                {
                    "indexed": false,
                    "internalType": "bytes32",
                    "name": "commitment",
                    "type": "bytes32"
                },
                {
                    "indexed": false,
                    "internalType": "string",
                    "name": "metadata",
                    "type": "string"
                }
            ],
            "name": "BridgeCreated",
            "type": "event"
        },
        {
            "anonymous": false,
            "inputs": [
                {
                    "indexed": false,
                    "internalType": "address",
                    "name": "to",
                    "type": "address"
                },
                {
                    "indexed": false,
                    "internalType": "bytes32",
                    "name": "nullifierHash",
                    "type": "bytes32"
                }
            ],
            "name": "ConsumeCode",
            "type": "event"
        },
        {
            "anonymous": false,
            "inputs": [
                {
                    "components": [
                        {
                            "internalType": "uint32",
                            "name": "eid",
                            "type": "uint32"
                        },
                        {
                            "internalType": "uint16",
                            "name": "msgType",
                            "type": "uint16"
                        },
                        {
                            "internalType": "bytes",
                            "name": "options",
                            "type": "bytes"
                        }
                    ],
                    "indexed": false,
                    "internalType": "struct EnforcedOptionParam[]",
                    "name": "_enforcedOptions",
                    "type": "tuple[]"
                }
            ],
            "name": "EnforcedOptionSet",
            "type": "event"
        },
        {
            "anonymous": false,
            "inputs": [
                {
                    "indexed": false,
                    "internalType": "bytes",
                    "name": "message",
                    "type": "bytes"
                },
                {
                    "indexed": false,
                    "internalType": "uint32",
                    "name": "senderEid",
                    "type": "uint32"
                },
                {
                    "indexed": false,
                    "internalType": "bytes32",
                    "name": "sender",
                    "type": "bytes32"
                }
            ],
            "name": "MessageReceived",
            "type": "event"
        },
        {
            "anonymous": false,
            "inputs": [
                {
                    "indexed": false,
                    "internalType": "bytes",
                    "name": "message",
                    "type": "bytes"
                },
                {
                    "indexed": false,
                    "internalType": "uint32",
                    "name": "dstEid",
                    "type": "uint32"
                }
            ],
            "name": "MessageSent",
            "type": "event"
        },
        {
            "anonymous": false,
            "inputs": [
                {
                    "indexed": true,
                    "internalType": "bytes32",
                    "name": "commitment",
                    "type": "bytes32"
                },
                {
                    "indexed": false,
                    "internalType": "uint32",
                    "name": "leafIndex",
                    "type": "uint32"
                },
                {
                    "indexed": false,
                    "internalType": "uint256",
                    "name": "timestamp",
                    "type": "uint256"
                }
            ],
            "name": "NewCode",
            "type": "event"
        },
        {
            "anonymous": false,
            "inputs": [
                {
                    "indexed": true,
                    "internalType": "address",
                    "name": "previousOwner",
                    "type": "address"
                },
                {
                    "indexed": true,
                    "internalType": "address",
                    "name": "newOwner",
                    "type": "address"
                }
            ],
            "name": "OwnershipTransferred",
            "type": "event"
        },
        {
            "anonymous": false,
            "inputs": [
                {
                    "indexed": false,
                    "internalType": "uint32",
                    "name": "eid",
                    "type": "uint32"
                },
                {
                    "indexed": false,
                    "internalType": "bytes32",
                    "name": "peer",
                    "type": "bytes32"
                }
            ],
            "name": "PeerSet",
            "type": "event"
        },
        {
            "anonymous": false,
            "inputs": [
                {
                    "indexed": false,
                    "internalType": "bytes",
                    "name": "message",
                    "type": "bytes"
                },
                {
                    "indexed": false,
                    "internalType": "uint32",
                    "name": "dstEid",
                    "type": "uint32"
                }
            ],
            "name": "ReturnMessageSent",
            "type": "event"
        },
        {
            "anonymous": false,
            "inputs": [
                {
                    "indexed": false,
                    "internalType": "bool",
                    "name": "success",
                    "type": "bool"
                }
            ],
            "name": "Success",
            "type": "event"
        },
        {
            "anonymous": false,
            "inputs": [
                {
                    "indexed": false,
                    "internalType": "uint256",
                    "name": "value",
                    "type": "uint256"
                },
                {
                    "indexed": false,
                    "internalType": "address",
                    "name": "to",
                    "type": "address"
                }
            ],
            "name": "ValueTransferred",
            "type": "event"
        },
        {
            "inputs": [],
            "name": "FIELD_SIZE",
            "outputs": [
                {
                    "internalType": "uint256",
                    "name": "",
                    "type": "uint256"
                }
            ],
            "stateMutability": "view",
            "type": "function"
        },
        {
            "inputs": [],
            "name": "MESSAGE_TYPE_RETURN",
            "outputs": [
                {
                    "internalType": "uint16",
                    "name": "",
                    "type": "uint16"
                }
            ],
            "stateMutability": "view",
            "type": "function"
        },
        {
            "inputs": [],
            "name": "MESSAGE_TYPE_SEND",
            "outputs": [
                {
                    "internalType": "uint16",
                    "name": "",
                    "type": "uint16"
                }
            ],
            "stateMutability": "view",
            "type": "function"
        },
        {
            "inputs": [],
            "name": "ROOT_HISTORY_SIZE",
            "outputs": [
                {
                    "internalType": "uint32",
                    "name": "",
                    "type": "uint32"
                }
            ],
            "stateMutability": "view",
            "type": "function"
        },
        {
            "inputs": [],
            "name": "ZERO_VALUE",
            "outputs": [
                {
                    "internalType": "uint256",
                    "name": "",
                    "type": "uint256"
                }
            ],
            "stateMutability": "view",
            "type": "function"
        },
        {
            "inputs": [
                {
                    "components": [
                        {
                            "internalType": "uint32",
                            "name": "srcEid",
                            "type": "uint32"
                        },
                        {
                            "internalType": "bytes32",
                            "name": "sender",
                            "type": "bytes32"
                        },
                        {
                            "internalType": "uint64",
                            "name": "nonce",
                            "type": "uint64"
                        }
                    ],
                    "internalType": "struct Origin",
                    "name": "origin",
                    "type": "tuple"
                }
            ],
            "name": "allowInitializePath",
            "outputs": [
                {
                    "internalType": "bool",
                    "name": "",
                    "type": "bool"
                }
            ],
            "stateMutability": "view",
            "type": "function"
        },
        {
            "inputs": [
                {
                    "internalType": "uint32",
                    "name": "_eid",
                    "type": "uint32"
                },
                {
                    "internalType": "uint16",
                    "name": "_msgType",
                    "type": "uint16"
                },
                {
                    "internalType": "bytes",
                    "name": "_extraOptions",
                    "type": "bytes"
                }
            ],
            "name": "combineOptions",
            "outputs": [
                {
                    "internalType": "bytes",
                    "name": "",
                    "type": "bytes"
                }
            ],
            "stateMutability": "view",
            "type": "function"
        },
        {
            "inputs": [
                {
                    "internalType": "bytes32",
                    "name": "",
                    "type": "bytes32"
                }
            ],
            "name": "commitments",
            "outputs": [
                {
                    "internalType": "bool",
                    "name": "",
                    "type": "bool"
                }
            ],
            "stateMutability": "view",
            "type": "function"
        },
        {
            "inputs": [
                {
                    "internalType": "bytes32",
                    "name": "_commitment",
                    "type": "bytes32"
                },
                {
                    "internalType": "bytes",
                    "name": "_proof",
                    "type": "bytes"
                },
                {
                    "internalType": "bytes32",
                    "name": "_root",
                    "type": "bytes32"
                },
                {
                    "internalType": "bytes32",
                    "name": "_nullifierHash",
                    "type": "bytes32"
                },
                {
                    "internalType": "address payable",
                    "name": "_to",
                    "type": "address"
                },
                {
                    "internalType": "bytes[]",
                    "name": "_validationsArgs",
                    "type": "bytes[]"
                },
                {
                    "internalType": "uint32",
                    "name": "_dstEid",
                    "type": "uint32"
                },
                {
                    "internalType": "bytes",
                    "name": "_options",
                    "type": "bytes"
                },
                {
                    "internalType": "bytes",
                    "name": "_returnOptions",
                    "type": "bytes"
                }
            ],
            "name": "consumeBridge",
            "outputs": [],
            "stateMutability": "payable",
            "type": "function"
        },
        {
            "inputs": [
                {
                    "internalType": "bytes32",
                    "name": "_commitment",
                    "type": "bytes32"
                },
                {
                    "internalType": "bytes",
                    "name": "_proof",
                    "type": "bytes"
                },
                {
                    "internalType": "bytes32",
                    "name": "_root",
                    "type": "bytes32"
                },
                {
                    "internalType": "bytes32",
                    "name": "_nullifierHash",
                    "type": "bytes32"
                },
                {
                    "internalType": "address payable",
                    "name": "_to",
                    "type": "address"
                },
                {
                    "internalType": "bytes[]",
                    "name": "_validationsArgs",
                    "type": "bytes[]"
                }
            ],
            "name": "consumeBridgeInCurrentChain",
            "outputs": [],
            "stateMutability": "nonpayable",
            "type": "function"
        },
        {
            "inputs": [
                {
                    "internalType": "bytes32",
                    "name": "_commitment",
                    "type": "bytes32"
                },
                {
                    "internalType": "bytes",
                    "name": "_proof",
                    "type": "bytes"
                },
                {
                    "internalType": "bytes32",
                    "name": "_root",
                    "type": "bytes32"
                },
                {
                    "internalType": "bytes32",
                    "name": "_nullifierHash",
                    "type": "bytes32"
                },
                {
                    "internalType": "address payable",
                    "name": "_recipient",
                    "type": "address"
                },
                {
                    "internalType": "bytes[]",
                    "name": "_validationsArgs",
                    "type": "bytes[]"
                }
            ],
            "name": "consumeCode",
            "outputs": [],
            "stateMutability": "payable",
            "type": "function"
        },
        {
            "inputs": [
                {
                    "internalType": "bytes32",
                    "name": "_commitment",
                    "type": "bytes32"
                },
                {
                    "internalType": "bytes",
                    "name": "_proof",
                    "type": "bytes"
                },
                {
                    "internalType": "bytes32",
                    "name": "_root",
                    "type": "bytes32"
                },
                {
                    "internalType": "bytes32",
                    "name": "_nullifierHash",
                    "type": "bytes32"
                },
                {
                    "internalType": "address payable",
                    "name": "_to",
                    "type": "address"
                },
                {
                    "internalType": "bytes[]",
                    "name": "_validationsArgs",
                    "type": "bytes[]"
                },
                {
                    "internalType": "bool",
                    "name": "transfer",
                    "type": "bool"
                }
            ],
            "name": "consumeTransfer",
            "outputs": [],
            "stateMutability": "nonpayable",
            "type": "function"
        },
        {
            "inputs": [
                {
                    "internalType": "bytes32",
                    "name": "_commitment",
                    "type": "bytes32"
                },
                {
                    "internalType": "address[]",
                    "name": "_validationModules",
                    "type": "address[]"
                },
                {
                    "internalType": "string",
                    "name": "_metadata",
                    "type": "string"
                }
            ],
            "name": "createBridge",
            "outputs": [],
            "stateMutability": "payable",
            "type": "function"
        },
        {
            "inputs": [
                {
                    "internalType": "bytes32",
                    "name": "_commitment",
                    "type": "bytes32"
                },
                {
                    "internalType": "address[]",
                    "name": "_validationModules",
                    "type": "address[]"
                }
            ],
            "name": "createTransfer",
            "outputs": [],
            "stateMutability": "payable",
            "type": "function"
        },
        {
            "inputs": [],
            "name": "currentRootIndex",
            "outputs": [
                {
                    "internalType": "uint32",
                    "name": "",
                    "type": "uint32"
                }
            ],
            "stateMutability": "view",
            "type": "function"
        },
        {
            "inputs": [
                {
                    "internalType": "uint32",
                    "name": "_eid",
                    "type": "uint32"
                },
                {
                    "internalType": "uint16",
                    "name": "_msgType",
                    "type": "uint16"
                },
                {
                    "internalType": "bytes",
                    "name": "_extraOptions",
                    "type": "bytes"
                }
            ],
            "name": "customCombineOptions",
            "outputs": [
                {
                    "internalType": "bytes",
                    "name": "",
                    "type": "bytes"
                }
            ],
            "stateMutability": "view",
            "type": "function"
        },
        {
            "inputs": [
                {
                    "internalType": "bytes",
                    "name": "encodedMessage",
                    "type": "bytes"
                }
            ],
            "name": "decodeMessage",
            "outputs": [
                {
                    "internalType": "uint16",
                    "name": "msgType",
                    "type": "uint16"
                },
                {
                    "internalType": "uint256",
                    "name": "extraOptionsLength",
                    "type": "uint256"
                },
                {
                    "internalType": "bytes",
                    "name": "options",
                    "type": "bytes"
                },
                {
                    "internalType": "bytes",
                    "name": "payload",
                    "type": "bytes"
                }
            ],
            "stateMutability": "pure",
            "type": "function"
        },
        {
            "inputs": [
                {
                    "internalType": "bytes",
                    "name": "_payload",
                    "type": "bytes"
                },
                {
                    "internalType": "uint16",
                    "name": "_msgType",
                    "type": "uint16"
                },
                {
                    "internalType": "bytes",
                    "name": "_extraReturnOptions",
                    "type": "bytes"
                }
            ],
            "name": "encodeMessage",
            "outputs": [
                {
                    "internalType": "bytes",
                    "name": "",
                    "type": "bytes"
                }
            ],
            "stateMutability": "pure",
            "type": "function"
        },
        {
            "inputs": [],
            "name": "endpoint",
            "outputs": [
                {
                    "internalType": "contract ILayerZeroEndpointV2",
                    "name": "",
                    "type": "address"
                }
            ],
            "stateMutability": "view",
            "type": "function"
        },
        {
            "inputs": [
                {
                    "internalType": "uint32",
                    "name": "eid",
                    "type": "uint32"
                },
                {
                    "internalType": "uint16",
                    "name": "msgType",
                    "type": "uint16"
                }
            ],
            "name": "enforcedOptions",
            "outputs": [
                {
                    "internalType": "bytes",
                    "name": "enforcedOption",
                    "type": "bytes"
                }
            ],
            "stateMutability": "view",
            "type": "function"
        },
        {
            "inputs": [
                {
                    "internalType": "uint256",
                    "name": "",
                    "type": "uint256"
                }
            ],
            "name": "filledSubtrees",
            "outputs": [
                {
                    "internalType": "bytes32",
                    "name": "",
                    "type": "bytes32"
                }
            ],
            "stateMutability": "view",
            "type": "function"
        },
        {
            "inputs": [],
            "name": "getLastRoot",
            "outputs": [
                {
                    "internalType": "bytes32",
                    "name": "",
                    "type": "bytes32"
                }
            ],
            "stateMutability": "view",
            "type": "function"
        },
        {
            "inputs": [
                {
                    "internalType": "contract IHasher",
                    "name": "_hasher",
                    "type": "address"
                },
                {
                    "internalType": "bytes32",
                    "name": "_left",
                    "type": "bytes32"
                },
                {
                    "internalType": "bytes32",
                    "name": "_right",
                    "type": "bytes32"
                }
            ],
            "name": "hashLeftRight",
            "outputs": [
                {
                    "internalType": "bytes32",
                    "name": "",
                    "type": "bytes32"
                }
            ],
            "stateMutability": "pure",
            "type": "function"
        },
        {
            "inputs": [],
            "name": "hasher",
            "outputs": [
                {
                    "internalType": "contract IHasher",
                    "name": "",
                    "type": "address"
                }
            ],
            "stateMutability": "view",
            "type": "function"
        },
        {
            "inputs": [
                {
                    "components": [
                        {
                            "internalType": "uint32",
                            "name": "srcEid",
                            "type": "uint32"
                        },
                        {
                            "internalType": "bytes32",
                            "name": "sender",
                            "type": "bytes32"
                        },
                        {
                            "internalType": "uint64",
                            "name": "nonce",
                            "type": "uint64"
                        }
                    ],
                    "internalType": "struct Origin",
                    "name": "",
                    "type": "tuple"
                },
                {
                    "internalType": "bytes",
                    "name": "",
                    "type": "bytes"
                },
                {
                    "internalType": "address",
                    "name": "_sender",
                    "type": "address"
                }
            ],
            "name": "isComposeMsgSender",
            "outputs": [
                {
                    "internalType": "bool",
                    "name": "",
                    "type": "bool"
                }
            ],
            "stateMutability": "view",
            "type": "function"
        },
        {
            "inputs": [
                {
                    "internalType": "bytes32",
                    "name": "_root",
                    "type": "bytes32"
                }
            ],
            "name": "isKnownRoot",
            "outputs": [
                {
                    "internalType": "bool",
                    "name": "",
                    "type": "bool"
                }
            ],
            "stateMutability": "view",
            "type": "function"
        },
        {
            "inputs": [
                {
                    "internalType": "bytes32",
                    "name": "_nullifierHash",
                    "type": "bytes32"
                }
            ],
            "name": "isSpent",
            "outputs": [
                {
                    "internalType": "bool",
                    "name": "",
                    "type": "bool"
                }
            ],
            "stateMutability": "view",
            "type": "function"
        },
        {
            "inputs": [
                {
                    "internalType": "bytes32[]",
                    "name": "_nullifierHashes",
                    "type": "bytes32[]"
                }
            ],
            "name": "isSpentArray",
            "outputs": [
                {
                    "internalType": "bool[]",
                    "name": "spent",
                    "type": "bool[]"
                }
            ],
            "stateMutability": "view",
            "type": "function"
        },
        {
            "inputs": [],
            "name": "levels",
            "outputs": [
                {
                    "internalType": "uint32",
                    "name": "",
                    "type": "uint32"
                }
            ],
            "stateMutability": "view",
            "type": "function"
        },
        {
            "inputs": [],
            "name": "lzEndpoint",
            "outputs": [
                {
                    "internalType": "address",
                    "name": "",
                    "type": "address"
                }
            ],
            "stateMutability": "view",
            "type": "function"
        },
        {
            "inputs": [
                {
                    "components": [
                        {
                            "internalType": "uint32",
                            "name": "srcEid",
                            "type": "uint32"
                        },
                        {
                            "internalType": "bytes32",
                            "name": "sender",
                            "type": "bytes32"
                        },
                        {
                            "internalType": "uint64",
                            "name": "nonce",
                            "type": "uint64"
                        }
                    ],
                    "internalType": "struct Origin",
                    "name": "_origin",
                    "type": "tuple"
                },
                {
                    "internalType": "bytes32",
                    "name": "_guid",
                    "type": "bytes32"
                },
                {
                    "internalType": "bytes",
                    "name": "_message",
                    "type": "bytes"
                },
                {
                    "internalType": "address",
                    "name": "_executor",
                    "type": "address"
                },
                {
                    "internalType": "bytes",
                    "name": "_extraData",
                    "type": "bytes"
                }
            ],
            "name": "lzReceive",
            "outputs": [],
            "stateMutability": "payable",
            "type": "function"
        },
        {
            "inputs": [
                {
                    "internalType": "bytes32",
                    "name": "",
                    "type": "bytes32"
                }
            ],
            "name": "metadata",
            "outputs": [
                {
                    "internalType": "string",
                    "name": "",
                    "type": "string"
                }
            ],
            "stateMutability": "view",
            "type": "function"
        },
        {
            "inputs": [],
            "name": "nextIndex",
            "outputs": [
                {
                    "internalType": "uint32",
                    "name": "",
                    "type": "uint32"
                }
            ],
            "stateMutability": "view",
            "type": "function"
        },
        {
            "inputs": [
                {
                    "internalType": "uint32",
                    "name": "",
                    "type": "uint32"
                },
                {
                    "internalType": "bytes32",
                    "name": "",
                    "type": "bytes32"
                }
            ],
            "name": "nextNonce",
            "outputs": [
                {
                    "internalType": "uint64",
                    "name": "nonce",
                    "type": "uint64"
                }
            ],
            "stateMutability": "view",
            "type": "function"
        },
        {
            "inputs": [
                {
                    "internalType": "bytes32",
                    "name": "",
                    "type": "bytes32"
                }
            ],
            "name": "nullifierHashes",
            "outputs": [
                {
                    "internalType": "bool",
                    "name": "",
                    "type": "bool"
                }
            ],
            "stateMutability": "view",
            "type": "function"
        },
        {
            "inputs": [],
            "name": "oAppVersion",
            "outputs": [
                {
                    "internalType": "uint64",
                    "name": "senderVersion",
                    "type": "uint64"
                },
                {
                    "internalType": "uint64",
                    "name": "receiverVersion",
                    "type": "uint64"
                }
            ],
            "stateMutability": "pure",
            "type": "function"
        },
        {
            "inputs": [],
            "name": "owner",
            "outputs": [
                {
                    "internalType": "address",
                    "name": "",
                    "type": "address"
                }
            ],
            "stateMutability": "view",
            "type": "function"
        },
        {
            "inputs": [
                {
                    "internalType": "uint32",
                    "name": "eid",
                    "type": "uint32"
                }
            ],
            "name": "peers",
            "outputs": [
                {
                    "internalType": "bytes32",
                    "name": "peer",
                    "type": "bytes32"
                }
            ],
            "stateMutability": "view",
            "type": "function"
        },
        {
            "inputs": [
                {
                    "internalType": "bytes32",
                    "name": "_commitment",
                    "type": "bytes32"
                },
                {
                    "internalType": "bytes",
                    "name": "_proof",
                    "type": "bytes"
                },
                {
                    "internalType": "bytes32",
                    "name": "_root",
                    "type": "bytes32"
                },
                {
                    "internalType": "bytes32",
                    "name": "_nullifierHash",
                    "type": "bytes32"
                },
                {
                    "internalType": "address payable",
                    "name": "_to",
                    "type": "address"
                },
                {
                    "internalType": "bytes[]",
                    "name": "_validationsArgs",
                    "type": "bytes[]"
                },
                {
                    "internalType": "uint32",
                    "name": "_dstEid",
                    "type": "uint32"
                },
                {
                    "internalType": "bytes",
                    "name": "_options",
                    "type": "bytes"
                },
                {
                    "internalType": "bytes",
                    "name": "_returnOptions",
                    "type": "bytes"
                }
            ],
            "name": "quote",
            "outputs": [
                {
                    "components": [
                        {
                            "internalType": "uint256",
                            "name": "nativeFee",
                            "type": "uint256"
                        },
                        {
                            "internalType": "uint256",
                            "name": "lzTokenFee",
                            "type": "uint256"
                        }
                    ],
                    "internalType": "struct MessagingFee",
                    "name": "fee",
                    "type": "tuple"
                }
            ],
            "stateMutability": "view",
            "type": "function"
        },
        {
            "inputs": [],
            "name": "renounceOwnership",
            "outputs": [],
            "stateMutability": "nonpayable",
            "type": "function"
        },
        {
            "inputs": [
                {
                    "internalType": "uint256",
                    "name": "",
                    "type": "uint256"
                }
            ],
            "name": "roots",
            "outputs": [
                {
                    "internalType": "bytes32",
                    "name": "",
                    "type": "bytes32"
                }
            ],
            "stateMutability": "view",
            "type": "function"
        },
        {
            "inputs": [
                {
                    "internalType": "uint32",
                    "name": "_dstEid",
                    "type": "uint32"
                },
                {
                    "internalType": "bytes",
                    "name": "_payload",
                    "type": "bytes"
                },
                {
                    "internalType": "bytes",
                    "name": "_options",
                    "type": "bytes"
                }
            ],
            "name": "send",
            "outputs": [],
            "stateMutability": "payable",
            "type": "function"
        },
        {
            "inputs": [
                {
                    "internalType": "bytes32",
                    "name": "_commitment",
                    "type": "bytes32"
                },
                {
                    "internalType": "address[]",
                    "name": "_validationModules",
                    "type": "address[]"
                }
            ],
            "name": "setCode",
            "outputs": [],
            "stateMutability": "payable",
            "type": "function"
        },
        {
            "inputs": [
                {
                    "internalType": "address",
                    "name": "_delegate",
                    "type": "address"
                }
            ],
            "name": "setDelegate",
            "outputs": [],
            "stateMutability": "nonpayable",
            "type": "function"
        },
        {
            "inputs": [
                {
                    "components": [
                        {
                            "internalType": "uint32",
                            "name": "eid",
                            "type": "uint32"
                        },
                        {
                            "internalType": "uint16",
                            "name": "msgType",
                            "type": "uint16"
                        },
                        {
                            "internalType": "bytes",
                            "name": "options",
                            "type": "bytes"
                        }
                    ],
                    "internalType": "struct EnforcedOptionParam[]",
                    "name": "_enforcedOptions",
                    "type": "tuple[]"
                }
            ],
            "name": "setEnforcedOptions",
            "outputs": [],
            "stateMutability": "nonpayable",
            "type": "function"
        },
        {
            "inputs": [
                {
                    "internalType": "uint32",
                    "name": "_eid",
                    "type": "uint32"
                },
                {
                    "internalType": "bytes32",
                    "name": "_peer",
                    "type": "bytes32"
                }
            ],
            "name": "setPeer",
            "outputs": [],
            "stateMutability": "nonpayable",
            "type": "function"
        },
        {
            "inputs": [
                {
                    "internalType": "address",
                    "name": "newOwner",
                    "type": "address"
                }
            ],
            "name": "transferOwnership",
            "outputs": [],
            "stateMutability": "nonpayable",
            "type": "function"
        },
        {
            "inputs": [
                {
                    "internalType": "bytes32",
                    "name": "",
                    "type": "bytes32"
                }
            ],
            "name": "transferValues",
            "outputs": [
                {
                    "internalType": "uint256",
                    "name": "",
                    "type": "uint256"
                }
            ],
            "stateMutability": "view",
            "type": "function"
        },
        {
            "inputs": [
                {
                    "internalType": "bytes32",
                    "name": "",
                    "type": "bytes32"
                },
                {
                    "internalType": "uint256",
                    "name": "",
                    "type": "uint256"
                }
            ],
            "name": "validationModules",
            "outputs": [
                {
                    "internalType": "address",
                    "name": "",
                    "type": "address"
                }
            ],
            "stateMutability": "view",
            "type": "function"
        },
        {
            "inputs": [],
            "name": "verifier",
            "outputs": [
                {
                    "internalType": "contract IVerifier",
                    "name": "",
                    "type": "address"
                }
            ],
            "stateMutability": "view",
            "type": "function"
        },
        {
            "inputs": [
                {
                    "internalType": "uint256",
                    "name": "i",
                    "type": "uint256"
                }
            ],
            "name": "zeros",
            "outputs": [
                {
                    "internalType": "bytes32",
                    "name": "",
                    "type": "bytes32"
                }
            ],
            "stateMutability": "pure",
            "type": "function"
        },
        {
            "stateMutability": "payable",
            "type": "receive"
        }
    ],
    "bytecode": "61010080604052346102465760a08161480580380380916100208285610316565b833981010312610246578051906001600160a01b0382168203610246576020810151906001600160a01b03821682036102465760408101519163ffffffff83168093036102465761007f60806100786060850161034d565b930161034d565b600380546001600160401b03191690559083156102c5576020841015610280578363ffffffff195f5416175f556080525f5b63ffffffff8116848110156100e55763ffffffff91816100d2600193610361565b905f528260205260405f205501166100b1565b505083835f190163ffffffff811161026c5763ffffffff6101069116610361565b5f805260026020527fac33ff75c19e70fe83507db0d683fd3465c996598dc972688b7ace676c89077b55600160045560a05233156102595760098054336001600160a01b0319821681179092556040519291906001600160a01b03167f8be0079c531659141344cd1fd0a4f28419497f9722a3daafe3b4186f6b6457e05f80a36001600160a01b0383811660c0819052911690811561024a57803b15610246576024835f8193819563ca5eb5e160e01b845260048401525af1801561023b5761022b575b5060e052604051613ec590816109408239608051818181611a2801526137b9015260a051816109d1015260c0518181816106af01528181610e9f015281816117eb01528181613035015281816133720152613a2a015260e051816115dc0152f35b5f61023591610316565b5f6101ca565b6040513d5f823e3d90fd5b5f80fd5b632d618d8160e21b5f5260045ffd5b631e4fbdf760e01b5f525f60045260245ffd5b634e487b7160e01b5f52601160045260245ffd5b60405162461bcd60e51b815260206004820152601e60248201527f5f6c6576656c732073686f756c64206265206c657373207468616e20333200006044820152606490fd5b60405162461bcd60e51b815260206004820152602360248201527f5f6c6576656c732073686f756c642062652067726561746572207468616e207a60448201526265726f60e81b6064820152608490fd5b601f909101601f19168101906001600160401b0382119082101761033957604052565b634e487b7160e01b5f52604160045260245ffd5b51906001600160a01b038216820361024657565b8061038b57507f2fe54c60d3acabf3343a35b6eba15db4821b340f76e741e2249685ed4899af6c90565b600181036103b857507f256a6135777eee2fd26f54b8b7037a25439d5235caee224154186d2b8a52e31d90565b600281036103e557507f1151949895e82ab19924de92c40a3d6f7bcb60d92b00504b8199613683f0c20090565b6003810361041257507f20121ee811489ff8d61f09fb89e313f14959a0f28bb428a20dba6b0b068b3bdb90565b6004810361043f57507f0a89ca6ffa14cc462cfedb842c30ed221a50a3d6bf022a6a57dc82ab24c157c990565b6005810361046c57507f24ca05c2b5cd42e890d6be94c68d0689f4f21c9cec9c0f13fe41d566dfb5495990565b6006810361049957507f1ccb97c932565a92c60156bdba2d08f3bf1377464e025cee765679e604a7315c90565b600781036104c657507f19156fbd7d1a8bf5cba8909367de1b624534ebab4f0f79e003bccdd1b182bdb490565b600881036104f357507f261af8c1f0912e465744641409f622d466c3920ac6e5ff37e36604cb11dfff8090565b6009810361051f57507e58459724ff6ca5a1652fcbc3e82b93895cf08e975b19beab3f54c217d1c00790565b600a810361054c57507f1f04ef20dee48d39984d8eabe768a70eafa6310ad20849d4573c3c40c2ad1e3090565b600b810361057957507f1bea3dec5dab51567ce7e200a30f7ba6d4276aeaa53e2686f962a46c66d511e590565b600c81036105a657507f0ee0f941e2da4b9e31c3ca97a40d8fa9ce68d97c084177071b3cb46cd3372f0f90565b600d81036105d357507f1ca9503e8935884501bbaf20be14eb4c46b89772c97b96e3b2ebf3a36a948bbd90565b600e810361060057507f133a80e30697cd55d8f7d4b0965b7be24057ba5dc3da898ee2187232446cb10890565b600f810361062d57507f13e6d8fc88839ed76e182c2a779af5b2c0da9dd18c90427a644f7e148a6253b690565b6010810361065a57507f1eb16b057a477f4bc8f572ea6bee39561098f78f15bfb3699dcbb7bd8db6185490565b6011810361068757507f0da2cb16a1ceaabf1c16b838f7a9e3f2a3a3088d9e0a6debaa748114620696ea90565b601281036106b457507f24a3b3d822420b14b5d8cb6c28a574f01e98ea9e940551d2ebd75cee12649f9d90565b601381036106e157507f198622acbd783d1b0d9064105b1fc8e4d8889de95c4c519b3f635809fe6afc0590565b6014810361070e57507f29d7ed391256ccc3ea596c86e933b89ff339d25ea8ddced975ae2fe30b5296d490565b6015810361073b57507f19be59f2f0413ce78c0c3703a3a5451b1d7f39629fa33abd11548a76065b296790565b6016810361076857507f1ff3f61797e538b70e619310d33f2a063e7eb59104e112e95738da1254dc345390565b6017810361079557507f10c16ae9959cf8358980d9dd9616e48228737310a10e2b6b731c1a548f036c4890565b601881036107c257507f0ba433a63174a90ac20992e75e3095496812b652685b5e1a2eae0b1bf4e8fcd190565b601981036107ef57507f019ddb9df2bc98d987d0dfeca9d2b643deafab8f7036562e627c3667266a044c90565b601a810361081c57507f2d3c88b23175c5a5565db928414c66d1912b11acf974b2e644caaac04739ce9990565b601b810361084957507f2eab55f6ae4e66e32c5189eed5c470840863445760f5ed7e7b69b2a62600f35490565b601c810361087557507e2df37a2642621802383cf952bf4dd1f32e05433beeb1fd41031fb7eace979d90565b601d81036108a257507f104aeb41435db66c3e62feccc1d6f5d98d0a0ed75d1374db457cf462e3a1f42790565b601e81036108cf57507f1f3c6fd858e9a7d4b0d1f38e256a09d81d5a5e3c963987e2d4b814cfab7c6ebb90565b601f036108fa577f2c7a07d20dff79d01fecedc1134284a8d08436606c93693b67e333f671bf69cc90565b60405162461bcd60e51b815260206004820152601360248201527f496e646578206f7574206f6620626f756e6473000000000000000000000000006044820152606490fdfe6080604052600436101561001a575b3615610018575f80fd5b005b5f3560e01c80630f62773d14610349578063127e0e1a1461034457806313137d651461033f57806317442b701461033a57806317cc915c1461033557806319196544146103305780631ae175dd1461032b57806322dfe769146103265780632b7ac3f3146103215780633400288b1461031c5780633e7fd3b414610317578063414a37ba1461031257806341dba2f01461030d5780634ecf518b146103085780635535d461146103035780635e280f11146102fe578063634d45b2146102f957806368f1954c146102f45780636d9833e3146102ef5780637122ba06146102ea578063715018a6146102e557806378c62b66146102e05780637d25a05e146102db57806382413eac146102d6578063838a11fd146102d1578063839df945146102cc578063861d697a146102c75780638da5cb5b146102c25780638ea3099e146102bd57806390eeb02b146102b85780639fa12d0b146102b3578063a951b130146102ae578063b353aaa7146102a9578063b98bd070146102a4578063ba70f7571461029f578063bb0b6a531461029a578063bc70b35414610295578063c2b40ae414610290578063ca5eb5e11461028b578063cc013d8514610286578063cd87a3b414610281578063e5285dcc1461027c578063e829558814610277578063ec73295914610272578063ed33639f1461026d578063f178e47c14610268578063f2fde38b14610263578063f927f7cd1461025e578063fc7e9c6f14610259578063ff7bd03d146102545763ffbff8090361000e57611bc8565b611b83565b611b5e565b611b0b565b611a81565b611a57565b611a13565b6119d9565b6119bb565b611990565b611975565b611860565b6117c3565b611799565b611745565b61170c565b6116dd565b61160b565b6115c7565b611557565b61148b565b61143e565b611408565b6113e0565b611323565b611245565b6111f4565b611168565b611142565b611118565b6110bd565b610ffd565b610fd5565b610f58565b610f02565b610e8a565b610e20565b610d28565b610c95565b610c19565b610a80565b610a00565b6109bc565b6109a1565b610807565b6107f5565b610763565b610742565b61064b565b61061d565b6104a7565b63ffffffff81160361035c57565b5f80fd5b359061036b8261034e565b565b634e487b7160e01b5f52604160045260245ffd5b606081019081106001600160401b0382111761039c57604052565b61036d565b604081019081106001600160401b0382111761039c57604052565b90601f801991011681019081106001600160401b0382111761039c57604052565b6040519061036b610120836103bc565b6040519061036b60a0836103bc565b6040519061036b6040836103bc565b6001600160401b03811161039c57601f01601f191660200190565b9291926104328261040b565b9161044060405193846103bc565b82948184528183011161035c578281602093845f960137010152565b9080601f8301121561035c5781602061047793359101610426565b90565b9181601f8401121561035c578235916001600160401b03831161035c576020838186019501011161035c57565b606036600319011261035c576004356104bf8161034e565b6024356001600160401b03811161035c576104de90369060040161045c565b604435916001600160401b03831161035c5761050161001893369060040161047a565b929091611be3565b6001600160a01b0381160361035c57565b359061036b82610509565b6001600160401b03811161039c5760051b60200190565b9080601f8301121561035c57813561055381610525565b9261056160405194856103bc565b81845260208085019260051b8201019183831161035c5760208201905b83821061058d57505050505090565b81356001600160401b03811161035c576020916105af8784809488010161045c565b81520191019061057e565b9060c060031983011261035c57600435916024356001600160401b03811161035c57816105e99160040161045c565b9160443591606435916084356105fe81610509565b9160a435906001600160401b03821161035c576104779160040161053c565b3461035c5761001861062e366105ba565b94939093929192611f99565b606090600319011261035c57600490565b60e036600319011261035c576106603661063a565b6084356001600160401b03811161035c5761067f90369060040161047a565b9061068b60a435610509565b60c4356001600160401b03811161035c576106aa90369060040161047a565b5050337f00000000000000000000000000000000000000000000000000000000000000006001600160a01b03160361072f578235926106e88461034e565b6106f1846130a8565b9360208201358095036107095750610018935061315b565b63ffffffff81610719879361034e565b63309afaf360e21b5f521660045260245260445ffd5b6391ac5e4f60e01b5f523360045260245ffd5b3461035c575f36600319011261035c57604080516001815260026020820152f35b3461035c57602036600319011261035c576004355f526005602052602060ff60405f2054166040519015158152f35b9181601f8401121561035c578235916001600160401b03831161035c576020808501948460051b01011161035c57565b90604060031983011261035c5760043591602435906001600160401b03821161035c576107f191600401610792565b9091565b610018610801366107c2565b91611c6a565b606036600319011261035c576004356024356001600160401b03811161035c57610835903690600401610792565b916044356001600160401b03811161035c573660238201121561035c57610866903690602481600401359101610426565b91815f52600c60205260405f2083516001600160401b03811161039c57610897816108918454610d4a565b84611d3f565b6020601f821160011461091357916108eb826108f495937f77f016974fc6d516ed632ba03b4d79917b6e9702e700b1b6079e54bfd8b4d25199955f91610908575b508160011b915f199060031b1c19161790565b90555b83611c6a565b61090360405192839283611d8e565b0390a1005b90508801515f6108d8565b601f19821690610926845f5260205f2090565b915f5b8181106109895750927f77f016974fc6d516ed632ba03b4d79917b6e9702e700b1b6079e54bfd8b4d251989492600192826108f4989610610971575b5050811b0190556108ee565b8901515f1960f88460031b161c191690555f80610965565b9192602060018192868c015181550194019201610929565b3461035c575f36600319011261035c57602060405160028152f35b3461035c575f36600319011261035c576040517f00000000000000000000000000000000000000000000000000000000000000006001600160a01b03168152602090f35b3461035c57604036600319011261035c577f238399d427b947898edb290f5ff0f9109849b1c3ba196a42e35f00c50a54b98b600435610a3e8161034e565b60243590610a4a6132b4565b63ffffffff81165f52600a6020528160405f2055610903604051928392836020909392919363ffffffff60408201951681520152565b610ad3610ace610a8f366105ba565b96929095919350610a9e6132db565b610ac9610ac4610ac0610ab9875f52600560205260405f2090565b5460ff1690565b1590565b611da5565b612243565b611df1565b5f5b610ae7835f52600760205260405f2090565b54811015610baf57806020610b62610b3b610b2f610b2f610b1a5f97610b158b5f52600760205260405f2090565b6111da565b905460039190911b1c6001600160a01b031690565b6001600160a01b031690565b610b45848a611e3d565b5160405195868094819363c16e50ef60e01b835260048301610c84565b03925af1918215610baa57600192610b7c575b5001610ad5565b610b9c9060203d8111610ba3575b610b9481836103bc565b810190611e51565b505f610b75565b503d610b8a565b611e66565b7f9ebe94a87e9d85fb44a2b38b11c3b10117eba3fbd045c54a8577bc62540d5d758285610bf4610be7835f52600560205260405f2090565b805460ff19166001179055565b604080516001600160a01b039290921682526020820192909252a16100186001600455565b3461035c575f36600319011261035c5760206040515f80516020613e708339815191528152f35b6024359061ffff8216820361035c57565b359061ffff8216820361035c57565b805180835260209291819084018484015e5f828201840152601f01601f1916010190565b906020610477928181520190610c60565b3461035c57606036600319011261035c576004356001600160401b03811161035c57610cc590369060040161045c565b610ccd610c40565b906044356001600160401b03811161035c57610d2492610d0a610cf7610d1893369060040161045c565b9384519460405195869460208601610ece565b03601f1981018352826103bc565b60405191829182610c84565b0390f35b3461035c575f36600319011261035c57602063ffffffff5f5416604051908152f35b90600182811c92168015610d78575b6020831014610d6457565b634e487b7160e01b5f52602260045260245ffd5b91607f1691610d59565b9060405191825f825492610d9584610d4a565b8084529360018116908115610dfe5750600114610dba575b5061036b925003836103bc565b90505f9291925260205f20905f915b818310610de257505090602061036b928201015f610dad565b6020919350806001915483858901015201910190918492610dc9565b90506020925061036b94915060ff191682840152151560051b8201015f610dad565b3461035c57604036600319011261035c57610d24610e76610e71600435610e468161034e565b63ffffffff610e53610c40565b91165f52600b60205260405f209061ffff165f5260205260405f2090565b610d82565b604051918291602083526020830190610c60565b3461035c575f36600319011261035c576040517f00000000000000000000000000000000000000000000000000000000000000006001600160a01b03168152602090f35b92610477949261ffff610ef4931685526020850152608060408501526080840190610c60565b916060818403910152610c60565b3461035c57602036600319011261035c576004356001600160401b03811161035c57610f3e610f38610d2492369060040161047a565b90611ea7565b9060409492945194859485610ece565b8015150361035c57565b3461035c5760e036600319011261035c576004356024356001600160401b03811161035c57610f8b90369060040161045c565b6044359190608435606435610f9f82610509565b60a435946001600160401b03861161035c57610fc261001896369060040161053c565b9360c43595610fd087610f4e565b6120b8565b3461035c57602036600319011261035c576020610ff3600435612243565b6040519015158152f35b3461035c57602036600319011261035c576004355f52600c60205260405f20604051905f9080549061102e82610d4a565b80855291600181169081156110965750600114611056575b610d2484610d18818603826103bc565b5f90815260208120939250905b80821061107c57509091508101602001610d1882611046565b919260018160209254838588010152019101909291611063565b60ff191660208087019190915292151560051b85019092019250610d189150839050611046565b3461035c575f36600319011261035c576110d56132b4565b600980546001600160a01b031981169091555f906001600160a01b03167f8be0079c531659141344cd1fd0a4f28419497f9722a3daafe3b4186f6b6457e08280a3005b3461035c57602036600319011261035c576004355f526008602052602060405f2054604051908152f35b3461035c57604036600319011261035c5761115e60043561034e565b60206040515f8152f35b3461035c5760a036600319011261035c576111823661063a565b506064356001600160401b03811161035c576111a290369060040161047a565b505060206084356111b281610509565b6040516001600160a01b0390911630148152f35b634e487b7160e01b5f52603260045260245ffd5b80548210156111ef575f5260205f2001905f90565b6111c6565b3461035c57604036600319011261035c57600435602435905f52600760205260405f20805482101561035c5760209161122c916111da565b905460405160039290921b1c6001600160a01b03168152f35b3461035c57602036600319011261035c576004355f526006602052602060ff60405f2054166040519015158152f35b9061012060031983011261035c57600435916024356001600160401b03811161035c57816112a49160040161045c565b9160443591606435916112b7608461051a565b9160a4356001600160401b03811161035c57816112d69160040161053c565b916112e160c4610360565b9160e4356001600160401b03811161035c57816113009160040161047a565b9290929161010435906001600160401b03821161035c576104779160040161045c565b7f836ae9cba0c8f3c24cb09c41955d58edf91ce892d0a57451f220921dad1ed17a6113c4610d0a6113d16113996113c961135c36611274565b9895919c976113719e97919b9495939e6103dd565b9687526020870152604086015260608501523360808501526001600160a01b031660a0840152565b60c08201523360e08201526113af36878a610426565b6101008201526040519283916020830161231e565b611e71565b928385611be3565b610903604051928392836123cd565b3461035c575f36600319011261035c576009546040516001600160a01b039091168152602090f35b3461035c57606036600319011261035c57602061143660043561142a81610509565b602435604435916124a8565b604051908152f35b3461035c575f36600319011261035c57602063ffffffff60035416604051908152f35b602060031982011261035c57600435906001600160401b03821161035c576107f191600401610792565b3461035c5761149936611461565b906114a382610525565b916114b160405193846103bc565b808352601f196114c082610525565b013660208501375f5b81811061151757836040518091602082016020835281518091526020604084019201905f5b8181106114fc575050500390f35b825115158452859450602093840193909201916001016114ee565b8061153b61152860019385876125dc565b355f52600560205260ff60405f20541690565b611546575b016114c9565b816115518287611e3d565b52611540565b3461035c57610d246115aa611598610d0a6115a461139961159d61157a36611274565b9895919c9761158f9e97919b9495939e6125ec565b506113716103dd565b611e8c565b9284612689565b9161330f565b604051918291829190916020806040830194805184520151910152565b3461035c575f36600319011261035c576040517f00000000000000000000000000000000000000000000000000000000000000006001600160a01b03168152602090f35b3461035c5761161936611461565b906116226132b4565b61162b82610525565b9061163960405192836103bc565b828252602082019260051b81019036821161035c5780935b828510611661576100188461351f565b84356001600160401b03811161035c57820160608136031261035c576040519161168a83610381565b81356116958161034e565b83526116a360208301610c51565b60208401526040820135926001600160401b03841161035c576116cd60209493859436910161045c565b6040820152815201940193611651565b3461035c575f36600319011261035c5763ffffffff600354165f526002602052602060405f2054604051908152f35b3461035c57602036600319011261035c5763ffffffff60043561172e8161034e565b165f52600a602052602060405f2054604051908152f35b3461035c57606036600319011261035c576004356117628161034e565b61176a610c40565b604435906001600160401b03821161035c57610d2492611791610e7693369060040161047a565b92909161272d565b3461035c57602036600319011261035c576004355f526002602052602060405f2054604051908152f35b3461035c575f602036600319011261035c576004356117e181610509565b6117e96132b4565b7f00000000000000000000000000000000000000000000000000000000000000006001600160a01b031690813b1561035c5760405163ca5eb5e160e01b81526001600160a01b039091166004820152905f908290602490829084905af18015610baa57611854575080f35b61001891505f906103bc565b611869366107c2565b6118716132db565b825f52600660205260ff60405f2054166119265761188e83613772565b916118a4610be7855f52600660205260405f2090565b5f5b8281106118ef576040805163ffffffff8616815242602082015286917fee825d3f4d0fa209d8e2a39afe24a21286d8dc103d63061a2ed322db4ce018e391a26100186001600455565b600190611920611907875f52600760205260405f2090565b61191a6119158488886125dc565b61275b565b90612765565b016118a6565b60405162461bcd60e51b815260206004820152602160248201527f54686520636f6d6d69746d656e7420686173206265656e207375626d697474656044820152601960fa1b6064820152608490fd5b3461035c575f36600319011261035c576020604051601e8152f35b3461035c57602036600319011261035c576020610ff36004355f52600560205260ff60405f20541690565b3461035c57602036600319011261035c5760206114366004356127ab565b3461035c575f36600319011261035c5760206040517f2fe54c60d3acabf3343a35b6eba15db4821b340f76e741e2249685ed4899af6c8152f35b3461035c575f36600319011261035c576040517f00000000000000000000000000000000000000000000000000000000000000006001600160a01b03168152602090f35b3461035c57602036600319011261035c576004355f526001602052602060405f2054604051908152f35b3461035c57602036600319011261035c57600435611a9e81610509565b611aa66132b4565b6001600160a01b03168015611af857600980546001600160a01b0319811683179091556001600160a01b03167f8be0079c531659141344cd1fd0a4f28419497f9722a3daafe3b4186f6b6457e05f80a3005b631e4fbdf760e01b5f525f60045260245ffd5b3461035c57606036600319011261035c57600435611b288161034e565b611b30610c40565b90604435906001600160401b03821161035c57610d2492611b58610e7693369060040161045c565b91612e44565b3461035c575f36600319011261035c57602063ffffffff600354821c16604051908152f35b3461035c57606036600319011261035c576020611b9f3661063a565b63ffffffff8135611baf8161034e565b165f52600a82528160405f205491013560405191148152f35b3461035c575f36600319011261035c57602060405160018152f35b611c11939291611c0b60405193611bf9856103a1565b3485525f602086015233953691610426565b91612fac565b50565b356104778161034e565b15611c2557565b60405162461bcd60e51b815260206004820152601e60248201527f76616c75652073686f756c642062652067726561746572207468616e203000006044820152606490fd5b91611c736132db565b825f52600660205260ff60405f20541661192657908291611c9383613772565b91611ca9610be7855f52600660205260405f2090565b5f5b828110611d1a5750506040805163ffffffff9390931683524260208401527fee825d3f4d0fa209d8e2a39afe24a21286d8dc103d63061a2ed322db4ce018e392909150a2611cf96001600455565b611d04341515611c1e565b611d1734915f52600860205260405f2090565b55565b611d346119076001939495965f52600760205260405f2090565b019084939291611cab565b601f8211611d4c57505050565b5f5260205f20906020601f840160051c83019310611d84575b601f0160051c01905b818110611d79575050565b5f8155600101611d6e565b9091508190611d65565b604090610477939281528160208201520190610c60565b15611dac57565b60405162461bcd60e51b815260206004820152601f60248201527f546865206e6f746520686173206265656e20616c7265616479207370656e74006044820152606490fd5b15611df857565b60405162461bcd60e51b815260206004820152601c60248201527f43616e6e6f742066696e6420796f7572206d65726b6c6520726f6f74000000006044820152606490fd5b80518210156111ef5760209160051b010190565b9081602091031261035c575161047781610f4e565b6040513d5f823e3d90fd5b61047790610d0a835191604051948593600160208601610ece565b61047790610d0a835191604051948593600260208601610ece565b919082019060808383031261035c57611ebf83610c51565b9060208401359360408101356001600160401b03811161035c5784611ee591830161045c565b9360608201356001600160401b03811161035c57611f03920161045c565b9193929190565b60405190611f196020836103bc565b5f8252565b3d15611f48573d90611f2f8261040b565b91611f3d60405193846103bc565b82523d5f602084013e565b606090565b15611f5457565b60405162461bcd60e51b815260206004820152601e60248201527f7061796d656e7420746f205f746f20646964206e6f7420676f207468727500006044820152606490fd5b9291611faf9150610ace90959495610a9e6132db565b5f5b611fc3835f52600760205260405f2090565b5481101561203357806020611ffb611ff1610b2f610b2f610b1a5f97610b158b5f52600760205260405f2090565b610b458489611e3d565b03925af1918215610baa57600192612015575b5001611fb1565b61202c9060203d8111610ba357610b9481836103bc565b505f61200e565b50611d1792507f9ebe94a87e9d85fb44a2b38b11c3b10117eba3fbd045c54a8577bc62540d5d75905f94612072610be7835f52600560205260405f2090565b604080516001600160a01b039290921682526020820192909252a16120976001600455565b6120a9815f52600860205260405f2090565b505f52600860205260405f2090565b9496939295916120ea9150610ace906120cf6132db565b610ac9610ac4610ac0610ab98b5f52600560205260405f2090565b5f5b6120fe855f52600760205260405f2090565b5481101561216e5780602061213661212c610b2f610b2f610b1a5f97610b158d5f52600760205260405f2090565b610b45848c611e3d565b03925af1918215610baa57600192612150575b50016120ec565b6121679060203d8111610ba357610b9481836103bc565b505f612149565b50919450926121ce7f9ebe94a87e9d85fb44a2b38b11c3b10117eba3fbd045c54a8577bc62540d5d75916121ad610be7825f52600560205260405f2090565b604080516001600160a01b0388168152602081019290925290918291820190565b0390a16121db6001600455565b5f6122016121f1845f52600860205260405f2090565b54935f52600860205260405f2090565b5561220a575050565b61036b915f918291829182916001600160a01b03165af1612229611f1e565b50611f4d565b634e487b7160e01b5f52601160045260245ffd5b80156122c15763ffffffff60035416918260015b156122ac575b5f9363ffffffff8116805f52600260205260405f205485146122a15715612299575b63ffffffff168015612294575f190193612257565b61222f565b50601e61227f565b505050915050600190565b8063ffffffff85160361225d57509150505f90565b505f90565b9080602083519182815201916020808360051b8301019401925f915b8383106122f157505050505090565b909192939460208061230f600193601f198682030187528951610c60565b970193019301919392906122e2565b906104779160208152815160208201526101006123a561234f60208501516101206040860152610140850190610c60565b604085015160608501526060850151608085015261237c608086015160a086019060018060a01b03169052565b60a08501516001600160a01b031660c085015260c0850151848203601f190160e08601526122c6565b60e08401516001600160a01b03168383015292015190610120601f1982850301910152610c60565b9063ffffffff6123ea602092959495604085526040850190610c60565b9416910152565b156123f857565b606460405162461bcd60e51b815260206004820152602060248201527f5f6c6566742073686f756c6420626520696e7369646520746865206669656c646044820152fd5b1561244357565b60405162461bcd60e51b815260206004820152602160248201527f5f72696768742073686f756c6420626520696e7369646520746865206669656c6044820152601960fa1b6064820152608490fd5b919082604091031261035c576020825192015190565b916040612512936124c75f80516020613e7083398151915285106123f1565b6124df5f80516020613e70833981519152841061243c565b815163f47d33b560e01b815260048101949094525f602485015292936001600160a01b0390931692849081906044820190565b0381855afa928315610baa575f905f946125a5575b50915f80516020613e708339815191529160409361256385519687958694859463f47d33b560e01b865208600484015260248301526044820190565b03915afa908115610baa575f91612578575090565b61259a915060403d60401161259e575b61259281836103bc565b810190612492565b5090565b503d612588565b5f80516020613e7083398151915292945060409391506125d190843d861161259e5761259281836103bc565b949091935091612527565b91908110156111ef5760051b0190565b604051906125f9826103a1565b5f6020838281520152565b909291928360021161035c57831161035c57600201916001190190565b805191908290602001825e015f815290565b61264d939261036b92816040519687946020860190612621565b918237015f815203601f1981018452836103bc565b90918060409360208452816020850152848401375f828201840152601f01601f1916010190565b63ffffffff9093919293165f52600b6020526126b8610e71600160405f209061ffff165f5260205260405f2090565b80511561271f5783156127195760028410156126f05750506126ec604051928392639a6d49cd60e01b845260048401612662565b0390fd5b909280612713916104779461270e612709368484610426565b6135dc565b612604565b91612633565b92509050565b509190610477913691610426565b6126b89163ffffffff610e719296949596165f52600b60205260405f209061ffff165f5260205260405f2090565b3561047781610509565b80546801000000000000000081101561039c57612787916001820181556111da565b81546001600160a01b0393841660039290921b91821b9390911b1916919091179055565b806127d557507f2fe54c60d3acabf3343a35b6eba15db4821b340f76e741e2249685ed4899af6c90565b6001810361280257507f256a6135777eee2fd26f54b8b7037a25439d5235caee224154186d2b8a52e31d90565b6002810361282f57507f1151949895e82ab19924de92c40a3d6f7bcb60d92b00504b8199613683f0c20090565b6003810361285c57507f20121ee811489ff8d61f09fb89e313f14959a0f28bb428a20dba6b0b068b3bdb90565b6004810361288957507f0a89ca6ffa14cc462cfedb842c30ed221a50a3d6bf022a6a57dc82ab24c157c990565b600581036128b657507f24ca05c2b5cd42e890d6be94c68d0689f4f21c9cec9c0f13fe41d566dfb5495990565b600681036128e357507f1ccb97c932565a92c60156bdba2d08f3bf1377464e025cee765679e604a7315c90565b6007810361291057507f19156fbd7d1a8bf5cba8909367de1b624534ebab4f0f79e003bccdd1b182bdb490565b6008810361293d57507f261af8c1f0912e465744641409f622d466c3920ac6e5ff37e36604cb11dfff8090565b6009810361296957507e58459724ff6ca5a1652fcbc3e82b93895cf08e975b19beab3f54c217d1c00790565b600a810361299657507f1f04ef20dee48d39984d8eabe768a70eafa6310ad20849d4573c3c40c2ad1e3090565b600b81036129c357507f1bea3dec5dab51567ce7e200a30f7ba6d4276aeaa53e2686f962a46c66d511e590565b600c81036129f057507f0ee0f941e2da4b9e31c3ca97a40d8fa9ce68d97c084177071b3cb46cd3372f0f90565b600d8103612a1d57507f1ca9503e8935884501bbaf20be14eb4c46b89772c97b96e3b2ebf3a36a948bbd90565b600e8103612a4a57507f133a80e30697cd55d8f7d4b0965b7be24057ba5dc3da898ee2187232446cb10890565b600f8103612a7757507f13e6d8fc88839ed76e182c2a779af5b2c0da9dd18c90427a644f7e148a6253b690565b60108103612aa457507f1eb16b057a477f4bc8f572ea6bee39561098f78f15bfb3699dcbb7bd8db6185490565b60118103612ad157507f0da2cb16a1ceaabf1c16b838f7a9e3f2a3a3088d9e0a6debaa748114620696ea90565b60128103612afe57507f24a3b3d822420b14b5d8cb6c28a574f01e98ea9e940551d2ebd75cee12649f9d90565b60138103612b2b57507f198622acbd783d1b0d9064105b1fc8e4d8889de95c4c519b3f635809fe6afc0590565b60148103612b5857507f29d7ed391256ccc3ea596c86e933b89ff339d25ea8ddced975ae2fe30b5296d490565b60158103612b8557507f19be59f2f0413ce78c0c3703a3a5451b1d7f39629fa33abd11548a76065b296790565b60168103612bb257507f1ff3f61797e538b70e619310d33f2a063e7eb59104e112e95738da1254dc345390565b60178103612bdf57507f10c16ae9959cf8358980d9dd9616e48228737310a10e2b6b731c1a548f036c4890565b60188103612c0c57507f0ba433a63174a90ac20992e75e3095496812b652685b5e1a2eae0b1bf4e8fcd190565b60198103612c3957507f019ddb9df2bc98d987d0dfeca9d2b643deafab8f7036562e627c3667266a044c90565b601a8103612c6657507f2d3c88b23175c5a5565db928414c66d1912b11acf974b2e644caaac04739ce9990565b601b8103612c9357507f2eab55f6ae4e66e32c5189eed5c470840863445760f5ed7e7b69b2a62600f35490565b601c8103612cbf57507e2df37a2642621802383cf952bf4dd1f32e05433beeb1fd41031fb7eace979d90565b601d8103612cec57507f104aeb41435db66c3e62feccc1d6f5d98d0a0ed75d1374db457cf462e3a1f42790565b601e8103612d1957507f1f3c6fd858e9a7d4b0d1f38e256a09d81d5a5e3c963987e2d4b814cfab7c6ebb90565b601f03612d44577f2c7a07d20dff79d01fecedc1134284a8d08436606c93693b67e333f671bf69cc90565b60405162461bcd60e51b8152602060048201526013602482015272496e646578206f7574206f6620626f756e647360681b6044820152606490fd5b60011981019190821161229457565b61036b90612db0612daa94936040519586936020850190612621565b90612621565b03601f1981018452836103bc565b63ffffffff165f52600b60205260405f2061ffff6002165f52602052612de660405f20610d82565b80511561259a5781518015612e3e5760021115612e1857604051639a6d49cd60e01b8152806126ec8460048301610c84565b612e3882612e28610477946135dc565b612e328151612d7f565b90613959565b90612d8e565b50905090565b612e6e9163ffffffff610e7192165f52600b60205260405f209061ffff165f5260205260405f2090565b80511561259a5781518015612e3e5760021115612e1857604051639a6d49cd60e01b815260206004820152806126ec6024820185610c60565b60405190612eb482610381565b815f81525f60208201526040612ec86125ec565b910152565b919082604091031261035c57604051612ee5816103a1565b6020808294805184520151910152565b60808183031261035c5760405191612f0c83610381565b8151835260208201516001600160401b038116810361035c576020840152612f3691604001612ecd565b604082015290565b906020909392936040835263ffffffff81511660408401528181015160608401526080612f92612f7c604084015160a08488015260e0870190610c60565b6060840151868203603f190160a0880152610c60565b910151151560c08401526001600160a01b03909416910152565b613015608094926130319694612fc0612ea7565b506020612fcd86516139fe565b950191825180613099575b50612fe2856130a8565b9251151592612ffe612ff26103ed565b63ffffffff9097168752565b602086015260408501526060840152151585830152565b6040518095819482936302637a4560e41b845260048401612f3e565b03917f00000000000000000000000000000000000000000000000000000000000000006001600160a01b03165af1908115610baa575f91613070575090565b610477915060803d608011613092575b61308a81836103bc565b810190612ef5565b503d613080565b6130a290613a1b565b5f612fd8565b63ffffffff16805f52600a60205260405f20549081156130c6575090565b63f6ff4fb760e01b5f5260045260245ffd5b519061036b82610509565b9081604091031261035c576020604051916130fd836103a1565b80518352015161310c81610509565b602082015290565b604051906131236060836103bc565b60238252626c756560e81b6040837f5b434f4e54524143545d204572726f72207472616e7366657272696e6720766160208201520152565b916131699061ffff92611ea7565b94929093915016600181145f146131fe57506131e46131de610d0a6131d06131a5613196611c1198613bd4565b966131a087611c14565b612dbe565b604080518851602080830191909152909801516001600160a01b031690880152959182906060820190565b6131d8611f0a565b90611e8c565b91611c14565b916131ed6103fc565b913483525f60208401523093612fac565b6002141591506132a590505761323e816020807f77ae6ce9ec8d13ef2ad9e1a421dcdf4d3dc41a5c10522a9f17b34af635b526fe945183010191016130e3565b60208101516001600160a01b0316905f808080845160018060a01b0387165af1613266611f1e565b5015613290575b51604080519182526001600160a01b03909216602082015290819081015b0390a1565b6132a061329b613114565b613ad1565b61326d565b63f23fef6f60e01b5f5260045ffd5b6009546001600160a01b031633036132c857565b63118cdaa760e01b5f523360045260245ffd5b6002600454146132ec576002600455565b633ee5aeb560e01b5f5260045ffd5b9060408282031261035c5761047791612ecd565b61336e9260409261331e6125ec565b50613328836130a8565b61333f6133336103ed565b63ffffffff9095168552565b60208401528383015260608201525f6080820152815180938192631bb8518b60e31b8352309060048401612f3e565b03817f00000000000000000000000000000000000000000000000000000000000000006001600160a01b03165afa908115610baa575f916133ad575090565b610477915060403d6040116133cf575b6133c781836103bc565b8101906132fb565b503d6133bd565b91909182516001600160401b03811161039c576133f7816108918454610d4a565b6020601f82116001146134365781906134279394955f9261342b575b50508160011b915f199060031b1c19161790565b9055565b015190505f80613413565b601f19821690613449845f5260205f2090565b915f5b8181106134835750958360019596971061346b575b505050811b019055565b01515f1960f88460031b161c191690555f8080613461565b9192602060018192868b01518155019401920161344c565b602081016020825282518091526040820191602060408360051b8301019401925f915b8383106134cd57505050505090565b9091929394602080613510600193603f19868203018752606060408b5163ffffffff815116845261ffff8682015116868501520151918160408201520190610c60565b970193019301919392906134be565b5f5b81518110156135aa5780613544604061353c60019486611e3d565b5101516135dc565b6135a460406135538386611e3d565b51015163ffffffff6135658487611e3d565b5151165f52600b60205261359f60405f2061358f6020613585878a611e3d565b51015161ffff1690565b61ffff165f5260205260405f2090565b6133d6565b01613521565b5061328b7fbe4864a8e820971c0247f5992e2da559595f7bf076a21cb5928d443d2a13b674916040519182918261349b565b600361ffff600283015116036135ef5750565b604051639a6d49cd60e01b8152602060048201529081906126ec906024830190610c60565b9290600193925b60018211613627575050565b909280820481116122945760018416613647575b80029260011c9061361b565b8094029361363b565b81156136dd5780156136d75780806001146136cf576002146136b45760208210610133821016604e8310600b831016176136a5576136939163ffffffff91613614565b908163ffffffff048111612294570290565b0a9063ffffffff821161229457565b5060ff8111612294576001901b9063ffffffff821161229457565b505050600190565b50505f90565b5050600190565b63ffffffff61047791166002613650565b156136fc57565b60405162461bcd60e51b815260206004820152603060248201527f4d65726b6c6520747265652069732066756c6c2e204e6f206d6f7265206c656160448201526f1d995cc818d85b88189948185919195960821b6064820152608490fd5b63ffffffff60019116019063ffffffff821161229457565b60035460201c63ffffffff16906137b26137a461379b6137965f5463ffffffff1690565b6136e4565b63ffffffff1690565b63ffffffff841614156136f5565b8190915f927f0000000000000000000000000000000000000000000000000000000000000000905b6137eb61379b5f5463ffffffff1690565b63ffffffff86169081101561387b5761385261384563ffffffff9360019361381661379b8a60011690565b61385c5761382482916127ab565b9161383d8b63ffffffff165f52600160205260405f2090565b555b866124a8565b9560011c637fffffff1690565b95011693926137da565b506138758963ffffffff165f52600160205260405f2090565b5461383f565b5092505091506138d96138ab61389e61389960035463ffffffff1690565b61375a565b63ffffffff601e91160690565b6138c58163ffffffff1663ffffffff196003541617600355565b63ffffffff165f52600260205260405f2090565b556104776138e68261375a565b67ffffffff000000006003549160201b169067ffffffff00000000191617600355565b9190820180921161229457565b906139208261040b565b61392d60405191826103bc565b828152809261393e601f199161040b565b0190602036910137565b9081518110156111ef570160200190565b9190825181600201908160021161229457106139c45761397881613916565b905f5b818110613989575090925050565b806139b16139a361399d6001946002613909565b88613948565b516001600160f81b03191690565b5f1a6139bd8286613948565b530161397b565b60405162461bcd60e51b8152602060048201526012602482015271536c696365206f7574206f662072616e676560701b6044820152606490fd5b803403613a085790565b6304fb820960e51b5f523460045260245ffd5b60405163393f876560e21b81527f00000000000000000000000000000000000000000000000000000000000000006001600160a01b03169190602081600481865afa908115610baa575f91613a96575b506001600160a01b0316918215613a875761036b923390613d58565b6329b99a9560e11b5f5260045ffd5b90506020813d602011613ac9575b81613ab1602093836103bc565b8101031261035c5751613ac381610509565b5f613a6b565b3d9150613aa4565b5f8091604051613afd81610d0a602082019463104c13eb60e21b86526020602484018181520190610c60565b51906a636f6e736f6c652e6c6f675afa50565b81601f8201121561035c57805190613b278261040b565b92613b3560405194856103bc565b8284526020838301011161035c57815f9260208093018386015e8301015290565b9080601f8301121561035c578151613b6d81610525565b92613b7b60405194856103bc565b81845260208085019260051b8201019183831161035c5760208201905b838210613ba757505050505090565b81516001600160401b03811161035c57602091613bc987848094880101613b10565b815201910190613b98565b613bdc6125ec565b5080518101602081019160208183031261035c576020810151906001600160401b03821161035c570190610120908290031261035c57613c1a6103dd565b916020820151835260408201516001600160401b03811161035c57816020613c4492850101613b10565b602084019081526060830151926040850193845260808101519160608601928352613c7160a083016130d8565b6080870152613c8260c083016130d8565b60a0870190815260e08301516001600160401b03811161035c57856020613cab92860101613b56565b9060c08801918252613cc061010085016130d8565b9460e08901958652610120850151976001600160401b03891161035c57613cf5613d3d9860206104779b613d30990101613b10565b6101008b0152613d28613d118b515f52600860205260405f2090565b549a5195519151925193516001600160a01b031690565b935194611f99565b516001600160a01b031690565b613d456103fc565b9283526001600160a01b03166020830152565b6040516323b872dd60e01b602082019081526001600160a01b03938416602483015293909216604483015260648083019490945292815291613dc2915f91829190613da46084876103bc565b60018060a01b031694519082865af1613dbb611f1e565b9083613e11565b8051908115159182613df3575b5050613dd85750565b635274afe760e01b5f526001600160a01b031660045260245ffd5b613e0a925090602080610ac0938301019101611e51565b5f80613dcf565b90613e355750805115613e2657805190602001fd5b630a12f52160e11b5f5260045ffd5b81511580613e66575b613e46575090565b639996b31560e01b5f9081526001600160a01b0391909116600452602490fd5b50803b15613e3e56fe30644e72e131a029b85045b68181585d2833e84879b9709143e1f593f0000001a2646970667358221220634d0645bd39ebc850e18a75afc91220bdd9e87f1451a06a0bb3746b775b2d9064736f6c634300081a0033",
    "sourcePath": "/Users/martingrabina/crypto/aleph/commit/packages/hardhat/contracts/useCases/AddressFreeBridge.sol",
    "compiler": {
        "name": "solc",
        "version": "0.8.26+commit.8a97fa7a"
    },
    "functionHashes": {
        "FIELD_SIZE()": "414a37ba",
        "MESSAGE_TYPE_RETURN()": "22dfe769",
        "MESSAGE_TYPE_SEND()": "ffbff809",
        "ROOT_HISTORY_SIZE()": "cd87a3b4",
        "ZERO_VALUE()": "ec732959",
        "allowInitializePath((uint32,bytes32,uint64))": "ff7bd03d",
        "combineOptions(uint32,uint16,bytes)": "bc70b354",
        "commitments(bytes32)": "839df945",
        "consumeBridge(bytes32,bytes,bytes32,bytes32,address,bytes[],uint32,bytes,bytes)": "861d697a",
        "consumeBridgeInCurrentChain(bytes32,bytes,bytes32,bytes32,address,bytes[])": "127e0e1a",
        "consumeCode(bytes32,bytes,bytes32,bytes32,address,bytes[])": "3e7fd3b4",
        "consumeTransfer(bytes32,bytes,bytes32,bytes32,address,bytes[],bool)": "68f1954c",
        "createBridge(bytes32,address[],string)": "1ae175dd",
        "createTransfer(bytes32,address[])": "19196544",
        "currentRootIndex()": "90eeb02b",
        "customCombineOptions(uint32,uint16,bytes)": "f927f7cd",
        "decodeMessage(bytes)": "634d45b2",
        "encodeMessage(bytes,uint16,bytes)": "41dba2f0",
        "endpoint()": "5e280f11",
        "enforcedOptions(uint32,uint16)": "5535d461",
        "filledSubtrees(uint256)": "f178e47c",
        "getLastRoot()": "ba70f757",
        "hashLeftRight(address,bytes32,bytes32)": "8ea3099e",
        "hasher()": "ed33639f",
        "isComposeMsgSender((uint32,bytes32,uint64),bytes,address)": "82413eac",
        "isKnownRoot(bytes32)": "6d9833e3",
        "isSpent(bytes32)": "e5285dcc",
        "isSpentArray(bytes32[])": "9fa12d0b",
        "levels()": "4ecf518b",
        "lzEndpoint()": "b353aaa7",
        "lzReceive((uint32,bytes32,uint64),bytes32,bytes,address,bytes)": "13137d65",
        "metadata(bytes32)": "7122ba06",
        "nextIndex()": "fc7e9c6f",
        "nextNonce(uint32,bytes32)": "7d25a05e",
        "nullifierHashes(bytes32)": "17cc915c",
        "oAppVersion()": "17442b70",
        "owner()": "8da5cb5b",
        "peers(uint32)": "bb0b6a53",
        "quote(bytes32,bytes,bytes32,bytes32,address,bytes[],uint32,bytes,bytes)": "a951b130",
        "renounceOwnership()": "715018a6",
        "roots(uint256)": "c2b40ae4",
        "send(uint32,bytes,bytes)": "0f62773d",
        "setCode(bytes32,address[])": "cc013d85",
        "setDelegate(address)": "ca5eb5e1",
        "setEnforcedOptions((uint32,uint16,bytes)[])": "b98bd070",
        "setPeer(uint32,bytes32)": "3400288b",
        "transferOwnership(address)": "f2fde38b",
        "transferValues(bytes32)": "78c62b66",
        "validationModules(bytes32,uint256)": "838a11fd",
        "verifier()": "2b7ac3f3",
        "zeros(uint256)": "e8295588"
    },
    "gasEstimates": {
        "creation": {
            "codeDepositCost": "3213800",
            "executionCost": "infinite",
            "totalCost": "infinite"
        },
        "external": {
            "FIELD_SIZE()": "431",
            "MESSAGE_TYPE_RETURN()": "311",
            "MESSAGE_TYPE_SEND()": "1253",
            "ROOT_HISTORY_SIZE()": "1037",
            "ZERO_VALUE()": "1103",
            "allowInitializePath((uint32,bytes32,uint64))": "3539",
            "combineOptions(uint32,uint16,bytes)": "infinite",
            "commitments(bytes32)": "2887",
            "consumeBridge(bytes32,bytes,bytes32,bytes32,address,bytes[],uint32,bytes,bytes)": "infinite",
            "consumeBridgeInCurrentChain(bytes32,bytes,bytes32,bytes32,address,bytes[])": "infinite",
            "consumeCode(bytes32,bytes,bytes32,bytes32,address,bytes[])": "infinite",
            "consumeTransfer(bytes32,bytes,bytes32,bytes32,address,bytes[],bool)": "infinite",
            "createBridge(bytes32,address[],string)": "infinite",
            "createTransfer(bytes32,address[])": "infinite",
            "currentRootIndex()": "2904",
            "customCombineOptions(uint32,uint16,bytes)": "infinite",
            "decodeMessage(bytes)": "infinite",
            "encodeMessage(bytes,uint16,bytes)": "infinite",
            "endpoint()": "infinite",
            "enforcedOptions(uint32,uint16)": "infinite",
            "filledSubtrees(uint256)": "3315",
            "getLastRoot()": "5175",
            "hashLeftRight(address,bytes32,bytes32)": "infinite",
            "hasher()": "infinite",
            "isComposeMsgSender((uint32,bytes32,uint64),bytes,address)": "1024",
            "isKnownRoot(bytes32)": "infinite",
            "isSpent(bytes32)": "3254",
            "isSpentArray(bytes32[])": "infinite",
            "levels()": "2551",
            "lzEndpoint()": "infinite",
            "lzReceive((uint32,bytes32,uint64),bytes32,bytes,address,bytes)": "infinite",
            "metadata(bytes32)": "infinite",
            "nextIndex()": "3328",
            "nextNonce(uint32,bytes32)": "696",
            "nullifierHashes(bytes32)": "2425",
            "oAppVersion()": "241",
            "owner()": "2878",
            "peers(uint32)": "3153",
            "quote(bytes32,bytes,bytes32,bytes32,address,bytes[],uint32,bytes,bytes)": "infinite",
            "renounceOwnership()": "28504",
            "roots(uint256)": "3139",
            "send(uint32,bytes,bytes)": "infinite",
            "setCode(bytes32,address[])": "infinite",
            "setDelegate(address)": "infinite",
            "setEnforcedOptions((uint32,uint16,bytes)[])": "infinite",
            "setPeer(uint32,bytes32)": "26093",
            "transferOwnership(address)": "29184",
            "transferValues(bytes32)": "2787",
            "validationModules(bytes32,uint256)": "7235",
            "verifier()": "infinite",
            "zeros(uint256)": "1902"
        },
        "internal": {
            "_lzReceive(struct Origin calldata,bytes32,bytes calldata,address,bytes calldata)": "infinite",
            "consumeBridgeByPayload(bytes memory)": "infinite",
            "sliceBytes(bytes memory,uint256,uint256)": "infinite"
        }
    }
}