{
  "address": "0x537d630b33B2CEE5282231B0A0c5aFB96A63Be19",
  "abi": [
    {
      "inputs": [
        {
          "internalType": "uint256",
          "name": "xL_in",
          "type": "uint256"
        },
        {
          "internalType": "uint256",
          "name": "xR_in",
          "type": "uint256"
        }
      ],
      "name": "MiMCSponge",
      "outputs": [
        {
          "internalType": "uint256",
          "name": "",
          "type": "uint256"
        },
        {
          "internalType": "uint256",
          "name": "",
          "type": "uint256"
        }
      ],
      "stateMutability": "pure",
      "type": "function"
    }
  ],
  "transactionHash": "0x7a53ee1db5a1feaf4aadc52d1ecfb5c01d297948a1da76e24226ae7bc67fa4eb",
  "args": [],
  "numDeployments": 2,
  "solcInputHash": "d7dce6649d111b43e589a19e23ab1c5a",
  "bytecode": "0x60808060405234610016576101b6908161001c8239f35b600080fdfe60406080815260048036101561001457600080fd5b600090813560e01c63f47d33b51461002b57600080fd5b3461017c578260031936011261017c579081356024918235927f0fbe43c36a80e36d7c7c584d4f8f3759fb51f0d66065d8a227b688d12488c5d49183957f30644e72e131a029b85045b68181585d2833e84879b9709143e1f593f0000001809681808880099781869980090990089582945b60db86106100b45789898982519182526020820152f35b60da98959791929394969880891080610173575b1561016157508951602080820192835281528a810181811067ffffffffffffffff82111761014f578b52519020945b90809861013d57828091870891818084800993818895800909900896600019811461012b576001019495939291909561009d565b634e487b7160e01b8552601184528685fd5b634e487b7160e01b8552601284528685fd5b634e487b7160e01b8752604186528887fd5b88969196036100f757945083946100f7565b508815156100c8565b5080fdfea2646970667358221220f543ac0e134d7f4444d5e6e92a6e20c28ba7a11fffaae9a485a6b9b8c1e4d4e864736f6c63430008140033",
  "devdoc": {
    "kind": "dev",
    "methods": {},
    "version": 1
  },
  "userdoc": {
    "kind": "user",
    "methods": {},
    "version": 1
  },
  "storageLayout": {
    "storage": [],
    "types": null
  }
}