{
  "address": "0x331b814A1aDd167927c29D9af93670687fF8145A",
  "abi": [
    {
      "inputs": [
        {
          "internalType": "contract IVerifier",
          "name": "_verifier",
          "type": "address"
        },
        {
          "internalType": "contract IHasher",
          "name": "_hasher",
          "type": "address"
        },
        {
          "internalType": "uint32",
          "name": "_merkleTreeHeight",
          "type": "uint32"
        },
        {
          "internalType": "contract IERC20",
          "name": "_token",
          "type": "address"
        }
      ],
      "stateMutability": "nonpayable",
      "type": "constructor"
    },
    {
      "inputs": [],
      "name": "ReentrancyGuardReentrantCall",
      "type": "error"
    },
    {
      "anonymous": false,
      "inputs": [
        {
          "indexed": false,
          "internalType": "address",
          "name": "to",
          "type": "address"
        },
        {
          "indexed": false,
          "internalType": "bytes32",
          "name": "nullifierHash",
          "type": "bytes32"
        }
      ],
      "name": "ConsumeCode",
      "type": "event"
    },
    {
      "anonymous": false,
      "inputs": [
        {
          "indexed": true,
          "internalType": "bytes32",
          "name": "commitment",
          "type": "bytes32"
        },
        {
          "indexed": false,
          "internalType": "uint32",
          "name": "leafIndex",
          "type": "uint32"
        },
        {
          "indexed": false,
          "internalType": "uint256",
          "name": "timestamp",
          "type": "uint256"
        }
      ],
      "name": "NewCode",
      "type": "event"
    },
    {
      "anonymous": false,
      "inputs": [
        {
          "indexed": false,
          "internalType": "bool",
          "name": "success",
          "type": "bool"
        }
      ],
      "name": "Success",
      "type": "event"
    },
    {
      "inputs": [],
      "name": "FIELD_SIZE",
      "outputs": [
        {
          "internalType": "uint256",
          "name": "",
          "type": "uint256"
        }
      ],
      "stateMutability": "view",
      "type": "function"
    },
    {
      "inputs": [],
      "name": "ROOT_HISTORY_SIZE",
      "outputs": [
        {
          "internalType": "uint32",
          "name": "",
          "type": "uint32"
        }
      ],
      "stateMutability": "view",
      "type": "function"
    },
    {
      "inputs": [
        {
          "internalType": "bytes32",
          "name": "",
          "type": "bytes32"
        }
      ],
      "name": "TransferValues",
      "outputs": [
        {
          "internalType": "uint256",
          "name": "",
          "type": "uint256"
        }
      ],
      "stateMutability": "view",
      "type": "function"
    },
    {
      "inputs": [],
      "name": "ZERO_VALUE",
      "outputs": [
        {
          "internalType": "uint256",
          "name": "",
          "type": "uint256"
        }
      ],
      "stateMutability": "view",
      "type": "function"
    },
    {
      "inputs": [
        {
          "internalType": "bytes32[]",
          "name": "_commitments",
          "type": "bytes32[]"
        },
        {
          "internalType": "bytes[]",
          "name": "_proofs",
          "type": "bytes[]"
        },
        {
          "internalType": "bytes32[]",
          "name": "_roots",
          "type": "bytes32[]"
        },
        {
          "internalType": "bytes32[]",
          "name": "_nullifierHashes",
          "type": "bytes32[]"
        },
        {
          "internalType": "address payable[]",
          "name": "_tos",
          "type": "address[]"
        },
        {
          "internalType": "bytes[]",
          "name": "_validationsArgs",
          "type": "bytes[]"
        }
      ],
      "name": "bulkConsumeGifCard",
      "outputs": [],
      "stateMutability": "nonpayable",
      "type": "function"
    },
    {
      "inputs": [
        {
          "internalType": "bytes32[]",
          "name": "_commitments",
          "type": "bytes32[]"
        },
        {
          "internalType": "address[][]",
          "name": "_validationModules",
          "type": "address[][]"
        },
        {
          "internalType": "uint256[]",
          "name": "_values",
          "type": "uint256[]"
        },
        {
          "internalType": "string[]",
          "name": "_metadata",
          "type": "string[]"
        }
      ],
      "name": "bulkCreateGiftCard",
      "outputs": [],
      "stateMutability": "payable",
      "type": "function"
    },
    {
      "inputs": [
        {
          "internalType": "bytes32",
          "name": "",
          "type": "bytes32"
        }
      ],
      "name": "commitments",
      "outputs": [
        {
          "internalType": "bool",
          "name": "",
          "type": "bool"
        }
      ],
      "stateMutability": "view",
      "type": "function"
    },
    {
      "inputs": [
        {
          "internalType": "bytes32",
          "name": "_commitment",
          "type": "bytes32"
        },
        {
          "internalType": "bytes",
          "name": "_proof",
          "type": "bytes"
        },
        {
          "internalType": "bytes32",
          "name": "_root",
          "type": "bytes32"
        },
        {
          "internalType": "bytes32",
          "name": "_nullifierHash",
          "type": "bytes32"
        },
        {
          "internalType": "address payable",
          "name": "_recipient",
          "type": "address"
        },
        {
          "internalType": "bytes[]",
          "name": "_validationsArgs",
          "type": "bytes[]"
        }
      ],
      "name": "consumeCode",
      "outputs": [],
      "stateMutability": "payable",
      "type": "function"
    },
    {
      "inputs": [
        {
          "internalType": "bytes32",
          "name": "_commitment",
          "type": "bytes32"
        },
        {
          "internalType": "bytes",
          "name": "_proof",
          "type": "bytes"
        },
        {
          "internalType": "bytes32",
          "name": "_root",
          "type": "bytes32"
        },
        {
          "internalType": "bytes32",
          "name": "_nullifierHash",
          "type": "bytes32"
        },
        {
          "internalType": "address payable",
          "name": "_to",
          "type": "address"
        },
        {
          "internalType": "bytes[]",
          "name": "_validationsArgs",
          "type": "bytes[]"
        }
      ],
      "name": "consumeGiftCard",
      "outputs": [],
      "stateMutability": "nonpayable",
      "type": "function"
    },
    {
      "inputs": [
        {
          "internalType": "bytes32",
          "name": "_commitment",
          "type": "bytes32"
        },
        {
          "internalType": "bytes",
          "name": "_proof",
          "type": "bytes"
        },
        {
          "internalType": "bytes32",
          "name": "_root",
          "type": "bytes32"
        },
        {
          "internalType": "bytes32",
          "name": "_nullifierHash",
          "type": "bytes32"
        },
        {
          "internalType": "address payable",
          "name": "_to",
          "type": "address"
        },
        {
          "internalType": "bytes[]",
          "name": "_validationsArgs",
          "type": "bytes[]"
        }
      ],
      "name": "consumeTransfer",
      "outputs": [],
      "stateMutability": "nonpayable",
      "type": "function"
    },
    {
      "inputs": [
        {
          "internalType": "bytes32",
          "name": "_commitment",
          "type": "bytes32"
        },
        {
          "internalType": "address[]",
          "name": "_validationModules",
          "type": "address[]"
        },
        {
          "internalType": "uint256",
          "name": "_value",
          "type": "uint256"
        },
        {
          "internalType": "string",
          "name": "_metadata",
          "type": "string"
        }
      ],
      "name": "createGiftCard",
      "outputs": [],
      "stateMutability": "payable",
      "type": "function"
    },
    {
      "inputs": [
        {
          "internalType": "bytes32",
          "name": "_commitment",
          "type": "bytes32"
        },
        {
          "internalType": "uint256",
          "name": "_value",
          "type": "uint256"
        },
        {
          "internalType": "address[]",
          "name": "_validationModules",
          "type": "address[]"
        }
      ],
      "name": "createTransfer",
      "outputs": [],
      "stateMutability": "payable",
      "type": "function"
    },
    {
      "inputs": [],
      "name": "currentRootIndex",
      "outputs": [
        {
          "internalType": "uint32",
          "name": "",
          "type": "uint32"
        }
      ],
      "stateMutability": "view",
      "type": "function"
    },
    {
      "inputs": [
        {
          "internalType": "uint256",
          "name": "",
          "type": "uint256"
        }
      ],
      "name": "filledSubtrees",
      "outputs": [
        {
          "internalType": "bytes32",
          "name": "",
          "type": "bytes32"
        }
      ],
      "stateMutability": "view",
      "type": "function"
    },
    {
      "inputs": [],
      "name": "getLastRoot",
      "outputs": [
        {
          "internalType": "bytes32",
          "name": "",
          "type": "bytes32"
        }
      ],
      "stateMutability": "view",
      "type": "function"
    },
    {
      "inputs": [
        {
          "internalType": "contract IHasher",
          "name": "_hasher",
          "type": "address"
        },
        {
          "internalType": "bytes32",
          "name": "_left",
          "type": "bytes32"
        },
        {
          "internalType": "bytes32",
          "name": "_right",
          "type": "bytes32"
        }
      ],
      "name": "hashLeftRight",
      "outputs": [
        {
          "internalType": "bytes32",
          "name": "",
          "type": "bytes32"
        }
      ],
      "stateMutability": "pure",
      "type": "function"
    },
    {
      "inputs": [],
      "name": "hasher",
      "outputs": [
        {
          "internalType": "contract IHasher",
          "name": "",
          "type": "address"
        }
      ],
      "stateMutability": "view",
      "type": "function"
    },
    {
      "inputs": [
        {
          "internalType": "bytes32",
          "name": "_root",
          "type": "bytes32"
        }
      ],
      "name": "isKnownRoot",
      "outputs": [
        {
          "internalType": "bool",
          "name": "",
          "type": "bool"
        }
      ],
      "stateMutability": "view",
      "type": "function"
    },
    {
      "inputs": [
        {
          "internalType": "bytes32",
          "name": "_nullifierHash",
          "type": "bytes32"
        }
      ],
      "name": "isSpent",
      "outputs": [
        {
          "internalType": "bool",
          "name": "",
          "type": "bool"
        }
      ],
      "stateMutability": "view",
      "type": "function"
    },
    {
      "inputs": [
        {
          "internalType": "bytes32[]",
          "name": "_nullifierHashes",
          "type": "bytes32[]"
        }
      ],
      "name": "isSpentArray",
      "outputs": [
        {
          "internalType": "bool[]",
          "name": "spent",
          "type": "bool[]"
        }
      ],
      "stateMutability": "view",
      "type": "function"
    },
    {
      "inputs": [],
      "name": "levels",
      "outputs": [
        {
          "internalType": "uint32",
          "name": "",
          "type": "uint32"
        }
      ],
      "stateMutability": "view",
      "type": "function"
    },
    {
      "inputs": [
        {
          "internalType": "bytes32",
          "name": "",
          "type": "bytes32"
        }
      ],
      "name": "metadata",
      "outputs": [
        {
          "internalType": "string",
          "name": "",
          "type": "string"
        }
      ],
      "stateMutability": "view",
      "type": "function"
    },
    {
      "inputs": [],
      "name": "nextIndex",
      "outputs": [
        {
          "internalType": "uint32",
          "name": "",
          "type": "uint32"
        }
      ],
      "stateMutability": "view",
      "type": "function"
    },
    {
      "inputs": [
        {
          "internalType": "bytes32",
          "name": "",
          "type": "bytes32"
        }
      ],
      "name": "nullifierHashes",
      "outputs": [
        {
          "internalType": "bool",
          "name": "",
          "type": "bool"
        }
      ],
      "stateMutability": "view",
      "type": "function"
    },
    {
      "inputs": [
        {
          "internalType": "uint256",
          "name": "",
          "type": "uint256"
        }
      ],
      "name": "roots",
      "outputs": [
        {
          "internalType": "bytes32",
          "name": "",
          "type": "bytes32"
        }
      ],
      "stateMutability": "view",
      "type": "function"
    },
    {
      "inputs": [
        {
          "internalType": "bytes32",
          "name": "_commitment",
          "type": "bytes32"
        },
        {
          "internalType": "address[]",
          "name": "_validationModules",
          "type": "address[]"
        }
      ],
      "name": "setCode",
      "outputs": [],
      "stateMutability": "payable",
      "type": "function"
    },
    {
      "inputs": [],
      "name": "token",
      "outputs": [
        {
          "internalType": "contract IERC20",
          "name": "",
          "type": "address"
        }
      ],
      "stateMutability": "view",
      "type": "function"
    },
    {
      "inputs": [
        {
          "internalType": "bytes32",
          "name": "",
          "type": "bytes32"
        },
        {
          "internalType": "uint256",
          "name": "",
          "type": "uint256"
        }
      ],
      "name": "validationModules",
      "outputs": [
        {
          "internalType": "address",
          "name": "",
          "type": "address"
        }
      ],
      "stateMutability": "view",
      "type": "function"
    },
    {
      "inputs": [],
      "name": "verifier",
      "outputs": [
        {
          "internalType": "contract IVerifier",
          "name": "",
          "type": "address"
        }
      ],
      "stateMutability": "view",
      "type": "function"
    },
    {
      "inputs": [
        {
          "internalType": "uint256",
          "name": "i",
          "type": "uint256"
        }
      ],
      "name": "zeros",
      "outputs": [
        {
          "internalType": "bytes32",
          "name": "",
          "type": "bytes32"
        }
      ],
      "stateMutability": "pure",
      "type": "function"
    }
  ],
  "transactionHash": "0x7c01a8cb5069fe5e589c01e4d5c756ccdb513987a105f257d4dee2f8f0b0115d",
  "args": [
    "0x8adbd2f6bc6519D86F7C259edC7A30804cbc4Ae9",
    "0x3dc846E0100A60940902d56a72743AE01A053237",
    20,
    "0xC0d1855b8D61604F83b87C63a3E94B6511ce37F6"
  ],
  "numDeployments": 1,
  "solcInputHash": "b17a9b8b3fb1b9aac0240a701df694e8",
  "bytecode": "0x60c0604052600380546001600160401b03191690553480156200002157600080fd5b506040516200322838038062003228833981016040819052620000449162000869565b83838383838383808260008263ffffffff1611620000b55760405162461bcd60e51b815260206004820152602360248201527f5f6c6576656c732073686f756c642062652067726561746572207468616e207a60448201526265726f60e81b60648201526084015b60405180910390fd5b60208263ffffffff16106200010d5760405162461bcd60e51b815260206004820152601e60248201527f5f6c6576656c732073686f756c64206265206c657373207468616e20333200006044820152606401620000ac565b6000805463ffffffff191663ffffffff84161781556001600160a01b0382166080525b8263ffffffff168163ffffffff16101562000181576200015663ffffffff821662000207565b63ffffffff8216600090815260016020526040902055806200017881620008ef565b91505062000130565b506200019f6200019360018462000915565b63ffffffff1662000207565b6000805260026020527fac33ff75c19e70fe83507db0d683fd3465c996598dc972688b7ace676c89077b555050600160045550506001600160a01b0390811660a052600880546001600160a01b03191692909116919091179055506200093c95505050505050565b6000816000036200023957507f2fe54c60d3acabf3343a35b6eba15db4821b340f76e741e2249685ed4899af6c919050565b816001036200026957507f256a6135777eee2fd26f54b8b7037a25439d5235caee224154186d2b8a52e31d919050565b816002036200029957507f1151949895e82ab19924de92c40a3d6f7bcb60d92b00504b8199613683f0c200919050565b81600303620002c957507f20121ee811489ff8d61f09fb89e313f14959a0f28bb428a20dba6b0b068b3bdb919050565b81600403620002f957507f0a89ca6ffa14cc462cfedb842c30ed221a50a3d6bf022a6a57dc82ab24c157c9919050565b816005036200032957507f24ca05c2b5cd42e890d6be94c68d0689f4f21c9cec9c0f13fe41d566dfb54959919050565b816006036200035957507f1ccb97c932565a92c60156bdba2d08f3bf1377464e025cee765679e604a7315c919050565b816007036200038957507f19156fbd7d1a8bf5cba8909367de1b624534ebab4f0f79e003bccdd1b182bdb4919050565b81600803620003b957507f261af8c1f0912e465744641409f622d466c3920ac6e5ff37e36604cb11dfff80919050565b81600903620003e857507e58459724ff6ca5a1652fcbc3e82b93895cf08e975b19beab3f54c217d1c007919050565b81600a036200041857507f1f04ef20dee48d39984d8eabe768a70eafa6310ad20849d4573c3c40c2ad1e30919050565b81600b036200044857507f1bea3dec5dab51567ce7e200a30f7ba6d4276aeaa53e2686f962a46c66d511e5919050565b81600c036200047857507f0ee0f941e2da4b9e31c3ca97a40d8fa9ce68d97c084177071b3cb46cd3372f0f919050565b81600d03620004a857507f1ca9503e8935884501bbaf20be14eb4c46b89772c97b96e3b2ebf3a36a948bbd919050565b81600e03620004d857507f133a80e30697cd55d8f7d4b0965b7be24057ba5dc3da898ee2187232446cb108919050565b81600f036200050857507f13e6d8fc88839ed76e182c2a779af5b2c0da9dd18c90427a644f7e148a6253b6919050565b816010036200053857507f1eb16b057a477f4bc8f572ea6bee39561098f78f15bfb3699dcbb7bd8db61854919050565b816011036200056857507f0da2cb16a1ceaabf1c16b838f7a9e3f2a3a3088d9e0a6debaa748114620696ea919050565b816012036200059857507f24a3b3d822420b14b5d8cb6c28a574f01e98ea9e940551d2ebd75cee12649f9d919050565b81601303620005c857507f198622acbd783d1b0d9064105b1fc8e4d8889de95c4c519b3f635809fe6afc05919050565b81601403620005f857507f29d7ed391256ccc3ea596c86e933b89ff339d25ea8ddced975ae2fe30b5296d4919050565b816015036200062857507f19be59f2f0413ce78c0c3703a3a5451b1d7f39629fa33abd11548a76065b2967919050565b816016036200065857507f1ff3f61797e538b70e619310d33f2a063e7eb59104e112e95738da1254dc3453919050565b816017036200068857507f10c16ae9959cf8358980d9dd9616e48228737310a10e2b6b731c1a548f036c48919050565b81601803620006b857507f0ba433a63174a90ac20992e75e3095496812b652685b5e1a2eae0b1bf4e8fcd1919050565b81601903620006e857507f019ddb9df2bc98d987d0dfeca9d2b643deafab8f7036562e627c3667266a044c919050565b81601a036200071857507f2d3c88b23175c5a5565db928414c66d1912b11acf974b2e644caaac04739ce99919050565b81601b036200074857507f2eab55f6ae4e66e32c5189eed5c470840863445760f5ed7e7b69b2a62600f354919050565b81601c036200077757507e2df37a2642621802383cf952bf4dd1f32e05433beeb1fd41031fb7eace979d919050565b81601d03620007a757507f104aeb41435db66c3e62feccc1d6f5d98d0a0ed75d1374db457cf462e3a1f427919050565b81601e03620007d757507f1f3c6fd858e9a7d4b0d1f38e256a09d81d5a5e3c963987e2d4b814cfab7c6ebb919050565b81601f036200080757507f2c7a07d20dff79d01fecedc1134284a8d08436606c93693b67e333f671bf69cc919050565b60405162461bcd60e51b815260206004820152601360248201527f496e646578206f7574206f6620626f756e6473000000000000000000000000006044820152606401620000ac565b6001600160a01b03811681146200086657600080fd5b50565b600080600080608085870312156200088057600080fd5b84516200088d8162000850565b6020860151909450620008a08162000850565b604086015190935063ffffffff81168114620008bb57600080fd5b6060860151909250620008ce8162000850565b939692955090935050565b634e487b7160e01b600052601160045260246000fd5b600063ffffffff8083168181036200090b576200090b620008d9565b6001019392505050565b63ffffffff828116828216039080821115620009355762000935620008d9565b5092915050565b60805160a0516128b8620009706000396000818161023e01526109f80152600081816105bc0152611c9c01526128b86000f3fe6080604052600436106101cd5760003560e01c80638ea3099e116100f7578063cd87a3b411610095578063ed33639f11610064578063ed33639f146105aa578063f178e47c146105de578063fc0c546a1461060b578063fc7e9c6f1461062b57600080fd5b8063cd87a3b414610511578063e5285dcc14610526578063e829558814610556578063ec7329591461057657600080fd5b8063ba70f757116100d1578063ba70f7571461047a578063c2b40ae4146104a4578063c345cc4f146104d1578063cc013d85146104fe57600080fd5b80638ea3099e1461041057806390eeb02b146104305780639fa12d0b1461044d57600080fd5b80634488e5951161016f5780637122ba061161013e5780637122ba0614610373578063838a11fd146103a0578063839df945146103c057806386bdf8a9146103f057600080fd5b80634488e595146102e15780634ecf518b1461030157806365e4af88146103335780636d9833e31461035357600080fd5b8063323020e5116101ab578063323020e5146102785780633e7fd3b41461028b578063414a37ba1461029e5780634346fc55146102ce57600080fd5b806317cc915c146101d257806319da7f78146102175780632b7ac3f31461022c575b600080fd5b3480156101de57600080fd5b506102026101ed366004611d71565b60056020526000908152604090205460ff1681565b60405190151581526020015b60405180910390f35b61022a610225366004611dd5565b610650565b005b34801561023857600080fd5b506102607f000000000000000000000000000000000000000000000000000000000000000081565b6040516001600160a01b03909116815260200161020e565b61022a610286366004611e98565b61085b565b61022a610299366004611f0d565b6108f6565b3480156102aa57600080fd5b506102c060008051602061286383398151915281565b60405190815260200161020e565b61022a6102dc366004611fca565b610c14565b3480156102ed57600080fd5b5061022a6102fc366004611f0d565b610c40565b34801561030d57600080fd5b5060005461031e9063ffffffff1681565b60405163ffffffff909116815260200161020e565b34801561033f57600080fd5b5061022a61034e3660046120b8565b610ce6565b34801561035f57600080fd5b5061020261036e366004611d71565b610f96565b34801561037f57600080fd5b5061039361038e366004611d71565b611014565b60405161020e91906121f5565b3480156103ac57600080fd5b506102606103bb366004612243565b6110ae565b3480156103cc57600080fd5b506102026103db366004611d71565b60066020526000908152604090205460ff1681565b3480156103fc57600080fd5b5061022a61040b366004611f0d565b6110e6565b34801561041c57600080fd5b506102c061042b366004612265565b611134565b34801561043c57600080fd5b5060035461031e9063ffffffff1681565b34801561045957600080fd5b5061046d61046836600461229a565b611301565b60405161020e91906122db565b34801561048657600080fd5b5060035463ffffffff166000908152600260205260409020546102c0565b3480156104b057600080fd5b506102c06104bf366004611d71565b60026020526000908152604090205481565b3480156104dd57600080fd5b506102c06104ec366004611d71565b60096020526000908152604090205481565b61022a61050c366004612321565b6113c6565b34801561051d57600080fd5b5061031e601e81565b34801561053257600080fd5b50610202610541366004611d71565b60009081526005602052604090205460ff1690565b34801561056257600080fd5b506102c0610571366004611d71565b611531565b34801561058257600080fd5b506102c07f2fe54c60d3acabf3343a35b6eba15db4821b340f76e741e2249685ed4899af6c81565b3480156105b657600080fd5b506102607f000000000000000000000000000000000000000000000000000000000000000081565b3480156105ea57600080fd5b506102c06105f9366004611d71565b60016020526000908152604090205481565b34801561061757600080fd5b50600854610260906001600160a01b031681565b34801561063757600080fd5b5060035461031e90640100000000900463ffffffff1681565b8683146106b35760405162461bcd60e51b815260206004820152602660248201527f636f6d6d69746d656e747320616e642076616c756573206c656e677468206d696044820152650e6dac2e8c6d60d31b60648201526084015b60405180910390fd5b8681146107135760405162461bcd60e51b815260206004820152602860248201527f636f6d6d69746d656e747320616e64206d65746164617461206c656e677468206044820152670dad2e6dac2e8c6d60c31b60648201526084016106aa565b86851461077c5760405162461bcd60e51b815260206004820152603160248201527f636f6d6d69746d656e747320616e642076616c69646174696f6e4d6f64756c656044820152700e640d8cadccee8d040dad2e6dac2e8c6d607b1b60648201526084016106aa565b60005b878110156108505761083e89898381811061079c5761079c61236c565b905060200201358888848181106107b5576107b561236c565b90506020028101906107c79190612382565b8888868181106107d9576107d961236c565b905060200201358787878181106107f2576107f261236c565b905060200281019061080491906123cb565b8080601f016020809104026020016040519081016040528093929190818152602001838380828437600092019190915250610c1492505050565b8061084881612427565b91505061077f565b505050505050505050565b6108668483836113c6565b6008546040516323b872dd60e01b8152336004820152306024820152604481018590526001600160a01b03909116906323b872dd906064016020604051808303816000875af11580156108bd573d6000803e3d6000fd5b505050506040513d601f19601f820116820180604052508101906108e19190612440565b50505060009182526009602052604090912055565b6108fe611b54565b60008481526005602052604090205460ff161561095d5760405162461bcd60e51b815260206004820152601f60248201527f546865206e6f746520686173206265656e20616c7265616479207370656e740060448201526064016106aa565b61096685610f96565b6109b25760405162461bcd60e51b815260206004820152601c60248201527f43616e6e6f742066696e6420796f7572206d65726b6c6520726f6f740000000060448201526064016106aa565b6040805160c081018252868152602081018690526001600160a01b03858116828401526000606083018190526080830181905260a0830152915163695ef6f960e01b81527f00000000000000000000000000000000000000000000000000000000000000009092169163695ef6f991610a31918b918b91600401612492565b6020604051808303816000875af1158015610a50573d6000803e3d6000fd5b505050506040513d601f19601f82011682018060405250810190610a749190612440565b610ab95760405162461bcd60e51b815260206004820152601660248201527524b73b30b634b2103bb4ba34323930bb90383937b7b360511b60448201526064016106aa565b60005b600089815260076020526040902054811015610ba3576000898152600760205260409020805482908110610af257610af261236c565b6000918252602090912001546001600160a01b031663c16e50ef848484818110610b1e57610b1e61236c565b9050602002810190610b3091906123cb565b6040518363ffffffff1660e01b8152600401610b4d9291906124da565b6020604051808303816000875af1158015610b6c573d6000803e3d6000fd5b505050506040513d601f19601f82011682018060405250810190610b909190612440565b5080610b9b81612427565b915050610abc565b50600084815260056020908152604091829020805460ff1916600117905581516001600160a01b03861681529081018690527f9ebe94a87e9d85fb44a2b38b11c3b10117eba3fbd045c54a8577bc62540d5d75910160405180910390a1610c0a6001600455565b5050505050505050565b6000858152600a60205260409020610c2c828261257e565b50610c398583868661085b565b5050505050565b610c5088888888888888886108f6565b6000888152600960205260409081902054600854915163a9059cbb60e01b81526001600160a01b038681166004830152602482018390529192919091169063a9059cbb906044016020604051808303816000875af1158015610cb6573d6000803e3d6000fd5b505050506040513d601f19601f82011682018060405250810190610cda9190612440565b50505050505050505050565b8a8914610d445760405162461bcd60e51b815260206004820152602660248201527f636f6d6d69746d656e747320616e642070726f6f6673206c656e677468206d696044820152650e6dac2e8c6d60d31b60648201526084016106aa565b8a8714610da15760405162461bcd60e51b815260206004820152602560248201527f636f6d6d69746d656e747320616e6420726f6f7473206c656e677468206d69736044820152640dac2e8c6d60db1b60648201526084016106aa565b8a8514610e085760405162461bcd60e51b815260206004820152602f60248201527f636f6d6d69746d656e747320616e64206e756c6c69666965724861736865732060448201526e0d8cadccee8d040dad2e6dac2e8c6d608b1b60648201526084016106aa565b8a8314610e635760405162461bcd60e51b815260206004820152602360248201527f636f6d6d69746d656e747320616e6420746f73206c656e677468206d69736d616044820152620e8c6d60eb1b60648201526084016106aa565b8a8114610eca5760405162461bcd60e51b815260206004820152602f60248201527f636f6d6d69746d656e747320616e642076616c69646174696f6e73417267732060448201526e0d8cadccee8d040dad2e6dac2e8c6d608b1b60648201526084016106aa565b60005b8b811015610f8757610f758d8d83818110610eea57610eea61236c565b905060200201358c8c84818110610f0357610f0361236c565b9050602002810190610f1591906123cb565b8c8c86818110610f2757610f2761236c565b905060200201358b8b87818110610f4057610f4061236c565b905060200201358a8a88818110610f5957610f5961236c565b9050602002016020810190610f6e919061263d565b89896110e6565b80610f7f81612427565b915050610ecd565b50505050505050505050505050565b6000818103610fa757506000919050565b60035463ffffffff16805b63ffffffff81166000908152600260205260409020548403610fd8575060019392505050565b8063ffffffff16600003610fea5750601e5b80610ff48161265a565b9150508163ffffffff168163ffffffff1603610fb2575060009392505050565b600a602052600090815260409020805461102d906124f6565b80601f0160208091040260200160405190810160405280929190818152602001828054611059906124f6565b80156110a65780601f1061107b576101008083540402835291602001916110a6565b820191906000526020600020905b81548152906001019060200180831161108957829003601f168201915b505050505081565b600760205281600052604060002081815481106110ca57600080fd5b6000918252602090912001546001600160a01b03169150829050565b6110f68888888888888888610c40565b604051600181527f3b0a8ddef325df2bfdfa6b430ae4c8421841cd135bfa8fb5e432f200787520bb9060200160405180910390a15050505050505050565b600060008051602061286383398151915283106111935760405162461bcd60e51b815260206004820181905260248201527f5f6c6566742073686f756c6420626520696e7369646520746865206669656c6460448201526064016106aa565b60008051602061286383398151915282106111fa5760405162461bcd60e51b815260206004820152602160248201527f5f72696768742073686f756c6420626520696e7369646520746865206669656c6044820152601960fa1b60648201526084016106aa565b60405163f47d33b560e01b81526004810184905260006024820181905284916001600160a01b0387169063f47d33b5906044016040805180830381865afa158015611249573d6000803e3d6000fd5b505050506040513d601f19601f8201168201806040525081019061126d919061267a565b909250905060008051602061286383398151915284830860405163f47d33b560e01b815260048101829052602481018390529092506001600160a01b0387169063f47d33b5906044016040805180830381865afa1580156112d2573d6000803e3d6000fd5b505050506040513d601f19601f820116820180604052508101906112f6919061267a565b509695505050505050565b6060816001600160401b0381111561131b5761131b611fb4565b604051908082528060200260200182016040528015611344578160200160208202803683370190505b50905060005b828110156113bf576113838484838181106113675761136761236c565b9050602002013560009081526005602052604090205460ff1690565b156113ad57600182828151811061139c5761139c61236c565b911515602092830291909101909101525b806113b781612427565b91505061134a565b5092915050565b6113ce611b54565b60008381526006602052604090205460ff16156114375760405162461bcd60e51b815260206004820152602160248201527f54686520636f6d6d69746d656e7420686173206265656e207375626d697474656044820152601960fa1b60648201526084016106aa565b600061144284611b7e565b6000858152600660205260408120805460ff191660011790559091505b828110156114e05760008581526007602052604090208484838181106114875761148761236c565b905060200201602081019061149c919061263d565b81546001810183556000928352602090922090910180546001600160a01b0319166001600160a01b03909216919091179055806114d881612427565b91505061145f565b506040805163ffffffff8316815242602082015285917fee825d3f4d0fa209d8e2a39afe24a21286d8dc103d63061a2ed322db4ce018e3910160405180910390a25061152c6001600455565b505050565b60008160000361156257507f2fe54c60d3acabf3343a35b6eba15db4821b340f76e741e2249685ed4899af6c919050565b8160010361159157507f256a6135777eee2fd26f54b8b7037a25439d5235caee224154186d2b8a52e31d919050565b816002036115c057507f1151949895e82ab19924de92c40a3d6f7bcb60d92b00504b8199613683f0c200919050565b816003036115ef57507f20121ee811489ff8d61f09fb89e313f14959a0f28bb428a20dba6b0b068b3bdb919050565b8160040361161e57507f0a89ca6ffa14cc462cfedb842c30ed221a50a3d6bf022a6a57dc82ab24c157c9919050565b8160050361164d57507f24ca05c2b5cd42e890d6be94c68d0689f4f21c9cec9c0f13fe41d566dfb54959919050565b8160060361167c57507f1ccb97c932565a92c60156bdba2d08f3bf1377464e025cee765679e604a7315c919050565b816007036116ab57507f19156fbd7d1a8bf5cba8909367de1b624534ebab4f0f79e003bccdd1b182bdb4919050565b816008036116da57507f261af8c1f0912e465744641409f622d466c3920ac6e5ff37e36604cb11dfff80919050565b8160090361170857507e58459724ff6ca5a1652fcbc3e82b93895cf08e975b19beab3f54c217d1c007919050565b81600a0361173757507f1f04ef20dee48d39984d8eabe768a70eafa6310ad20849d4573c3c40c2ad1e30919050565b81600b0361176657507f1bea3dec5dab51567ce7e200a30f7ba6d4276aeaa53e2686f962a46c66d511e5919050565b81600c0361179557507f0ee0f941e2da4b9e31c3ca97a40d8fa9ce68d97c084177071b3cb46cd3372f0f919050565b81600d036117c457507f1ca9503e8935884501bbaf20be14eb4c46b89772c97b96e3b2ebf3a36a948bbd919050565b81600e036117f357507f133a80e30697cd55d8f7d4b0965b7be24057ba5dc3da898ee2187232446cb108919050565b81600f0361182257507f13e6d8fc88839ed76e182c2a779af5b2c0da9dd18c90427a644f7e148a6253b6919050565b8160100361185157507f1eb16b057a477f4bc8f572ea6bee39561098f78f15bfb3699dcbb7bd8db61854919050565b8160110361188057507f0da2cb16a1ceaabf1c16b838f7a9e3f2a3a3088d9e0a6debaa748114620696ea919050565b816012036118af57507f24a3b3d822420b14b5d8cb6c28a574f01e98ea9e940551d2ebd75cee12649f9d919050565b816013036118de57507f198622acbd783d1b0d9064105b1fc8e4d8889de95c4c519b3f635809fe6afc05919050565b8160140361190d57507f29d7ed391256ccc3ea596c86e933b89ff339d25ea8ddced975ae2fe30b5296d4919050565b8160150361193c57507f19be59f2f0413ce78c0c3703a3a5451b1d7f39629fa33abd11548a76065b2967919050565b8160160361196b57507f1ff3f61797e538b70e619310d33f2a063e7eb59104e112e95738da1254dc3453919050565b8160170361199a57507f10c16ae9959cf8358980d9dd9616e48228737310a10e2b6b731c1a548f036c48919050565b816018036119c957507f0ba433a63174a90ac20992e75e3095496812b652685b5e1a2eae0b1bf4e8fcd1919050565b816019036119f857507f019ddb9df2bc98d987d0dfeca9d2b643deafab8f7036562e627c3667266a044c919050565b81601a03611a2757507f2d3c88b23175c5a5565db928414c66d1912b11acf974b2e644caaac04739ce99919050565b81601b03611a5657507f2eab55f6ae4e66e32c5189eed5c470840863445760f5ed7e7b69b2a62600f354919050565b81601c03611a8457507e2df37a2642621802383cf952bf4dd1f32e05433beeb1fd41031fb7eace979d919050565b81601d03611ab357507f104aeb41435db66c3e62feccc1d6f5d98d0a0ed75d1374db457cf462e3a1f427919050565b81601e03611ae257507f1f3c6fd858e9a7d4b0d1f38e256a09d81d5a5e3c963987e2d4b814cfab7c6ebb919050565b81601f03611b1157507f2c7a07d20dff79d01fecedc1134284a8d08436606c93693b67e333f671bf69cc919050565b60405162461bcd60e51b8152602060048201526013602482015272496e646578206f7574206f6620626f756e647360681b60448201526064016106aa565b919050565b600260045403611b7757604051633ee5aeb560e01b815260040160405180910390fd5b6002600455565b60035460008054909163ffffffff640100000000909104811691611ba4911660026127c7565b63ffffffff168163ffffffff1603611c175760405162461bcd60e51b815260206004820152603060248201527f4d65726b6c6520747265652069732066756c6c2e204e6f206d6f7265206c656160448201526f1d995cc818d85b88189948185919195960821b60648201526084016106aa565b8083600080805b60005463ffffffff9081169082161015611ce357611c3d6002866127dc565b63ffffffff16600003611c7b57839250611c5c8163ffffffff16611531565b63ffffffff821660009081526001602052604090208590559150611c97565b63ffffffff811660009081526001602052604090205492508391505b611cc27f00000000000000000000000000000000000000000000000000000000000000008484611134565b9350611ccf6002866127ff565b945080611cdb81612822565b915050611c1e565b50600354600090601e90611cfe9063ffffffff166001612845565b611d0891906127dc565b6003805463ffffffff191663ffffffff831690811790915560009081526002602052604090208590559050611d3e866001612845565b6003805463ffffffff929092166401000000000267ffffffff000000001990921691909117905550939695505050505050565b600060208284031215611d8357600080fd5b5035919050565b60008083601f840112611d9c57600080fd5b5081356001600160401b03811115611db357600080fd5b6020830191508360208260051b8501011115611dce57600080fd5b9250929050565b6000806000806000806000806080898b031215611df157600080fd5b88356001600160401b0380821115611e0857600080fd5b611e148c838d01611d8a565b909a50985060208b0135915080821115611e2d57600080fd5b611e398c838d01611d8a565b909850965060408b0135915080821115611e5257600080fd5b611e5e8c838d01611d8a565b909650945060608b0135915080821115611e7757600080fd5b50611e848b828c01611d8a565b999c989b5096995094979396929594505050565b60008060008060608587031215611eae57600080fd5b843593506020850135925060408501356001600160401b03811115611ed257600080fd5b611ede87828801611d8a565b95989497509550505050565b6001600160a01b0381168114611eff57600080fd5b50565b8035611b4f81611eea565b60008060008060008060008060c0898b031215611f2957600080fd5b8835975060208901356001600160401b0380821115611f4757600080fd5b818b0191508b601f830112611f5b57600080fd5b813581811115611f6a57600080fd5b8c6020828501011115611f7c57600080fd5b602083019950975060408b0135965060608b01359550611f9e60808c01611f02565b945060a08b0135915080821115611e7757600080fd5b634e487b7160e01b600052604160045260246000fd5b600080600080600060808688031215611fe257600080fd5b8535945060208601356001600160401b038082111561200057600080fd5b61200c89838a01611d8a565b909650945060408801359350606088013591508082111561202c57600080fd5b818801915088601f83011261204057600080fd5b81358181111561205257612052611fb4565b604051601f8201601f19908116603f0116810190838211818310171561207a5761207a611fb4565b816040528281528b602084870101111561209357600080fd5b8260208601602083013760006020848301015280955050505050509295509295909350565b60008060008060008060008060008060008060c08d8f0312156120da57600080fd5b6001600160401b038d3511156120ef57600080fd5b6120fc8e8e358f01611d8a565b909c509a506001600160401b0360208e0135111561211957600080fd5b6121298e60208f01358f01611d8a565b909a5098506001600160401b0360408e0135111561214657600080fd5b6121568e60408f01358f01611d8a565b90985096506001600160401b0360608e0135111561217357600080fd5b6121838e60608f01358f01611d8a565b90965094506001600160401b0360808e013511156121a057600080fd5b6121b08e60808f01358f01611d8a565b90945092506001600160401b0360a08e013511156121cd57600080fd5b6121dd8e60a08f01358f01611d8a565b81935080925050509295989b509295989b509295989b565b600060208083528351808285015260005b8181101561222257858101830151858201604001528201612206565b506000604082860101526040601f19601f8301168501019250505092915050565b6000806040838503121561225657600080fd5b50508035926020909101359150565b60008060006060848603121561227a57600080fd5b833561228581611eea565b95602085013595506040909401359392505050565b600080602083850312156122ad57600080fd5b82356001600160401b038111156122c357600080fd5b6122cf85828601611d8a565b90969095509350505050565b6020808252825182820181905260009190848201906040850190845b818110156123155783511515835292840192918401916001016122f7565b50909695505050505050565b60008060006040848603121561233657600080fd5b8335925060208401356001600160401b0381111561235357600080fd5b61235f86828701611d8a565b9497909650939450505050565b634e487b7160e01b600052603260045260246000fd5b6000808335601e1984360301811261239957600080fd5b8301803591506001600160401b038211156123b357600080fd5b6020019150600581901b3603821315611dce57600080fd5b6000808335601e198436030181126123e257600080fd5b8301803591506001600160401b038211156123fc57600080fd5b602001915036819003821315611dce57600080fd5b634e487b7160e01b600052601160045260246000fd5b60006001820161243957612439612411565b5060010190565b60006020828403121561245257600080fd5b8151801515811461246257600080fd5b9392505050565b81835281816020850137506000828201602090810191909152601f909101601f19169091010190565b60e0815260006124a660e083018587612469565b905060208083018460005b60068110156124ce578151835291830191908301906001016124b1565b50505050949350505050565b6020815260006124ee602083018486612469565b949350505050565b600181811c9082168061250a57607f821691505b60208210810361252a57634e487b7160e01b600052602260045260246000fd5b50919050565b601f82111561152c57600081815260208120601f850160051c810160208610156125575750805b601f850160051c820191505b8181101561257657828155600101612563565b505050505050565b81516001600160401b0381111561259757612597611fb4565b6125ab816125a584546124f6565b84612530565b602080601f8311600181146125e057600084156125c85750858301515b600019600386901b1c1916600185901b178555612576565b600085815260208120601f198616915b8281101561260f578886015182559484019460019091019084016125f0565b508582101561262d5787850151600019600388901b60f8161c191681555b5050505050600190811b01905550565b60006020828403121561264f57600080fd5b813561246281611eea565b600063ffffffff82168061267057612670612411565b6000190192915050565b6000806040838503121561268d57600080fd5b505080516020909101519092909150565b634e487b7160e01b600052601260045260246000fd5b600181815b808511156126f1578163ffffffff048211156126d7576126d7612411565b808516156126e457918102915b93841c93908002906126b9565b509250929050565b600082612708575060016127c1565b81612715575060006127c1565b816001811461272b576002811461273557612766565b60019150506127c1565b60ff84111561274657612746612411565b6001841b915063ffffffff82111561276057612760612411565b506127c1565b5060208310610133831016604e8410600b841016171561279d575081810a63ffffffff81111561279857612798612411565b6127c1565b6127a783836126b4565b8063ffffffff048211156127bd576127bd612411565b0290505b92915050565b600063ffffffff6124ee8185168285166126f9565b600063ffffffff808416806127f3576127f361269e565b92169190910692915050565b600063ffffffff808416806128165761281661269e565b92169190910492915050565b600063ffffffff80831681810361283b5761283b612411565b6001019392505050565b63ffffffff8181168382160190808211156113bf576113bf61241156fe30644e72e131a029b85045b68181585d2833e84879b9709143e1f593f0000001a2646970667358221220fd81bc3bddf3d77ced919dd37f988631c4b553100582492ddb8fb73aca7f47b564736f6c63430008140033",
  "devdoc": {
    "errors": {
      "ReentrancyGuardReentrantCall()": [
        {
          "details": "Unauthorized reentrant call."
        }
      ]
    },
    "kind": "dev",
    "methods": {
      "consumeCode(bytes32,bytes,bytes32,bytes32,address,bytes[])": {
        "details": "Consume a code from the contract. `proof` is a zkSNARK proof data, and input is an array of circuit public inputs `input` array consists of: - merkle root of all codes in the contract - hash of unique codes nullifier to prevent double spends - the recipient of funds - optional fee that goes to the transaction sender (usually a relay)"
      },
      "getLastRoot()": {
        "details": "Returns the last root"
      },
      "hashLeftRight(address,bytes32,bytes32)": {
        "details": "Hash 2 tree leaves, returns MiMC(_left, _right)"
      },
      "isKnownRoot(bytes32)": {
        "details": "Whether the root is present in the root history"
      },
      "isSpent(bytes32)": {
        "details": "whether a note is already spent "
      },
      "isSpentArray(bytes32[])": {
        "details": "whether an array of notes is already spent "
      },
      "setCode(bytes32,address[])": {
        "details": "Set new code.",
        "params": {
          "_commitment": "the note commitment, which is PedersenHash(nullifier + secret)"
        }
      },
      "zeros(uint256)": {
        "details": "provides Zero (Empty) elements for a MiMC MerkleTree. Up to 32 levels"
      }
    },
    "version": 1
  },
  "userdoc": {
    "kind": "user",
    "methods": {},
    "version": 1
  },
  "storageLayout": {
    "storage": [
      {
        "astId": 583,
        "contract": "contracts/useCases/GiftCards.sol:GiftCards",
        "label": "levels",
        "offset": 0,
        "slot": "0",
        "type": "t_uint32"
      },
      {
        "astId": 587,
        "contract": "contracts/useCases/GiftCards.sol:GiftCards",
        "label": "filledSubtrees",
        "offset": 0,
        "slot": "1",
        "type": "t_mapping(t_uint256,t_bytes32)"
      },
      {
        "astId": 591,
        "contract": "contracts/useCases/GiftCards.sol:GiftCards",
        "label": "roots",
        "offset": 0,
        "slot": "2",
        "type": "t_mapping(t_uint256,t_bytes32)"
      },
      {
        "astId": 597,
        "contract": "contracts/useCases/GiftCards.sol:GiftCards",
        "label": "currentRootIndex",
        "offset": 0,
        "slot": "3",
        "type": "t_uint32"
      },
      {
        "astId": 600,
        "contract": "contracts/useCases/GiftCards.sol:GiftCards",
        "label": "nextIndex",
        "offset": 4,
        "slot": "3",
        "type": "t_uint32"
      },
      {
        "astId": 88,
        "contract": "contracts/useCases/GiftCards.sol:GiftCards",
        "label": "_status",
        "offset": 0,
        "slot": "4",
        "type": "t_uint256"
      },
      {
        "astId": 174,
        "contract": "contracts/useCases/GiftCards.sol:GiftCards",
        "label": "nullifierHashes",
        "offset": 0,
        "slot": "5",
        "type": "t_mapping(t_bytes32,t_bool)"
      },
      {
        "astId": 178,
        "contract": "contracts/useCases/GiftCards.sol:GiftCards",
        "label": "commitments",
        "offset": 0,
        "slot": "6",
        "type": "t_mapping(t_bytes32,t_bool)"
      },
      {
        "astId": 183,
        "contract": "contracts/useCases/GiftCards.sol:GiftCards",
        "label": "validationModules",
        "offset": 0,
        "slot": "7",
        "type": "t_mapping(t_bytes32,t_array(t_address)dyn_storage)"
      },
      {
        "astId": 452,
        "contract": "contracts/useCases/GiftCards.sol:GiftCards",
        "label": "token",
        "offset": 0,
        "slot": "8",
        "type": "t_contract(IERC20)77"
      },
      {
        "astId": 456,
        "contract": "contracts/useCases/GiftCards.sol:GiftCards",
        "label": "TransferValues",
        "offset": 0,
        "slot": "9",
        "type": "t_mapping(t_bytes32,t_uint256)"
      },
      {
        "astId": 1249,
        "contract": "contracts/useCases/GiftCards.sol:GiftCards",
        "label": "metadata",
        "offset": 0,
        "slot": "10",
        "type": "t_mapping(t_bytes32,t_string_storage)"
      }
    ],
    "types": {
      "t_address": {
        "encoding": "inplace",
        "label": "address",
        "numberOfBytes": "20"
      },
      "t_array(t_address)dyn_storage": {
        "base": "t_address",
        "encoding": "dynamic_array",
        "label": "address[]",
        "numberOfBytes": "32"
      },
      "t_bool": {
        "encoding": "inplace",
        "label": "bool",
        "numberOfBytes": "1"
      },
      "t_bytes32": {
        "encoding": "inplace",
        "label": "bytes32",
        "numberOfBytes": "32"
      },
      "t_contract(IERC20)77": {
        "encoding": "inplace",
        "label": "contract IERC20",
        "numberOfBytes": "20"
      },
      "t_mapping(t_bytes32,t_array(t_address)dyn_storage)": {
        "encoding": "mapping",
        "key": "t_bytes32",
        "label": "mapping(bytes32 => address[])",
        "numberOfBytes": "32",
        "value": "t_array(t_address)dyn_storage"
      },
      "t_mapping(t_bytes32,t_bool)": {
        "encoding": "mapping",
        "key": "t_bytes32",
        "label": "mapping(bytes32 => bool)",
        "numberOfBytes": "32",
        "value": "t_bool"
      },
      "t_mapping(t_bytes32,t_string_storage)": {
        "encoding": "mapping",
        "key": "t_bytes32",
        "label": "mapping(bytes32 => string)",
        "numberOfBytes": "32",
        "value": "t_string_storage"
      },
      "t_mapping(t_bytes32,t_uint256)": {
        "encoding": "mapping",
        "key": "t_bytes32",
        "label": "mapping(bytes32 => uint256)",
        "numberOfBytes": "32",
        "value": "t_uint256"
      },
      "t_mapping(t_uint256,t_bytes32)": {
        "encoding": "mapping",
        "key": "t_uint256",
        "label": "mapping(uint256 => bytes32)",
        "numberOfBytes": "32",
        "value": "t_bytes32"
      },
      "t_string_storage": {
        "encoding": "bytes",
        "label": "string",
        "numberOfBytes": "32"
      },
      "t_uint256": {
        "encoding": "inplace",
        "label": "uint256",
        "numberOfBytes": "32"
      },
      "t_uint32": {
        "encoding": "inplace",
        "label": "uint32",
        "numberOfBytes": "4"
      }
    }
  }
}