{
  "address": "0x1F05766E172c12A690329B46Ec89783F0C35678a",
  "abi": [
    {
      "inputs": [
        {
          "internalType": "contract IVerifier",
          "name": "_verifier",
          "type": "address"
        },
        {
          "internalType": "contract IHasher",
          "name": "_hasher",
          "type": "address"
        },
        {
          "internalType": "uint32",
          "name": "_merkleTreeHeight",
          "type": "uint32"
        },
        {
          "internalType": "address",
          "name": "_lzEndpoint",
          "type": "address"
        },
        {
          "internalType": "address",
          "name": "_lzExecutor",
          "type": "address"
        }
      ],
      "stateMutability": "nonpayable",
      "type": "constructor"
    },
    {
      "inputs": [
        {
          "internalType": "address",
          "name": "target",
          "type": "address"
        }
      ],
      "name": "AddressEmptyCode",
      "type": "error"
    },
    {
      "inputs": [
        {
          "internalType": "address",
          "name": "account",
          "type": "address"
        }
      ],
      "name": "AddressInsufficientBalance",
      "type": "error"
    },
    {
      "inputs": [],
      "name": "FailedInnerCall",
      "type": "error"
    },
    {
      "inputs": [],
      "name": "InvalidDelegate",
      "type": "error"
    },
    {
      "inputs": [],
      "name": "InvalidEndpointCall",
      "type": "error"
    },
    {
      "inputs": [],
      "name": "InvalidMsgType",
      "type": "error"
    },
    {
      "inputs": [
        {
          "internalType": "bytes",
          "name": "options",
          "type": "bytes"
        }
      ],
      "name": "InvalidOptions",
      "type": "error"
    },
    {
      "inputs": [],
      "name": "LzTokenUnavailable",
      "type": "error"
    },
    {
      "inputs": [
        {
          "internalType": "uint32",
          "name": "eid",
          "type": "uint32"
        }
      ],
      "name": "NoPeer",
      "type": "error"
    },
    {
      "inputs": [
        {
          "internalType": "uint256",
          "name": "msgValue",
          "type": "uint256"
        }
      ],
      "name": "NotEnoughNative",
      "type": "error"
    },
    {
      "inputs": [
        {
          "internalType": "address",
          "name": "addr",
          "type": "address"
        }
      ],
      "name": "OnlyEndpoint",
      "type": "error"
    },
    {
      "inputs": [
        {
          "internalType": "uint32",
          "name": "eid",
          "type": "uint32"
        },
        {
          "internalType": "bytes32",
          "name": "sender",
          "type": "bytes32"
        }
      ],
      "name": "OnlyPeer",
      "type": "error"
    },
    {
      "inputs": [
        {
          "internalType": "address",
          "name": "owner",
          "type": "address"
        }
      ],
      "name": "OwnableInvalidOwner",
      "type": "error"
    },
    {
      "inputs": [
        {
          "internalType": "address",
          "name": "account",
          "type": "address"
        }
      ],
      "name": "OwnableUnauthorizedAccount",
      "type": "error"
    },
    {
      "inputs": [],
      "name": "ReentrancyGuardReentrantCall",
      "type": "error"
    },
    {
      "inputs": [
        {
          "internalType": "address",
          "name": "token",
          "type": "address"
        }
      ],
      "name": "SafeERC20FailedOperation",
      "type": "error"
    },
    {
      "anonymous": false,
      "inputs": [
        {
          "indexed": false,
          "internalType": "bytes32",
          "name": "commitment",
          "type": "bytes32"
        },
        {
          "indexed": false,
          "internalType": "address",
          "name": "to",
          "type": "address"
        }
      ],
      "name": "BridgeConsumed",
      "type": "event"
    },
    {
      "anonymous": false,
      "inputs": [
        {
          "indexed": false,
          "internalType": "bytes32",
          "name": "commitment",
          "type": "bytes32"
        },
        {
          "indexed": false,
          "internalType": "string",
          "name": "metadata",
          "type": "string"
        }
      ],
      "name": "BridgeCreated",
      "type": "event"
    },
    {
      "anonymous": false,
      "inputs": [
        {
          "indexed": false,
          "internalType": "address",
          "name": "to",
          "type": "address"
        },
        {
          "indexed": false,
          "internalType": "bytes32",
          "name": "nullifierHash",
          "type": "bytes32"
        }
      ],
      "name": "ConsumeCode",
      "type": "event"
    },
    {
      "anonymous": false,
      "inputs": [
        {
          "components": [
            {
              "internalType": "uint32",
              "name": "eid",
              "type": "uint32"
            },
            {
              "internalType": "uint16",
              "name": "msgType",
              "type": "uint16"
            },
            {
              "internalType": "bytes",
              "name": "options",
              "type": "bytes"
            }
          ],
          "indexed": false,
          "internalType": "struct EnforcedOptionParam[]",
          "name": "_enforcedOptions",
          "type": "tuple[]"
        }
      ],
      "name": "EnforcedOptionSet",
      "type": "event"
    },
    {
      "anonymous": false,
      "inputs": [
        {
          "indexed": false,
          "internalType": "bytes",
          "name": "message",
          "type": "bytes"
        },
        {
          "indexed": false,
          "internalType": "uint32",
          "name": "senderEid",
          "type": "uint32"
        },
        {
          "indexed": false,
          "internalType": "bytes32",
          "name": "sender",
          "type": "bytes32"
        }
      ],
      "name": "MessageReceived",
      "type": "event"
    },
    {
      "anonymous": false,
      "inputs": [
        {
          "indexed": false,
          "internalType": "bytes",
          "name": "message",
          "type": "bytes"
        },
        {
          "indexed": false,
          "internalType": "uint32",
          "name": "dstEid",
          "type": "uint32"
        }
      ],
      "name": "MessageSent",
      "type": "event"
    },
    {
      "anonymous": false,
      "inputs": [
        {
          "indexed": true,
          "internalType": "bytes32",
          "name": "commitment",
          "type": "bytes32"
        },
        {
          "indexed": false,
          "internalType": "uint32",
          "name": "leafIndex",
          "type": "uint32"
        },
        {
          "indexed": false,
          "internalType": "uint256",
          "name": "timestamp",
          "type": "uint256"
        }
      ],
      "name": "NewCode",
      "type": "event"
    },
    {
      "anonymous": false,
      "inputs": [
        {
          "indexed": true,
          "internalType": "address",
          "name": "previousOwner",
          "type": "address"
        },
        {
          "indexed": true,
          "internalType": "address",
          "name": "newOwner",
          "type": "address"
        }
      ],
      "name": "OwnershipTransferred",
      "type": "event"
    },
    {
      "anonymous": false,
      "inputs": [
        {
          "indexed": false,
          "internalType": "uint32",
          "name": "eid",
          "type": "uint32"
        },
        {
          "indexed": false,
          "internalType": "bytes32",
          "name": "peer",
          "type": "bytes32"
        }
      ],
      "name": "PeerSet",
      "type": "event"
    },
    {
      "anonymous": false,
      "inputs": [
        {
          "indexed": false,
          "internalType": "bytes",
          "name": "message",
          "type": "bytes"
        },
        {
          "indexed": false,
          "internalType": "uint32",
          "name": "dstEid",
          "type": "uint32"
        }
      ],
      "name": "ReturnMessageSent",
      "type": "event"
    },
    {
      "anonymous": false,
      "inputs": [
        {
          "indexed": false,
          "internalType": "bool",
          "name": "success",
          "type": "bool"
        }
      ],
      "name": "Success",
      "type": "event"
    },
    {
      "anonymous": false,
      "inputs": [
        {
          "indexed": false,
          "internalType": "uint256",
          "name": "value",
          "type": "uint256"
        },
        {
          "indexed": false,
          "internalType": "address",
          "name": "to",
          "type": "address"
        }
      ],
      "name": "ValueTransferred",
      "type": "event"
    },
    {
      "inputs": [],
      "name": "FIELD_SIZE",
      "outputs": [
        {
          "internalType": "uint256",
          "name": "",
          "type": "uint256"
        }
      ],
      "stateMutability": "view",
      "type": "function"
    },
    {
      "inputs": [],
      "name": "MESSAGE_TYPE_RETURN",
      "outputs": [
        {
          "internalType": "uint16",
          "name": "",
          "type": "uint16"
        }
      ],
      "stateMutability": "view",
      "type": "function"
    },
    {
      "inputs": [],
      "name": "MESSAGE_TYPE_SEND",
      "outputs": [
        {
          "internalType": "uint16",
          "name": "",
          "type": "uint16"
        }
      ],
      "stateMutability": "view",
      "type": "function"
    },
    {
      "inputs": [],
      "name": "ROOT_HISTORY_SIZE",
      "outputs": [
        {
          "internalType": "uint32",
          "name": "",
          "type": "uint32"
        }
      ],
      "stateMutability": "view",
      "type": "function"
    },
    {
      "inputs": [],
      "name": "ZERO_VALUE",
      "outputs": [
        {
          "internalType": "uint256",
          "name": "",
          "type": "uint256"
        }
      ],
      "stateMutability": "view",
      "type": "function"
    },
    {
      "inputs": [
        {
          "components": [
            {
              "internalType": "uint32",
              "name": "srcEid",
              "type": "uint32"
            },
            {
              "internalType": "bytes32",
              "name": "sender",
              "type": "bytes32"
            },
            {
              "internalType": "uint64",
              "name": "nonce",
              "type": "uint64"
            }
          ],
          "internalType": "struct Origin",
          "name": "origin",
          "type": "tuple"
        }
      ],
      "name": "allowInitializePath",
      "outputs": [
        {
          "internalType": "bool",
          "name": "",
          "type": "bool"
        }
      ],
      "stateMutability": "view",
      "type": "function"
    },
    {
      "inputs": [
        {
          "internalType": "uint32",
          "name": "_eid",
          "type": "uint32"
        },
        {
          "internalType": "uint16",
          "name": "_msgType",
          "type": "uint16"
        },
        {
          "internalType": "bytes",
          "name": "_extraOptions",
          "type": "bytes"
        }
      ],
      "name": "combineOptions",
      "outputs": [
        {
          "internalType": "bytes",
          "name": "",
          "type": "bytes"
        }
      ],
      "stateMutability": "view",
      "type": "function"
    },
    {
      "inputs": [
        {
          "internalType": "bytes32",
          "name": "",
          "type": "bytes32"
        }
      ],
      "name": "commitments",
      "outputs": [
        {
          "internalType": "bool",
          "name": "",
          "type": "bool"
        }
      ],
      "stateMutability": "view",
      "type": "function"
    },
    {
      "inputs": [
        {
          "internalType": "bytes32",
          "name": "_commitment",
          "type": "bytes32"
        },
        {
          "internalType": "bytes",
          "name": "_proof",
          "type": "bytes"
        },
        {
          "internalType": "bytes32",
          "name": "_root",
          "type": "bytes32"
        },
        {
          "internalType": "bytes32",
          "name": "_nullifierHash",
          "type": "bytes32"
        },
        {
          "internalType": "address payable",
          "name": "_to",
          "type": "address"
        },
        {
          "internalType": "bytes[]",
          "name": "_validationsArgs",
          "type": "bytes[]"
        },
        {
          "internalType": "uint32",
          "name": "_dstEid",
          "type": "uint32"
        },
        {
          "internalType": "bytes",
          "name": "_options",
          "type": "bytes"
        },
        {
          "internalType": "bytes",
          "name": "_returnOptions",
          "type": "bytes"
        }
      ],
      "name": "consumeBridge",
      "outputs": [],
      "stateMutability": "payable",
      "type": "function"
    },
    {
      "inputs": [
        {
          "internalType": "bytes32",
          "name": "_commitment",
          "type": "bytes32"
        },
        {
          "internalType": "bytes",
          "name": "_proof",
          "type": "bytes"
        },
        {
          "internalType": "bytes32",
          "name": "_root",
          "type": "bytes32"
        },
        {
          "internalType": "bytes32",
          "name": "_nullifierHash",
          "type": "bytes32"
        },
        {
          "internalType": "address payable",
          "name": "_to",
          "type": "address"
        },
        {
          "internalType": "bytes[]",
          "name": "_validationsArgs",
          "type": "bytes[]"
        }
      ],
      "name": "consumeBridgeInCurrentChain",
      "outputs": [],
      "stateMutability": "nonpayable",
      "type": "function"
    },
    {
      "inputs": [
        {
          "internalType": "bytes32",
          "name": "_commitment",
          "type": "bytes32"
        },
        {
          "internalType": "bytes",
          "name": "_proof",
          "type": "bytes"
        },
        {
          "internalType": "bytes32",
          "name": "_root",
          "type": "bytes32"
        },
        {
          "internalType": "bytes32",
          "name": "_nullifierHash",
          "type": "bytes32"
        },
        {
          "internalType": "address payable",
          "name": "_recipient",
          "type": "address"
        },
        {
          "internalType": "bytes[]",
          "name": "_validationsArgs",
          "type": "bytes[]"
        }
      ],
      "name": "consumeCode",
      "outputs": [],
      "stateMutability": "payable",
      "type": "function"
    },
    {
      "inputs": [
        {
          "internalType": "bytes32",
          "name": "_commitment",
          "type": "bytes32"
        },
        {
          "internalType": "bytes",
          "name": "_proof",
          "type": "bytes"
        },
        {
          "internalType": "bytes32",
          "name": "_root",
          "type": "bytes32"
        },
        {
          "internalType": "bytes32",
          "name": "_nullifierHash",
          "type": "bytes32"
        },
        {
          "internalType": "address payable",
          "name": "_to",
          "type": "address"
        },
        {
          "internalType": "bytes[]",
          "name": "_validationsArgs",
          "type": "bytes[]"
        },
        {
          "internalType": "bool",
          "name": "transfer",
          "type": "bool"
        }
      ],
      "name": "consumeTransfer",
      "outputs": [],
      "stateMutability": "nonpayable",
      "type": "function"
    },
    {
      "inputs": [
        {
          "internalType": "bytes32",
          "name": "_commitment",
          "type": "bytes32"
        },
        {
          "internalType": "address[]",
          "name": "_validationModules",
          "type": "address[]"
        },
        {
          "internalType": "string",
          "name": "_metadata",
          "type": "string"
        }
      ],
      "name": "createBridge",
      "outputs": [],
      "stateMutability": "payable",
      "type": "function"
    },
    {
      "inputs": [
        {
          "internalType": "bytes32",
          "name": "_commitment",
          "type": "bytes32"
        },
        {
          "internalType": "address[]",
          "name": "_validationModules",
          "type": "address[]"
        }
      ],
      "name": "createTransfer",
      "outputs": [],
      "stateMutability": "payable",
      "type": "function"
    },
    {
      "inputs": [],
      "name": "currentRootIndex",
      "outputs": [
        {
          "internalType": "uint32",
          "name": "",
          "type": "uint32"
        }
      ],
      "stateMutability": "view",
      "type": "function"
    },
    {
      "inputs": [
        {
          "internalType": "uint32",
          "name": "_eid",
          "type": "uint32"
        },
        {
          "internalType": "uint16",
          "name": "_msgType",
          "type": "uint16"
        },
        {
          "internalType": "bytes",
          "name": "_extraOptions",
          "type": "bytes"
        }
      ],
      "name": "customCombineOptions",
      "outputs": [
        {
          "internalType": "bytes",
          "name": "",
          "type": "bytes"
        }
      ],
      "stateMutability": "view",
      "type": "function"
    },
    {
      "inputs": [
        {
          "internalType": "bytes",
          "name": "encodedMessage",
          "type": "bytes"
        }
      ],
      "name": "decodeMessage",
      "outputs": [
        {
          "internalType": "uint16",
          "name": "msgType",
          "type": "uint16"
        },
        {
          "internalType": "uint256",
          "name": "extraOptionsLength",
          "type": "uint256"
        },
        {
          "internalType": "bytes",
          "name": "options",
          "type": "bytes"
        },
        {
          "internalType": "bytes",
          "name": "payload",
          "type": "bytes"
        }
      ],
      "stateMutability": "pure",
      "type": "function"
    },
    {
      "inputs": [
        {
          "internalType": "bytes",
          "name": "_payload",
          "type": "bytes"
        },
        {
          "internalType": "uint16",
          "name": "_msgType",
          "type": "uint16"
        },
        {
          "internalType": "bytes",
          "name": "_extraReturnOptions",
          "type": "bytes"
        }
      ],
      "name": "encodeMessage",
      "outputs": [
        {
          "internalType": "bytes",
          "name": "",
          "type": "bytes"
        }
      ],
      "stateMutability": "pure",
      "type": "function"
    },
    {
      "inputs": [],
      "name": "endpoint",
      "outputs": [
        {
          "internalType": "contract ILayerZeroEndpointV2",
          "name": "",
          "type": "address"
        }
      ],
      "stateMutability": "view",
      "type": "function"
    },
    {
      "inputs": [
        {
          "internalType": "uint32",
          "name": "eid",
          "type": "uint32"
        },
        {
          "internalType": "uint16",
          "name": "msgType",
          "type": "uint16"
        }
      ],
      "name": "enforcedOptions",
      "outputs": [
        {
          "internalType": "bytes",
          "name": "enforcedOption",
          "type": "bytes"
        }
      ],
      "stateMutability": "view",
      "type": "function"
    },
    {
      "inputs": [
        {
          "internalType": "uint256",
          "name": "",
          "type": "uint256"
        }
      ],
      "name": "filledSubtrees",
      "outputs": [
        {
          "internalType": "bytes32",
          "name": "",
          "type": "bytes32"
        }
      ],
      "stateMutability": "view",
      "type": "function"
    },
    {
      "inputs": [],
      "name": "getLastRoot",
      "outputs": [
        {
          "internalType": "bytes32",
          "name": "",
          "type": "bytes32"
        }
      ],
      "stateMutability": "view",
      "type": "function"
    },
    {
      "inputs": [
        {
          "internalType": "contract IHasher",
          "name": "_hasher",
          "type": "address"
        },
        {
          "internalType": "bytes32",
          "name": "_left",
          "type": "bytes32"
        },
        {
          "internalType": "bytes32",
          "name": "_right",
          "type": "bytes32"
        }
      ],
      "name": "hashLeftRight",
      "outputs": [
        {
          "internalType": "bytes32",
          "name": "",
          "type": "bytes32"
        }
      ],
      "stateMutability": "pure",
      "type": "function"
    },
    {
      "inputs": [],
      "name": "hasher",
      "outputs": [
        {
          "internalType": "contract IHasher",
          "name": "",
          "type": "address"
        }
      ],
      "stateMutability": "view",
      "type": "function"
    },
    {
      "inputs": [
        {
          "components": [
            {
              "internalType": "uint32",
              "name": "srcEid",
              "type": "uint32"
            },
            {
              "internalType": "bytes32",
              "name": "sender",
              "type": "bytes32"
            },
            {
              "internalType": "uint64",
              "name": "nonce",
              "type": "uint64"
            }
          ],
          "internalType": "struct Origin",
          "name": "",
          "type": "tuple"
        },
        {
          "internalType": "bytes",
          "name": "",
          "type": "bytes"
        },
        {
          "internalType": "address",
          "name": "_sender",
          "type": "address"
        }
      ],
      "name": "isComposeMsgSender",
      "outputs": [
        {
          "internalType": "bool",
          "name": "",
          "type": "bool"
        }
      ],
      "stateMutability": "view",
      "type": "function"
    },
    {
      "inputs": [
        {
          "internalType": "bytes32",
          "name": "_root",
          "type": "bytes32"
        }
      ],
      "name": "isKnownRoot",
      "outputs": [
        {
          "internalType": "bool",
          "name": "",
          "type": "bool"
        }
      ],
      "stateMutability": "view",
      "type": "function"
    },
    {
      "inputs": [
        {
          "internalType": "bytes32",
          "name": "_nullifierHash",
          "type": "bytes32"
        }
      ],
      "name": "isSpent",
      "outputs": [
        {
          "internalType": "bool",
          "name": "",
          "type": "bool"
        }
      ],
      "stateMutability": "view",
      "type": "function"
    },
    {
      "inputs": [
        {
          "internalType": "bytes32[]",
          "name": "_nullifierHashes",
          "type": "bytes32[]"
        }
      ],
      "name": "isSpentArray",
      "outputs": [
        {
          "internalType": "bool[]",
          "name": "spent",
          "type": "bool[]"
        }
      ],
      "stateMutability": "view",
      "type": "function"
    },
    {
      "inputs": [],
      "name": "levels",
      "outputs": [
        {
          "internalType": "uint32",
          "name": "",
          "type": "uint32"
        }
      ],
      "stateMutability": "view",
      "type": "function"
    },
    {
      "inputs": [],
      "name": "lzEndpoint",
      "outputs": [
        {
          "internalType": "address",
          "name": "",
          "type": "address"
        }
      ],
      "stateMutability": "view",
      "type": "function"
    },
    {
      "inputs": [
        {
          "components": [
            {
              "internalType": "uint32",
              "name": "srcEid",
              "type": "uint32"
            },
            {
              "internalType": "bytes32",
              "name": "sender",
              "type": "bytes32"
            },
            {
              "internalType": "uint64",
              "name": "nonce",
              "type": "uint64"
            }
          ],
          "internalType": "struct Origin",
          "name": "_origin",
          "type": "tuple"
        },
        {
          "internalType": "bytes32",
          "name": "_guid",
          "type": "bytes32"
        },
        {
          "internalType": "bytes",
          "name": "_message",
          "type": "bytes"
        },
        {
          "internalType": "address",
          "name": "_executor",
          "type": "address"
        },
        {
          "internalType": "bytes",
          "name": "_extraData",
          "type": "bytes"
        }
      ],
      "name": "lzReceive",
      "outputs": [],
      "stateMutability": "payable",
      "type": "function"
    },
    {
      "inputs": [
        {
          "internalType": "bytes32",
          "name": "",
          "type": "bytes32"
        }
      ],
      "name": "metadata",
      "outputs": [
        {
          "internalType": "string",
          "name": "",
          "type": "string"
        }
      ],
      "stateMutability": "view",
      "type": "function"
    },
    {
      "inputs": [],
      "name": "nextIndex",
      "outputs": [
        {
          "internalType": "uint32",
          "name": "",
          "type": "uint32"
        }
      ],
      "stateMutability": "view",
      "type": "function"
    },
    {
      "inputs": [
        {
          "internalType": "uint32",
          "name": "",
          "type": "uint32"
        },
        {
          "internalType": "bytes32",
          "name": "",
          "type": "bytes32"
        }
      ],
      "name": "nextNonce",
      "outputs": [
        {
          "internalType": "uint64",
          "name": "nonce",
          "type": "uint64"
        }
      ],
      "stateMutability": "view",
      "type": "function"
    },
    {
      "inputs": [
        {
          "internalType": "bytes32",
          "name": "",
          "type": "bytes32"
        }
      ],
      "name": "nullifierHashes",
      "outputs": [
        {
          "internalType": "bool",
          "name": "",
          "type": "bool"
        }
      ],
      "stateMutability": "view",
      "type": "function"
    },
    {
      "inputs": [],
      "name": "oAppVersion",
      "outputs": [
        {
          "internalType": "uint64",
          "name": "senderVersion",
          "type": "uint64"
        },
        {
          "internalType": "uint64",
          "name": "receiverVersion",
          "type": "uint64"
        }
      ],
      "stateMutability": "pure",
      "type": "function"
    },
    {
      "inputs": [],
      "name": "owner",
      "outputs": [
        {
          "internalType": "address",
          "name": "",
          "type": "address"
        }
      ],
      "stateMutability": "view",
      "type": "function"
    },
    {
      "inputs": [
        {
          "internalType": "uint32",
          "name": "eid",
          "type": "uint32"
        }
      ],
      "name": "peers",
      "outputs": [
        {
          "internalType": "bytes32",
          "name": "peer",
          "type": "bytes32"
        }
      ],
      "stateMutability": "view",
      "type": "function"
    },
    {
      "inputs": [
        {
          "internalType": "bytes32",
          "name": "_commitment",
          "type": "bytes32"
        },
        {
          "internalType": "bytes",
          "name": "_proof",
          "type": "bytes"
        },
        {
          "internalType": "bytes32",
          "name": "_root",
          "type": "bytes32"
        },
        {
          "internalType": "bytes32",
          "name": "_nullifierHash",
          "type": "bytes32"
        },
        {
          "internalType": "address payable",
          "name": "_to",
          "type": "address"
        },
        {
          "internalType": "bytes[]",
          "name": "_validationsArgs",
          "type": "bytes[]"
        },
        {
          "internalType": "uint32",
          "name": "_dstEid",
          "type": "uint32"
        },
        {
          "internalType": "bytes",
          "name": "_options",
          "type": "bytes"
        },
        {
          "internalType": "bytes",
          "name": "_returnOptions",
          "type": "bytes"
        }
      ],
      "name": "quote",
      "outputs": [
        {
          "components": [
            {
              "internalType": "uint256",
              "name": "nativeFee",
              "type": "uint256"
            },
            {
              "internalType": "uint256",
              "name": "lzTokenFee",
              "type": "uint256"
            }
          ],
          "internalType": "struct MessagingFee",
          "name": "fee",
          "type": "tuple"
        }
      ],
      "stateMutability": "view",
      "type": "function"
    },
    {
      "inputs": [],
      "name": "renounceOwnership",
      "outputs": [],
      "stateMutability": "nonpayable",
      "type": "function"
    },
    {
      "inputs": [
        {
          "internalType": "uint256",
          "name": "",
          "type": "uint256"
        }
      ],
      "name": "roots",
      "outputs": [
        {
          "internalType": "bytes32",
          "name": "",
          "type": "bytes32"
        }
      ],
      "stateMutability": "view",
      "type": "function"
    },
    {
      "inputs": [
        {
          "internalType": "uint32",
          "name": "_dstEid",
          "type": "uint32"
        },
        {
          "internalType": "bytes",
          "name": "_payload",
          "type": "bytes"
        },
        {
          "internalType": "bytes",
          "name": "_options",
          "type": "bytes"
        }
      ],
      "name": "send",
      "outputs": [],
      "stateMutability": "payable",
      "type": "function"
    },
    {
      "inputs": [
        {
          "internalType": "bytes32",
          "name": "_commitment",
          "type": "bytes32"
        },
        {
          "internalType": "address[]",
          "name": "_validationModules",
          "type": "address[]"
        }
      ],
      "name": "setCode",
      "outputs": [],
      "stateMutability": "payable",
      "type": "function"
    },
    {
      "inputs": [
        {
          "internalType": "address",
          "name": "_delegate",
          "type": "address"
        }
      ],
      "name": "setDelegate",
      "outputs": [],
      "stateMutability": "nonpayable",
      "type": "function"
    },
    {
      "inputs": [
        {
          "components": [
            {
              "internalType": "uint32",
              "name": "eid",
              "type": "uint32"
            },
            {
              "internalType": "uint16",
              "name": "msgType",
              "type": "uint16"
            },
            {
              "internalType": "bytes",
              "name": "options",
              "type": "bytes"
            }
          ],
          "internalType": "struct EnforcedOptionParam[]",
          "name": "_enforcedOptions",
          "type": "tuple[]"
        }
      ],
      "name": "setEnforcedOptions",
      "outputs": [],
      "stateMutability": "nonpayable",
      "type": "function"
    },
    {
      "inputs": [
        {
          "internalType": "uint32",
          "name": "_eid",
          "type": "uint32"
        },
        {
          "internalType": "bytes32",
          "name": "_peer",
          "type": "bytes32"
        }
      ],
      "name": "setPeer",
      "outputs": [],
      "stateMutability": "nonpayable",
      "type": "function"
    },
    {
      "inputs": [
        {
          "internalType": "address",
          "name": "newOwner",
          "type": "address"
        }
      ],
      "name": "transferOwnership",
      "outputs": [],
      "stateMutability": "nonpayable",
      "type": "function"
    },
    {
      "inputs": [
        {
          "internalType": "bytes32",
          "name": "",
          "type": "bytes32"
        }
      ],
      "name": "transferValues",
      "outputs": [
        {
          "internalType": "uint256",
          "name": "",
          "type": "uint256"
        }
      ],
      "stateMutability": "view",
      "type": "function"
    },
    {
      "inputs": [
        {
          "internalType": "bytes32",
          "name": "",
          "type": "bytes32"
        },
        {
          "internalType": "uint256",
          "name": "",
          "type": "uint256"
        }
      ],
      "name": "validationModules",
      "outputs": [
        {
          "internalType": "address",
          "name": "",
          "type": "address"
        }
      ],
      "stateMutability": "view",
      "type": "function"
    },
    {
      "inputs": [],
      "name": "verifier",
      "outputs": [
        {
          "internalType": "contract IVerifier",
          "name": "",
          "type": "address"
        }
      ],
      "stateMutability": "view",
      "type": "function"
    },
    {
      "inputs": [
        {
          "internalType": "uint256",
          "name": "i",
          "type": "uint256"
        }
      ],
      "name": "zeros",
      "outputs": [
        {
          "internalType": "bytes32",
          "name": "",
          "type": "bytes32"
        }
      ],
      "stateMutability": "pure",
      "type": "function"
    },
    {
      "stateMutability": "payable",
      "type": "receive"
    }
  ],
  "transactionHash": "0x4b99ff75260d8300bf07f1415d11982b88c9b148670ce193c8316182585a98e8",
  "args": [
    "0x4Bba2d07Bff41F188Ae8279402445556685Ec64A",
    "0xe5941240a4fA52aD2402B49Ed0e1b94a35DaaB76",
    20,
    "0x6EDCE65403992e310A62460808c4b910D972f10f",
    "0xEB71ed911e4dFc35Da80103a72fE983C8c709F33"
  ],
  "numDeployments": 1,
  "solcInputHash": "9a4520b3e8e67bd927beafeaa18d7e2c",
  "bytecode": "0x610100604052600380546001600160401b03191690553480156200002257600080fd5b506040516200517f3803806200517f83398101604081905262000045916200097b565b8181818133898989828282808260008263ffffffff1611620000ba5760405162461bcd60e51b815260206004820152602360248201527f5f6c6576656c732073686f756c642062652067726561746572207468616e207a60448201526265726f60e81b60648201526084015b60405180910390fd5b60208263ffffffff1610620001125760405162461bcd60e51b815260206004820152601e60248201527f5f6c6576656c732073686f756c64206265206c657373207468616e20333200006044820152606401620000b1565b6000805463ffffffff191663ffffffff84161781556001600160a01b0382166080525b8263ffffffff168163ffffffff16101562000186576200015b63ffffffff8216620002c7565b63ffffffff8216600090815260016020526040902055806200017d8162000a19565b91505062000135565b50620001a46200019860018462000a3f565b63ffffffff16620002c7565b6000805260026020527fac33ff75c19e70fe83507db0d683fd3465c996598dc972688b7ace676c89077b555050600160045550506001600160a01b0390811660a052841692506200020f91505057604051631e4fbdf760e01b815260006004820152602401620000b1565b6200021a8162000910565b506001600160a01b0380831660c05281166200024957604051632d618d8160e21b815260040160405180910390fd5b60c05160405163ca5eb5e160e01b81526001600160a01b0383811660048301529091169063ca5eb5e190602401600060405180830381600087803b1580156200029157600080fd5b505af1158015620002a6573d6000803e3d6000fd5b5050506001600160a01b0390961660e0525062000a66975050505050505050565b600081600003620002f957507f2fe54c60d3acabf3343a35b6eba15db4821b340f76e741e2249685ed4899af6c919050565b816001036200032957507f256a6135777eee2fd26f54b8b7037a25439d5235caee224154186d2b8a52e31d919050565b816002036200035957507f1151949895e82ab19924de92c40a3d6f7bcb60d92b00504b8199613683f0c200919050565b816003036200038957507f20121ee811489ff8d61f09fb89e313f14959a0f28bb428a20dba6b0b068b3bdb919050565b81600403620003b957507f0a89ca6ffa14cc462cfedb842c30ed221a50a3d6bf022a6a57dc82ab24c157c9919050565b81600503620003e957507f24ca05c2b5cd42e890d6be94c68d0689f4f21c9cec9c0f13fe41d566dfb54959919050565b816006036200041957507f1ccb97c932565a92c60156bdba2d08f3bf1377464e025cee765679e604a7315c919050565b816007036200044957507f19156fbd7d1a8bf5cba8909367de1b624534ebab4f0f79e003bccdd1b182bdb4919050565b816008036200047957507f261af8c1f0912e465744641409f622d466c3920ac6e5ff37e36604cb11dfff80919050565b81600903620004a857507e58459724ff6ca5a1652fcbc3e82b93895cf08e975b19beab3f54c217d1c007919050565b81600a03620004d857507f1f04ef20dee48d39984d8eabe768a70eafa6310ad20849d4573c3c40c2ad1e30919050565b81600b036200050857507f1bea3dec5dab51567ce7e200a30f7ba6d4276aeaa53e2686f962a46c66d511e5919050565b81600c036200053857507f0ee0f941e2da4b9e31c3ca97a40d8fa9ce68d97c084177071b3cb46cd3372f0f919050565b81600d036200056857507f1ca9503e8935884501bbaf20be14eb4c46b89772c97b96e3b2ebf3a36a948bbd919050565b81600e036200059857507f133a80e30697cd55d8f7d4b0965b7be24057ba5dc3da898ee2187232446cb108919050565b81600f03620005c857507f13e6d8fc88839ed76e182c2a779af5b2c0da9dd18c90427a644f7e148a6253b6919050565b81601003620005f857507f1eb16b057a477f4bc8f572ea6bee39561098f78f15bfb3699dcbb7bd8db61854919050565b816011036200062857507f0da2cb16a1ceaabf1c16b838f7a9e3f2a3a3088d9e0a6debaa748114620696ea919050565b816012036200065857507f24a3b3d822420b14b5d8cb6c28a574f01e98ea9e940551d2ebd75cee12649f9d919050565b816013036200068857507f198622acbd783d1b0d9064105b1fc8e4d8889de95c4c519b3f635809fe6afc05919050565b81601403620006b857507f29d7ed391256ccc3ea596c86e933b89ff339d25ea8ddced975ae2fe30b5296d4919050565b81601503620006e857507f19be59f2f0413ce78c0c3703a3a5451b1d7f39629fa33abd11548a76065b2967919050565b816016036200071857507f1ff3f61797e538b70e619310d33f2a063e7eb59104e112e95738da1254dc3453919050565b816017036200074857507f10c16ae9959cf8358980d9dd9616e48228737310a10e2b6b731c1a548f036c48919050565b816018036200077857507f0ba433a63174a90ac20992e75e3095496812b652685b5e1a2eae0b1bf4e8fcd1919050565b81601903620007a857507f019ddb9df2bc98d987d0dfeca9d2b643deafab8f7036562e627c3667266a044c919050565b81601a03620007d857507f2d3c88b23175c5a5565db928414c66d1912b11acf974b2e644caaac04739ce99919050565b81601b036200080857507f2eab55f6ae4e66e32c5189eed5c470840863445760f5ed7e7b69b2a62600f354919050565b81601c036200083757507e2df37a2642621802383cf952bf4dd1f32e05433beeb1fd41031fb7eace979d919050565b81601d036200086757507f104aeb41435db66c3e62feccc1d6f5d98d0a0ed75d1374db457cf462e3a1f427919050565b81601e036200089757507f1f3c6fd858e9a7d4b0d1f38e256a09d81d5a5e3c963987e2d4b814cfab7c6ebb919050565b81601f03620008c757507f2c7a07d20dff79d01fecedc1134284a8d08436606c93693b67e333f671bf69cc919050565b60405162461bcd60e51b815260206004820152601360248201527f496e646578206f7574206f6620626f756e6473000000000000000000000000006044820152606401620000b1565b600980546001600160a01b038381166001600160a01b0319831681179093556040519116919082907f8be0079c531659141344cd1fd0a4f28419497f9722a3daafe3b4186f6b6457e090600090a35050565b6001600160a01b03811681146200097857600080fd5b50565b600080600080600060a086880312156200099457600080fd5b8551620009a18162000962565b6020870151909550620009b48162000962565b604087015190945063ffffffff81168114620009cf57600080fd5b6060870151909350620009e28162000962565b6080870151909250620009f58162000962565b809150509295509295909350565b634e487b7160e01b600052601160045260246000fd5b600063ffffffff80831681810362000a355762000a3562000a03565b6001019392505050565b63ffffffff82811682821603908082111562000a5f5762000a5f62000a03565b5092915050565b60805160a05160c05160e0516146a762000ad860003960006107b501526000818161053101528181610b1c015281816119550152818161232c0152818161277501528181612cb40152612d6d0152600081816104030152610dc50152600081816109790152612aa601526146a76000f3fe6080604052600436106102e85760003560e01c8063839df94511610190578063ca5eb5e1116100dc578063ed33639f11610095578063f927f7cd1161006f578063f927f7cd146109e8578063fc7e9c6f14610a08578063ff7bd03d14610a2d578063ffbff80914610a4d57600080fd5b8063ed33639f14610967578063f178e47c1461099b578063f2fde38b146109c857600080fd5b8063ca5eb5e11461089b578063cc013d85146108bb578063cd87a3b4146108ce578063e5285dcc146108e3578063e829558814610913578063ec7329591461093357600080fd5b8063a951b13011610149578063ba70f75711610123578063ba70f757146107f7578063bb0b6a5314610821578063bc70b3541461084e578063c2b40ae41461086e57600080fd5b8063a951b13014610768578063b353aaa7146107a3578063b98bd070146107d757600080fd5b8063839df9451461069d578063861d697a146106cd5780638da5cb5b146106e05780638ea3099e146106fe57806390eeb02b1461071e5780639fa12d0b1461073b57600080fd5b806341dba2f01161024f5780636d9833e31161020857806378c62b66116101e257806378c62b66146105f85780637d25a05e1461062557806382413eac1461065d578063838a11fd1461067d57600080fd5b80636d9833e3146105a35780637122ba06146105c3578063715018a6146105e357600080fd5b806341dba2f0146104a05780634ecf518b146104cd5780635535d461146104ff5780635e280f111461051f578063634d45b21461055357806368f1954c1461058357600080fd5b80631ae175dd116102a15780631ae175dd146103b657806322dfe769146103c95780632b7ac3f3146103f15780633400288b1461043d5780633e7fd3b41461045d578063414a37ba1461047057600080fd5b80630f62773d146102f4578063127e0e1a1461030957806313137d651461032957806317442b701461033c57806317cc915c1461036357806319196544146103a357600080fd5b366102ef57005b600080fd5b6103076103023660046131cc565b610a62565b005b34801561031557600080fd5b50610307610324366004613304565b610ac1565b6103076103373660046133af565b610b1a565b34801561034857600080fd5b50604080516001815260026020820152015b60405180910390f35b34801561036f57600080fd5b5061039361037e36600461344e565b60056020526000908152604090205460ff1681565b604051901515815260200161035a565b6103076103b13660046134ab565b610bda565b6103076103c43660046134f6565b610c4a565b3480156103d557600080fd5b506103de600281565b60405161ffff909116815260200161035a565b3480156103fd57600080fd5b506104257f000000000000000000000000000000000000000000000000000000000000000081565b6040516001600160a01b03909116815260200161035a565b34801561044957600080fd5b5061030761045836600461357c565b610cad565b61030761046b366004613304565b610cc3565b34801561047c57600080fd5b5061049260008051602061465283398151915281565b60405190815260200161035a565b3480156104ac57600080fd5b506104c06104bb3660046135b8565b610fd9565b60405161035a919061367b565b3480156104d957600080fd5b506000546104ea9063ffffffff1681565b60405163ffffffff909116815260200161035a565b34801561050b57600080fd5b506104c061051a36600461368e565b611016565b34801561052b57600080fd5b506104257f000000000000000000000000000000000000000000000000000000000000000081565b34801561055f57600080fd5b5061057361056e3660046136c1565b6110bb565b60405161035a9493929190613702565b34801561058f57600080fd5b5061030761059e366004613745565b6110df565b3480156105af57600080fd5b506103936105be36600461344e565b6111b5565b3480156105cf57600080fd5b506104c06105de36600461344e565b611233565b3480156105ef57600080fd5b5061030761124c565b34801561060457600080fd5b5061049261061336600461344e565b60086020526000908152604090205481565b34801561063157600080fd5b5061064561064036600461357c565b611260565b6040516001600160401b03909116815260200161035a565b34801561066957600080fd5b506103936106783660046137ee565b611269565b34801561068957600080fd5b50610425610698366004613854565b61127e565b3480156106a957600080fd5b506103936106b836600461344e565b60066020526000908152604090205460ff1681565b6103076106db366004613876565b6112b6565b3480156106ec57600080fd5b506009546001600160a01b0316610425565b34801561070a57600080fd5b50610492610719366004613967565b6113d2565b34801561072a57600080fd5b506003546104ea9063ffffffff1681565b34801561074757600080fd5b5061075b61075636600461399c565b61159f565b60405161035a91906139d1565b34801561077457600080fd5b50610788610783366004613876565b611664565b6040805182518152602092830151928101929092520161035a565b3480156107af57600080fd5b506104257f000000000000000000000000000000000000000000000000000000000000000081565b3480156107e357600080fd5b506103076107f236600461399c565b61176c565b34801561080357600080fd5b5060035463ffffffff16600090815260026020526040902054610492565b34801561082d57600080fd5b5061049261083c366004613a17565b600a6020526000908152604090205481565b34801561085a57600080fd5b506104c0610869366004613a32565b611786565b34801561087a57600080fd5b5061049261088936600461344e565b60026020526000908152604090205481565b3480156108a757600080fd5b506103076108b6366004613a86565b61192e565b6103076108c93660046134ab565b6119ad565b3480156108da57600080fd5b506104ea601e81565b3480156108ef57600080fd5b506103936108fe36600461344e565b60009081526005602052604090205460ff1690565b34801561091f57600080fd5b5061049261092e36600461344e565b611b18565b34801561093f57600080fd5b506104927f2fe54c60d3acabf3343a35b6eba15db4821b340f76e741e2249685ed4899af6c81565b34801561097357600080fd5b506104257f000000000000000000000000000000000000000000000000000000000000000081565b3480156109a757600080fd5b506104926109b636600461344e565b60016020526000908152604090205481565b3480156109d457600080fd5b506103076109e3366004613a86565b61213b565b3480156109f457600080fd5b506104c0610a03366004613aa3565b612179565b348015610a1457600080fd5b506003546104ea90640100000000900463ffffffff1681565b348015610a3957600080fd5b50610393610a48366004613af6565b6122c3565b348015610a5957600080fd5b506103de600181565b610aba848484848080601f016020809104026020016040519081016040528093929190818152602001838380828437600092018290525060408051808201909152348152602081019190915292503391506122f99050565b5050505050565b610ad186868686868660006110df565b604080518781526001600160a01b03841660208201527fe92815e88dd6d93ad707b5ecf02fd9fe6fd8d0dcabe866a19e5647ed31279f97910160405180910390a1505050505050565b7f00000000000000000000000000000000000000000000000000000000000000006001600160a01b03163314610b6a576040516391ac5e4f60e01b81523360048201526024015b60405180910390fd5b60208701803590610b8490610b7f908a613a17565b612404565b14610bc257610b966020880188613a17565b60405163309afaf360e21b815263ffffffff909116600482015260208801356024820152604401610b61565b610bd187878787878787612440565b50505050505050565b610be58383836119ad565b60003411610c355760405162461bcd60e51b815260206004820152601e60248201527f76616c75652073686f756c642062652067726561746572207468616e203000006044820152606401610b61565b50506000908152600860205260409020349055565b6000848152600c60205260409020610c628282613b8c565b50610c6e848484610bda565b7f77f016974fc6d516ed632ba03b4d79917b6e9702e700b1b6079e54bfd8b4d2518482604051610c9f929190613c4b565b60405180910390a150505050565b610cb5612661565b610cbf828261268e565b5050565b610ccb6126e3565b60008381526005602052604090205460ff1615610d2a5760405162461bcd60e51b815260206004820152601f60248201527f546865206e6f746520686173206265656e20616c7265616479207370656e74006044820152606401610b61565b610d33846111b5565b610d7f5760405162461bcd60e51b815260206004820152601c60248201527f43616e6e6f742066696e6420796f7572206d65726b6c6520726f6f74000000006044820152606401610b61565b6040805160c081018252858152602081018590526001600160a01b03848116828401526000606083018190526080830181905260a0830152915163695ef6f960e01b81527f00000000000000000000000000000000000000000000000000000000000000009092169163695ef6f991610dfd91899190600401613c64565b6020604051808303816000875af1158015610e1c573d6000803e3d6000fd5b505050506040513d601f19601f82011682018060405250810190610e409190613caa565b610e855760405162461bcd60e51b815260206004820152601660248201527524b73b30b634b2103bb4ba34323930bb90383937b7b360511b6044820152606401610b61565b60005b600087815260076020526040902054811015610f6a576000878152600760205260409020805482908110610ebe57610ebe613cc7565b60009182526020909120015482516001600160a01b039091169063c16e50ef90849084908110610ef057610ef0613cc7565b60200260200101516040518263ffffffff1660e01b8152600401610f14919061367b565b6020604051808303816000875af1158015610f33573d6000803e3d6000fd5b505050506040513d601f19601f82011682018060405250810190610f579190613caa565b5080610f6281613cf3565b915050610e88565b50600083815260056020908152604091829020805460ff1916600117905581516001600160a01b03851681529081018590527f9ebe94a87e9d85fb44a2b38b11c3b10117eba3fbd045c54a8577bc62540d5d75910160405180910390a1610fd16001600455565b505050505050565b6060600082519050600084828588604051602001610ffa9493929190613702565b60408051601f19818403018152919052925050505b9392505050565b600b6020908152600092835260408084209091529082529020805461103a90613b12565b80601f016020809104026020016040519081016040528092919081815260200182805461106690613b12565b80156110b35780601f10611088576101008083540402835291602001916110b3565b820191906000526020600020905b81548152906001019060200180831161109657829003601f168201915b505050505081565b600080606080826110ce86880188613d0c565b929a91995097509095509350505050565b6110ed878787878787610cc3565b6000878152600860205260408120805491905581156111ab576000846001600160a01b03168260405160006040518083038185875af1925050503d8060008114611153576040519150601f19603f3d011682016040523d82523d6000602084013e611158565b606091505b50509050806111a95760405162461bcd60e51b815260206004820152601e60248201527f7061796d656e7420746f205f746f20646964206e6f7420676f207468727500006044820152606401610b61565b505b5050505050505050565b60008181036111c657506000919050565b60035463ffffffff16805b63ffffffff811660009081526002602052604090205484036111f7575060019392505050565b8063ffffffff166000036112095750601e5b8061121381613d7d565b9150508163ffffffff168163ffffffff16036111d1575060009392505050565b600c602052600090815260409020805461103a90613b12565b611254612661565b61125e600061270d565b565b60005b92915050565b6001600160a01b03811630145b949350505050565b6007602052816000526040600020818154811061129a57600080fd5b6000918252602090912001546001600160a01b03169150829050565b60006040518061012001604052808c81526020018b81526020018a8152602001898152602001336001600160a01b03168152602001886001600160a01b03168152602001878152602001336001600160a01b0316815260200185858080601f01602080910402602001604051908101604052809392919081815260200183838082843760009201829052509390945250506040519293509161135d91508390602001613df2565b6040516020818303038152906040529050600061137c82600186610fd9565b905061138a87828888610a62565b7f836ae9cba0c8f3c24cb09c41955d58edf91ce892d0a57451f220921dad1ed17a81886040516113bb929190613eb6565b60405180910390a150505050505050505050505050565b600060008051602061465283398151915283106114315760405162461bcd60e51b815260206004820181905260248201527f5f6c6566742073686f756c6420626520696e7369646520746865206669656c646044820152606401610b61565b60008051602061465283398151915282106114985760405162461bcd60e51b815260206004820152602160248201527f5f72696768742073686f756c6420626520696e7369646520746865206669656c6044820152601960fa1b6064820152608401610b61565b60405163f47d33b560e01b81526004810184905260006024820181905284916001600160a01b0387169063f47d33b5906044016040805180830381865afa1580156114e7573d6000803e3d6000fd5b505050506040513d601f19601f8201168201806040525081019061150b9190613ede565b909250905060008051602061465283398151915284830860405163f47d33b560e01b815260048101829052602481018390529092506001600160a01b0387169063f47d33b5906044016040805180830381865afa158015611570573d6000803e3d6000fd5b505050506040513d601f19601f820116820180604052508101906115949190613ede565b509695505050505050565b6060816001600160401b038111156115b9576115b961304c565b6040519080825280602002602001820160405280156115e2578160200160208202803683370190505b50905060005b8281101561165d5761162184848381811061160557611605613cc7565b9050602002013560009081526005602052604090205460ff1690565b1561164b57600182828151811061163a5761163a613cc7565b911515602092830291909101909101525b8061165581613cf3565b9150506115e8565b5092915050565b604080518082019091526000808252602082015260006040518061012001604052808d81526020018c81526020018b81526020018a8152602001336001600160a01b03168152602001896001600160a01b03168152602001888152602001336001600160a01b0316815260200186868080601f01602080910402602001604051908101604052809392919081815260200183838082843760009201829052509390945250506040519293509161173a9150611723908490602001613df2565b604051602081830303815290604052600286610fd9565b9050600061174b8860018989611786565b905061175a888383600061275f565b9e9d5050505050505050505050505050565b611774612661565b610cbf6117818284613f18565b612840565b63ffffffff84166000908152600b6020908152604080832061ffff871684529091528120805460609291906117ba90613b12565b80601f01602080910402602001604051908101604052809291908181526020018280546117e690613b12565b80156118335780601f1061180857610100808354040283529160200191611833565b820191906000526020600020905b81548152906001019060200180831161181657829003601f168201915b5050505050905080516000036118835783838080601f0160208091040260200160405190810160405280939291908181526020018383808284376000920191909152509294506112769350505050565b6000839003611893579050611276565b60028310611911576118da84848080601f01602080910402602001604051908101604052809392919081815260200183838082843760009201919091525061295c92505050565b806118e88460028188613fe1565b6040516020016118fa9392919061400b565b604051602081830303815290604052915050611276565b8383604051639a6d49cd60e01b8152600401610b61929190614033565b611936612661565b60405163ca5eb5e160e01b81526001600160a01b0382811660048301527f0000000000000000000000000000000000000000000000000000000000000000169063ca5eb5e190602401600060405180830381600087803b15801561199957600080fd5b505af1158015610aba573d6000803e3d6000fd5b6119b56126e3565b60008381526006602052604090205460ff1615611a1e5760405162461bcd60e51b815260206004820152602160248201527f54686520636f6d6d69746d656e7420686173206265656e207375626d697474656044820152601960fa1b6064820152608401610b61565b6000611a2984612988565b6000858152600660205260408120805460ff191660011790559091505b82811015611ac7576000858152600760205260409020848483818110611a6e57611a6e613cc7565b9050602002016020810190611a839190613a86565b81546001810183556000928352602090922090910180546001600160a01b0319166001600160a01b0390921691909117905580611abf81613cf3565b915050611a46565b506040805163ffffffff8316815242602082015285917fee825d3f4d0fa209d8e2a39afe24a21286d8dc103d63061a2ed322db4ce018e3910160405180910390a250611b136001600455565b505050565b600081600003611b4957507f2fe54c60d3acabf3343a35b6eba15db4821b340f76e741e2249685ed4899af6c919050565b81600103611b7857507f256a6135777eee2fd26f54b8b7037a25439d5235caee224154186d2b8a52e31d919050565b81600203611ba757507f1151949895e82ab19924de92c40a3d6f7bcb60d92b00504b8199613683f0c200919050565b81600303611bd657507f20121ee811489ff8d61f09fb89e313f14959a0f28bb428a20dba6b0b068b3bdb919050565b81600403611c0557507f0a89ca6ffa14cc462cfedb842c30ed221a50a3d6bf022a6a57dc82ab24c157c9919050565b81600503611c3457507f24ca05c2b5cd42e890d6be94c68d0689f4f21c9cec9c0f13fe41d566dfb54959919050565b81600603611c6357507f1ccb97c932565a92c60156bdba2d08f3bf1377464e025cee765679e604a7315c919050565b81600703611c9257507f19156fbd7d1a8bf5cba8909367de1b624534ebab4f0f79e003bccdd1b182bdb4919050565b81600803611cc157507f261af8c1f0912e465744641409f622d466c3920ac6e5ff37e36604cb11dfff80919050565b81600903611cef57507e58459724ff6ca5a1652fcbc3e82b93895cf08e975b19beab3f54c217d1c007919050565b81600a03611d1e57507f1f04ef20dee48d39984d8eabe768a70eafa6310ad20849d4573c3c40c2ad1e30919050565b81600b03611d4d57507f1bea3dec5dab51567ce7e200a30f7ba6d4276aeaa53e2686f962a46c66d511e5919050565b81600c03611d7c57507f0ee0f941e2da4b9e31c3ca97a40d8fa9ce68d97c084177071b3cb46cd3372f0f919050565b81600d03611dab57507f1ca9503e8935884501bbaf20be14eb4c46b89772c97b96e3b2ebf3a36a948bbd919050565b81600e03611dda57507f133a80e30697cd55d8f7d4b0965b7be24057ba5dc3da898ee2187232446cb108919050565b81600f03611e0957507f13e6d8fc88839ed76e182c2a779af5b2c0da9dd18c90427a644f7e148a6253b6919050565b81601003611e3857507f1eb16b057a477f4bc8f572ea6bee39561098f78f15bfb3699dcbb7bd8db61854919050565b81601103611e6757507f0da2cb16a1ceaabf1c16b838f7a9e3f2a3a3088d9e0a6debaa748114620696ea919050565b81601203611e9657507f24a3b3d822420b14b5d8cb6c28a574f01e98ea9e940551d2ebd75cee12649f9d919050565b81601303611ec557507f198622acbd783d1b0d9064105b1fc8e4d8889de95c4c519b3f635809fe6afc05919050565b81601403611ef457507f29d7ed391256ccc3ea596c86e933b89ff339d25ea8ddced975ae2fe30b5296d4919050565b81601503611f2357507f19be59f2f0413ce78c0c3703a3a5451b1d7f39629fa33abd11548a76065b2967919050565b81601603611f5257507f1ff3f61797e538b70e619310d33f2a063e7eb59104e112e95738da1254dc3453919050565b81601703611f8157507f10c16ae9959cf8358980d9dd9616e48228737310a10e2b6b731c1a548f036c48919050565b81601803611fb057507f0ba433a63174a90ac20992e75e3095496812b652685b5e1a2eae0b1bf4e8fcd1919050565b81601903611fdf57507f019ddb9df2bc98d987d0dfeca9d2b643deafab8f7036562e627c3667266a044c919050565b81601a0361200e57507f2d3c88b23175c5a5565db928414c66d1912b11acf974b2e644caaac04739ce99919050565b81601b0361203d57507f2eab55f6ae4e66e32c5189eed5c470840863445760f5ed7e7b69b2a62600f354919050565b81601c0361206b57507e2df37a2642621802383cf952bf4dd1f32e05433beeb1fd41031fb7eace979d919050565b81601d0361209a57507f104aeb41435db66c3e62feccc1d6f5d98d0a0ed75d1374db457cf462e3a1f427919050565b81601e036120c957507f1f3c6fd858e9a7d4b0d1f38e256a09d81d5a5e3c963987e2d4b814cfab7c6ebb919050565b81601f036120f857507f2c7a07d20dff79d01fecedc1134284a8d08436606c93693b67e333f671bf69cc919050565b60405162461bcd60e51b8152602060048201526013602482015272496e646578206f7574206f6620626f756e647360681b6044820152606401610b61565b919050565b612143612661565b6001600160a01b03811661216d57604051631e4fbdf760e01b815260006004820152602401610b61565b6121768161270d565b50565b63ffffffff83166000908152600b6020908152604080832061ffff861684529091528120805460609291906121ad90613b12565b80601f01602080910402602001604051908101604052809291908181526020018280546121d990613b12565b80156122265780601f106121fb57610100808354040283529160200191612226565b820191906000526020600020905b81548152906001019060200180831161220957829003601f168201915b50505050509050805160000361223f578291505061100f565b825160000361224f57905061100f565b60028351106122a8576122618361295c565b600061227b8460028087516122769190614062565b612b7b565b90508181604051602001612290929190614075565b6040516020818303038152906040529250505061100f565b82604051639a6d49cd60e01b8152600401610b61919061367b565b600060208201803590600a9083906122db9086613a17565b63ffffffff1681526020810191909152604001600020541492915050565b612301612ff1565b60006123108460000151612c88565b60208501519091501561232a5761232a8460200151612cb0565b7f00000000000000000000000000000000000000000000000000000000000000006001600160a01b0316632637a450826040518060a001604052808b63ffffffff16815260200161237a8c612404565b81526020018a815260200189815260200160008960200151111515815250866040518463ffffffff1660e01b81526004016123b69291906140a4565b60806040518083038185885af11580156123d4573d6000803e3d6000fd5b50505050506040513d601f19601f820116820180604052508101906123f9919061414d565b979650505050505050565b63ffffffff81166000908152600a6020526040812054806112635760405163f6ff4fb760e01b815263ffffffff84166004820152602401610b61565b60008060008061245089896110bb565b9350935093509350600161ffff168461ffff160361252257600061247382612d92565b9050600061248f61248760208f018f613a17565b600286612179565b905060006124e3836040516020016124c29190815181526020918201516001600160a01b03169181019190915260400190565b60408051601f19818403018152602083019091526000825290600290610fd9565b90506125198e60000160208101906124fb9190613a17565b828460405180604001604052803481526020016000815250306122f9565b50505050612654565b60011961ffff85160161263b5760008180602001905181019061254591906141ae565b6020810151815160405192935090916000916001600160a01b038416918381818185875af1925050503d806000811461259a576040519150601f19603f3d011682016040523d82523d6000602084013e61259f565b606091505b50509050806125f05760405162461bcd60e51b815260206004820152601e60248201527f7061796d656e7420746f205f746f20646964206e6f7420676f207468727500006044820152606401610b61565b8251604080519182526001600160a01b03841660208301527f77ae6ce9ec8d13ef2ad9e1a421dcdf4d3dc41a5c10522a9f17b34af635b526fe910160405180910390a1505050612654565b60405163f23fef6f60e01b815260040160405180910390fd5b5050505050505050505050565b6009546001600160a01b0316331461125e5760405163118cdaa760e01b8152336004820152602401610b61565b63ffffffff82166000818152600a6020908152604091829020849055815192835282018390527f238399d427b947898edb290f5ff0f9109849b1c3ba196a42e35f00c50a54b98b910160405180910390a15050565b60026004540361270657604051633ee5aeb560e01b815260040160405180910390fd5b6002600455565b600980546001600160a01b038381166001600160a01b0319831681179093556040519116919082907f8be0079c531659141344cd1fd0a4f28419497f9722a3daafe3b4186f6b6457e090600090a35050565b60408051808201909152600080825260208201527f00000000000000000000000000000000000000000000000000000000000000006001600160a01b031663ddc28c586040518060a001604052808863ffffffff1681526020016127c289612404565b8152602001878152602001868152602001851515815250306040518363ffffffff1660e01b81526004016127f79291906140a4565b6040805180830381865afa158015612813573d6000803e3d6000fd5b505050506040513d601f19601f8201168201806040525081019061283791906141e6565b95945050505050565b60005b81518110156129215761287282828151811061286157612861613cc7565b60200260200101516040015161295c565b81818151811061288457612884613cc7565b602002602001015160400151600b60008484815181106128a6576128a6613cc7565b60200260200101516000015163ffffffff1663ffffffff16815260200190815260200160002060008484815181106128e0576128e0613cc7565b60200260200101516020015161ffff1661ffff168152602001908152602001600020908161290e9190613b8c565b508061291981613cf3565b915050612843565b507fbe4864a8e820971c0247f5992e2da559595f7bf076a21cb5928d443d2a13b674816040516129519190614202565b60405180910390a150565b600281015161ffff8116600314610cbf5781604051639a6d49cd60e01b8152600401610b61919061367b565b60035460008054909163ffffffff6401000000009091048116916129ae9116600261439c565b63ffffffff168163ffffffff1603612a215760405162461bcd60e51b815260206004820152603060248201527f4d65726b6c6520747265652069732066756c6c2e204e6f206d6f7265206c656160448201526f1d995cc818d85b88189948185919195960821b6064820152608401610b61565b8083600080805b60005463ffffffff9081169082161015612aed57612a476002866143b1565b63ffffffff16600003612a8557839250612a668163ffffffff16611b18565b63ffffffff821660009081526001602052604090208590559150612aa1565b63ffffffff811660009081526001602052604090205492508391505b612acc7f000000000000000000000000000000000000000000000000000000000000000084846113d2565b9350612ad96002866143d4565b945080612ae5816143f7565b915050612a28565b50600354600090601e90612b089063ffffffff16600161441a565b612b1291906143b1565b6003805463ffffffff191663ffffffff831690811790915560009081526002602052604090208590559050612b4886600161441a565b6003805463ffffffff929092166401000000000267ffffffff000000001990921691909117905550939695505050505050565b6060612b878284614437565b84511015612bcc5760405162461bcd60e51b8152602060048201526012602482015271536c696365206f7574206f662072616e676560701b6044820152606401610b61565b6000826001600160401b03811115612be657612be661304c565b6040519080825280601f01601f191660200182016040528015612c10576020820181803683370190505b50905060005b83811015612c7f5785612c298287614437565b81518110612c3957612c39613cc7565b602001015160f81c60f81b828281518110612c5657612c56613cc7565b60200101906001600160f81b031916908160001a90535080612c7781613cf3565b915050612c16565b50949350505050565b6000813414612cac576040516304fb820960e51b8152346004820152602401610b61565b5090565b60007f00000000000000000000000000000000000000000000000000000000000000006001600160a01b031663e4fe1d946040518163ffffffff1660e01b8152600401602060405180830381865afa158015612d10573d6000803e3d6000fd5b505050506040513d601f19601f82011682018060405250810190612d34919061444a565b90506001600160a01b038116612d5d576040516329b99a9560e11b815260040160405180910390fd5b610cbf6001600160a01b038216337f000000000000000000000000000000000000000000000000000000000000000085612e27565b6040805180820190915260008082526020820152600082806020019051810190612dbc919061452b565b905060006008600083600001518152602001908152602001600020549050612e0082600001518360200151846040015185606001518660a001518760c00151610ac1565b6040805180820190915290815260e0909101516001600160a01b0316602082015292915050565b604080516001600160a01b0385811660248301528416604482015260648082018490528251808303909101815260849091019091526020810180516001600160e01b03166323b872dd60e01b179052612e81908590612e87565b50505050565b6000612e9c6001600160a01b03841683612eea565b90508051600014158015612ec1575080806020019051810190612ebf9190613caa565b155b15611b1357604051635274afe760e01b81526001600160a01b0384166004820152602401610b61565b606061100f8383600084600080856001600160a01b03168486604051612f109190614635565b60006040518083038185875af1925050503d8060008114612f4d576040519150601f19603f3d011682016040523d82523d6000602084013e612f52565b606091505b5091509150612f62868383612f6c565b9695505050505050565b606082612f8157612f7c82612fc8565b61100f565b8151158015612f9857506001600160a01b0384163b155b15612fc157604051639996b31560e01b81526001600160a01b0385166004820152602401610b61565b508061100f565b805115612fd85780518082602001fd5b604051630a12f52160e11b815260040160405180910390fd5b60405180606001604052806000801916815260200160006001600160401b03168152602001613033604051806040016040528060008152602001600081525090565b905290565b803563ffffffff8116811461213657600080fd5b634e487b7160e01b600052604160045260246000fd5b604051606081016001600160401b03811182821017156130845761308461304c565b60405290565b604080519081016001600160401b03811182821017156130845761308461304c565b60405161012081016001600160401b03811182821017156130845761308461304c565b604051601f8201601f191681016001600160401b03811182821017156130f7576130f761304c565b604052919050565b60006001600160401b038211156131185761311861304c565b50601f01601f191660200190565b6000613139613134846130ff565b6130cf565b905082815283838301111561314d57600080fd5b828260208301376000602084830101529392505050565b600082601f83011261317557600080fd5b61100f83833560208501613126565b60008083601f84011261319657600080fd5b5081356001600160401b038111156131ad57600080fd5b6020830191508360208285010111156131c557600080fd5b9250929050565b600080600080606085870312156131e257600080fd5b6131eb85613038565b935060208501356001600160401b038082111561320757600080fd5b61321388838901613164565b9450604087013591508082111561322957600080fd5b5061323687828801613184565b95989497509550505050565b6001600160a01b038116811461217657600080fd5b803561213681613242565b60006001600160401b0382111561327b5761327b61304c565b5060051b60200190565b600082601f83011261329657600080fd5b813560206132a661313483613262565b82815260059290921b840181019181810190868411156132c557600080fd5b8286015b848110156115945780356001600160401b038111156132e85760008081fd5b6132f68986838b0101613164565b8452509183019183016132c9565b60008060008060008060c0878903121561331d57600080fd5b8635955060208701356001600160401b038082111561333b57600080fd5b6133478a838b01613164565b965060408901359550606089013594506080890135915061336782613242565b90925060a0880135908082111561337d57600080fd5b5061338a89828a01613285565b9150509295509295509295565b6000606082840312156133a957600080fd5b50919050565b600080600080600080600060e0888a0312156133ca57600080fd5b6133d48989613397565b96506060880135955060808801356001600160401b03808211156133f757600080fd5b6134038b838c01613184565b909750955060a08a0135915061341882613242565b90935060c0890135908082111561342e57600080fd5b5061343b8a828b01613184565b989b979a50959850939692959293505050565b60006020828403121561346057600080fd5b5035919050565b60008083601f84011261347957600080fd5b5081356001600160401b0381111561349057600080fd5b6020830191508360208260051b85010111156131c557600080fd5b6000806000604084860312156134c057600080fd5b8335925060208401356001600160401b038111156134dd57600080fd5b6134e986828701613467565b9497909650939450505050565b6000806000806060858703121561350c57600080fd5b8435935060208501356001600160401b038082111561352a57600080fd5b61353688838901613467565b9095509350604087013591508082111561354f57600080fd5b508501601f8101871361356157600080fd5b61357087823560208401613126565b91505092959194509250565b6000806040838503121561358f57600080fd5b61359883613038565b946020939093013593505050565b803561ffff8116811461213657600080fd5b6000806000606084860312156135cd57600080fd5b83356001600160401b03808211156135e457600080fd5b6135f087838801613164565b94506135fe602087016135a6565b9350604086013591508082111561361457600080fd5b5061362186828701613164565b9150509250925092565b60005b8381101561364657818101518382015260200161362e565b50506000910152565b6000815180845261366781602086016020860161362b565b601f01601f19169290920160200192915050565b60208152600061100f602083018461364f565b600080604083850312156136a157600080fd5b6136aa83613038565b91506136b8602084016135a6565b90509250929050565b600080602083850312156136d457600080fd5b82356001600160401b038111156136ea57600080fd5b6136f685828601613184565b90969095509350505050565b61ffff85168152836020820152608060408201526000613725608083018561364f565b82810360608401526123f9818561364f565b801515811461217657600080fd5b600080600080600080600060e0888a03121561376057600080fd5b8735965060208801356001600160401b038082111561377e57600080fd5b61378a8b838c01613164565b975060408a0135965060608a0135955060808a013591506137aa82613242565b90935060a089013590808211156137c057600080fd5b506137cd8a828b01613285565b92505060c08801356137de81613737565b8091505092959891949750929550565b60008060008060a0858703121561380457600080fd5b61380e8686613397565b935060608501356001600160401b0381111561382957600080fd5b61383587828801613184565b909450925050608085013561384981613242565b939692955090935050565b6000806040838503121561386757600080fd5b50508035926020909101359150565b6000806000806000806000806000806101208b8d03121561389657600080fd5b8a35995060208b01356001600160401b03808211156138b457600080fd5b6138c08e838f01613164565b9a5060408d0135995060608d013598506138dc60808e01613257565b975060a08d01359150808211156138f257600080fd5b6138fe8e838f01613285565b965061390c60c08e01613038565b955060e08d013591508082111561392257600080fd5b61392e8e838f01613184565b90955093506101008d013591508082111561394857600080fd5b506139558d828e01613164565b9150509295989b9194979a5092959850565b60008060006060848603121561397c57600080fd5b833561398781613242565b95602085013595506040909401359392505050565b600080602083850312156139af57600080fd5b82356001600160401b038111156139c557600080fd5b6136f685828601613467565b6020808252825182820181905260009190848201906040850190845b81811015613a0b5783511515835292840192918401916001016139ed565b50909695505050505050565b600060208284031215613a2957600080fd5b61100f82613038565b60008060008060608587031215613a4857600080fd5b613a5185613038565b9350613a5f602086016135a6565b925060408501356001600160401b03811115613a7a57600080fd5b61323687828801613184565b600060208284031215613a9857600080fd5b813561100f81613242565b600080600060608486031215613ab857600080fd5b613ac184613038565b9250613acf602085016135a6565b915060408401356001600160401b03811115613aea57600080fd5b61362186828701613164565b600060608284031215613b0857600080fd5b61100f8383613397565b600181811c90821680613b2657607f821691505b6020821081036133a957634e487b7160e01b600052602260045260246000fd5b601f821115611b1357600081815260208120601f850160051c81016020861015613b6d5750805b601f850160051c820191505b81811015610fd157828155600101613b79565b81516001600160401b03811115613ba557613ba561304c565b613bb981613bb38454613b12565b84613b46565b602080601f831160018114613bee5760008415613bd65750858301515b600019600386901b1c1916600185901b178555610fd1565b600085815260208120601f198616915b82811015613c1d57888601518255948401946001909101908401613bfe565b5085821015613c3b5787850151600019600388901b60f8161c191681555b5050505050600190811b01905550565b828152604060208201526000611276604083018461364f565b60e081526000613c7760e083018561364f565b905060208083018460005b6006811015613c9f57815183529183019190830190600101613c82565b505050509392505050565b600060208284031215613cbc57600080fd5b815161100f81613737565b634e487b7160e01b600052603260045260246000fd5b634e487b7160e01b600052601160045260246000fd5b600060018201613d0557613d05613cdd565b5060010190565b60008060008060808587031215613d2257600080fd5b613d2b856135a6565b93506020850135925060408501356001600160401b0380821115613d4e57600080fd5b613d5a88838901613164565b93506060870135915080821115613d7057600080fd5b5061357087828801613164565b600063ffffffff821680613d9357613d93613cdd565b6000190192915050565b600081518084526020808501808196508360051b8101915082860160005b85811015613de5578284038952613dd384835161364f565b98850198935090840190600101613dbb565b5091979650505050505050565b602081528151602082015260006020830151610120806040850152613e1b61014085018361364f565b915060408501516060850152606085015160808501526080850151613e4b60a08601826001600160a01b03169052565b5060a08501516001600160a01b03811660c08601525060c0850151601f19808685030160e0870152613e7d8483613d9d565b935060e08701519150610100613e9d818801846001600160a01b03169052565b870151868503909101838701529050612f62838261364f565b604081526000613ec9604083018561364f565b905063ffffffff831660208301529392505050565b60008060408385031215613ef157600080fd5b505080516020909101519092909150565b634e487b7160e01b600052601260045260246000fd5b6000613f2661313484613262565b80848252602080830192508560051b850136811115613f4457600080fd5b855b81811015613fd55780356001600160401b0380821115613f665760008081fd5b818901915060608236031215613f7c5760008081fd5b613f84613062565b613f8d83613038565b8152613f9a8684016135a6565b8682015260408084013583811115613fb25760008081fd5b613fbe36828701613164565b918301919091525087525050938201938201613f46565b50919695505050505050565b60008085851115613ff157600080fd5b83861115613ffe57600080fd5b5050820193919092039150565b6000845161401d81846020890161362b565b8201838582376000930192835250909392505050565b60208152816020820152818360408301376000818301604090810191909152601f909201601f19160101919050565b8181038181111561126357611263613cdd565b6000835161408781846020880161362b565b83519083019061409b81836020880161362b565b01949350505050565b6040815263ffffffff8351166040820152602083015160608201526000604084015160a060808401526140da60e084018261364f565b90506060850151603f198483030160a08501526140f7828261364f565b60809690960151151560c08501525050506001600160a01b039190911660209091015290565b60006040828403121561412f57600080fd5b61413761308a565b9050815181526020820151602082015292915050565b60006080828403121561415f57600080fd5b614167613062565b8251815260208301516001600160401b038116811461418557600080fd5b6020820152614197846040850161411d565b60408201529392505050565b805161213681613242565b6000604082840312156141c057600080fd5b6141c861308a565b8251815260208301516141da81613242565b60208201529392505050565b6000604082840312156141f857600080fd5b61100f838361411d565b60006020808301818452808551808352604092508286019150828160051b87010184880160005b8381101561427d57888303603f190185528151805163ffffffff1684528781015161ffff168885015286015160608785018190526142698186018361364f565b968901969450505090860190600101614229565b509098975050505050505050565b600181815b808511156142c8578163ffffffff048211156142ae576142ae613cdd565b808516156142bb57918102915b93841c9390800290614290565b509250929050565b6000826142df57506001611263565b816142ec57506000611263565b8160018114614302576002811461430c5761433d565b6001915050611263565b60ff84111561431d5761431d613cdd565b6001841b915063ffffffff82111561433757614337613cdd565b50611263565b5060208310610133831016604e8410600b8410161715614374575081810a63ffffffff81111561436f5761436f613cdd565b611263565b61437e838361428b565b8063ffffffff0482111561439457614394613cdd565b029392505050565b600063ffffffff6112768185168285166142d0565b600063ffffffff808416806143c8576143c8613f02565b92169190910692915050565b600063ffffffff808416806143eb576143eb613f02565b92169190910492915050565b600063ffffffff80831681810361441057614410613cdd565b6001019392505050565b63ffffffff81811683821601908082111561165d5761165d613cdd565b8082018082111561126357611263613cdd565b60006020828403121561445c57600080fd5b815161100f81613242565b600082601f83011261447857600080fd5b8151614486613134826130ff565b81815284602083860101111561449b57600080fd5b61127682602083016020870161362b565b600082601f8301126144bd57600080fd5b815160206144cd61313483613262565b82815260059290921b840181019181810190868411156144ec57600080fd5b8286015b848110156115945780516001600160401b0381111561450f5760008081fd5b61451d8986838b0101614467565b8452509183019183016144f0565b60006020828403121561453d57600080fd5b81516001600160401b038082111561455457600080fd5b90830190610120828603121561456957600080fd5b6145716130ac565b8251815260208301518281111561458757600080fd5b61459387828601614467565b60208301525060408301516040820152606083015160608201526145b9608084016141a3565b60808201526145ca60a084016141a3565b60a082015260c0830151828111156145e157600080fd5b6145ed878286016144ac565b60c0830152506145ff60e084016141a3565b60e0820152610100808401518381111561461857600080fd5b61462488828701614467565b918301919091525095945050505050565b6000825161464781846020870161362b565b919091019291505056fe30644e72e131a029b85045b68181585d2833e84879b9709143e1f593f0000001a26469706673582212206a4f58de51b7247c9d3f8c82026379f3e4afd2867542306be55a5a5c244b65a864736f6c63430008140033",
  "devdoc": {
    "errors": {
      "AddressEmptyCode(address)": [
        {
          "details": "There's no code at `target` (it is not a contract)."
        }
      ],
      "AddressInsufficientBalance(address)": [
        {
          "details": "The ETH balance of the account is not enough to perform the operation."
        }
      ],
      "FailedInnerCall()": [
        {
          "details": "A call to an address target failed. The target may have reverted."
        }
      ],
      "InvalidMsgType()": [
        {
          "details": "Revert with this error when an invalid message type is used."
        }
      ],
      "OwnableInvalidOwner(address)": [
        {
          "details": "The owner is not a valid owner account. (eg. `address(0)`)"
        }
      ],
      "OwnableUnauthorizedAccount(address)": [
        {
          "details": "The caller account is not authorized to perform an operation."
        }
      ],
      "ReentrancyGuardReentrantCall()": [
        {
          "details": "Unauthorized reentrant call."
        }
      ],
      "SafeERC20FailedOperation(address)": [
        {
          "details": "An operation with an ERC20 token failed."
        }
      ]
    },
    "kind": "dev",
    "methods": {
      "allowInitializePath((uint32,bytes32,uint64))": {
        "details": "This indicates to the endpoint that the OApp has enabled msgs for this particular path to be received.This defaults to assuming if a peer has been set, its initialized. Can be overridden by the OApp if there is other logic to determine this.",
        "params": {
          "origin": "The origin information containing the source endpoint and sender address."
        },
        "returns": {
          "_0": "Whether the path has been initialized."
        }
      },
      "combineOptions(uint32,uint16,bytes)": {
        "details": "If there is an enforced lzReceive option: - {gasLimit: 200k, msg.value: 1 ether} AND a caller supplies a lzReceive option: {gasLimit: 100k, msg.value: 0.5 ether} - The resulting options will be {gasLimit: 300k, msg.value: 1.5 ether} when the message is executed on the remote lzReceive() function.This presence of duplicated options is handled off-chain in the verifier/executor.",
        "params": {
          "_eid": "The endpoint ID.",
          "_extraOptions": "Additional options passed by the caller.",
          "_msgType": "The OAPP message type."
        },
        "returns": {
          "_0": "options The combination of caller specified options AND enforced options."
        }
      },
      "consumeBridge(bytes32,bytes,bytes32,bytes32,address,bytes[],uint32,bytes,bytes)": {
        "params": {
          "_dstEid": "Destination chain's endpoint ID."
        }
      },
      "consumeCode(bytes32,bytes,bytes32,bytes32,address,bytes[])": {
        "details": "Consume a code from the contract. `proof` is a zkSNARK proof data, and input is an array of circuit public inputs `input` array consists of: - merkle root of all codes in the contract - hash of unique codes nullifier to prevent double spends - the recipient of funds - optional fee that goes to the transaction sender (usually a relay)"
      },
      "getLastRoot()": {
        "details": "Returns the last root"
      },
      "hashLeftRight(address,bytes32,bytes32)": {
        "details": "Hash 2 tree leaves, returns MiMC(_left, _right)"
      },
      "isComposeMsgSender((uint32,bytes32,uint64),bytes,address)": {
        "details": "_origin The origin information containing the source endpoint and sender address.  - srcEid: The source chain endpoint ID.  - sender: The sender address on the src chain.  - nonce: The nonce of the message._message The lzReceive payload.Applications can optionally choose to implement separate composeMsg senders that are NOT the bridging layer.The default sender IS the OAppReceiver implementer.",
        "params": {
          "_sender": "The sender address."
        },
        "returns": {
          "_0": "isSender Is a valid sender."
        }
      },
      "isKnownRoot(bytes32)": {
        "details": "Whether the root is present in the root history"
      },
      "isSpent(bytes32)": {
        "details": "whether a note is already spent "
      },
      "isSpentArray(bytes32[])": {
        "details": "whether an array of notes is already spent "
      },
      "lzReceive((uint32,bytes32,uint64),bytes32,bytes,address,bytes)": {
        "details": "Entry point for receiving messages or packets from the endpoint.Entry point for receiving msg/packet from the LayerZero endpoint.",
        "params": {
          "_executor": "The address of the executor for the received message.",
          "_extraData": "Additional arbitrary data provided by the corresponding executor.",
          "_guid": "The unique identifier for the received LayerZero message.",
          "_message": "The payload of the received message.",
          "_origin": "The origin information containing the source endpoint and sender address.  - srcEid: The source chain endpoint ID.  - sender: The sender address on the src chain.  - nonce: The nonce of the message."
        }
      },
      "nextNonce(uint32,bytes32)": {
        "details": "_srcEid The source endpoint ID._sender The sender address.The path nonce starts from 1. If 0 is returned it means that there is NO nonce ordered enforcement.Is required by the off-chain executor to determine the OApp expects msg execution is ordered.This is also enforced by the OApp.By default this is NOT enabled. ie. nextNonce is hardcoded to return 0.",
        "returns": {
          "nonce": "The next nonce."
        }
      },
      "oAppVersion()": {
        "returns": {
          "receiverVersion": "The version of the OAppReceiver.sol implementation.",
          "senderVersion": "The version of the OAppSender.sol implementation."
        }
      },
      "owner()": {
        "details": "Returns the address of the current owner."
      },
      "renounceOwnership()": {
        "details": "Leaves the contract without owner. It will not be possible to call `onlyOwner` functions. Can only be called by the current owner. NOTE: Renouncing ownership will leave the contract without an owner, thereby disabling any functionality that is only available to the owner."
      },
      "send(uint32,bytes,bytes)": {
        "params": {
          "_dstEid": "Destination chain's endpoint ID.",
          "_options": "Message execution options (e.g., for sending gas to destination).",
          "_payload": "The payload to send."
        }
      },
      "setCode(bytes32,address[])": {
        "details": "Set new code.",
        "params": {
          "_commitment": "the note commitment, which is PedersenHash(nullifier + secret)"
        }
      },
      "setDelegate(address)": {
        "details": "Only the owner/admin of the OApp can call this function.Provides the ability for a delegate to set configs, on behalf of the OApp, directly on the Endpoint contract.",
        "params": {
          "_delegate": "The address of the delegate to be set."
        }
      },
      "setEnforcedOptions((uint32,uint16,bytes)[])": {
        "details": "Sets the enforced options for specific endpoint and message type combinations.Only the owner/admin of the OApp can call this function.Provides a way for the OApp to enforce things like paying for PreCrime, AND/OR minimum dst lzReceive gas amounts etc.These enforced options can vary as the potential options/execution on the remote may differ as per the msgType. eg. Amount of lzReceive() gas necessary to deliver a lzCompose() message adds overhead you dont want to pay if you are only making a standard LayerZero message ie. lzReceive() WITHOUT sendCompose().",
        "params": {
          "_enforcedOptions": "An array of EnforcedOptionParam structures specifying enforced options."
        }
      },
      "setPeer(uint32,bytes32)": {
        "details": "Only the owner/admin of the OApp can call this function.Indicates that the peer is trusted to send LayerZero messages to this OApp.Set this to bytes32(0) to remove the peer address.Peer is a bytes32 to accommodate non-evm chains.",
        "params": {
          "_eid": "The endpoint ID.",
          "_peer": "The address of the peer to be associated with the corresponding endpoint."
        }
      },
      "transferOwnership(address)": {
        "details": "Transfers ownership of the contract to a new account (`newOwner`). Can only be called by the current owner."
      },
      "zeros(uint256)": {
        "details": "provides Zero (Empty) elements for a MiMC MerkleTree. Up to 32 levels"
      }
    },
    "version": 1
  },
  "userdoc": {
    "events": {
      "MessageReceived(bytes,uint32,bytes32)": {
        "notice": "Emitted when a message is received from another chain."
      },
      "MessageSent(bytes,uint32)": {
        "notice": "Emitted when a message is sent to another chain (A -> B)."
      },
      "ReturnMessageSent(bytes,uint32)": {
        "notice": "Emitted when a return message is successfully sent (B -> A)."
      }
    },
    "kind": "user",
    "methods": {
      "MESSAGE_TYPE_SEND()": {
        "notice": "Message types that are used to identify the various OApp operations."
      },
      "allowInitializePath((uint32,bytes32,uint64))": {
        "notice": "Checks if the path initialization is allowed based on the provided origin."
      },
      "combineOptions(uint32,uint16,bytes)": {
        "notice": "Combines options for a given endpoint and message type."
      },
      "consumeBridge(bytes32,bytes,bytes32,bytes32,address,bytes[],uint32,bytes,bytes)": {
        "notice": "Consumes a bridge in chain B "
      },
      "endpoint()": {
        "notice": "Retrieves the LayerZero endpoint associated with the OApp."
      },
      "isComposeMsgSender((uint32,bytes32,uint64),bytes,address)": {
        "notice": "Indicates whether an address is an approved composeMsg sender to the Endpoint."
      },
      "nextNonce(uint32,bytes32)": {
        "notice": "Retrieves the next nonce for a given source endpoint and sender address."
      },
      "oAppVersion()": {
        "notice": "Retrieves the OApp version information."
      },
      "peers(uint32)": {
        "notice": "Retrieves the peer (OApp) associated with a corresponding endpoint."
      },
      "send(uint32,bytes,bytes)": {
        "notice": "Sends a message from the source to destination chain."
      },
      "setDelegate(address)": {
        "notice": "Sets the delegate address for the OApp."
      },
      "setPeer(uint32,bytes32)": {
        "notice": "Sets the peer address (OApp instance) for a corresponding endpoint."
      }
    },
    "version": 1
  },
  "storageLayout": {
    "storage": [
      {
        "astId": 6722,
        "contract": "contracts/useCases/AddressFreeBridge.sol:AddressFreeBridge",
        "label": "levels",
        "offset": 0,
        "slot": "0",
        "type": "t_uint32"
      },
      {
        "astId": 6726,
        "contract": "contracts/useCases/AddressFreeBridge.sol:AddressFreeBridge",
        "label": "filledSubtrees",
        "offset": 0,
        "slot": "1",
        "type": "t_mapping(t_uint256,t_bytes32)"
      },
      {
        "astId": 6730,
        "contract": "contracts/useCases/AddressFreeBridge.sol:AddressFreeBridge",
        "label": "roots",
        "offset": 0,
        "slot": "2",
        "type": "t_mapping(t_uint256,t_bytes32)"
      },
      {
        "astId": 6736,
        "contract": "contracts/useCases/AddressFreeBridge.sol:AddressFreeBridge",
        "label": "currentRootIndex",
        "offset": 0,
        "slot": "3",
        "type": "t_uint32"
      },
      {
        "astId": 6739,
        "contract": "contracts/useCases/AddressFreeBridge.sol:AddressFreeBridge",
        "label": "nextIndex",
        "offset": 4,
        "slot": "3",
        "type": "t_uint32"
      },
      {
        "astId": 4085,
        "contract": "contracts/useCases/AddressFreeBridge.sol:AddressFreeBridge",
        "label": "_status",
        "offset": 0,
        "slot": "4",
        "type": "t_uint256"
      },
      {
        "astId": 5938,
        "contract": "contracts/useCases/AddressFreeBridge.sol:AddressFreeBridge",
        "label": "nullifierHashes",
        "offset": 0,
        "slot": "5",
        "type": "t_mapping(t_bytes32,t_bool)"
      },
      {
        "astId": 5942,
        "contract": "contracts/useCases/AddressFreeBridge.sol:AddressFreeBridge",
        "label": "commitments",
        "offset": 0,
        "slot": "6",
        "type": "t_mapping(t_bytes32,t_bool)"
      },
      {
        "astId": 5947,
        "contract": "contracts/useCases/AddressFreeBridge.sol:AddressFreeBridge",
        "label": "validationModules",
        "offset": 0,
        "slot": "7",
        "type": "t_mapping(t_bytes32,t_array(t_address)dyn_storage)"
      },
      {
        "astId": 6591,
        "contract": "contracts/useCases/AddressFreeBridge.sol:AddressFreeBridge",
        "label": "transferValues",
        "offset": 0,
        "slot": "8",
        "type": "t_mapping(t_bytes32,t_uint256)"
      },
      {
        "astId": 2948,
        "contract": "contracts/useCases/AddressFreeBridge.sol:AddressFreeBridge",
        "label": "_owner",
        "offset": 0,
        "slot": "9",
        "type": "t_address"
      },
      {
        "astId": 539,
        "contract": "contracts/useCases/AddressFreeBridge.sol:AddressFreeBridge",
        "label": "peers",
        "offset": 0,
        "slot": "10",
        "type": "t_mapping(t_uint32,t_bytes32)"
      },
      {
        "astId": 2796,
        "contract": "contracts/useCases/AddressFreeBridge.sol:AddressFreeBridge",
        "label": "enforcedOptions",
        "offset": 0,
        "slot": "11",
        "type": "t_mapping(t_uint32,t_mapping(t_uint16,t_bytes_storage))"
      },
      {
        "astId": 7406,
        "contract": "contracts/useCases/AddressFreeBridge.sol:AddressFreeBridge",
        "label": "metadata",
        "offset": 0,
        "slot": "12",
        "type": "t_mapping(t_bytes32,t_string_storage)"
      }
    ],
    "types": {
      "t_address": {
        "encoding": "inplace",
        "label": "address",
        "numberOfBytes": "20"
      },
      "t_array(t_address)dyn_storage": {
        "base": "t_address",
        "encoding": "dynamic_array",
        "label": "address[]",
        "numberOfBytes": "32"
      },
      "t_bool": {
        "encoding": "inplace",
        "label": "bool",
        "numberOfBytes": "1"
      },
      "t_bytes32": {
        "encoding": "inplace",
        "label": "bytes32",
        "numberOfBytes": "32"
      },
      "t_bytes_storage": {
        "encoding": "bytes",
        "label": "bytes",
        "numberOfBytes": "32"
      },
      "t_mapping(t_bytes32,t_array(t_address)dyn_storage)": {
        "encoding": "mapping",
        "key": "t_bytes32",
        "label": "mapping(bytes32 => address[])",
        "numberOfBytes": "32",
        "value": "t_array(t_address)dyn_storage"
      },
      "t_mapping(t_bytes32,t_bool)": {
        "encoding": "mapping",
        "key": "t_bytes32",
        "label": "mapping(bytes32 => bool)",
        "numberOfBytes": "32",
        "value": "t_bool"
      },
      "t_mapping(t_bytes32,t_string_storage)": {
        "encoding": "mapping",
        "key": "t_bytes32",
        "label": "mapping(bytes32 => string)",
        "numberOfBytes": "32",
        "value": "t_string_storage"
      },
      "t_mapping(t_bytes32,t_uint256)": {
        "encoding": "mapping",
        "key": "t_bytes32",
        "label": "mapping(bytes32 => uint256)",
        "numberOfBytes": "32",
        "value": "t_uint256"
      },
      "t_mapping(t_uint16,t_bytes_storage)": {
        "encoding": "mapping",
        "key": "t_uint16",
        "label": "mapping(uint16 => bytes)",
        "numberOfBytes": "32",
        "value": "t_bytes_storage"
      },
      "t_mapping(t_uint256,t_bytes32)": {
        "encoding": "mapping",
        "key": "t_uint256",
        "label": "mapping(uint256 => bytes32)",
        "numberOfBytes": "32",
        "value": "t_bytes32"
      },
      "t_mapping(t_uint32,t_bytes32)": {
        "encoding": "mapping",
        "key": "t_uint32",
        "label": "mapping(uint32 => bytes32)",
        "numberOfBytes": "32",
        "value": "t_bytes32"
      },
      "t_mapping(t_uint32,t_mapping(t_uint16,t_bytes_storage))": {
        "encoding": "mapping",
        "key": "t_uint32",
        "label": "mapping(uint32 => mapping(uint16 => bytes))",
        "numberOfBytes": "32",
        "value": "t_mapping(t_uint16,t_bytes_storage)"
      },
      "t_string_storage": {
        "encoding": "bytes",
        "label": "string",
        "numberOfBytes": "32"
      },
      "t_uint16": {
        "encoding": "inplace",
        "label": "uint16",
        "numberOfBytes": "2"
      },
      "t_uint256": {
        "encoding": "inplace",
        "label": "uint256",
        "numberOfBytes": "32"
      },
      "t_uint32": {
        "encoding": "inplace",
        "label": "uint32",
        "numberOfBytes": "4"
      }
    }
  }
}