{
  "address": "0xC0d1855b8D61604F83b87C63a3E94B6511ce37F6",
  "abi": [
    {
      "inputs": [
        {
          "internalType": "contract IVerifier",
          "name": "_verifier",
          "type": "address"
        },
        {
          "internalType": "contract IHasher",
          "name": "_hasher",
          "type": "address"
        },
        {
          "internalType": "uint32",
          "name": "_merkleTreeHeight",
          "type": "uint32"
        }
      ],
      "stateMutability": "nonpayable",
      "type": "constructor"
    },
    {
      "inputs": [],
      "name": "ReentrancyGuardReentrantCall",
      "type": "error"
    },
    {
      "anonymous": false,
      "inputs": [
        {
          "indexed": false,
          "internalType": "address",
          "name": "to",
          "type": "address"
        },
        {
          "indexed": false,
          "internalType": "bytes32",
          "name": "nullifierHash",
          "type": "bytes32"
        }
      ],
      "name": "ConsumeCode",
      "type": "event"
    },
    {
      "anonymous": false,
      "inputs": [
        {
          "indexed": true,
          "internalType": "bytes32",
          "name": "commitment",
          "type": "bytes32"
        },
        {
          "indexed": false,
          "internalType": "uint32",
          "name": "leafIndex",
          "type": "uint32"
        },
        {
          "indexed": false,
          "internalType": "uint256",
          "name": "timestamp",
          "type": "uint256"
        }
      ],
      "name": "NewCode",
      "type": "event"
    },
    {
      "inputs": [],
      "name": "FIELD_SIZE",
      "outputs": [
        {
          "internalType": "uint256",
          "name": "",
          "type": "uint256"
        }
      ],
      "stateMutability": "view",
      "type": "function"
    },
    {
      "inputs": [],
      "name": "ROOT_HISTORY_SIZE",
      "outputs": [
        {
          "internalType": "uint32",
          "name": "",
          "type": "uint32"
        }
      ],
      "stateMutability": "view",
      "type": "function"
    },
    {
      "inputs": [],
      "name": "ZERO_VALUE",
      "outputs": [
        {
          "internalType": "uint256",
          "name": "",
          "type": "uint256"
        }
      ],
      "stateMutability": "view",
      "type": "function"
    },
    {
      "inputs": [
        {
          "internalType": "bytes32",
          "name": "",
          "type": "bytes32"
        }
      ],
      "name": "commitments",
      "outputs": [
        {
          "internalType": "bool",
          "name": "",
          "type": "bool"
        }
      ],
      "stateMutability": "view",
      "type": "function"
    },
    {
      "inputs": [
        {
          "internalType": "bytes32",
          "name": "_commitment",
          "type": "bytes32"
        },
        {
          "internalType": "bytes",
          "name": "_proof",
          "type": "bytes"
        },
        {
          "internalType": "bytes32",
          "name": "_root",
          "type": "bytes32"
        },
        {
          "internalType": "bytes32",
          "name": "_nullifierHash",
          "type": "bytes32"
        },
        {
          "internalType": "address payable",
          "name": "_recipient",
          "type": "address"
        },
        {
          "internalType": "bytes[]",
          "name": "_validationsArgs",
          "type": "bytes[]"
        }
      ],
      "name": "consumeCode",
      "outputs": [],
      "stateMutability": "payable",
      "type": "function"
    },
    {
      "inputs": [
        {
          "internalType": "bytes32",
          "name": "_commitment",
          "type": "bytes32"
        },
        {
          "internalType": "bytes",
          "name": "_proof",
          "type": "bytes"
        },
        {
          "internalType": "bytes32",
          "name": "_root",
          "type": "bytes32"
        },
        {
          "internalType": "bytes32",
          "name": "_nullifierHash",
          "type": "bytes32"
        },
        {
          "internalType": "address payable",
          "name": "_to",
          "type": "address"
        },
        {
          "internalType": "bytes[]",
          "name": "_validationsArgs",
          "type": "bytes[]"
        }
      ],
      "name": "consumeEarlyAccessCode",
      "outputs": [],
      "stateMutability": "nonpayable",
      "type": "function"
    },
    {
      "inputs": [
        {
          "internalType": "bytes32",
          "name": "_commitment",
          "type": "bytes32"
        },
        {
          "internalType": "address[]",
          "name": "_validationModules",
          "type": "address[]"
        }
      ],
      "name": "createEarlyAccessCode",
      "outputs": [],
      "stateMutability": "payable",
      "type": "function"
    },
    {
      "inputs": [],
      "name": "currentRootIndex",
      "outputs": [
        {
          "internalType": "uint32",
          "name": "",
          "type": "uint32"
        }
      ],
      "stateMutability": "view",
      "type": "function"
    },
    {
      "inputs": [
        {
          "internalType": "uint256",
          "name": "",
          "type": "uint256"
        }
      ],
      "name": "filledSubtrees",
      "outputs": [
        {
          "internalType": "bytes32",
          "name": "",
          "type": "bytes32"
        }
      ],
      "stateMutability": "view",
      "type": "function"
    },
    {
      "inputs": [],
      "name": "getLastRoot",
      "outputs": [
        {
          "internalType": "bytes32",
          "name": "",
          "type": "bytes32"
        }
      ],
      "stateMutability": "view",
      "type": "function"
    },
    {
      "inputs": [
        {
          "internalType": "contract IHasher",
          "name": "_hasher",
          "type": "address"
        },
        {
          "internalType": "bytes32",
          "name": "_left",
          "type": "bytes32"
        },
        {
          "internalType": "bytes32",
          "name": "_right",
          "type": "bytes32"
        }
      ],
      "name": "hashLeftRight",
      "outputs": [
        {
          "internalType": "bytes32",
          "name": "",
          "type": "bytes32"
        }
      ],
      "stateMutability": "pure",
      "type": "function"
    },
    {
      "inputs": [],
      "name": "hasher",
      "outputs": [
        {
          "internalType": "contract IHasher",
          "name": "",
          "type": "address"
        }
      ],
      "stateMutability": "view",
      "type": "function"
    },
    {
      "inputs": [
        {
          "internalType": "bytes32",
          "name": "_root",
          "type": "bytes32"
        }
      ],
      "name": "isKnownRoot",
      "outputs": [
        {
          "internalType": "bool",
          "name": "",
          "type": "bool"
        }
      ],
      "stateMutability": "view",
      "type": "function"
    },
    {
      "inputs": [
        {
          "internalType": "bytes32",
          "name": "_nullifierHash",
          "type": "bytes32"
        }
      ],
      "name": "isSpent",
      "outputs": [
        {
          "internalType": "bool",
          "name": "",
          "type": "bool"
        }
      ],
      "stateMutability": "view",
      "type": "function"
    },
    {
      "inputs": [
        {
          "internalType": "bytes32[]",
          "name": "_nullifierHashes",
          "type": "bytes32[]"
        }
      ],
      "name": "isSpentArray",
      "outputs": [
        {
          "internalType": "bool[]",
          "name": "spent",
          "type": "bool[]"
        }
      ],
      "stateMutability": "view",
      "type": "function"
    },
    {
      "inputs": [],
      "name": "levels",
      "outputs": [
        {
          "internalType": "uint32",
          "name": "",
          "type": "uint32"
        }
      ],
      "stateMutability": "view",
      "type": "function"
    },
    {
      "inputs": [],
      "name": "nextIndex",
      "outputs": [
        {
          "internalType": "uint32",
          "name": "",
          "type": "uint32"
        }
      ],
      "stateMutability": "view",
      "type": "function"
    },
    {
      "inputs": [
        {
          "internalType": "bytes32",
          "name": "",
          "type": "bytes32"
        }
      ],
      "name": "nullifierHashes",
      "outputs": [
        {
          "internalType": "bool",
          "name": "",
          "type": "bool"
        }
      ],
      "stateMutability": "view",
      "type": "function"
    },
    {
      "inputs": [
        {
          "internalType": "uint256",
          "name": "",
          "type": "uint256"
        }
      ],
      "name": "roots",
      "outputs": [
        {
          "internalType": "bytes32",
          "name": "",
          "type": "bytes32"
        }
      ],
      "stateMutability": "view",
      "type": "function"
    },
    {
      "inputs": [
        {
          "internalType": "bytes32",
          "name": "_commitment",
          "type": "bytes32"
        },
        {
          "internalType": "address[]",
          "name": "_validationModules",
          "type": "address[]"
        }
      ],
      "name": "setCode",
      "outputs": [],
      "stateMutability": "payable",
      "type": "function"
    },
    {
      "inputs": [
        {
          "internalType": "bytes32",
          "name": "",
          "type": "bytes32"
        },
        {
          "internalType": "uint256",
          "name": "",
          "type": "uint256"
        }
      ],
      "name": "validationModules",
      "outputs": [
        {
          "internalType": "address",
          "name": "",
          "type": "address"
        }
      ],
      "stateMutability": "view",
      "type": "function"
    },
    {
      "inputs": [],
      "name": "verifier",
      "outputs": [
        {
          "internalType": "contract IVerifier",
          "name": "",
          "type": "address"
        }
      ],
      "stateMutability": "view",
      "type": "function"
    },
    {
      "inputs": [
        {
          "internalType": "uint256",
          "name": "i",
          "type": "uint256"
        }
      ],
      "name": "zeros",
      "outputs": [
        {
          "internalType": "bytes32",
          "name": "",
          "type": "bytes32"
        }
      ],
      "stateMutability": "pure",
      "type": "function"
    }
  ],
  "transactionHash": "0x31f7255821b85d7af2ec8e360aae1db66f332216da6cf01e4ff83dc084b58135",
  "args": [
    "0xF65c25F287f87B2B1Ca3286121eee1959215d7F6",
    "0x7126d1631d090D0612Cf37cF75B4D36bF2673014",
    20
  ],
  "numDeployments": 1,
  "solcInputHash": "9e8f30b6bf71db16d8f60f8b050c4754",
  "bytecode": "0x60c0604052600380546001600160401b03191690553480156200002157600080fd5b506040516200249e3803806200249e833981016040819052620000449162000847565b828282808260008263ffffffff1611620000b15760405162461bcd60e51b815260206004820152602360248201527f5f6c6576656c732073686f756c642062652067726561746572207468616e207a60448201526265726f60e81b60648201526084015b60405180910390fd5b60208263ffffffff1610620001095760405162461bcd60e51b815260206004820152601e60248201527f5f6c6576656c732073686f756c64206265206c657373207468616e20333200006044820152606401620000a8565b6000805463ffffffff191663ffffffff84161781556001600160a01b0382166080525b8263ffffffff168163ffffffff1610156200017d576200015263ffffffff8216620001e5565b63ffffffff8216600090815260016020526040902055806200017481620008b9565b9150506200012c565b506200019b6200018f600184620008df565b63ffffffff16620001e5565b6000805260026020527fac33ff75c19e70fe83507db0d683fd3465c996598dc972688b7ace676c89077b555050600160045550506001600160a01b031660a0525062000906915050565b6000816000036200021757507f2fe54c60d3acabf3343a35b6eba15db4821b340f76e741e2249685ed4899af6c919050565b816001036200024757507f256a6135777eee2fd26f54b8b7037a25439d5235caee224154186d2b8a52e31d919050565b816002036200027757507f1151949895e82ab19924de92c40a3d6f7bcb60d92b00504b8199613683f0c200919050565b81600303620002a757507f20121ee811489ff8d61f09fb89e313f14959a0f28bb428a20dba6b0b068b3bdb919050565b81600403620002d757507f0a89ca6ffa14cc462cfedb842c30ed221a50a3d6bf022a6a57dc82ab24c157c9919050565b816005036200030757507f24ca05c2b5cd42e890d6be94c68d0689f4f21c9cec9c0f13fe41d566dfb54959919050565b816006036200033757507f1ccb97c932565a92c60156bdba2d08f3bf1377464e025cee765679e604a7315c919050565b816007036200036757507f19156fbd7d1a8bf5cba8909367de1b624534ebab4f0f79e003bccdd1b182bdb4919050565b816008036200039757507f261af8c1f0912e465744641409f622d466c3920ac6e5ff37e36604cb11dfff80919050565b81600903620003c657507e58459724ff6ca5a1652fcbc3e82b93895cf08e975b19beab3f54c217d1c007919050565b81600a03620003f657507f1f04ef20dee48d39984d8eabe768a70eafa6310ad20849d4573c3c40c2ad1e30919050565b81600b036200042657507f1bea3dec5dab51567ce7e200a30f7ba6d4276aeaa53e2686f962a46c66d511e5919050565b81600c036200045657507f0ee0f941e2da4b9e31c3ca97a40d8fa9ce68d97c084177071b3cb46cd3372f0f919050565b81600d036200048657507f1ca9503e8935884501bbaf20be14eb4c46b89772c97b96e3b2ebf3a36a948bbd919050565b81600e03620004b657507f133a80e30697cd55d8f7d4b0965b7be24057ba5dc3da898ee2187232446cb108919050565b81600f03620004e657507f13e6d8fc88839ed76e182c2a779af5b2c0da9dd18c90427a644f7e148a6253b6919050565b816010036200051657507f1eb16b057a477f4bc8f572ea6bee39561098f78f15bfb3699dcbb7bd8db61854919050565b816011036200054657507f0da2cb16a1ceaabf1c16b838f7a9e3f2a3a3088d9e0a6debaa748114620696ea919050565b816012036200057657507f24a3b3d822420b14b5d8cb6c28a574f01e98ea9e940551d2ebd75cee12649f9d919050565b81601303620005a657507f198622acbd783d1b0d9064105b1fc8e4d8889de95c4c519b3f635809fe6afc05919050565b81601403620005d657507f29d7ed391256ccc3ea596c86e933b89ff339d25ea8ddced975ae2fe30b5296d4919050565b816015036200060657507f19be59f2f0413ce78c0c3703a3a5451b1d7f39629fa33abd11548a76065b2967919050565b816016036200063657507f1ff3f61797e538b70e619310d33f2a063e7eb59104e112e95738da1254dc3453919050565b816017036200066657507f10c16ae9959cf8358980d9dd9616e48228737310a10e2b6b731c1a548f036c48919050565b816018036200069657507f0ba433a63174a90ac20992e75e3095496812b652685b5e1a2eae0b1bf4e8fcd1919050565b81601903620006c657507f019ddb9df2bc98d987d0dfeca9d2b643deafab8f7036562e627c3667266a044c919050565b81601a03620006f657507f2d3c88b23175c5a5565db928414c66d1912b11acf974b2e644caaac04739ce99919050565b81601b036200072657507f2eab55f6ae4e66e32c5189eed5c470840863445760f5ed7e7b69b2a62600f354919050565b81601c036200075557507e2df37a2642621802383cf952bf4dd1f32e05433beeb1fd41031fb7eace979d919050565b81601d036200078557507f104aeb41435db66c3e62feccc1d6f5d98d0a0ed75d1374db457cf462e3a1f427919050565b81601e03620007b557507f1f3c6fd858e9a7d4b0d1f38e256a09d81d5a5e3c963987e2d4b814cfab7c6ebb919050565b81601f03620007e557507f2c7a07d20dff79d01fecedc1134284a8d08436606c93693b67e333f671bf69cc919050565b60405162461bcd60e51b815260206004820152601360248201527f496e646578206f7574206f6620626f756e6473000000000000000000000000006044820152606401620000a8565b6001600160a01b03811681146200084457600080fd5b50565b6000806000606084860312156200085d57600080fd5b83516200086a816200082e565b60208501519093506200087d816200082e565b604085015190925063ffffffff811681146200089857600080fd5b809150509250925092565b634e487b7160e01b600052601160045260246000fd5b600063ffffffff808316818103620008d557620008d5620008a3565b6001019392505050565b63ffffffff828116828216039080821115620008ff57620008ff620008a3565b5092915050565b60805160a051611b646200093a6000396000818161019c01526105ea01526000818161046f01526114400152611b646000f3fe6080604052600436106101405760003560e01c8063917cdce0116100b6578063e5285dcc1161006f578063e5285dcc146103d9578063e829558814610409578063ec73295914610429578063ed33639f1461045d578063f178e47c14610491578063fc7e9c6f146104be57600080fd5b8063917cdce01461030d5780639fa12d0b1461032d578063ba70f7571461035a578063c2b40ae414610384578063cc013d85146103b1578063cd87a3b4146103c457600080fd5b80636c31a67d116101085780636c31a67d1461024d5780636d9833e314610260578063838a11fd14610280578063839df945146102a05780638ea3099e146102d057806390eeb02b146102f057600080fd5b806317cc915c146101455780632b7ac3f31461018a5780633e7fd3b4146101d6578063414a37ba146101eb5780634ecf518b1461021b575b600080fd5b34801561015157600080fd5b50610175610160366004611515565b60056020526000908152604090205460ff1681565b60405190151581526020015b60405180910390f35b34801561019657600080fd5b506101be7f000000000000000000000000000000000000000000000000000000000000000081565b6040516001600160a01b039091168152602001610181565b6101e96101e436600461159d565b6104e3565b005b3480156101f757600080fd5b5061020d600080516020611b0f83398151915281565b604051908152602001610181565b34801561022757600080fd5b506000546102389063ffffffff1681565b60405163ffffffff9091168152602001610181565b6101e961025b366004611666565b610806565b34801561026c57600080fd5b5061017561027b366004611515565b610816565b34801561028c57600080fd5b506101be61029b3660046116b2565b610894565b3480156102ac57600080fd5b506101756102bb366004611515565b60066020526000908152604090205460ff1681565b3480156102dc57600080fd5b5061020d6102eb3660046116d4565b6108cc565b3480156102fc57600080fd5b506003546102389063ffffffff1681565b34801561031957600080fd5b506101e961032836600461159d565b610a99565b34801561033957600080fd5b5061034d610348366004611709565b610aa9565b604051610181919061174b565b34801561036657600080fd5b5060035463ffffffff1660009081526002602052604090205461020d565b34801561039057600080fd5b5061020d61039f366004611515565b60026020526000908152604090205481565b6101e96103bf366004611666565b610b6f565b3480156103d057600080fd5b50610238601e81565b3480156103e557600080fd5b506101756103f4366004611515565b60009081526005602052604090205460ff1690565b34801561041557600080fd5b5061020d610424366004611515565b610cd5565b34801561043557600080fd5b5061020d7f2fe54c60d3acabf3343a35b6eba15db4821b340f76e741e2249685ed4899af6c81565b34801561046957600080fd5b506101be7f000000000000000000000000000000000000000000000000000000000000000081565b34801561049d57600080fd5b5061020d6104ac366004611515565b60016020526000908152604090205481565b3480156104ca57600080fd5b5060035461023890640100000000900463ffffffff1681565b6104eb6112f8565b60008481526005602052604090205460ff161561054f5760405162461bcd60e51b815260206004820152601f60248201527f546865206e6f746520686173206265656e20616c7265616479207370656e740060448201526064015b60405180910390fd5b61055885610816565b6105a45760405162461bcd60e51b815260206004820152601c60248201527f43616e6e6f742066696e6420796f7572206d65726b6c6520726f6f74000000006044820152606401610546565b6040805160c081018252868152602081018690526001600160a01b03858116828401526000606083018190526080830181905260a0830152915163695ef6f960e01b81527f00000000000000000000000000000000000000000000000000000000000000009092169163695ef6f991610623918b918b916004016117ba565b6020604051808303816000875af1158015610642573d6000803e3d6000fd5b505050506040513d601f19601f820116820180604052508101906106669190611802565b6106ab5760405162461bcd60e51b815260206004820152601660248201527524b73b30b634b2103bb4ba34323930bb90383937b7b360511b6044820152606401610546565b60005b6000898152600760205260409020548110156107955760008981526007602052604090208054829081106106e4576106e461182b565b6000918252602090912001546001600160a01b031663c16e50ef8484848181106107105761071061182b565b90506020028101906107229190611841565b6040518363ffffffff1660e01b815260040161073f929190611888565b6020604051808303816000875af115801561075e573d6000803e3d6000fd5b505050506040513d601f19601f820116820180604052508101906107829190611802565b508061078d816118ba565b9150506106ae565b50600084815260056020908152604091829020805460ff1916600117905581516001600160a01b03861681529081018690527f9ebe94a87e9d85fb44a2b38b11c3b10117eba3fbd045c54a8577bc62540d5d75910160405180910390a16107fc6001600455565b5050505050505050565b610811838383610b6f565b505050565b600081810361082757506000919050565b60035463ffffffff16805b63ffffffff81166000908152600260205260409020548403610858575060019392505050565b8063ffffffff1660000361086a5750601e5b80610874816118d3565b9150508163ffffffff168163ffffffff1603610832575060009392505050565b600760205281600052604060002081815481106108b057600080fd5b6000918252602090912001546001600160a01b03169150829050565b6000600080516020611b0f833981519152831061092b5760405162461bcd60e51b815260206004820181905260248201527f5f6c6566742073686f756c6420626520696e7369646520746865206669656c646044820152606401610546565b600080516020611b0f83398151915282106109925760405162461bcd60e51b815260206004820152602160248201527f5f72696768742073686f756c6420626520696e7369646520746865206669656c6044820152601960fa1b6064820152608401610546565b60405163f47d33b560e01b81526004810184905260006024820181905284916001600160a01b0387169063f47d33b5906044016040805180830381865afa1580156109e1573d6000803e3d6000fd5b505050506040513d601f19601f82011682018060405250810190610a0591906118f3565b9092509050600080516020611b0f83398151915284830860405163f47d33b560e01b815260048101829052602481018390529092506001600160a01b0387169063f47d33b5906044016040805180830381865afa158015610a6a573d6000803e3d6000fd5b505050506040513d601f19601f82011682018060405250810190610a8e91906118f3565b509695505050505050565b6107fc88888888888888886104e3565b60608167ffffffffffffffff811115610ac457610ac461192d565b604051908082528060200260200182016040528015610aed578160200160208202803683370190505b50905060005b82811015610b6857610b2c848483818110610b1057610b1061182b565b9050602002013560009081526005602052604090205460ff1690565b15610b56576001828281518110610b4557610b4561182b565b911515602092830291909101909101525b80610b60816118ba565b915050610af3565b5092915050565b610b776112f8565b60008381526006602052604090205460ff1615610be05760405162461bcd60e51b815260206004820152602160248201527f54686520636f6d6d69746d656e7420686173206265656e207375626d697474656044820152601960fa1b6064820152608401610546565b6000610beb84611322565b6000858152600660205260408120805460ff191660011790559091505b82811015610c89576000858152600760205260409020848483818110610c3057610c3061182b565b9050602002016020810190610c459190611943565b81546001810183556000928352602090922090910180546001600160a01b0319166001600160a01b0390921691909117905580610c81816118ba565b915050610c08565b506040805163ffffffff8316815242602082015285917fee825d3f4d0fa209d8e2a39afe24a21286d8dc103d63061a2ed322db4ce018e3910160405180910390a2506108116001600455565b600081600003610d0657507f2fe54c60d3acabf3343a35b6eba15db4821b340f76e741e2249685ed4899af6c919050565b81600103610d3557507f256a6135777eee2fd26f54b8b7037a25439d5235caee224154186d2b8a52e31d919050565b81600203610d6457507f1151949895e82ab19924de92c40a3d6f7bcb60d92b00504b8199613683f0c200919050565b81600303610d9357507f20121ee811489ff8d61f09fb89e313f14959a0f28bb428a20dba6b0b068b3bdb919050565b81600403610dc257507f0a89ca6ffa14cc462cfedb842c30ed221a50a3d6bf022a6a57dc82ab24c157c9919050565b81600503610df157507f24ca05c2b5cd42e890d6be94c68d0689f4f21c9cec9c0f13fe41d566dfb54959919050565b81600603610e2057507f1ccb97c932565a92c60156bdba2d08f3bf1377464e025cee765679e604a7315c919050565b81600703610e4f57507f19156fbd7d1a8bf5cba8909367de1b624534ebab4f0f79e003bccdd1b182bdb4919050565b81600803610e7e57507f261af8c1f0912e465744641409f622d466c3920ac6e5ff37e36604cb11dfff80919050565b81600903610eac57507e58459724ff6ca5a1652fcbc3e82b93895cf08e975b19beab3f54c217d1c007919050565b81600a03610edb57507f1f04ef20dee48d39984d8eabe768a70eafa6310ad20849d4573c3c40c2ad1e30919050565b81600b03610f0a57507f1bea3dec5dab51567ce7e200a30f7ba6d4276aeaa53e2686f962a46c66d511e5919050565b81600c03610f3957507f0ee0f941e2da4b9e31c3ca97a40d8fa9ce68d97c084177071b3cb46cd3372f0f919050565b81600d03610f6857507f1ca9503e8935884501bbaf20be14eb4c46b89772c97b96e3b2ebf3a36a948bbd919050565b81600e03610f9757507f133a80e30697cd55d8f7d4b0965b7be24057ba5dc3da898ee2187232446cb108919050565b81600f03610fc657507f13e6d8fc88839ed76e182c2a779af5b2c0da9dd18c90427a644f7e148a6253b6919050565b81601003610ff557507f1eb16b057a477f4bc8f572ea6bee39561098f78f15bfb3699dcbb7bd8db61854919050565b8160110361102457507f0da2cb16a1ceaabf1c16b838f7a9e3f2a3a3088d9e0a6debaa748114620696ea919050565b8160120361105357507f24a3b3d822420b14b5d8cb6c28a574f01e98ea9e940551d2ebd75cee12649f9d919050565b8160130361108257507f198622acbd783d1b0d9064105b1fc8e4d8889de95c4c519b3f635809fe6afc05919050565b816014036110b157507f29d7ed391256ccc3ea596c86e933b89ff339d25ea8ddced975ae2fe30b5296d4919050565b816015036110e057507f19be59f2f0413ce78c0c3703a3a5451b1d7f39629fa33abd11548a76065b2967919050565b8160160361110f57507f1ff3f61797e538b70e619310d33f2a063e7eb59104e112e95738da1254dc3453919050565b8160170361113e57507f10c16ae9959cf8358980d9dd9616e48228737310a10e2b6b731c1a548f036c48919050565b8160180361116d57507f0ba433a63174a90ac20992e75e3095496812b652685b5e1a2eae0b1bf4e8fcd1919050565b8160190361119c57507f019ddb9df2bc98d987d0dfeca9d2b643deafab8f7036562e627c3667266a044c919050565b81601a036111cb57507f2d3c88b23175c5a5565db928414c66d1912b11acf974b2e644caaac04739ce99919050565b81601b036111fa57507f2eab55f6ae4e66e32c5189eed5c470840863445760f5ed7e7b69b2a62600f354919050565b81601c0361122857507e2df37a2642621802383cf952bf4dd1f32e05433beeb1fd41031fb7eace979d919050565b81601d0361125757507f104aeb41435db66c3e62feccc1d6f5d98d0a0ed75d1374db457cf462e3a1f427919050565b81601e0361128657507f1f3c6fd858e9a7d4b0d1f38e256a09d81d5a5e3c963987e2d4b814cfab7c6ebb919050565b81601f036112b557507f2c7a07d20dff79d01fecedc1134284a8d08436606c93693b67e333f671bf69cc919050565b60405162461bcd60e51b8152602060048201526013602482015272496e646578206f7574206f6620626f756e647360681b6044820152606401610546565b919050565b60026004540361131b57604051633ee5aeb560e01b815260040160405180910390fd5b6002600455565b60035460008054909163ffffffff64010000000090910481169161134891166002611a73565b63ffffffff168163ffffffff16036113bb5760405162461bcd60e51b815260206004820152603060248201527f4d65726b6c6520747265652069732066756c6c2e204e6f206d6f7265206c656160448201526f1d995cc818d85b88189948185919195960821b6064820152608401610546565b8083600080805b60005463ffffffff9081169082161015611487576113e1600286611a88565b63ffffffff1660000361141f578392506114008163ffffffff16610cd5565b63ffffffff82166000908152600160205260409020859055915061143b565b63ffffffff811660009081526001602052604090205492508391505b6114667f000000000000000000000000000000000000000000000000000000000000000084846108cc565b9350611473600286611aab565b94508061147f81611ace565b9150506113c2565b50600354600090601e906114a29063ffffffff166001611af1565b6114ac9190611a88565b6003805463ffffffff191663ffffffff8316908117909155600090815260026020526040902085905590506114e2866001611af1565b6003805463ffffffff929092166401000000000267ffffffff000000001990921691909117905550939695505050505050565b60006020828403121561152757600080fd5b5035919050565b6001600160a01b038116811461154357600080fd5b50565b80356112f38161152e565b60008083601f84011261156357600080fd5b50813567ffffffffffffffff81111561157b57600080fd5b6020830191508360208260051b850101111561159657600080fd5b9250929050565b60008060008060008060008060c0898b0312156115b957600080fd5b88359750602089013567ffffffffffffffff808211156115d857600080fd5b818b0191508b601f8301126115ec57600080fd5b8135818111156115fb57600080fd5b8c602082850101111561160d57600080fd5b602083019950975060408b0135965060608b0135955061162f60808c01611546565b945060a08b013591508082111561164557600080fd5b506116528b828c01611551565b999c989b5096995094979396929594505050565b60008060006040848603121561167b57600080fd5b83359250602084013567ffffffffffffffff81111561169957600080fd5b6116a586828701611551565b9497909650939450505050565b600080604083850312156116c557600080fd5b50508035926020909101359150565b6000806000606084860312156116e957600080fd5b83356116f48161152e565b95602085013595506040909401359392505050565b6000806020838503121561171c57600080fd5b823567ffffffffffffffff81111561173357600080fd5b61173f85828601611551565b90969095509350505050565b6020808252825182820181905260009190848201906040850190845b81811015611785578351151583529284019291840191600101611767565b50909695505050505050565b81835281816020850137506000828201602090810191909152601f909101601f19169091010190565b60e0815260006117ce60e083018587611791565b905060208083018460005b60068110156117f6578151835291830191908301906001016117d9565b50505050949350505050565b60006020828403121561181457600080fd5b8151801515811461182457600080fd5b9392505050565b634e487b7160e01b600052603260045260246000fd5b6000808335601e1984360301811261185857600080fd5b83018035915067ffffffffffffffff82111561187357600080fd5b60200191503681900382131561159657600080fd5b60208152600061189c602083018486611791565b949350505050565b634e487b7160e01b600052601160045260246000fd5b6000600182016118cc576118cc6118a4565b5060010190565b600063ffffffff8216806118e9576118e96118a4565b6000190192915050565b6000806040838503121561190657600080fd5b505080516020909101519092909150565b634e487b7160e01b600052601260045260246000fd5b634e487b7160e01b600052604160045260246000fd5b60006020828403121561195557600080fd5b81356118248161152e565b600181815b8085111561199d578163ffffffff04821115611983576119836118a4565b8085161561199057918102915b93841c9390800290611965565b509250929050565b6000826119b457506001611a6d565b816119c157506000611a6d565b81600181146119d757600281146119e157611a12565b6001915050611a6d565b60ff8411156119f2576119f26118a4565b6001841b915063ffffffff821115611a0c57611a0c6118a4565b50611a6d565b5060208310610133831016604e8410600b8410161715611a49575081810a63ffffffff811115611a4457611a446118a4565b611a6d565b611a538383611960565b8063ffffffff04821115611a6957611a696118a4565b0290505b92915050565b600063ffffffff61189c8185168285166119a5565b600063ffffffff80841680611a9f57611a9f611917565b92169190910692915050565b600063ffffffff80841680611ac257611ac2611917565b92169190910492915050565b600063ffffffff808316818103611ae757611ae76118a4565b6001019392505050565b63ffffffff818116838216019080821115610b6857610b686118a456fe30644e72e131a029b85045b68181585d2833e84879b9709143e1f593f0000001a2646970667358221220d11a11840ed70808b524a4717093ea33db8861405cf2627742ce62abc15108f564736f6c63430008140033",
  "devdoc": {
    "errors": {
      "ReentrancyGuardReentrantCall()": [
        {
          "details": "Unauthorized reentrant call."
        }
      ]
    },
    "kind": "dev",
    "methods": {
      "consumeCode(bytes32,bytes,bytes32,bytes32,address,bytes[])": {
        "details": "Consume a code from the contract. `proof` is a zkSNARK proof data, and input is an array of circuit public inputs `input` array consists of: - merkle root of all codes in the contract - hash of unique codes nullifier to prevent double spends - the recipient of funds - optional fee that goes to the transaction sender (usually a relay)"
      },
      "getLastRoot()": {
        "details": "Returns the last root"
      },
      "hashLeftRight(address,bytes32,bytes32)": {
        "details": "Hash 2 tree leaves, returns MiMC(_left, _right)"
      },
      "isKnownRoot(bytes32)": {
        "details": "Whether the root is present in the root history"
      },
      "isSpent(bytes32)": {
        "details": "whether a note is already spent "
      },
      "isSpentArray(bytes32[])": {
        "details": "whether an array of notes is already spent "
      },
      "setCode(bytes32,address[])": {
        "details": "Set new code.",
        "params": {
          "_commitment": "the note commitment, which is PedersenHash(nullifier + secret)"
        }
      },
      "zeros(uint256)": {
        "details": "provides Zero (Empty) elements for a MiMC MerkleTree. Up to 32 levels"
      }
    },
    "version": 1
  },
  "userdoc": {
    "kind": "user",
    "methods": {},
    "version": 1
  },
  "storageLayout": {
    "storage": [
      {
        "astId": 1227,
        "contract": "contracts/useCases/EarlyAccessCodes.sol:EarlyAccessCodes",
        "label": "levels",
        "offset": 0,
        "slot": "0",
        "type": "t_uint32"
      },
      {
        "astId": 1231,
        "contract": "contracts/useCases/EarlyAccessCodes.sol:EarlyAccessCodes",
        "label": "filledSubtrees",
        "offset": 0,
        "slot": "1",
        "type": "t_mapping(t_uint256,t_bytes32)"
      },
      {
        "astId": 1235,
        "contract": "contracts/useCases/EarlyAccessCodes.sol:EarlyAccessCodes",
        "label": "roots",
        "offset": 0,
        "slot": "2",
        "type": "t_mapping(t_uint256,t_bytes32)"
      },
      {
        "astId": 1241,
        "contract": "contracts/useCases/EarlyAccessCodes.sol:EarlyAccessCodes",
        "label": "currentRootIndex",
        "offset": 0,
        "slot": "3",
        "type": "t_uint32"
      },
      {
        "astId": 1244,
        "contract": "contracts/useCases/EarlyAccessCodes.sol:EarlyAccessCodes",
        "label": "nextIndex",
        "offset": 4,
        "slot": "3",
        "type": "t_uint32"
      },
      {
        "astId": 328,
        "contract": "contracts/useCases/EarlyAccessCodes.sol:EarlyAccessCodes",
        "label": "_status",
        "offset": 0,
        "slot": "4",
        "type": "t_uint256"
      },
      {
        "astId": 426,
        "contract": "contracts/useCases/EarlyAccessCodes.sol:EarlyAccessCodes",
        "label": "nullifierHashes",
        "offset": 0,
        "slot": "5",
        "type": "t_mapping(t_bytes32,t_bool)"
      },
      {
        "astId": 430,
        "contract": "contracts/useCases/EarlyAccessCodes.sol:EarlyAccessCodes",
        "label": "commitments",
        "offset": 0,
        "slot": "6",
        "type": "t_mapping(t_bytes32,t_bool)"
      },
      {
        "astId": 435,
        "contract": "contracts/useCases/EarlyAccessCodes.sol:EarlyAccessCodes",
        "label": "validationModules",
        "offset": 0,
        "slot": "7",
        "type": "t_mapping(t_bytes32,t_array(t_address)dyn_storage)"
      }
    ],
    "types": {
      "t_address": {
        "encoding": "inplace",
        "label": "address",
        "numberOfBytes": "20"
      },
      "t_array(t_address)dyn_storage": {
        "base": "t_address",
        "encoding": "dynamic_array",
        "label": "address[]",
        "numberOfBytes": "32"
      },
      "t_bool": {
        "encoding": "inplace",
        "label": "bool",
        "numberOfBytes": "1"
      },
      "t_bytes32": {
        "encoding": "inplace",
        "label": "bytes32",
        "numberOfBytes": "32"
      },
      "t_mapping(t_bytes32,t_array(t_address)dyn_storage)": {
        "encoding": "mapping",
        "key": "t_bytes32",
        "label": "mapping(bytes32 => address[])",
        "numberOfBytes": "32",
        "value": "t_array(t_address)dyn_storage"
      },
      "t_mapping(t_bytes32,t_bool)": {
        "encoding": "mapping",
        "key": "t_bytes32",
        "label": "mapping(bytes32 => bool)",
        "numberOfBytes": "32",
        "value": "t_bool"
      },
      "t_mapping(t_uint256,t_bytes32)": {
        "encoding": "mapping",
        "key": "t_uint256",
        "label": "mapping(uint256 => bytes32)",
        "numberOfBytes": "32",
        "value": "t_bytes32"
      },
      "t_uint256": {
        "encoding": "inplace",
        "label": "uint256",
        "numberOfBytes": "32"
      },
      "t_uint32": {
        "encoding": "inplace",
        "label": "uint32",
        "numberOfBytes": "4"
      }
    }
  }
}