{
  "address": "0x8b392601107F3bf772C1B536CFd5748F6a036a08",
  "abi": [
    {
      "inputs": [
        {
          "internalType": "contract IVerifier",
          "name": "_verifier",
          "type": "address"
        },
        {
          "internalType": "contract IHasher",
          "name": "_hasher",
          "type": "address"
        },
        {
          "internalType": "uint32",
          "name": "_merkleTreeHeight",
          "type": "uint32"
        },
        {
          "internalType": "contract IERC721",
          "name": "_token",
          "type": "address"
        }
      ],
      "stateMutability": "nonpayable",
      "type": "constructor"
    },
    {
      "inputs": [],
      "name": "ReentrancyGuardReentrantCall",
      "type": "error"
    },
    {
      "anonymous": false,
      "inputs": [
        {
          "indexed": false,
          "internalType": "address",
          "name": "to",
          "type": "address"
        },
        {
          "indexed": false,
          "internalType": "bytes32",
          "name": "nullifierHash",
          "type": "bytes32"
        }
      ],
      "name": "ConsumeCode",
      "type": "event"
    },
    {
      "anonymous": false,
      "inputs": [
        {
          "indexed": true,
          "internalType": "bytes32",
          "name": "commitment",
          "type": "bytes32"
        },
        {
          "indexed": false,
          "internalType": "uint32",
          "name": "leafIndex",
          "type": "uint32"
        },
        {
          "indexed": false,
          "internalType": "uint256",
          "name": "timestamp",
          "type": "uint256"
        }
      ],
      "name": "NewCode",
      "type": "event"
    },
    {
      "inputs": [],
      "name": "FIELD_SIZE",
      "outputs": [
        {
          "internalType": "uint256",
          "name": "",
          "type": "uint256"
        }
      ],
      "stateMutability": "view",
      "type": "function"
    },
    {
      "inputs": [],
      "name": "ROOT_HISTORY_SIZE",
      "outputs": [
        {
          "internalType": "uint32",
          "name": "",
          "type": "uint32"
        }
      ],
      "stateMutability": "view",
      "type": "function"
    },
    {
      "inputs": [
        {
          "internalType": "bytes32",
          "name": "",
          "type": "bytes32"
        }
      ],
      "name": "TransferId",
      "outputs": [
        {
          "internalType": "uint256",
          "name": "",
          "type": "uint256"
        }
      ],
      "stateMutability": "view",
      "type": "function"
    },
    {
      "inputs": [],
      "name": "ZERO_VALUE",
      "outputs": [
        {
          "internalType": "uint256",
          "name": "",
          "type": "uint256"
        }
      ],
      "stateMutability": "view",
      "type": "function"
    },
    {
      "inputs": [
        {
          "internalType": "bytes32[]",
          "name": "_commitments",
          "type": "bytes32[]"
        },
        {
          "internalType": "bytes[]",
          "name": "_proofs",
          "type": "bytes[]"
        },
        {
          "internalType": "bytes32[]",
          "name": "_roots",
          "type": "bytes32[]"
        },
        {
          "internalType": "bytes32[]",
          "name": "_nullifierHashes",
          "type": "bytes32[]"
        },
        {
          "internalType": "address payable[]",
          "name": "_tos",
          "type": "address[]"
        },
        {
          "internalType": "bytes[]",
          "name": "_validationsArgs",
          "type": "bytes[]"
        }
      ],
      "name": "bulkConsumePOAPAirdrop",
      "outputs": [],
      "stateMutability": "nonpayable",
      "type": "function"
    },
    {
      "inputs": [
        {
          "internalType": "bytes32[]",
          "name": "_commitments",
          "type": "bytes32[]"
        },
        {
          "internalType": "address[][]",
          "name": "_validationModules",
          "type": "address[][]"
        },
        {
          "internalType": "uint256[]",
          "name": "_ids",
          "type": "uint256[]"
        },
        {
          "internalType": "uint256[]",
          "name": "_limits",
          "type": "uint256[]"
        }
      ],
      "name": "bulkCreatePOAPAirdrop",
      "outputs": [],
      "stateMutability": "payable",
      "type": "function"
    },
    {
      "inputs": [
        {
          "internalType": "bytes32",
          "name": "",
          "type": "bytes32"
        }
      ],
      "name": "commitments",
      "outputs": [
        {
          "internalType": "bool",
          "name": "",
          "type": "bool"
        }
      ],
      "stateMutability": "view",
      "type": "function"
    },
    {
      "inputs": [
        {
          "internalType": "bytes32",
          "name": "_commitment",
          "type": "bytes32"
        },
        {
          "internalType": "bytes",
          "name": "_proof",
          "type": "bytes"
        },
        {
          "internalType": "bytes32",
          "name": "_root",
          "type": "bytes32"
        },
        {
          "internalType": "bytes32",
          "name": "_nullifierHash",
          "type": "bytes32"
        },
        {
          "internalType": "address payable",
          "name": "_recipient",
          "type": "address"
        },
        {
          "internalType": "bytes[]",
          "name": "_validationsArgs",
          "type": "bytes[]"
        }
      ],
      "name": "consumeCode",
      "outputs": [],
      "stateMutability": "payable",
      "type": "function"
    },
    {
      "inputs": [
        {
          "internalType": "bytes32",
          "name": "_commitment",
          "type": "bytes32"
        },
        {
          "internalType": "bytes",
          "name": "_proof",
          "type": "bytes"
        },
        {
          "internalType": "bytes32",
          "name": "_root",
          "type": "bytes32"
        },
        {
          "internalType": "bytes32",
          "name": "_nullifierHash",
          "type": "bytes32"
        },
        {
          "internalType": "address payable",
          "name": "_to",
          "type": "address"
        },
        {
          "internalType": "bytes[]",
          "name": "_validationsArgs",
          "type": "bytes[]"
        }
      ],
      "name": "consumePOAPAirdrop",
      "outputs": [],
      "stateMutability": "nonpayable",
      "type": "function"
    },
    {
      "inputs": [
        {
          "internalType": "bytes32",
          "name": "_commitment",
          "type": "bytes32"
        },
        {
          "internalType": "bytes",
          "name": "_proof",
          "type": "bytes"
        },
        {
          "internalType": "bytes32",
          "name": "_root",
          "type": "bytes32"
        },
        {
          "internalType": "bytes32",
          "name": "_nullifierHash",
          "type": "bytes32"
        },
        {
          "internalType": "address payable",
          "name": "_to",
          "type": "address"
        },
        {
          "internalType": "bytes[]",
          "name": "_validationsArgs",
          "type": "bytes[]"
        }
      ],
      "name": "consumeTransfer",
      "outputs": [],
      "stateMutability": "nonpayable",
      "type": "function"
    },
    {
      "inputs": [
        {
          "internalType": "bytes32",
          "name": "",
          "type": "bytes32"
        }
      ],
      "name": "consumed",
      "outputs": [
        {
          "internalType": "uint256",
          "name": "",
          "type": "uint256"
        }
      ],
      "stateMutability": "view",
      "type": "function"
    },
    {
      "inputs": [
        {
          "internalType": "bytes32",
          "name": "_commitment",
          "type": "bytes32"
        },
        {
          "internalType": "address[]",
          "name": "_validationModules",
          "type": "address[]"
        },
        {
          "internalType": "uint256",
          "name": "_id",
          "type": "uint256"
        },
        {
          "internalType": "uint256",
          "name": "limit",
          "type": "uint256"
        }
      ],
      "name": "createPOAPAirdrop",
      "outputs": [],
      "stateMutability": "payable",
      "type": "function"
    },
    {
      "inputs": [
        {
          "internalType": "bytes32",
          "name": "_commitment",
          "type": "bytes32"
        },
        {
          "internalType": "address[]",
          "name": "_validationModules",
          "type": "address[]"
        },
        {
          "internalType": "uint256",
          "name": "_id",
          "type": "uint256"
        }
      ],
      "name": "createTransfer",
      "outputs": [],
      "stateMutability": "payable",
      "type": "function"
    },
    {
      "inputs": [],
      "name": "currentRootIndex",
      "outputs": [
        {
          "internalType": "uint32",
          "name": "",
          "type": "uint32"
        }
      ],
      "stateMutability": "view",
      "type": "function"
    },
    {
      "inputs": [
        {
          "internalType": "uint256",
          "name": "",
          "type": "uint256"
        }
      ],
      "name": "filledSubtrees",
      "outputs": [
        {
          "internalType": "bytes32",
          "name": "",
          "type": "bytes32"
        }
      ],
      "stateMutability": "view",
      "type": "function"
    },
    {
      "inputs": [],
      "name": "getLastRoot",
      "outputs": [
        {
          "internalType": "bytes32",
          "name": "",
          "type": "bytes32"
        }
      ],
      "stateMutability": "view",
      "type": "function"
    },
    {
      "inputs": [
        {
          "internalType": "contract IHasher",
          "name": "_hasher",
          "type": "address"
        },
        {
          "internalType": "bytes32",
          "name": "_left",
          "type": "bytes32"
        },
        {
          "internalType": "bytes32",
          "name": "_right",
          "type": "bytes32"
        }
      ],
      "name": "hashLeftRight",
      "outputs": [
        {
          "internalType": "bytes32",
          "name": "",
          "type": "bytes32"
        }
      ],
      "stateMutability": "pure",
      "type": "function"
    },
    {
      "inputs": [],
      "name": "hasher",
      "outputs": [
        {
          "internalType": "contract IHasher",
          "name": "",
          "type": "address"
        }
      ],
      "stateMutability": "view",
      "type": "function"
    },
    {
      "inputs": [
        {
          "internalType": "bytes32",
          "name": "_root",
          "type": "bytes32"
        }
      ],
      "name": "isKnownRoot",
      "outputs": [
        {
          "internalType": "bool",
          "name": "",
          "type": "bool"
        }
      ],
      "stateMutability": "view",
      "type": "function"
    },
    {
      "inputs": [
        {
          "internalType": "bytes32",
          "name": "_nullifierHash",
          "type": "bytes32"
        }
      ],
      "name": "isSpent",
      "outputs": [
        {
          "internalType": "bool",
          "name": "",
          "type": "bool"
        }
      ],
      "stateMutability": "view",
      "type": "function"
    },
    {
      "inputs": [
        {
          "internalType": "bytes32[]",
          "name": "_nullifierHashes",
          "type": "bytes32[]"
        }
      ],
      "name": "isSpentArray",
      "outputs": [
        {
          "internalType": "bool[]",
          "name": "spent",
          "type": "bool[]"
        }
      ],
      "stateMutability": "view",
      "type": "function"
    },
    {
      "inputs": [],
      "name": "levels",
      "outputs": [
        {
          "internalType": "uint32",
          "name": "",
          "type": "uint32"
        }
      ],
      "stateMutability": "view",
      "type": "function"
    },
    {
      "inputs": [
        {
          "internalType": "bytes32",
          "name": "",
          "type": "bytes32"
        }
      ],
      "name": "limits",
      "outputs": [
        {
          "internalType": "uint256",
          "name": "",
          "type": "uint256"
        }
      ],
      "stateMutability": "view",
      "type": "function"
    },
    {
      "inputs": [],
      "name": "nextIndex",
      "outputs": [
        {
          "internalType": "uint32",
          "name": "",
          "type": "uint32"
        }
      ],
      "stateMutability": "view",
      "type": "function"
    },
    {
      "inputs": [
        {
          "internalType": "bytes32",
          "name": "",
          "type": "bytes32"
        }
      ],
      "name": "nullifierHashes",
      "outputs": [
        {
          "internalType": "bool",
          "name": "",
          "type": "bool"
        }
      ],
      "stateMutability": "view",
      "type": "function"
    },
    {
      "inputs": [
        {
          "internalType": "uint256",
          "name": "",
          "type": "uint256"
        }
      ],
      "name": "roots",
      "outputs": [
        {
          "internalType": "bytes32",
          "name": "",
          "type": "bytes32"
        }
      ],
      "stateMutability": "view",
      "type": "function"
    },
    {
      "inputs": [
        {
          "internalType": "bytes32",
          "name": "_commitment",
          "type": "bytes32"
        },
        {
          "internalType": "address[]",
          "name": "_validationModules",
          "type": "address[]"
        }
      ],
      "name": "setCode",
      "outputs": [],
      "stateMutability": "payable",
      "type": "function"
    },
    {
      "inputs": [],
      "name": "token",
      "outputs": [
        {
          "internalType": "contract IERC721",
          "name": "",
          "type": "address"
        }
      ],
      "stateMutability": "view",
      "type": "function"
    },
    {
      "inputs": [
        {
          "internalType": "bytes32",
          "name": "",
          "type": "bytes32"
        },
        {
          "internalType": "uint256",
          "name": "",
          "type": "uint256"
        }
      ],
      "name": "validationModules",
      "outputs": [
        {
          "internalType": "address",
          "name": "",
          "type": "address"
        }
      ],
      "stateMutability": "view",
      "type": "function"
    },
    {
      "inputs": [],
      "name": "verifier",
      "outputs": [
        {
          "internalType": "contract IVerifier",
          "name": "",
          "type": "address"
        }
      ],
      "stateMutability": "view",
      "type": "function"
    },
    {
      "inputs": [
        {
          "internalType": "uint256",
          "name": "i",
          "type": "uint256"
        }
      ],
      "name": "zeros",
      "outputs": [
        {
          "internalType": "bytes32",
          "name": "",
          "type": "bytes32"
        }
      ],
      "stateMutability": "pure",
      "type": "function"
    }
  ],
  "transactionHash": "0xe72c6cbe980176ed961c409e9a31b45e2b0754a30cfb153b8cc6fae69b39771f",
  "args": [
    "0xF65c25F287f87B2B1Ca3286121eee1959215d7F6",
    "0x7126d1631d090D0612Cf37cF75B4D36bF2673014",
    20,
    "0x22C1f6050E56d2876009903609a2cC3fEf83B415"
  ],
  "numDeployments": 1,
  "solcInputHash": "c154c0cd5037b6d407216d813b5d963a",
  "bytecode": "0x60c0604052600380546001600160401b03191690553480156200002157600080fd5b5060405162002fb838038062002fb8833981016040819052620000449162000869565b83838383838383808260008263ffffffff1611620000b55760405162461bcd60e51b815260206004820152602360248201527f5f6c6576656c732073686f756c642062652067726561746572207468616e207a60448201526265726f60e81b60648201526084015b60405180910390fd5b60208263ffffffff16106200010d5760405162461bcd60e51b815260206004820152601e60248201527f5f6c6576656c732073686f756c64206265206c657373207468616e20333200006044820152606401620000ac565b6000805463ffffffff191663ffffffff84161781556001600160a01b0382166080525b8263ffffffff168163ffffffff16101562000181576200015663ffffffff821662000207565b63ffffffff8216600090815260016020526040902055806200017881620008ef565b91505062000130565b506200019f6200019360018462000915565b63ffffffff1662000207565b6000805260026020527fac33ff75c19e70fe83507db0d683fd3465c996598dc972688b7ace676c89077b555050600160045550506001600160a01b0390811660a052600880546001600160a01b03191692909116919091179055506200093c95505050505050565b6000816000036200023957507f2fe54c60d3acabf3343a35b6eba15db4821b340f76e741e2249685ed4899af6c919050565b816001036200026957507f256a6135777eee2fd26f54b8b7037a25439d5235caee224154186d2b8a52e31d919050565b816002036200029957507f1151949895e82ab19924de92c40a3d6f7bcb60d92b00504b8199613683f0c200919050565b81600303620002c957507f20121ee811489ff8d61f09fb89e313f14959a0f28bb428a20dba6b0b068b3bdb919050565b81600403620002f957507f0a89ca6ffa14cc462cfedb842c30ed221a50a3d6bf022a6a57dc82ab24c157c9919050565b816005036200032957507f24ca05c2b5cd42e890d6be94c68d0689f4f21c9cec9c0f13fe41d566dfb54959919050565b816006036200035957507f1ccb97c932565a92c60156bdba2d08f3bf1377464e025cee765679e604a7315c919050565b816007036200038957507f19156fbd7d1a8bf5cba8909367de1b624534ebab4f0f79e003bccdd1b182bdb4919050565b81600803620003b957507f261af8c1f0912e465744641409f622d466c3920ac6e5ff37e36604cb11dfff80919050565b81600903620003e857507e58459724ff6ca5a1652fcbc3e82b93895cf08e975b19beab3f54c217d1c007919050565b81600a036200041857507f1f04ef20dee48d39984d8eabe768a70eafa6310ad20849d4573c3c40c2ad1e30919050565b81600b036200044857507f1bea3dec5dab51567ce7e200a30f7ba6d4276aeaa53e2686f962a46c66d511e5919050565b81600c036200047857507f0ee0f941e2da4b9e31c3ca97a40d8fa9ce68d97c084177071b3cb46cd3372f0f919050565b81600d03620004a857507f1ca9503e8935884501bbaf20be14eb4c46b89772c97b96e3b2ebf3a36a948bbd919050565b81600e03620004d857507f133a80e30697cd55d8f7d4b0965b7be24057ba5dc3da898ee2187232446cb108919050565b81600f036200050857507f13e6d8fc88839ed76e182c2a779af5b2c0da9dd18c90427a644f7e148a6253b6919050565b816010036200053857507f1eb16b057a477f4bc8f572ea6bee39561098f78f15bfb3699dcbb7bd8db61854919050565b816011036200056857507f0da2cb16a1ceaabf1c16b838f7a9e3f2a3a3088d9e0a6debaa748114620696ea919050565b816012036200059857507f24a3b3d822420b14b5d8cb6c28a574f01e98ea9e940551d2ebd75cee12649f9d919050565b81601303620005c857507f198622acbd783d1b0d9064105b1fc8e4d8889de95c4c519b3f635809fe6afc05919050565b81601403620005f857507f29d7ed391256ccc3ea596c86e933b89ff339d25ea8ddced975ae2fe30b5296d4919050565b816015036200062857507f19be59f2f0413ce78c0c3703a3a5451b1d7f39629fa33abd11548a76065b2967919050565b816016036200065857507f1ff3f61797e538b70e619310d33f2a063e7eb59104e112e95738da1254dc3453919050565b816017036200068857507f10c16ae9959cf8358980d9dd9616e48228737310a10e2b6b731c1a548f036c48919050565b81601803620006b857507f0ba433a63174a90ac20992e75e3095496812b652685b5e1a2eae0b1bf4e8fcd1919050565b81601903620006e857507f019ddb9df2bc98d987d0dfeca9d2b643deafab8f7036562e627c3667266a044c919050565b81601a036200071857507f2d3c88b23175c5a5565db928414c66d1912b11acf974b2e644caaac04739ce99919050565b81601b036200074857507f2eab55f6ae4e66e32c5189eed5c470840863445760f5ed7e7b69b2a62600f354919050565b81601c036200077757507e2df37a2642621802383cf952bf4dd1f32e05433beeb1fd41031fb7eace979d919050565b81601d03620007a757507f104aeb41435db66c3e62feccc1d6f5d98d0a0ed75d1374db457cf462e3a1f427919050565b81601e03620007d757507f1f3c6fd858e9a7d4b0d1f38e256a09d81d5a5e3c963987e2d4b814cfab7c6ebb919050565b81601f036200080757507f2c7a07d20dff79d01fecedc1134284a8d08436606c93693b67e333f671bf69cc919050565b60405162461bcd60e51b815260206004820152601360248201527f496e646578206f7574206f6620626f756e6473000000000000000000000000006044820152606401620000ac565b6001600160a01b03811681146200086657600080fd5b50565b600080600080608085870312156200088057600080fd5b84516200088d8162000850565b6020860151909450620008a08162000850565b604086015190935063ffffffff81168114620008bb57600080fd5b6060860151909250620008ce8162000850565b939692955090935050565b634e487b7160e01b600052601160045260246000fd5b600063ffffffff8083168181036200090b576200090b620008d9565b6001019392505050565b63ffffffff828116828216039080821115620009355762000935620008d9565b5092915050565b60805160a051612648620009706000396000818161028401526109500152600081816105f40152611c3b01526126486000f3fe6080604052600436106101d85760003560e01c806390eeb02b11610102578063d265d09911610095578063ed33639f11610064578063ed33639f146105e2578063f178e47c14610616578063fc0c546a14610643578063fc7e9c6f1461066357600080fd5b8063d265d0991461053e578063e5285dcc1461055e578063e82955881461058e578063ec732959146105ae57600080fd5b8063c1105820116100d1578063c1105820146104c9578063c2b40ae4146104e9578063cc013d8514610516578063cd87a3b41461052957600080fd5b806390eeb02b1461044257806399ad2cc91461045f5780639fa12d0b14610472578063ba70f7571461049f57600080fd5b80634648c9431161017a5780637835a0c9116101495780637835a0c9146103bf578063838a11fd146103d2578063839df945146103f25780638ea3099e1461042257600080fd5b80634648c943146103135780634ecf518b146103405780635c1b7d38146103725780636d9833e31461039f57600080fd5b80632b7ac3f3116101b65780632b7ac3f3146102725780633e7fd3b4146102be578063414a37ba146102d15780634488e595146102f357600080fd5b806317cc915c146101dd5780631ad088be146102225780632469ab9214610237575b600080fd5b3480156101e957600080fd5b5061020d6101f8366004611d10565b60056020526000908152604090205460ff1681565b60405190151581526020015b60405180910390f35b610235610230366004611d74565b610688565b005b34801561024357600080fd5b50610264610252366004611d10565b60096020526000908152604090205481565b604051908152602001610219565b34801561027e57600080fd5b506102a67f000000000000000000000000000000000000000000000000000000000000000081565b6040516001600160a01b039091168152602001610219565b6102356102cc366004611e5a565b61084e565b3480156102dd57600080fd5b506102646000805160206125f383398151915281565b3480156102ff57600080fd5b5061023561030e366004611e5a565b610b6c565b34801561031f57600080fd5b5061026461032e366004611d10565b600a6020526000908152604090205481565b34801561034c57600080fd5b5060005461035d9063ffffffff1681565b60405163ffffffff9091168152602001610219565b34801561037e57600080fd5b5061026461038d366004611d10565b600b6020526000908152604090205481565b3480156103ab57600080fd5b5061020d6103ba366004611d10565b610c0e565b6102356103cd366004611f01565b610c8c565b3480156103de57600080fd5b506102a66103ed366004611f53565b610d2a565b3480156103fe57600080fd5b5061020d61040d366004611d10565b60066020526000908152604090205460ff1681565b34801561042e57600080fd5b5061026461043d366004611f75565b610d62565b34801561044e57600080fd5b5060035461035d9063ffffffff1681565b61023561046d366004611faa565b610f2f565b34801561047e57600080fd5b5061049261048d366004612007565b610f53565b6040516102199190612048565b3480156104ab57600080fd5b5060035463ffffffff16600090815260026020526040902054610264565b3480156104d557600080fd5b506102356104e436600461208e565b611018565b3480156104f557600080fd5b50610264610504366004611d10565b60026020526000908152604090205481565b6102356105243660046121cb565b6112c8565b34801561053557600080fd5b5061035d601e81565b34801561054a57600080fd5b50610235610559366004611e5a565b611433565b34801561056a57600080fd5b5061020d610579366004611d10565b60009081526005602052604090205460ff1690565b34801561059a57600080fd5b506102646105a9366004611d10565b6114d0565b3480156105ba57600080fd5b506102647f2fe54c60d3acabf3343a35b6eba15db4821b340f76e741e2249685ed4899af6c81565b3480156105ee57600080fd5b506102a67f000000000000000000000000000000000000000000000000000000000000000081565b34801561062257600080fd5b50610264610631366004611d10565b60016020526000908152604090205481565b34801561064f57600080fd5b506008546102a6906001600160a01b031681565b34801561066f57600080fd5b5060035461035d90640100000000900463ffffffff1681565b8683146106e85760405162461bcd60e51b815260206004820152602360248201527f636f6d6d69746d656e747320616e6420696473206c656e677468206d69736d616044820152620e8c6d60eb1b60648201526084015b60405180910390fd5b8681146107465760405162461bcd60e51b815260206004820152602660248201527f636f6d6d69746d656e747320616e64206c696d697473206c656e677468206d696044820152650e6dac2e8c6d60d31b60648201526084016106df565b8685146107af5760405162461bcd60e51b815260206004820152603160248201527f636f6d6d69746d656e747320616e642076616c69646174696f6e4d6f64756c656044820152700e640d8cadccee8d040dad2e6dac2e8c6d607b1b60648201526084016106df565b60005b87811015610843576108318989838181106107cf576107cf612216565b905060200201358888848181106107e8576107e8612216565b90506020028101906107fa919061222c565b88888681811061080c5761080c612216565b9050602002013587878781811061082557610825612216565b90506020020135610f2f565b8061083b8161228b565b9150506107b2565b505050505050505050565b610856611af3565b60008481526005602052604090205460ff16156108b55760405162461bcd60e51b815260206004820152601f60248201527f546865206e6f746520686173206265656e20616c7265616479207370656e740060448201526064016106df565b6108be85610c0e565b61090a5760405162461bcd60e51b815260206004820152601c60248201527f43616e6e6f742066696e6420796f7572206d65726b6c6520726f6f740000000060448201526064016106df565b6040805160c081018252868152602081018690526001600160a01b03858116828401526000606083018190526080830181905260a0830152915163695ef6f960e01b81527f00000000000000000000000000000000000000000000000000000000000000009092169163695ef6f991610989918b918b916004016122cd565b6020604051808303816000875af11580156109a8573d6000803e3d6000fd5b505050506040513d601f19601f820116820180604052508101906109cc9190612315565b610a115760405162461bcd60e51b815260206004820152601660248201527524b73b30b634b2103bb4ba34323930bb90383937b7b360511b60448201526064016106df565b60005b600089815260076020526040902054811015610afb576000898152600760205260409020805482908110610a4a57610a4a612216565b6000918252602090912001546001600160a01b031663c16e50ef848484818110610a7657610a76612216565b9050602002810190610a88919061233e565b6040518363ffffffff1660e01b8152600401610aa5929190612384565b6020604051808303816000875af1158015610ac4573d6000803e3d6000fd5b505050506040513d601f19601f82011682018060405250810190610ae89190612315565b5080610af38161228b565b915050610a14565b50600084815260056020908152604091829020805460ff1916600117905581516001600160a01b03861681529081018690527f9ebe94a87e9d85fb44a2b38b11c3b10117eba3fbd045c54a8577bc62540d5d75910160405180910390a1610b626001600455565b5050505050505050565b610b74611af3565b610b84888888888888888861084e565b60008881526009602052604090819020546008549151632142170760e11b81523060048201526001600160a01b03868116602483015260448201839052919291909116906342842e0e90606401600060405180830381600087803b158015610beb57600080fd5b505af1158015610bff573d6000803e3d6000fd5b5050505050610b626001600455565b6000818103610c1f57506000919050565b60035463ffffffff16805b63ffffffff81166000908152600260205260409020548403610c50575060019392505050565b8063ffffffff16600003610c625750601e5b80610c6c816123a0565b9150508163ffffffff168163ffffffff1603610c2a575060009392505050565b610c94611af3565b610c9f8484846112c8565b600854604051632142170760e11b8152336004820152306024820152604481018390526001600160a01b03909116906342842e0e90606401600060405180830381600087803b158015610cf157600080fd5b505af1158015610d05573d6000803e3d6000fd5b505050600085815260096020526040902082905550610d246001600455565b50505050565b60076020528160005260406000208181548110610d4657600080fd5b6000918252602090912001546001600160a01b03169150829050565b60006000805160206125f38339815191528310610dc15760405162461bcd60e51b815260206004820181905260248201527f5f6c6566742073686f756c6420626520696e7369646520746865206669656c6460448201526064016106df565b6000805160206125f38339815191528210610e285760405162461bcd60e51b815260206004820152602160248201527f5f72696768742073686f756c6420626520696e7369646520746865206669656c6044820152601960fa1b60648201526084016106df565b60405163f47d33b560e01b81526004810184905260006024820181905284916001600160a01b0387169063f47d33b5906044016040805180830381865afa158015610e77573d6000803e3d6000fd5b505050506040513d601f19601f82011682018060405250810190610e9b91906123c0565b90925090506000805160206125f383398151915284830860405163f47d33b560e01b815260048101829052602481018390529092506001600160a01b0387169063f47d33b5906044016040805180830381865afa158015610f00573d6000803e3d6000fd5b505050506040513d601f19601f82011682018060405250810190610f2491906123c0565b509695505050505050565b6000858152600b60205260409020819055610f4c85858585610c8c565b5050505050565b6060816001600160401b03811115610f6d57610f6d6123fa565b604051908082528060200260200182016040528015610f96578160200160208202803683370190505b50905060005b8281101561101157610fd5848483818110610fb957610fb9612216565b9050602002013560009081526005602052604090205460ff1690565b15610fff576001828281518110610fee57610fee612216565b911515602092830291909101909101525b806110098161228b565b915050610f9c565b5092915050565b8a89146110765760405162461bcd60e51b815260206004820152602660248201527f636f6d6d69746d656e747320616e642070726f6f6673206c656e677468206d696044820152650e6dac2e8c6d60d31b60648201526084016106df565b8a87146110d35760405162461bcd60e51b815260206004820152602560248201527f636f6d6d69746d656e747320616e6420726f6f7473206c656e677468206d69736044820152640dac2e8c6d60db1b60648201526084016106df565b8a851461113a5760405162461bcd60e51b815260206004820152602f60248201527f636f6d6d69746d656e747320616e64206e756c6c69666965724861736865732060448201526e0d8cadccee8d040dad2e6dac2e8c6d608b1b60648201526084016106df565b8a83146111955760405162461bcd60e51b815260206004820152602360248201527f636f6d6d69746d656e747320616e6420746f73206c656e677468206d69736d616044820152620e8c6d60eb1b60648201526084016106df565b8a81146111fc5760405162461bcd60e51b815260206004820152602f60248201527f636f6d6d69746d656e747320616e642076616c69646174696f6e73417267732060448201526e0d8cadccee8d040dad2e6dac2e8c6d608b1b60648201526084016106df565b60005b8b8110156112b9576112a78d8d8381811061121c5761121c612216565b905060200201358c8c8481811061123557611235612216565b9050602002810190611247919061233e565b8c8c8681811061125957611259612216565b905060200201358b8b8781811061127257611272612216565b905060200201358a8a8881811061128b5761128b612216565b90506020020160208101906112a09190612410565b8989611433565b806112b18161228b565b9150506111ff565b50505050505050505050505050565b6112d0611af3565b60008381526006602052604090205460ff16156113395760405162461bcd60e51b815260206004820152602160248201527f54686520636f6d6d69746d656e7420686173206265656e207375626d697474656044820152601960fa1b60648201526084016106df565b600061134484611b1d565b6000858152600660205260408120805460ff191660011790559091505b828110156113e257600085815260076020526040902084848381811061138957611389612216565b905060200201602081019061139e9190612410565b81546001810183556000928352602090922090910180546001600160a01b0319166001600160a01b03909216919091179055806113da8161228b565b915050611361565b506040805163ffffffff8316815242602082015285917fee825d3f4d0fa209d8e2a39afe24a21286d8dc103d63061a2ed322db4ce018e3910160405180910390a25061142e6001600455565b505050565b6000888152600b6020908152604080832054600a909252909120541061149b5760405162461bcd60e51b815260206004820152601d60248201527f504f415041697264726f707065723a204c696d6974207265616368656400000060448201526064016106df565b6000888152600a602052604081208054600192906114ba90849061242d565b90915550610b6290508888888888888888610b6c565b60008160000361150157507f2fe54c60d3acabf3343a35b6eba15db4821b340f76e741e2249685ed4899af6c919050565b8160010361153057507f256a6135777eee2fd26f54b8b7037a25439d5235caee224154186d2b8a52e31d919050565b8160020361155f57507f1151949895e82ab19924de92c40a3d6f7bcb60d92b00504b8199613683f0c200919050565b8160030361158e57507f20121ee811489ff8d61f09fb89e313f14959a0f28bb428a20dba6b0b068b3bdb919050565b816004036115bd57507f0a89ca6ffa14cc462cfedb842c30ed221a50a3d6bf022a6a57dc82ab24c157c9919050565b816005036115ec57507f24ca05c2b5cd42e890d6be94c68d0689f4f21c9cec9c0f13fe41d566dfb54959919050565b8160060361161b57507f1ccb97c932565a92c60156bdba2d08f3bf1377464e025cee765679e604a7315c919050565b8160070361164a57507f19156fbd7d1a8bf5cba8909367de1b624534ebab4f0f79e003bccdd1b182bdb4919050565b8160080361167957507f261af8c1f0912e465744641409f622d466c3920ac6e5ff37e36604cb11dfff80919050565b816009036116a757507e58459724ff6ca5a1652fcbc3e82b93895cf08e975b19beab3f54c217d1c007919050565b81600a036116d657507f1f04ef20dee48d39984d8eabe768a70eafa6310ad20849d4573c3c40c2ad1e30919050565b81600b0361170557507f1bea3dec5dab51567ce7e200a30f7ba6d4276aeaa53e2686f962a46c66d511e5919050565b81600c0361173457507f0ee0f941e2da4b9e31c3ca97a40d8fa9ce68d97c084177071b3cb46cd3372f0f919050565b81600d0361176357507f1ca9503e8935884501bbaf20be14eb4c46b89772c97b96e3b2ebf3a36a948bbd919050565b81600e0361179257507f133a80e30697cd55d8f7d4b0965b7be24057ba5dc3da898ee2187232446cb108919050565b81600f036117c157507f13e6d8fc88839ed76e182c2a779af5b2c0da9dd18c90427a644f7e148a6253b6919050565b816010036117f057507f1eb16b057a477f4bc8f572ea6bee39561098f78f15bfb3699dcbb7bd8db61854919050565b8160110361181f57507f0da2cb16a1ceaabf1c16b838f7a9e3f2a3a3088d9e0a6debaa748114620696ea919050565b8160120361184e57507f24a3b3d822420b14b5d8cb6c28a574f01e98ea9e940551d2ebd75cee12649f9d919050565b8160130361187d57507f198622acbd783d1b0d9064105b1fc8e4d8889de95c4c519b3f635809fe6afc05919050565b816014036118ac57507f29d7ed391256ccc3ea596c86e933b89ff339d25ea8ddced975ae2fe30b5296d4919050565b816015036118db57507f19be59f2f0413ce78c0c3703a3a5451b1d7f39629fa33abd11548a76065b2967919050565b8160160361190a57507f1ff3f61797e538b70e619310d33f2a063e7eb59104e112e95738da1254dc3453919050565b8160170361193957507f10c16ae9959cf8358980d9dd9616e48228737310a10e2b6b731c1a548f036c48919050565b8160180361196857507f0ba433a63174a90ac20992e75e3095496812b652685b5e1a2eae0b1bf4e8fcd1919050565b8160190361199757507f019ddb9df2bc98d987d0dfeca9d2b643deafab8f7036562e627c3667266a044c919050565b81601a036119c657507f2d3c88b23175c5a5565db928414c66d1912b11acf974b2e644caaac04739ce99919050565b81601b036119f557507f2eab55f6ae4e66e32c5189eed5c470840863445760f5ed7e7b69b2a62600f354919050565b81601c03611a2357507e2df37a2642621802383cf952bf4dd1f32e05433beeb1fd41031fb7eace979d919050565b81601d03611a5257507f104aeb41435db66c3e62feccc1d6f5d98d0a0ed75d1374db457cf462e3a1f427919050565b81601e03611a8157507f1f3c6fd858e9a7d4b0d1f38e256a09d81d5a5e3c963987e2d4b814cfab7c6ebb919050565b81601f03611ab057507f2c7a07d20dff79d01fecedc1134284a8d08436606c93693b67e333f671bf69cc919050565b60405162461bcd60e51b8152602060048201526013602482015272496e646578206f7574206f6620626f756e647360681b60448201526064016106df565b919050565b600260045403611b1657604051633ee5aeb560e01b815260040160405180910390fd5b6002600455565b60035460008054909163ffffffff640100000000909104811691611b4391166002612557565b63ffffffff168163ffffffff1603611bb65760405162461bcd60e51b815260206004820152603060248201527f4d65726b6c6520747265652069732066756c6c2e204e6f206d6f7265206c656160448201526f1d995cc818d85b88189948185919195960821b60648201526084016106df565b8083600080805b60005463ffffffff9081169082161015611c8257611bdc60028661256c565b63ffffffff16600003611c1a57839250611bfb8163ffffffff166114d0565b63ffffffff821660009081526001602052604090208590559150611c36565b63ffffffff811660009081526001602052604090205492508391505b611c617f00000000000000000000000000000000000000000000000000000000000000008484610d62565b9350611c6e60028661258f565b945080611c7a816125b2565b915050611bbd565b50600354600090601e90611c9d9063ffffffff1660016125d5565b611ca7919061256c565b6003805463ffffffff191663ffffffff831690811790915560009081526002602052604090208590559050611cdd8660016125d5565b6003805463ffffffff929092166401000000000267ffffffff000000001990921691909117905550939695505050505050565b600060208284031215611d2257600080fd5b5035919050565b60008083601f840112611d3b57600080fd5b5081356001600160401b03811115611d5257600080fd5b6020830191508360208260051b8501011115611d6d57600080fd5b9250929050565b6000806000806000806000806080898b031215611d9057600080fd5b88356001600160401b0380821115611da757600080fd5b611db38c838d01611d29565b909a50985060208b0135915080821115611dcc57600080fd5b611dd88c838d01611d29565b909850965060408b0135915080821115611df157600080fd5b611dfd8c838d01611d29565b909650945060608b0135915080821115611e1657600080fd5b50611e238b828c01611d29565b999c989b5096995094979396929594505050565b6001600160a01b0381168114611e4c57600080fd5b50565b8035611aee81611e37565b60008060008060008060008060c0898b031215611e7657600080fd5b8835975060208901356001600160401b0380821115611e9457600080fd5b818b0191508b601f830112611ea857600080fd5b813581811115611eb757600080fd5b8c6020828501011115611ec957600080fd5b602083019950975060408b0135965060608b01359550611eeb60808c01611e4f565b945060a08b0135915080821115611e1657600080fd5b60008060008060608587031215611f1757600080fd5b8435935060208501356001600160401b03811115611f3457600080fd5b611f4087828801611d29565b9598909750949560400135949350505050565b60008060408385031215611f6657600080fd5b50508035926020909101359150565b600080600060608486031215611f8a57600080fd5b8335611f9581611e37565b95602085013595506040909401359392505050565b600080600080600060808688031215611fc257600080fd5b8535945060208601356001600160401b03811115611fdf57600080fd5b611feb88828901611d29565b9699909850959660408101359660609091013595509350505050565b6000806020838503121561201a57600080fd5b82356001600160401b0381111561203057600080fd5b61203c85828601611d29565b90969095509350505050565b6020808252825182820181905260009190848201906040850190845b81811015612082578351151583529284019291840191600101612064565b50909695505050505050565b60008060008060008060008060008060008060c08d8f0312156120b057600080fd5b6001600160401b038d3511156120c557600080fd5b6120d28e8e358f01611d29565b909c509a506001600160401b0360208e013511156120ef57600080fd5b6120ff8e60208f01358f01611d29565b909a5098506001600160401b0360408e0135111561211c57600080fd5b61212c8e60408f01358f01611d29565b90985096506001600160401b0360608e0135111561214957600080fd5b6121598e60608f01358f01611d29565b90965094506001600160401b0360808e0135111561217657600080fd5b6121868e60808f01358f01611d29565b90945092506001600160401b0360a08e013511156121a357600080fd5b6121b38e60a08f01358f01611d29565b81935080925050509295989b509295989b509295989b565b6000806000604084860312156121e057600080fd5b8335925060208401356001600160401b038111156121fd57600080fd5b61220986828701611d29565b9497909650939450505050565b634e487b7160e01b600052603260045260246000fd5b6000808335601e1984360301811261224357600080fd5b8301803591506001600160401b0382111561225d57600080fd5b6020019150600581901b3603821315611d6d57600080fd5b634e487b7160e01b600052601160045260246000fd5b60006001820161229d5761229d612275565b5060010190565b81835281816020850137506000828201602090810191909152601f909101601f19169091010190565b60e0815260006122e160e0830185876122a4565b905060208083018460005b6006811015612309578151835291830191908301906001016122ec565b50505050949350505050565b60006020828403121561232757600080fd5b8151801515811461233757600080fd5b9392505050565b6000808335601e1984360301811261235557600080fd5b8301803591506001600160401b0382111561236f57600080fd5b602001915036819003821315611d6d57600080fd5b6020815260006123986020830184866122a4565b949350505050565b600063ffffffff8216806123b6576123b6612275565b6000190192915050565b600080604083850312156123d357600080fd5b505080516020909101519092909150565b634e487b7160e01b600052601260045260246000fd5b634e487b7160e01b600052604160045260246000fd5b60006020828403121561242257600080fd5b813561233781611e37565b8082018082111561244057612440612275565b92915050565b600181815b80851115612483578163ffffffff0482111561246957612469612275565b8085161561247657918102915b93841c939080029061244b565b509250929050565b60008261249a57506001612440565b816124a757506000612440565b81600181146124bd57600281146124c7576124f8565b6001915050612440565b60ff8411156124d8576124d8612275565b6001841b915063ffffffff8211156124f2576124f2612275565b50612440565b5060208310610133831016604e8410600b841016171561252f575081810a63ffffffff81111561252a5761252a612275565b612440565b6125398383612446565b8063ffffffff0482111561254f5761254f612275565b029392505050565b600063ffffffff61239881851682851661248b565b600063ffffffff80841680612583576125836123e4565b92169190910692915050565b600063ffffffff808416806125a6576125a66123e4565b92169190910492915050565b600063ffffffff8083168181036125cb576125cb612275565b6001019392505050565b63ffffffff8181168382160190808211156110115761101161227556fe30644e72e131a029b85045b68181585d2833e84879b9709143e1f593f0000001a2646970667358221220e3b11aea8a6691b5a44a5ba9522a9ecae95a5cecfdaad0ef4b7c6454b41b4b4d64736f6c63430008140033",
  "devdoc": {
    "errors": {
      "ReentrancyGuardReentrantCall()": [
        {
          "details": "Unauthorized reentrant call."
        }
      ]
    },
    "kind": "dev",
    "methods": {
      "consumeCode(bytes32,bytes,bytes32,bytes32,address,bytes[])": {
        "details": "Consume a code from the contract. `proof` is a zkSNARK proof data, and input is an array of circuit public inputs `input` array consists of: - merkle root of all codes in the contract - hash of unique codes nullifier to prevent double spends - the recipient of funds - optional fee that goes to the transaction sender (usually a relay)"
      },
      "getLastRoot()": {
        "details": "Returns the last root"
      },
      "hashLeftRight(address,bytes32,bytes32)": {
        "details": "Hash 2 tree leaves, returns MiMC(_left, _right)"
      },
      "isKnownRoot(bytes32)": {
        "details": "Whether the root is present in the root history"
      },
      "isSpent(bytes32)": {
        "details": "whether a note is already spent "
      },
      "isSpentArray(bytes32[])": {
        "details": "whether an array of notes is already spent "
      },
      "setCode(bytes32,address[])": {
        "details": "Set new code.",
        "params": {
          "_commitment": "the note commitment, which is PedersenHash(nullifier + secret)"
        }
      },
      "zeros(uint256)": {
        "details": "provides Zero (Empty) elements for a MiMC MerkleTree. Up to 32 levels"
      }
    },
    "version": 1
  },
  "userdoc": {
    "kind": "user",
    "methods": {},
    "version": 1
  },
  "storageLayout": {
    "storage": [
      {
        "astId": 843,
        "contract": "contracts/useCases/POAPAirdropper.sol:POAPAirdropper",
        "label": "levels",
        "offset": 0,
        "slot": "0",
        "type": "t_uint32"
      },
      {
        "astId": 847,
        "contract": "contracts/useCases/POAPAirdropper.sol:POAPAirdropper",
        "label": "filledSubtrees",
        "offset": 0,
        "slot": "1",
        "type": "t_mapping(t_uint256,t_bytes32)"
      },
      {
        "astId": 851,
        "contract": "contracts/useCases/POAPAirdropper.sol:POAPAirdropper",
        "label": "roots",
        "offset": 0,
        "slot": "2",
        "type": "t_mapping(t_uint256,t_bytes32)"
      },
      {
        "astId": 857,
        "contract": "contracts/useCases/POAPAirdropper.sol:POAPAirdropper",
        "label": "currentRootIndex",
        "offset": 0,
        "slot": "3",
        "type": "t_uint32"
      },
      {
        "astId": 860,
        "contract": "contracts/useCases/POAPAirdropper.sol:POAPAirdropper",
        "label": "nextIndex",
        "offset": 4,
        "slot": "3",
        "type": "t_uint32"
      },
      {
        "astId": 205,
        "contract": "contracts/useCases/POAPAirdropper.sol:POAPAirdropper",
        "label": "_status",
        "offset": 0,
        "slot": "4",
        "type": "t_uint256"
      },
      {
        "astId": 303,
        "contract": "contracts/useCases/POAPAirdropper.sol:POAPAirdropper",
        "label": "nullifierHashes",
        "offset": 0,
        "slot": "5",
        "type": "t_mapping(t_bytes32,t_bool)"
      },
      {
        "astId": 307,
        "contract": "contracts/useCases/POAPAirdropper.sol:POAPAirdropper",
        "label": "commitments",
        "offset": 0,
        "slot": "6",
        "type": "t_mapping(t_bytes32,t_bool)"
      },
      {
        "astId": 312,
        "contract": "contracts/useCases/POAPAirdropper.sol:POAPAirdropper",
        "label": "validationModules",
        "offset": 0,
        "slot": "7",
        "type": "t_mapping(t_bytes32,t_array(t_address)dyn_storage)"
      },
      {
        "astId": 704,
        "contract": "contracts/useCases/POAPAirdropper.sol:POAPAirdropper",
        "label": "token",
        "offset": 0,
        "slot": "8",
        "type": "t_contract(IERC721)194"
      },
      {
        "astId": 708,
        "contract": "contracts/useCases/POAPAirdropper.sol:POAPAirdropper",
        "label": "TransferId",
        "offset": 0,
        "slot": "9",
        "type": "t_mapping(t_bytes32,t_uint256)"
      },
      {
        "astId": 2040,
        "contract": "contracts/useCases/POAPAirdropper.sol:POAPAirdropper",
        "label": "consumed",
        "offset": 0,
        "slot": "10",
        "type": "t_mapping(t_bytes32,t_uint256)"
      },
      {
        "astId": 2044,
        "contract": "contracts/useCases/POAPAirdropper.sol:POAPAirdropper",
        "label": "limits",
        "offset": 0,
        "slot": "11",
        "type": "t_mapping(t_bytes32,t_uint256)"
      }
    ],
    "types": {
      "t_address": {
        "encoding": "inplace",
        "label": "address",
        "numberOfBytes": "20"
      },
      "t_array(t_address)dyn_storage": {
        "base": "t_address",
        "encoding": "dynamic_array",
        "label": "address[]",
        "numberOfBytes": "32"
      },
      "t_bool": {
        "encoding": "inplace",
        "label": "bool",
        "numberOfBytes": "1"
      },
      "t_bytes32": {
        "encoding": "inplace",
        "label": "bytes32",
        "numberOfBytes": "32"
      },
      "t_contract(IERC721)194": {
        "encoding": "inplace",
        "label": "contract IERC721",
        "numberOfBytes": "20"
      },
      "t_mapping(t_bytes32,t_array(t_address)dyn_storage)": {
        "encoding": "mapping",
        "key": "t_bytes32",
        "label": "mapping(bytes32 => address[])",
        "numberOfBytes": "32",
        "value": "t_array(t_address)dyn_storage"
      },
      "t_mapping(t_bytes32,t_bool)": {
        "encoding": "mapping",
        "key": "t_bytes32",
        "label": "mapping(bytes32 => bool)",
        "numberOfBytes": "32",
        "value": "t_bool"
      },
      "t_mapping(t_bytes32,t_uint256)": {
        "encoding": "mapping",
        "key": "t_bytes32",
        "label": "mapping(bytes32 => uint256)",
        "numberOfBytes": "32",
        "value": "t_uint256"
      },
      "t_mapping(t_uint256,t_bytes32)": {
        "encoding": "mapping",
        "key": "t_uint256",
        "label": "mapping(uint256 => bytes32)",
        "numberOfBytes": "32",
        "value": "t_bytes32"
      },
      "t_uint256": {
        "encoding": "inplace",
        "label": "uint256",
        "numberOfBytes": "32"
      },
      "t_uint32": {
        "encoding": "inplace",
        "label": "uint32",
        "numberOfBytes": "4"
      }
    }
  }
}