{
  "address": "0x331b814A1aDd167927c29D9af93670687fF8145A",
  "abi": [
    {
      "inputs": [],
      "stateMutability": "nonpayable",
      "type": "constructor"
    },
    {
      "inputs": [
        {
          "internalType": "bytes",
          "name": "arg",
          "type": "bytes"
        }
      ],
      "name": "validate",
      "outputs": [
        {
          "internalType": "bool",
          "name": "",
          "type": "bool"
        }
      ],
      "stateMutability": "nonpayable",
      "type": "function"
    },
    {
      "inputs": [],
      "name": "worldcoinVerifier",
      "outputs": [
        {
          "internalType": "address",
          "name": "",
          "type": "address"
        }
      ],
      "stateMutability": "view",
      "type": "function"
    }
  ],
  "transactionHash": "0xb4bf71360ce973535c603ac4ff8614d46c9bafd9af73b40ed1a624b6e7a0c34b",
  "args": [],
  "numDeployments": 1,
  "solcInputHash": "76e8e54d94c8c23eafb89159fce21361",
  "bytecode": "0x608060405234801561001057600080fd5b50600080546001600160a01b0319167311ca3127182f7583efc416a8771bd4d11fae433417905561025d806100466000396000f3fe608060405234801561001057600080fd5b50600436106100365760003560e01c8063c16e50ef1461003b578063d988e14514610063575b600080fd5b61004e61004936600461015d565b61008e565b60405190151581526020015b60405180910390f35b600054610076906001600160a01b031681565b6040516001600160a01b03909116815260200161005a565b60008054604051632ae132ff60e11b81526001600160a01b03909116906355c265fe906100c190869086906004016101cf565b6020604051808303816000875af11580156100e0573d6000803e3d6000fd5b505050506040513d601f19601f8201168201806040525081019061010491906101fe565b6101545760405162461bcd60e51b815260206004820152601d60248201527f576f726c64636f696e20566572696669636174696f6e204661696c6564000000604482015260640160405180910390fd5b50600192915050565b6000806020838503121561017057600080fd5b823567ffffffffffffffff8082111561018857600080fd5b818501915085601f83011261019c57600080fd5b8135818111156101ab57600080fd5b8660208285010111156101bd57600080fd5b60209290920196919550909350505050565b60208152816020820152818360408301376000818301604090810191909152601f909201601f19160101919050565b60006020828403121561021057600080fd5b8151801515811461022057600080fd5b939250505056fea264697066735822122068b3deedc124c91bdfc206fc36f9e91a89b7d5d41d3c484f2903a3cb9697d71b64736f6c63430008140033",
  "devdoc": {
    "kind": "dev",
    "methods": {},
    "version": 1
  },
  "userdoc": {
    "kind": "user",
    "methods": {},
    "version": 1
  },
  "storageLayout": {
    "storage": [
      {
        "astId": 24,
        "contract": "contracts/modules/WorldcoinValidatorModule.sol:WorldcoinValidatorModule",
        "label": "worldcoinVerifier",
        "offset": 0,
        "slot": "0",
        "type": "t_address"
      }
    ],
    "types": {
      "t_address": {
        "encoding": "inplace",
        "label": "address",
        "numberOfBytes": "20"
      }
    }
  }
}