{
  "address": "0x442b0fc1f9760737c61439342c73dD903231E571",
  "abi": [
    {
      "inputs": [
        {
          "internalType": "address",
          "name": "owner",
          "type": "address"
        },
        {
          "internalType": "address",
          "name": "_backendSigner",
          "type": "address"
        },
        {
          "internalType": "address",
          "name": "_erc20token",
          "type": "address"
        }
      ],
      "stateMutability": "nonpayable",
      "type": "constructor"
    },
    {
      "inputs": [
        {
          "internalType": "address",
          "name": "owner",
          "type": "address"
        }
      ],
      "name": "OwnableInvalidOwner",
      "type": "error"
    },
    {
      "inputs": [
        {
          "internalType": "address",
          "name": "account",
          "type": "address"
        }
      ],
      "name": "OwnableUnauthorizedAccount",
      "type": "error"
    },
    {
      "anonymous": false,
      "inputs": [
        {
          "indexed": true,
          "internalType": "address",
          "name": "borrower",
          "type": "address"
        },
        {
          "indexed": false,
          "internalType": "uint256",
          "name": "amount",
          "type": "uint256"
        }
      ],
      "name": "Borrowed",
      "type": "event"
    },
    {
      "anonymous": false,
      "inputs": [
        {
          "indexed": true,
          "internalType": "address",
          "name": "previousOwner",
          "type": "address"
        },
        {
          "indexed": true,
          "internalType": "address",
          "name": "newOwner",
          "type": "address"
        }
      ],
      "name": "OwnershipTransferred",
      "type": "event"
    },
    {
      "anonymous": false,
      "inputs": [
        {
          "indexed": true,
          "internalType": "address",
          "name": "borrower",
          "type": "address"
        },
        {
          "indexed": false,
          "internalType": "uint256",
          "name": "amount",
          "type": "uint256"
        }
      ],
      "name": "Repaid",
      "type": "event"
    },
    {
      "anonymous": false,
      "inputs": [
        {
          "indexed": true,
          "internalType": "address",
          "name": "supplier",
          "type": "address"
        },
        {
          "indexed": false,
          "internalType": "uint256",
          "name": "amount",
          "type": "uint256"
        }
      ],
      "name": "Supplied",
      "type": "event"
    },
    {
      "anonymous": false,
      "inputs": [
        {
          "indexed": true,
          "internalType": "address",
          "name": "supplier",
          "type": "address"
        },
        {
          "indexed": false,
          "internalType": "uint256",
          "name": "amount",
          "type": "uint256"
        }
      ],
      "name": "Withdrawn",
      "type": "event"
    },
    {
      "inputs": [],
      "name": "backendSigner",
      "outputs": [
        {
          "internalType": "address",
          "name": "",
          "type": "address"
        }
      ],
      "stateMutability": "view",
      "type": "function"
    },
    {
      "inputs": [
        {
          "internalType": "uint256",
          "name": "requestedAmount",
          "type": "uint256"
        },
        {
          "internalType": "uint256",
          "name": "creditLimit",
          "type": "uint256"
        },
        {
          "internalType": "bytes",
          "name": "signature",
          "type": "bytes"
        }
      ],
      "name": "borrow",
      "outputs": [],
      "stateMutability": "nonpayable",
      "type": "function"
    },
    {
      "inputs": [],
      "name": "erc20token",
      "outputs": [
        {
          "internalType": "address",
          "name": "",
          "type": "address"
        }
      ],
      "stateMutability": "view",
      "type": "function"
    },
    {
      "inputs": [
        {
          "internalType": "bytes",
          "name": "message",
          "type": "bytes"
        }
      ],
      "name": "getEthHashedMessage",
      "outputs": [
        {
          "internalType": "bytes32",
          "name": "",
          "type": "bytes32"
        }
      ],
      "stateMutability": "pure",
      "type": "function"
    },
    {
      "inputs": [],
      "name": "owner",
      "outputs": [
        {
          "internalType": "address",
          "name": "",
          "type": "address"
        }
      ],
      "stateMutability": "view",
      "type": "function"
    },
    {
      "inputs": [
        {
          "internalType": "bytes32",
          "name": "_ethHashMessage",
          "type": "bytes32"
        },
        {
          "internalType": "bytes",
          "name": "_sig",
          "type": "bytes"
        }
      ],
      "name": "recover",
      "outputs": [
        {
          "internalType": "address",
          "name": "",
          "type": "address"
        }
      ],
      "stateMutability": "pure",
      "type": "function"
    },
    {
      "inputs": [],
      "name": "renounceOwnership",
      "outputs": [],
      "stateMutability": "nonpayable",
      "type": "function"
    },
    {
      "inputs": [
        {
          "internalType": "uint256",
          "name": "amount",
          "type": "uint256"
        }
      ],
      "name": "repay",
      "outputs": [],
      "stateMutability": "nonpayable",
      "type": "function"
    },
    {
      "inputs": [
        {
          "internalType": "uint256",
          "name": "amount",
          "type": "uint256"
        }
      ],
      "name": "supply",
      "outputs": [],
      "stateMutability": "nonpayable",
      "type": "function"
    },
    {
      "inputs": [
        {
          "internalType": "address",
          "name": "",
          "type": "address"
        }
      ],
      "name": "totalBorrowed",
      "outputs": [
        {
          "internalType": "uint256",
          "name": "",
          "type": "uint256"
        }
      ],
      "stateMutability": "view",
      "type": "function"
    },
    {
      "inputs": [],
      "name": "totalBorrowedAmount",
      "outputs": [
        {
          "internalType": "uint256",
          "name": "",
          "type": "uint256"
        }
      ],
      "stateMutability": "view",
      "type": "function"
    },
    {
      "inputs": [
        {
          "internalType": "address",
          "name": "",
          "type": "address"
        }
      ],
      "name": "totalSupplied",
      "outputs": [
        {
          "internalType": "uint256",
          "name": "",
          "type": "uint256"
        }
      ],
      "stateMutability": "view",
      "type": "function"
    },
    {
      "inputs": [],
      "name": "totalSuppliedAmount",
      "outputs": [
        {
          "internalType": "uint256",
          "name": "",
          "type": "uint256"
        }
      ],
      "stateMutability": "view",
      "type": "function"
    },
    {
      "inputs": [
        {
          "internalType": "address",
          "name": "newOwner",
          "type": "address"
        }
      ],
      "name": "transferOwnership",
      "outputs": [],
      "stateMutability": "nonpayable",
      "type": "function"
    },
    {
      "inputs": [
        {
          "internalType": "address",
          "name": "_newSigner",
          "type": "address"
        }
      ],
      "name": "updateBackendSigner",
      "outputs": [],
      "stateMutability": "nonpayable",
      "type": "function"
    },
    {
      "inputs": [
        {
          "internalType": "address",
          "name": "_signer",
          "type": "address"
        },
        {
          "internalType": "bytes",
          "name": "_message",
          "type": "bytes"
        },
        {
          "internalType": "bytes",
          "name": "signature",
          "type": "bytes"
        }
      ],
      "name": "verify",
      "outputs": [
        {
          "internalType": "bool",
          "name": "success",
          "type": "bool"
        }
      ],
      "stateMutability": "pure",
      "type": "function"
    },
    {
      "inputs": [
        {
          "internalType": "uint256",
          "name": "amount",
          "type": "uint256"
        }
      ],
      "name": "withdraw",
      "outputs": [],
      "stateMutability": "nonpayable",
      "type": "function"
    }
  ],
  "transactionHash": "0x53a0a59d00493b6b9dee46077155f64f291e1e8cd7182237db1a976ab6ccb75a",
  "args": [
    "0xEB71ed911e4dFc35Da80103a72fE983C8c709F33",
    "0xEB71ed911e4dFc35Da80103a72fE983C8c709F33",
    "0xDE73ccf0FEd614E5556F305f0906341E7eFa455F"
  ],
  "numDeployments": 1,
  "solcInputHash": "9ddb8139913eeae7bd1c32524d38439f",
  "bytecode": "0x60803461013857601f61102538819003918201601f19168301916001600160401b0383118484101761013d578084926060946040528339810103126101385761004781610153565b61005f604061005860208501610153565b9301610153565b6001600160a01b0391821692831561011f57826000549160018060a01b03199580878516176000558260405194167f8be0079c531659141344cd1fd0a4f28419497f9722a3daafe3b4186f6b6457e0600080a3169081156100dd575083600554161760055516906006541617600655604051610ebd90816101688239f35b62461bcd60e51b815260206004820152601660248201527f496e76616c6964207369676e65722061646472657373000000000000000000006044820152606490fd5b604051631e4fbdf760e01b815260006004820152602490fd5b600080fd5b634e487b7160e01b600052604160045260246000fd5b51906001600160a01b03821682036101385756fe6080604052600436101561001257600080fd5b60003560e01c806319045a25146101275780631dcea427146101225780632e1a7d4d1461011d5780633540302314610118578063371fd8e6146101135780633e35fff51461010e5780635ade66331461010957806365d65e86146101045780636bbe56cf146100ff578063715018a6146100fa578063898cdb86146100f55780638da5cb5b146100f0578063a2edff0a146100eb578063d74acb6e146100e6578063e2e1ca2b146100e1578063ebb90f18146100dc5763f2fde38b146100d757600080fd5b610992565b61094f565b610915565b6108f7565b6108d9565b6108b0565b61081e565b6107c0565b610786565b61075d565b6106f4565b610558565b610452565b61036d565b61024a565b610221565b6101d1565b634e487b7160e01b600052604160045260246000fd5b90601f8019910116810190811067ffffffffffffffff82111761016457604052565b61012c565b67ffffffffffffffff811161016457601f01601f191660200190565b81601f820112156101cc5780359061019c82610169565b926101aa6040519485610142565b828452602083830101116101cc57816000926020809301838601378301015290565b600080fd5b346101cc5760403660031901126101cc5760243567ffffffffffffffff81116101cc5761020f6102076020923690600401610185565b600435610cea565b6040516001600160a01b039091168152f35b346101cc5760003660031901126101cc576006546040516001600160a01b039091168152602090f35b346101cc5760203660031901126101cc573360009081526002602052604090206004359061027c908290541015610b83565b60065461029f90610293906001600160a01b031681565b6001600160a01b031690565b60405163a9059cbb60e01b81523360048201526024810183905290602090829060449082906000905af180156103685761033a575b503360009081526002602052604090206102ef828254610bde565b905561030561030082600454610bde565b600455565b60405190815233907f7084f5476618d8e60b11ef0d7d3f06914655adb8793e28ff7f018d4c76d505d59080602081015b0390a2005b61035a9060203d8111610361575b6103528183610142565b810190610b5f565b50386102d4565b503d610348565b610b77565b346101cc5760203660031901126101cc576006546004359061039990610293906001600160a01b031681565b6040516323b872dd60e01b81523360048201523060248201526044810183905290602090829060649082906000905af1801561036857610434575b503360009081526002602052604090206103ef828254610ac6565b905561040061030082600454610ac6565b60405190815233907f6473c9f7da8f23a3d810f05b3e8fb3945f0ad17deadcc09e302cdf5d58e48fe7908060208101610335565b61044b9060203d8111610361576103528183610142565b50386103d4565b346101cc5760203660031901126101cc57336000908152600160205260409020600435906104839054821115610beb565b60065461049a90610293906001600160a01b031681565b6040516323b872dd60e01b81523360048201523060248201526044810183905290602090829060649082906000905af180156103685761053a575b503360009081526001602052604090206104f0828254610bde565b905561050661050182600354610bde565b600355565b60405190815233907f0516911bcc3a0a7412a44601057c0a0a1ec628bde049a84284bc428866534488908060208101610335565b6105519060203d8111610361576103528183610142565b50386104d5565b346101cc5760603660031901126101cc5760043560243560443567ffffffffffffffff81116101cc57610614916105fc61059961060f933690600401610185565b916105a8866004541015610a46565b3360009081526001602052604090206105d09082906105c990899054610ac6565b1115610ad3565b60055461060a906001600160a01b03166040805133602082015290810193909352919283906060820190565b03601f198101845283610142565b610cc7565b610b1f565b33600090815260016020526040902061062e828254610ac6565b905561063f61050182600354610ac6565b60065461065690610293906001600160a01b031681565b60405163a9059cbb60e01b81523360048201526024810183905290602090829060449082906000905af18015610368576106c0575b5060405190815233907fac59582e5396aca512fa873a2047e7f4c80f8f55d4a06cb34a78a0187f62719f908060208101610335565b6106d79060203d8111610361576103528183610142565b503861068b565b600435906001600160a01b03821682036101cc57565b346101cc5760603660031901126101cc5761070d6106de565b67ffffffffffffffff6024358181116101cc5761072e903690600401610185565b916044359182116101cc5760209261074d610753933690600401610185565b91610cc7565b6040519015158152f35b346101cc5760003660031901126101cc576005546040516001600160a01b039091168152602090f35b346101cc5760203660031901126101cc576001600160a01b036107a76106de565b1660005260026020526020604060002054604051908152f35b346101cc5760008060031936011261081b576107da610a1a565b80546001600160a01b03198116825581906001600160a01b03167f8be0079c531659141344cd1fd0a4f28419497f9722a3daafe3b4186f6b6457e08280a380f35b80fd5b346101cc5760203660031901126101cc576108376106de565b61083f610a1a565b6001600160a01b0316801561086b576bffffffffffffffffffffffff60a01b6005541617600555600080f35b60405162461bcd60e51b815260206004820152601a60248201527f496e76616c6964206e6577207369676e657220616464726573730000000000006044820152606490fd5b346101cc5760003660031901126101cc576000546040516001600160a01b039091168152602090f35b346101cc5760003660031901126101cc576020600454604051908152f35b346101cc5760003660031901126101cc576020600354604051908152f35b346101cc5760203660031901126101cc576001600160a01b036109366106de565b1660005260016020526020604060002054604051908152f35b346101cc5760203660031901126101cc5760043567ffffffffffffffff81116101cc5761098a6109856020923690600401610185565b610c4d565b604051908152f35b346101cc5760203660031901126101cc576109ab6106de565b6109b3610a1a565b6001600160a01b039081168015610a0157600080546001600160a01b03198116831782559092167f8be0079c531659141344cd1fd0a4f28419497f9722a3daafe3b4186f6b6457e08380a380f35b604051631e4fbdf760e01b815260006004820152602490fd5b6000546001600160a01b03163303610a2e57565b60405163118cdaa760e01b8152336004820152602490fd5b15610a4d57565b60405162461bcd60e51b815260206004820152602260248201527f496e73756666696369656e74206c697175696469747920696e2074686520706f6044820152611bdb60f21b6064820152608490fd5b634e487b7160e01b600052601160045260246000fd5b6030019081603011610ac157565b610a9d565b91908201809211610ac157565b15610ada57565b60405162461bcd60e51b815260206004820152601e60248201527f426f72726f77696e67206578636565647320637265646974206c696d697400006044820152606490fd5b15610b2657565b60405162461bcd60e51b8152602060048201526011602482015270496e76616c6964207369676e617475726560781b6044820152606490fd5b908160209103126101cc575180151581036101cc5790565b6040513d6000823e3d90fd5b15610b8a57565b60405162461bcd60e51b815260206004820152601c60248201527f496e73756666696369656e7420737570706c69656420616d6f756e74000000006044820152606490fd5b600019810191908211610ac157565b91908203918211610ac157565b15610bf257565b60405162461bcd60e51b815260206004820152601060248201526f2a37b79036bab1b4103932b830b4b21760811b6044820152606490fd5b60005b838110610c3d5750506000910152565b8181015183820152602001610c2d565b610c578151610dcc565b90610cc1603a604051809360208201957f19457468657265756d205369676e6564204d6573736167653a0a0000000000008752610c9d8151809260208787019101610c2a565b8201610cb28251809360208785019101610c2a565b0103601a810184520182610142565b51902090565b91610cd4610cd992610c4d565b610cea565b6001600160a01b0390811691161490565b906041815103610d35576020818101516040808401516060948501518251968752600090811a8786015291860192909252928401528180529160809060015afa156103685760005190565b60405162461bcd60e51b815260206004820152601660248201527514da59db985d1d5c99481a5cc81b9bdd081d985b1a5960521b6044820152606490fd5b90610d7d82610169565b610d8a6040519182610142565b8281528092610d9b601f1991610169565b0190602036910137565b908151811015610db6570160200190565b634e487b7160e01b600052603260045260246000fd5b8015610e58576000818181805b610e3c5750610de781610d73565b935b610df35750505090565b610dfc90610bcf565b90600a90610e27610e17610e11848406610ab3565b60ff1690565b60f81b6001600160f81b03191690565b841a610e338487610da5565b53049081610de9565b91506000198114610ac1576001600a9101910480849291610dd9565b506040516040810181811067ffffffffffffffff8211176101645760405260018152600360fc1b60208201529056fea2646970667358221220ac2dba7ab38fde839f1e8f388df249d478ee7bd07067362dedde7a1024c8499364736f6c63430008140033",
  "devdoc": {
    "errors": {
      "OwnableInvalidOwner(address)": [
        {
          "details": "The owner is not a valid owner account. (eg. `address(0)`)"
        }
      ],
      "OwnableUnauthorizedAccount(address)": [
        {
          "details": "The caller account is not authorized to perform an operation."
        }
      ]
    },
    "kind": "dev",
    "methods": {
      "borrow(uint256,uint256,bytes)": {
        "details": "Borrow function to request a loan.",
        "params": {
          "creditLimit": "Credit limit approved for the borrower (from the signed message).",
          "requestedAmount": "Amount the borrower wants to borrow.",
          "signature": "Backend-signed message verifying the credit limit."
        }
      },
      "owner()": {
        "details": "Returns the address of the current owner."
      },
      "renounceOwnership()": {
        "details": "Leaves the contract without owner. It will not be possible to call `onlyOwner` functions. Can only be called by the current owner. NOTE: Renouncing ownership will leave the contract without an owner, thereby disabling any functionality that is only available to the owner."
      },
      "transferOwnership(address)": {
        "details": "Transfers ownership of the contract to a new account (`newOwner`). Can only be called by the current owner."
      },
      "updateBackendSigner(address)": {
        "details": "Updates the backend signer address."
      }
    },
    "version": 1
  },
  "userdoc": {
    "kind": "user",
    "methods": {},
    "version": 1
  },
  "storageLayout": {
    "storage": [
      {
        "astId": 8,
        "contract": "contracts/LendingProtocol.sol:LendingProtocol",
        "label": "_owner",
        "offset": 0,
        "slot": "0",
        "type": "t_address"
      },
      {
        "astId": 1068,
        "contract": "contracts/LendingProtocol.sol:LendingProtocol",
        "label": "totalBorrowed",
        "offset": 0,
        "slot": "1",
        "type": "t_mapping(t_address,t_uint256)"
      },
      {
        "astId": 1072,
        "contract": "contracts/LendingProtocol.sol:LendingProtocol",
        "label": "totalSupplied",
        "offset": 0,
        "slot": "2",
        "type": "t_mapping(t_address,t_uint256)"
      },
      {
        "astId": 1074,
        "contract": "contracts/LendingProtocol.sol:LendingProtocol",
        "label": "totalBorrowedAmount",
        "offset": 0,
        "slot": "3",
        "type": "t_uint256"
      },
      {
        "astId": 1076,
        "contract": "contracts/LendingProtocol.sol:LendingProtocol",
        "label": "totalSuppliedAmount",
        "offset": 0,
        "slot": "4",
        "type": "t_uint256"
      },
      {
        "astId": 1078,
        "contract": "contracts/LendingProtocol.sol:LendingProtocol",
        "label": "backendSigner",
        "offset": 0,
        "slot": "5",
        "type": "t_address"
      },
      {
        "astId": 1080,
        "contract": "contracts/LendingProtocol.sol:LendingProtocol",
        "label": "erc20token",
        "offset": 0,
        "slot": "6",
        "type": "t_address"
      }
    ],
    "types": {
      "t_address": {
        "encoding": "inplace",
        "label": "address",
        "numberOfBytes": "20"
      },
      "t_mapping(t_address,t_uint256)": {
        "encoding": "mapping",
        "key": "t_address",
        "label": "mapping(address => uint256)",
        "numberOfBytes": "32",
        "value": "t_uint256"
      },
      "t_uint256": {
        "encoding": "inplace",
        "label": "uint256",
        "numberOfBytes": "32"
      }
    }
  }
}