{
  "address": "0x1D293E4Fc212883105e2cC3F33b133A09c8599a6",
  "abi": [
    {
      "inputs": [
        {
          "internalType": "bytes",
          "name": "arg",
          "type": "bytes"
        }
      ],
      "name": "validate",
      "outputs": [
        {
          "internalType": "bool",
          "name": "",
          "type": "bool"
        }
      ],
      "stateMutability": "nonpayable",
      "type": "function"
    }
  ],
  "transactionHash": "0x32fbed22468294d64eb2c32209175a15f694a84d28a7277b7bcf668d7b9958b1",
  "args": [],
  "numDeployments": 1,
  "solcInputHash": "b8ef8c09ad2020861a33b20b6afc56a2",
  "bytecode": "0x608060405234801561001057600080fd5b5060f78061001f6000396000f3fe6080604052348015600f57600080fd5b506004361060285760003560e01c8063c16e50ef14602d575b600080fd5b604060383660046054565b600192915050565b604051901515815260200160405180910390f35b60008060208385031215606657600080fd5b823567ffffffffffffffff80821115607d57600080fd5b818501915085601f830112609057600080fd5b813581811115609e57600080fd5b86602082850101111560af57600080fd5b6020929092019691955090935050505056fea26469706673582212208739ee06ac8d648df91ec45097555ffdb8319a99e3b6cc4ebc0db2d50c5fea1964736f6c63430008140033",
  "devdoc": {
    "kind": "dev",
    "methods": {},
    "version": 1
  },
  "userdoc": {
    "kind": "user",
    "methods": {},
    "version": 1
  },
  "storageLayout": {
    "storage": [],
    "types": null
  }
}