{
  "address": "0xCde5efC031eb791ba9464D49F12B851feaA8106e",
  "abi": [
    {
      "inputs": [
        {
          "internalType": "contract IVerifier",
          "name": "_verifier",
          "type": "address"
        },
        {
          "internalType": "contract IHasher",
          "name": "_hasher",
          "type": "address"
        },
        {
          "internalType": "uint32",
          "name": "_merkleTreeHeight",
          "type": "uint32"
        },
        {
          "internalType": "contract IERC721",
          "name": "_token",
          "type": "address"
        }
      ],
      "stateMutability": "nonpayable",
      "type": "constructor"
    },
    {
      "inputs": [],
      "name": "ReentrancyGuardReentrantCall",
      "type": "error"
    },
    {
      "anonymous": false,
      "inputs": [
        {
          "indexed": false,
          "internalType": "address",
          "name": "to",
          "type": "address"
        },
        {
          "indexed": false,
          "internalType": "bytes32",
          "name": "nullifierHash",
          "type": "bytes32"
        }
      ],
      "name": "ConsumeCode",
      "type": "event"
    },
    {
      "anonymous": false,
      "inputs": [
        {
          "indexed": true,
          "internalType": "bytes32",
          "name": "commitment",
          "type": "bytes32"
        },
        {
          "indexed": false,
          "internalType": "uint32",
          "name": "leafIndex",
          "type": "uint32"
        },
        {
          "indexed": false,
          "internalType": "uint256",
          "name": "timestamp",
          "type": "uint256"
        }
      ],
      "name": "NewCode",
      "type": "event"
    },
    {
      "anonymous": false,
      "inputs": [
        {
          "indexed": false,
          "internalType": "bool",
          "name": "success",
          "type": "bool"
        }
      ],
      "name": "Success",
      "type": "event"
    },
    {
      "inputs": [],
      "name": "FIELD_SIZE",
      "outputs": [
        {
          "internalType": "uint256",
          "name": "",
          "type": "uint256"
        }
      ],
      "stateMutability": "view",
      "type": "function"
    },
    {
      "inputs": [],
      "name": "ROOT_HISTORY_SIZE",
      "outputs": [
        {
          "internalType": "uint32",
          "name": "",
          "type": "uint32"
        }
      ],
      "stateMutability": "view",
      "type": "function"
    },
    {
      "inputs": [
        {
          "internalType": "bytes32",
          "name": "",
          "type": "bytes32"
        }
      ],
      "name": "TransferId",
      "outputs": [
        {
          "internalType": "uint256",
          "name": "",
          "type": "uint256"
        }
      ],
      "stateMutability": "view",
      "type": "function"
    },
    {
      "inputs": [],
      "name": "ZERO_VALUE",
      "outputs": [
        {
          "internalType": "uint256",
          "name": "",
          "type": "uint256"
        }
      ],
      "stateMutability": "view",
      "type": "function"
    },
    {
      "inputs": [
        {
          "internalType": "bytes32[]",
          "name": "_commitments",
          "type": "bytes32[]"
        },
        {
          "internalType": "bytes[]",
          "name": "_proofs",
          "type": "bytes[]"
        },
        {
          "internalType": "bytes32[]",
          "name": "_roots",
          "type": "bytes32[]"
        },
        {
          "internalType": "bytes32[]",
          "name": "_nullifierHashes",
          "type": "bytes32[]"
        },
        {
          "internalType": "address payable[]",
          "name": "_tos",
          "type": "address[]"
        },
        {
          "internalType": "bytes[]",
          "name": "_validationsArgs",
          "type": "bytes[]"
        }
      ],
      "name": "bulkConsumeAlephNFTAirdrop",
      "outputs": [],
      "stateMutability": "nonpayable",
      "type": "function"
    },
    {
      "inputs": [
        {
          "internalType": "bytes32[]",
          "name": "_commitments",
          "type": "bytes32[]"
        },
        {
          "internalType": "address[][]",
          "name": "_validationModules",
          "type": "address[][]"
        },
        {
          "internalType": "uint256[]",
          "name": "_ids",
          "type": "uint256[]"
        },
        {
          "internalType": "uint256[]",
          "name": "_limits",
          "type": "uint256[]"
        }
      ],
      "name": "bulkCreateAlephNFTAirdrop",
      "outputs": [],
      "stateMutability": "payable",
      "type": "function"
    },
    {
      "inputs": [
        {
          "internalType": "bytes32",
          "name": "",
          "type": "bytes32"
        }
      ],
      "name": "commitments",
      "outputs": [
        {
          "internalType": "bool",
          "name": "",
          "type": "bool"
        }
      ],
      "stateMutability": "view",
      "type": "function"
    },
    {
      "inputs": [
        {
          "internalType": "bytes32",
          "name": "_commitment",
          "type": "bytes32"
        },
        {
          "internalType": "bytes",
          "name": "_proof",
          "type": "bytes"
        },
        {
          "internalType": "bytes32",
          "name": "_root",
          "type": "bytes32"
        },
        {
          "internalType": "bytes32",
          "name": "_nullifierHash",
          "type": "bytes32"
        },
        {
          "internalType": "address payable",
          "name": "_to",
          "type": "address"
        },
        {
          "internalType": "bytes[]",
          "name": "_validationsArgs",
          "type": "bytes[]"
        }
      ],
      "name": "consumeAlephNFTAirdrop",
      "outputs": [],
      "stateMutability": "nonpayable",
      "type": "function"
    },
    {
      "inputs": [
        {
          "internalType": "bytes32",
          "name": "_commitment",
          "type": "bytes32"
        },
        {
          "internalType": "bytes",
          "name": "_proof",
          "type": "bytes"
        },
        {
          "internalType": "bytes32",
          "name": "_root",
          "type": "bytes32"
        },
        {
          "internalType": "bytes32",
          "name": "_nullifierHash",
          "type": "bytes32"
        },
        {
          "internalType": "address payable",
          "name": "_recipient",
          "type": "address"
        },
        {
          "internalType": "bytes[]",
          "name": "_validationsArgs",
          "type": "bytes[]"
        }
      ],
      "name": "consumeCode",
      "outputs": [],
      "stateMutability": "payable",
      "type": "function"
    },
    {
      "inputs": [
        {
          "internalType": "bytes32",
          "name": "_commitment",
          "type": "bytes32"
        },
        {
          "internalType": "bytes",
          "name": "_proof",
          "type": "bytes"
        },
        {
          "internalType": "bytes32",
          "name": "_root",
          "type": "bytes32"
        },
        {
          "internalType": "bytes32",
          "name": "_nullifierHash",
          "type": "bytes32"
        },
        {
          "internalType": "address payable",
          "name": "_to",
          "type": "address"
        },
        {
          "internalType": "bytes[]",
          "name": "_validationsArgs",
          "type": "bytes[]"
        }
      ],
      "name": "consumeTransfer",
      "outputs": [],
      "stateMutability": "nonpayable",
      "type": "function"
    },
    {
      "inputs": [
        {
          "internalType": "bytes32",
          "name": "",
          "type": "bytes32"
        }
      ],
      "name": "consumed",
      "outputs": [
        {
          "internalType": "uint256",
          "name": "",
          "type": "uint256"
        }
      ],
      "stateMutability": "view",
      "type": "function"
    },
    {
      "inputs": [
        {
          "internalType": "bytes32",
          "name": "_commitment",
          "type": "bytes32"
        },
        {
          "internalType": "address[]",
          "name": "_validationModules",
          "type": "address[]"
        },
        {
          "internalType": "uint256",
          "name": "_id",
          "type": "uint256"
        },
        {
          "internalType": "uint256",
          "name": "limit",
          "type": "uint256"
        }
      ],
      "name": "createAlephNFTAirdrop",
      "outputs": [],
      "stateMutability": "payable",
      "type": "function"
    },
    {
      "inputs": [
        {
          "internalType": "bytes32",
          "name": "_commitment",
          "type": "bytes32"
        },
        {
          "internalType": "address[]",
          "name": "_validationModules",
          "type": "address[]"
        },
        {
          "internalType": "uint256",
          "name": "_id",
          "type": "uint256"
        }
      ],
      "name": "createTransfer",
      "outputs": [],
      "stateMutability": "payable",
      "type": "function"
    },
    {
      "inputs": [],
      "name": "currentRootIndex",
      "outputs": [
        {
          "internalType": "uint32",
          "name": "",
          "type": "uint32"
        }
      ],
      "stateMutability": "view",
      "type": "function"
    },
    {
      "inputs": [
        {
          "internalType": "uint256",
          "name": "",
          "type": "uint256"
        }
      ],
      "name": "filledSubtrees",
      "outputs": [
        {
          "internalType": "bytes32",
          "name": "",
          "type": "bytes32"
        }
      ],
      "stateMutability": "view",
      "type": "function"
    },
    {
      "inputs": [],
      "name": "getLastRoot",
      "outputs": [
        {
          "internalType": "bytes32",
          "name": "",
          "type": "bytes32"
        }
      ],
      "stateMutability": "view",
      "type": "function"
    },
    {
      "inputs": [
        {
          "internalType": "contract IHasher",
          "name": "_hasher",
          "type": "address"
        },
        {
          "internalType": "bytes32",
          "name": "_left",
          "type": "bytes32"
        },
        {
          "internalType": "bytes32",
          "name": "_right",
          "type": "bytes32"
        }
      ],
      "name": "hashLeftRight",
      "outputs": [
        {
          "internalType": "bytes32",
          "name": "",
          "type": "bytes32"
        }
      ],
      "stateMutability": "pure",
      "type": "function"
    },
    {
      "inputs": [],
      "name": "hasher",
      "outputs": [
        {
          "internalType": "contract IHasher",
          "name": "",
          "type": "address"
        }
      ],
      "stateMutability": "view",
      "type": "function"
    },
    {
      "inputs": [
        {
          "internalType": "bytes32",
          "name": "_root",
          "type": "bytes32"
        }
      ],
      "name": "isKnownRoot",
      "outputs": [
        {
          "internalType": "bool",
          "name": "",
          "type": "bool"
        }
      ],
      "stateMutability": "view",
      "type": "function"
    },
    {
      "inputs": [
        {
          "internalType": "bytes32",
          "name": "_nullifierHash",
          "type": "bytes32"
        }
      ],
      "name": "isSpent",
      "outputs": [
        {
          "internalType": "bool",
          "name": "",
          "type": "bool"
        }
      ],
      "stateMutability": "view",
      "type": "function"
    },
    {
      "inputs": [
        {
          "internalType": "bytes32[]",
          "name": "_nullifierHashes",
          "type": "bytes32[]"
        }
      ],
      "name": "isSpentArray",
      "outputs": [
        {
          "internalType": "bool[]",
          "name": "spent",
          "type": "bool[]"
        }
      ],
      "stateMutability": "view",
      "type": "function"
    },
    {
      "inputs": [],
      "name": "levels",
      "outputs": [
        {
          "internalType": "uint32",
          "name": "",
          "type": "uint32"
        }
      ],
      "stateMutability": "view",
      "type": "function"
    },
    {
      "inputs": [
        {
          "internalType": "bytes32",
          "name": "",
          "type": "bytes32"
        }
      ],
      "name": "limits",
      "outputs": [
        {
          "internalType": "uint256",
          "name": "",
          "type": "uint256"
        }
      ],
      "stateMutability": "view",
      "type": "function"
    },
    {
      "inputs": [],
      "name": "nextIndex",
      "outputs": [
        {
          "internalType": "uint32",
          "name": "",
          "type": "uint32"
        }
      ],
      "stateMutability": "view",
      "type": "function"
    },
    {
      "inputs": [
        {
          "internalType": "bytes32",
          "name": "",
          "type": "bytes32"
        }
      ],
      "name": "nullifierHashes",
      "outputs": [
        {
          "internalType": "bool",
          "name": "",
          "type": "bool"
        }
      ],
      "stateMutability": "view",
      "type": "function"
    },
    {
      "inputs": [
        {
          "internalType": "address",
          "name": "operator",
          "type": "address"
        },
        {
          "internalType": "address",
          "name": "from",
          "type": "address"
        },
        {
          "internalType": "uint256",
          "name": "tokenId",
          "type": "uint256"
        },
        {
          "internalType": "bytes",
          "name": "data",
          "type": "bytes"
        }
      ],
      "name": "onERC721Received",
      "outputs": [
        {
          "internalType": "bytes4",
          "name": "",
          "type": "bytes4"
        }
      ],
      "stateMutability": "nonpayable",
      "type": "function"
    },
    {
      "inputs": [
        {
          "internalType": "uint256",
          "name": "",
          "type": "uint256"
        }
      ],
      "name": "roots",
      "outputs": [
        {
          "internalType": "bytes32",
          "name": "",
          "type": "bytes32"
        }
      ],
      "stateMutability": "view",
      "type": "function"
    },
    {
      "inputs": [
        {
          "internalType": "bytes32",
          "name": "_commitment",
          "type": "bytes32"
        },
        {
          "internalType": "address[]",
          "name": "_validationModules",
          "type": "address[]"
        }
      ],
      "name": "setCode",
      "outputs": [],
      "stateMutability": "payable",
      "type": "function"
    },
    {
      "inputs": [],
      "name": "token",
      "outputs": [
        {
          "internalType": "contract IERC721",
          "name": "",
          "type": "address"
        }
      ],
      "stateMutability": "view",
      "type": "function"
    },
    {
      "inputs": [
        {
          "internalType": "bytes32",
          "name": "",
          "type": "bytes32"
        },
        {
          "internalType": "uint256",
          "name": "",
          "type": "uint256"
        }
      ],
      "name": "validationModules",
      "outputs": [
        {
          "internalType": "address",
          "name": "",
          "type": "address"
        }
      ],
      "stateMutability": "view",
      "type": "function"
    },
    {
      "inputs": [],
      "name": "verifier",
      "outputs": [
        {
          "internalType": "contract IVerifier",
          "name": "",
          "type": "address"
        }
      ],
      "stateMutability": "view",
      "type": "function"
    },
    {
      "inputs": [
        {
          "internalType": "uint256",
          "name": "i",
          "type": "uint256"
        }
      ],
      "name": "zeros",
      "outputs": [
        {
          "internalType": "bytes32",
          "name": "",
          "type": "bytes32"
        }
      ],
      "stateMutability": "pure",
      "type": "function"
    }
  ],
  "transactionHash": "0x719ea9debd8aac396aeb64f8eef25d7b13a9ce1cc939629f50ac9770b7c08868",
  "args": [
    "0xc782633444a32856398073d11Ec3492800A60416",
    "0x0138E00E54e7C8239812961c56BBCf55ef8632d7",
    20,
    "0xB0DaC85973c52bE661212eEd83EdF363bF402541"
  ],
  "numDeployments": 1,
  "solcInputHash": "d5ed978f64676cd0cbe14cfd7551e661",
  "bytecode": "0x60c0604052600380546001600160401b03191690553480156200002157600080fd5b50604051620030a2380380620030a2833981016040819052620000449162000869565b83838383838383808260008263ffffffff1611620000b55760405162461bcd60e51b815260206004820152602360248201527f5f6c6576656c732073686f756c642062652067726561746572207468616e207a60448201526265726f60e81b60648201526084015b60405180910390fd5b60208263ffffffff16106200010d5760405162461bcd60e51b815260206004820152601e60248201527f5f6c6576656c732073686f756c64206265206c657373207468616e20333200006044820152606401620000ac565b6000805463ffffffff191663ffffffff84161781556001600160a01b0382166080525b8263ffffffff168163ffffffff16101562000181576200015663ffffffff821662000207565b63ffffffff8216600090815260016020526040902055806200017881620008ef565b91505062000130565b506200019f6200019360018462000915565b63ffffffff1662000207565b6000805260026020527fac33ff75c19e70fe83507db0d683fd3465c996598dc972688b7ace676c89077b555050600160045550506001600160a01b0390811660a052600880546001600160a01b03191692909116919091179055506200093c95505050505050565b6000816000036200023957507f2fe54c60d3acabf3343a35b6eba15db4821b340f76e741e2249685ed4899af6c919050565b816001036200026957507f256a6135777eee2fd26f54b8b7037a25439d5235caee224154186d2b8a52e31d919050565b816002036200029957507f1151949895e82ab19924de92c40a3d6f7bcb60d92b00504b8199613683f0c200919050565b81600303620002c957507f20121ee811489ff8d61f09fb89e313f14959a0f28bb428a20dba6b0b068b3bdb919050565b81600403620002f957507f0a89ca6ffa14cc462cfedb842c30ed221a50a3d6bf022a6a57dc82ab24c157c9919050565b816005036200032957507f24ca05c2b5cd42e890d6be94c68d0689f4f21c9cec9c0f13fe41d566dfb54959919050565b816006036200035957507f1ccb97c932565a92c60156bdba2d08f3bf1377464e025cee765679e604a7315c919050565b816007036200038957507f19156fbd7d1a8bf5cba8909367de1b624534ebab4f0f79e003bccdd1b182bdb4919050565b81600803620003b957507f261af8c1f0912e465744641409f622d466c3920ac6e5ff37e36604cb11dfff80919050565b81600903620003e857507e58459724ff6ca5a1652fcbc3e82b93895cf08e975b19beab3f54c217d1c007919050565b81600a036200041857507f1f04ef20dee48d39984d8eabe768a70eafa6310ad20849d4573c3c40c2ad1e30919050565b81600b036200044857507f1bea3dec5dab51567ce7e200a30f7ba6d4276aeaa53e2686f962a46c66d511e5919050565b81600c036200047857507f0ee0f941e2da4b9e31c3ca97a40d8fa9ce68d97c084177071b3cb46cd3372f0f919050565b81600d03620004a857507f1ca9503e8935884501bbaf20be14eb4c46b89772c97b96e3b2ebf3a36a948bbd919050565b81600e03620004d857507f133a80e30697cd55d8f7d4b0965b7be24057ba5dc3da898ee2187232446cb108919050565b81600f036200050857507f13e6d8fc88839ed76e182c2a779af5b2c0da9dd18c90427a644f7e148a6253b6919050565b816010036200053857507f1eb16b057a477f4bc8f572ea6bee39561098f78f15bfb3699dcbb7bd8db61854919050565b816011036200056857507f0da2cb16a1ceaabf1c16b838f7a9e3f2a3a3088d9e0a6debaa748114620696ea919050565b816012036200059857507f24a3b3d822420b14b5d8cb6c28a574f01e98ea9e940551d2ebd75cee12649f9d919050565b81601303620005c857507f198622acbd783d1b0d9064105b1fc8e4d8889de95c4c519b3f635809fe6afc05919050565b81601403620005f857507f29d7ed391256ccc3ea596c86e933b89ff339d25ea8ddced975ae2fe30b5296d4919050565b816015036200062857507f19be59f2f0413ce78c0c3703a3a5451b1d7f39629fa33abd11548a76065b2967919050565b816016036200065857507f1ff3f61797e538b70e619310d33f2a063e7eb59104e112e95738da1254dc3453919050565b816017036200068857507f10c16ae9959cf8358980d9dd9616e48228737310a10e2b6b731c1a548f036c48919050565b81601803620006b857507f0ba433a63174a90ac20992e75e3095496812b652685b5e1a2eae0b1bf4e8fcd1919050565b81601903620006e857507f019ddb9df2bc98d987d0dfeca9d2b643deafab8f7036562e627c3667266a044c919050565b81601a036200071857507f2d3c88b23175c5a5565db928414c66d1912b11acf974b2e644caaac04739ce99919050565b81601b036200074857507f2eab55f6ae4e66e32c5189eed5c470840863445760f5ed7e7b69b2a62600f354919050565b81601c036200077757507e2df37a2642621802383cf952bf4dd1f32e05433beeb1fd41031fb7eace979d919050565b81601d03620007a757507f104aeb41435db66c3e62feccc1d6f5d98d0a0ed75d1374db457cf462e3a1f427919050565b81601e03620007d757507f1f3c6fd858e9a7d4b0d1f38e256a09d81d5a5e3c963987e2d4b814cfab7c6ebb919050565b81601f036200080757507f2c7a07d20dff79d01fecedc1134284a8d08436606c93693b67e333f671bf69cc919050565b60405162461bcd60e51b815260206004820152601360248201527f496e646578206f7574206f6620626f756e6473000000000000000000000000006044820152606401620000ac565b6001600160a01b03811681146200086657600080fd5b50565b600080600080608085870312156200088057600080fd5b84516200088d8162000850565b6020860151909450620008a08162000850565b604086015190935063ffffffff81168114620008bb57600080fd5b6060860151909250620008ce8162000850565b939692955090935050565b634e487b7160e01b600052601160045260246000fd5b600063ffffffff8083168181036200090b576200090b620008d9565b6001019392505050565b63ffffffff828116828216039080821115620009355762000935620008d9565b5092915050565b60805160a05161273262000970600039600081816102e101526108c40152600081816106440152611ca501526127326000f3fe6080604052600436106101e35760003560e01c80638ea3099e11610102578063cd87a3b411610095578063ed33639f11610064578063ed33639f14610632578063f178e47c14610666578063fc0c546a14610693578063fc7e9c6f146106b357600080fd5b8063cd87a3b414610599578063e5285dcc146105ae578063e8295588146105de578063ec732959146105fe57600080fd5b8063bffa9872116100d1578063bffa987214610526578063c2b40ae414610546578063c858e25e14610573578063cc013d851461058657600080fd5b80638ea3099e1461049257806390eeb02b146104b25780639fa12d0b146104cf578063ba70f757146104fc57600080fd5b80634648c9431161017a5780637835a0c9116101495780637835a0c91461041c578063838a11fd1461042f578063839df9451461044f5780638c9c15d41461047f57600080fd5b80634648c943146103705780634ecf518b1461039d5780635c1b7d38146103cf5780636d9833e3146103fc57600080fd5b80632b7ac3f3116101b65780632b7ac3f3146102cf5780633e7fd3b41461031b578063414a37ba1461032e5780634488e5951461035057600080fd5b806307233c81146101e8578063150b7a021461020a57806317cc915c146102545780632469ab9214610294575b600080fd5b3480156101f457600080fd5b50610208610203366004611e1e565b6106d8565b005b34801561021657600080fd5b50610236610225366004611ebe565b630a85bd0160e11b95945050505050565b6040516001600160e01b031990911681526020015b60405180910390f35b34801561026057600080fd5b5061028461026f366004611f30565b60056020526000908152604090205460ff1681565b604051901515815260200161024b565b3480156102a057600080fd5b506102c16102af366004611f30565b60096020526000908152604090205481565b60405190815260200161024b565b3480156102db57600080fd5b506103037f000000000000000000000000000000000000000000000000000000000000000081565b6040516001600160a01b03909116815260200161024b565b610208610329366004611e1e565b6107c2565b34801561033a57600080fd5b506102c16000805160206126dd83398151915281565b34801561035c57600080fd5b5061020861036b366004611e1e565b610ae0565b34801561037c57600080fd5b506102c161038b366004611f30565b600a6020526000908152604090205481565b3480156103a957600080fd5b506000546103ba9063ffffffff1681565b60405163ffffffff909116815260200161024b565b3480156103db57600080fd5b506102c16103ea366004611f30565b600b6020526000908152604090205481565b34801561040857600080fd5b50610284610417366004611f30565b610b7a565b61020861042a366004611f49565b610bf8565b34801561043b57600080fd5b5061030361044a366004611f9b565b610c84565b34801561045b57600080fd5b5061028461046a366004611f30565b60066020526000908152604090205460ff1681565b61020861048d366004611fbd565b610cbc565b34801561049e57600080fd5b506102c16104ad36600461201a565b610ce0565b3480156104be57600080fd5b506003546103ba9063ffffffff1681565b3480156104db57600080fd5b506104ef6104ea36600461204f565b610ead565b60405161024b9190612090565b34801561050857600080fd5b5060035463ffffffff166000908152600260205260409020546102c1565b34801561053257600080fd5b506102086105413660046120d6565b610f72565b34801561055257600080fd5b506102c1610561366004611f30565b60026020526000908152604090205481565b610208610581366004612213565b611213565b6102086105943660046122b5565b6113d4565b3480156105a557600080fd5b506103ba601e81565b3480156105ba57600080fd5b506102846105c9366004611f30565b60009081526005602052604090205460ff1690565b3480156105ea57600080fd5b506102c16105f9366004611f30565b61153f565b34801561060a57600080fd5b506102c17f2fe54c60d3acabf3343a35b6eba15db4821b340f76e741e2249685ed4899af6c81565b34801561063e57600080fd5b506103037f000000000000000000000000000000000000000000000000000000000000000081565b34801561067257600080fd5b506102c1610681366004611f30565b60016020526000908152604090205481565b34801561069f57600080fd5b50600854610303906001600160a01b031681565b3480156106bf57600080fd5b506003546103ba90640100000000900463ffffffff1681565b6000888152600b6020908152604080832054600a909252909120541061074f5760405162461bcd60e51b815260206004820152602160248201527f416c6570684e465441697264726f707065723a204c696d6974207265616368656044820152601960fa1b60648201526084015b60405180910390fd5b6000888152600a6020526040812080546001929061076e908490612316565b9091555061078490508888888888888888610ae0565b604051600181527f3b0a8ddef325df2bfdfa6b430ae4c8421841cd135bfa8fb5e432f200787520bb9060200160405180910390a15050505050505050565b6107ca611b5d565b60008481526005602052604090205460ff16156108295760405162461bcd60e51b815260206004820152601f60248201527f546865206e6f746520686173206265656e20616c7265616479207370656e74006044820152606401610746565b61083285610b7a565b61087e5760405162461bcd60e51b815260206004820152601c60248201527f43616e6e6f742066696e6420796f7572206d65726b6c6520726f6f74000000006044820152606401610746565b6040805160c081018252868152602081018690526001600160a01b03858116828401526000606083018190526080830181905260a0830152915163695ef6f960e01b81527f00000000000000000000000000000000000000000000000000000000000000009092169163695ef6f9916108fd918b918b91600401612358565b6020604051808303816000875af115801561091c573d6000803e3d6000fd5b505050506040513d601f19601f8201168201806040525081019061094091906123a0565b6109855760405162461bcd60e51b815260206004820152601660248201527524b73b30b634b2103bb4ba34323930bb90383937b7b360511b6044820152606401610746565b60005b600089815260076020526040902054811015610a6f5760008981526007602052604090208054829081106109be576109be6123c9565b6000918252602090912001546001600160a01b031663c16e50ef8484848181106109ea576109ea6123c9565b90506020028101906109fc91906123df565b6040518363ffffffff1660e01b8152600401610a19929190612425565b6020604051808303816000875af1158015610a38573d6000803e3d6000fd5b505050506040513d601f19601f82011682018060405250810190610a5c91906123a0565b5080610a6781612441565b915050610988565b50600084815260056020908152604091829020805460ff1916600117905581516001600160a01b03861681529081018690527f9ebe94a87e9d85fb44a2b38b11c3b10117eba3fbd045c54a8577bc62540d5d75910160405180910390a1610ad66001600455565b5050505050505050565b610af088888888888888886107c2565b60008881526009602052604090819020546008549151632142170760e11b81523060048201526001600160a01b03868116602483015260448201839052919291909116906342842e0e90606401600060405180830381600087803b158015610b5757600080fd5b505af1158015610b6b573d6000803e3d6000fd5b50505050505050505050505050565b6000818103610b8b57506000919050565b60035463ffffffff16805b63ffffffff81166000908152600260205260409020548403610bbc575060019392505050565b8063ffffffff16600003610bce5750601e5b80610bd88161245a565b9150508163ffffffff168163ffffffff1603610b96575060009392505050565b610c038484846113d4565b600854604051632142170760e11b8152336004820152306024820152604481018390526001600160a01b03909116906342842e0e90606401600060405180830381600087803b158015610c5557600080fd5b505af1158015610c69573d6000803e3d6000fd5b50505060009485525060096020526040909320929092555050565b60076020528160005260406000208181548110610ca057600080fd5b6000918252602090912001546001600160a01b03169150829050565b6000858152600b60205260409020819055610cd985858585610bf8565b5050505050565b60006000805160206126dd8339815191528310610d3f5760405162461bcd60e51b815260206004820181905260248201527f5f6c6566742073686f756c6420626520696e7369646520746865206669656c646044820152606401610746565b6000805160206126dd8339815191528210610da65760405162461bcd60e51b815260206004820152602160248201527f5f72696768742073686f756c6420626520696e7369646520746865206669656c6044820152601960fa1b6064820152608401610746565b60405163f47d33b560e01b81526004810184905260006024820181905284916001600160a01b0387169063f47d33b5906044016040805180830381865afa158015610df5573d6000803e3d6000fd5b505050506040513d601f19601f82011682018060405250810190610e19919061247a565b90925090506000805160206126dd83398151915284830860405163f47d33b560e01b815260048101829052602481018390529092506001600160a01b0387169063f47d33b5906044016040805180830381865afa158015610e7e573d6000803e3d6000fd5b505050506040513d601f19601f82011682018060405250810190610ea2919061247a565b509695505050505050565b6060816001600160401b03811115610ec757610ec76124b4565b604051908082528060200260200182016040528015610ef0578160200160208202803683370190505b50905060005b82811015610f6b57610f2f848483818110610f1357610f136123c9565b9050602002013560009081526005602052604090205460ff1690565b15610f59576001828281518110610f4857610f486123c9565b911515602092830291909101909101525b80610f6381612441565b915050610ef6565b5092915050565b8a8914610fd05760405162461bcd60e51b815260206004820152602660248201527f636f6d6d69746d656e747320616e642070726f6f6673206c656e677468206d696044820152650e6dac2e8c6d60d31b6064820152608401610746565b8a871461102d5760405162461bcd60e51b815260206004820152602560248201527f636f6d6d69746d656e747320616e6420726f6f7473206c656e677468206d69736044820152640dac2e8c6d60db1b6064820152608401610746565b8a85146110945760405162461bcd60e51b815260206004820152602f60248201527f636f6d6d69746d656e747320616e64206e756c6c69666965724861736865732060448201526e0d8cadccee8d040dad2e6dac2e8c6d608b1b6064820152608401610746565b8a83146110ef5760405162461bcd60e51b815260206004820152602360248201527f636f6d6d69746d656e747320616e6420746f73206c656e677468206d69736d616044820152620e8c6d60eb1b6064820152608401610746565b8a81146111565760405162461bcd60e51b815260206004820152602f60248201527f636f6d6d69746d656e747320616e642076616c69646174696f6e73417267732060448201526e0d8cadccee8d040dad2e6dac2e8c6d608b1b6064820152608401610746565b60005b8b811015610b6b576112018d8d83818110611176576111766123c9565b905060200201358c8c8481811061118f5761118f6123c9565b90506020028101906111a191906123df565b8c8c868181106111b3576111b36123c9565b905060200201358b8b878181106111cc576111cc6123c9565b905060200201358a8a888181106111e5576111e56123c9565b90506020020160208101906111fa91906124ca565b89896106d8565b8061120b81612441565b915050611159565b86831461126e5760405162461bcd60e51b815260206004820152602360248201527f636f6d6d69746d656e747320616e6420696473206c656e677468206d69736d616044820152620e8c6d60eb1b6064820152608401610746565b8681146112cc5760405162461bcd60e51b815260206004820152602660248201527f636f6d6d69746d656e747320616e64206c696d697473206c656e677468206d696044820152650e6dac2e8c6d60d31b6064820152608401610746565b8685146113355760405162461bcd60e51b815260206004820152603160248201527f636f6d6d69746d656e747320616e642076616c69646174696f6e4d6f64756c656044820152700e640d8cadccee8d040dad2e6dac2e8c6d607b1b6064820152608401610746565b60005b878110156113c9576113b7898983818110611355576113556123c9565b9050602002013588888481811061136e5761136e6123c9565b905060200281019061138091906124e7565b888886818110611392576113926123c9565b905060200201358787878181106113ab576113ab6123c9565b90506020020135610cbc565b806113c181612441565b915050611338565b505050505050505050565b6113dc611b5d565b60008381526006602052604090205460ff16156114455760405162461bcd60e51b815260206004820152602160248201527f54686520636f6d6d69746d656e7420686173206265656e207375626d697474656044820152601960fa1b6064820152608401610746565b600061145084611b87565b6000858152600660205260408120805460ff191660011790559091505b828110156114ee576000858152600760205260409020848483818110611495576114956123c9565b90506020020160208101906114aa91906124ca565b81546001810183556000928352602090922090910180546001600160a01b0319166001600160a01b03909216919091179055806114e681612441565b91505061146d565b506040805163ffffffff8316815242602082015285917fee825d3f4d0fa209d8e2a39afe24a21286d8dc103d63061a2ed322db4ce018e3910160405180910390a25061153a6001600455565b505050565b60008160000361157057507f2fe54c60d3acabf3343a35b6eba15db4821b340f76e741e2249685ed4899af6c919050565b8160010361159f57507f256a6135777eee2fd26f54b8b7037a25439d5235caee224154186d2b8a52e31d919050565b816002036115ce57507f1151949895e82ab19924de92c40a3d6f7bcb60d92b00504b8199613683f0c200919050565b816003036115fd57507f20121ee811489ff8d61f09fb89e313f14959a0f28bb428a20dba6b0b068b3bdb919050565b8160040361162c57507f0a89ca6ffa14cc462cfedb842c30ed221a50a3d6bf022a6a57dc82ab24c157c9919050565b8160050361165b57507f24ca05c2b5cd42e890d6be94c68d0689f4f21c9cec9c0f13fe41d566dfb54959919050565b8160060361168a57507f1ccb97c932565a92c60156bdba2d08f3bf1377464e025cee765679e604a7315c919050565b816007036116b957507f19156fbd7d1a8bf5cba8909367de1b624534ebab4f0f79e003bccdd1b182bdb4919050565b816008036116e857507f261af8c1f0912e465744641409f622d466c3920ac6e5ff37e36604cb11dfff80919050565b8160090361171657507e58459724ff6ca5a1652fcbc3e82b93895cf08e975b19beab3f54c217d1c007919050565b81600a0361174557507f1f04ef20dee48d39984d8eabe768a70eafa6310ad20849d4573c3c40c2ad1e30919050565b81600b0361177457507f1bea3dec5dab51567ce7e200a30f7ba6d4276aeaa53e2686f962a46c66d511e5919050565b81600c036117a357507f0ee0f941e2da4b9e31c3ca97a40d8fa9ce68d97c084177071b3cb46cd3372f0f919050565b81600d036117d257507f1ca9503e8935884501bbaf20be14eb4c46b89772c97b96e3b2ebf3a36a948bbd919050565b81600e0361180157507f133a80e30697cd55d8f7d4b0965b7be24057ba5dc3da898ee2187232446cb108919050565b81600f0361183057507f13e6d8fc88839ed76e182c2a779af5b2c0da9dd18c90427a644f7e148a6253b6919050565b8160100361185f57507f1eb16b057a477f4bc8f572ea6bee39561098f78f15bfb3699dcbb7bd8db61854919050565b8160110361188e57507f0da2cb16a1ceaabf1c16b838f7a9e3f2a3a3088d9e0a6debaa748114620696ea919050565b816012036118bd57507f24a3b3d822420b14b5d8cb6c28a574f01e98ea9e940551d2ebd75cee12649f9d919050565b816013036118ec57507f198622acbd783d1b0d9064105b1fc8e4d8889de95c4c519b3f635809fe6afc05919050565b8160140361191b57507f29d7ed391256ccc3ea596c86e933b89ff339d25ea8ddced975ae2fe30b5296d4919050565b8160150361194a57507f19be59f2f0413ce78c0c3703a3a5451b1d7f39629fa33abd11548a76065b2967919050565b8160160361197957507f1ff3f61797e538b70e619310d33f2a063e7eb59104e112e95738da1254dc3453919050565b816017036119a857507f10c16ae9959cf8358980d9dd9616e48228737310a10e2b6b731c1a548f036c48919050565b816018036119d757507f0ba433a63174a90ac20992e75e3095496812b652685b5e1a2eae0b1bf4e8fcd1919050565b81601903611a0657507f019ddb9df2bc98d987d0dfeca9d2b643deafab8f7036562e627c3667266a044c919050565b81601a03611a3557507f2d3c88b23175c5a5565db928414c66d1912b11acf974b2e644caaac04739ce99919050565b81601b03611a6457507f2eab55f6ae4e66e32c5189eed5c470840863445760f5ed7e7b69b2a62600f354919050565b81601c03611a9257507e2df37a2642621802383cf952bf4dd1f32e05433beeb1fd41031fb7eace979d919050565b81601d03611ac157507f104aeb41435db66c3e62feccc1d6f5d98d0a0ed75d1374db457cf462e3a1f427919050565b81601e03611af057507f1f3c6fd858e9a7d4b0d1f38e256a09d81d5a5e3c963987e2d4b814cfab7c6ebb919050565b81601f03611b1f57507f2c7a07d20dff79d01fecedc1134284a8d08436606c93693b67e333f671bf69cc919050565b60405162461bcd60e51b8152602060048201526013602482015272496e646578206f7574206f6620626f756e647360681b6044820152606401610746565b600260045403611b8057604051633ee5aeb560e01b815260040160405180910390fd5b6002600455565b60035460008054909163ffffffff640100000000909104811691611bad91166002612641565b63ffffffff168163ffffffff1603611c205760405162461bcd60e51b815260206004820152603060248201527f4d65726b6c6520747265652069732066756c6c2e204e6f206d6f7265206c656160448201526f1d995cc818d85b88189948185919195960821b6064820152608401610746565b8083600080805b60005463ffffffff9081169082161015611cec57611c46600286612656565b63ffffffff16600003611c8457839250611c658163ffffffff1661153f565b63ffffffff821660009081526001602052604090208590559150611ca0565b63ffffffff811660009081526001602052604090205492508391505b611ccb7f00000000000000000000000000000000000000000000000000000000000000008484610ce0565b9350611cd8600286612679565b945080611ce48161269c565b915050611c27565b50600354600090601e90611d079063ffffffff1660016126bf565b611d119190612656565b6003805463ffffffff191663ffffffff831690811790915560009081526002602052604090208590559050611d478660016126bf565b6003805463ffffffff929092166401000000000267ffffffff000000001990921691909117905550939695505050505050565b60008083601f840112611d8c57600080fd5b5081356001600160401b03811115611da357600080fd5b602083019150836020828501011115611dbb57600080fd5b9250929050565b6001600160a01b0381168114611dd757600080fd5b50565b60008083601f840112611dec57600080fd5b5081356001600160401b03811115611e0357600080fd5b6020830191508360208260051b8501011115611dbb57600080fd5b60008060008060008060008060c0898b031215611e3a57600080fd5b8835975060208901356001600160401b0380821115611e5857600080fd5b611e648c838d01611d7a565b909950975060408b0135965060608b0135955060808b01359150611e8782611dc2565b90935060a08a01359080821115611e9d57600080fd5b50611eaa8b828c01611dda565b999c989b5096995094979396929594505050565b600080600080600060808688031215611ed657600080fd5b8535611ee181611dc2565b94506020860135611ef181611dc2565b93506040860135925060608601356001600160401b03811115611f1357600080fd5b611f1f88828901611d7a565b969995985093965092949392505050565b600060208284031215611f4257600080fd5b5035919050565b60008060008060608587031215611f5f57600080fd5b8435935060208501356001600160401b03811115611f7c57600080fd5b611f8887828801611dda565b9598909750949560400135949350505050565b60008060408385031215611fae57600080fd5b50508035926020909101359150565b600080600080600060808688031215611fd557600080fd5b8535945060208601356001600160401b03811115611ff257600080fd5b611ffe88828901611dda565b9699909850959660408101359660609091013595509350505050565b60008060006060848603121561202f57600080fd5b833561203a81611dc2565b95602085013595506040909401359392505050565b6000806020838503121561206257600080fd5b82356001600160401b0381111561207857600080fd5b61208485828601611dda565b90969095509350505050565b6020808252825182820181905260009190848201906040850190845b818110156120ca5783511515835292840192918401916001016120ac565b50909695505050505050565b60008060008060008060008060008060008060c08d8f0312156120f857600080fd5b6001600160401b038d35111561210d57600080fd5b61211a8e8e358f01611dda565b909c509a506001600160401b0360208e0135111561213757600080fd5b6121478e60208f01358f01611dda565b909a5098506001600160401b0360408e0135111561216457600080fd5b6121748e60408f01358f01611dda565b90985096506001600160401b0360608e0135111561219157600080fd5b6121a18e60608f01358f01611dda565b90965094506001600160401b0360808e013511156121be57600080fd5b6121ce8e60808f01358f01611dda565b90945092506001600160401b0360a08e013511156121eb57600080fd5b6121fb8e60a08f01358f01611dda565b81935080925050509295989b509295989b509295989b565b6000806000806000806000806080898b03121561222f57600080fd5b88356001600160401b038082111561224657600080fd5b6122528c838d01611dda565b909a50985060208b013591508082111561226b57600080fd5b6122778c838d01611dda565b909850965060408b013591508082111561229057600080fd5b61229c8c838d01611dda565b909650945060608b0135915080821115611e9d57600080fd5b6000806000604084860312156122ca57600080fd5b8335925060208401356001600160401b038111156122e757600080fd5b6122f386828701611dda565b9497909650939450505050565b634e487b7160e01b600052601160045260246000fd5b8082018082111561232957612329612300565b92915050565b81835281816020850137506000828201602090810191909152601f909101601f19169091010190565b60e08152600061236c60e08301858761232f565b905060208083018460005b600681101561239457815183529183019190830190600101612377565b50505050949350505050565b6000602082840312156123b257600080fd5b815180151581146123c257600080fd5b9392505050565b634e487b7160e01b600052603260045260246000fd5b6000808335601e198436030181126123f657600080fd5b8301803591506001600160401b0382111561241057600080fd5b602001915036819003821315611dbb57600080fd5b60208152600061243960208301848661232f565b949350505050565b60006001820161245357612453612300565b5060010190565b600063ffffffff82168061247057612470612300565b6000190192915050565b6000806040838503121561248d57600080fd5b505080516020909101519092909150565b634e487b7160e01b600052601260045260246000fd5b634e487b7160e01b600052604160045260246000fd5b6000602082840312156124dc57600080fd5b81356123c281611dc2565b6000808335601e198436030181126124fe57600080fd5b8301803591506001600160401b0382111561251857600080fd5b6020019150600581901b3603821315611dbb57600080fd5b600181815b8085111561256d578163ffffffff0482111561255357612553612300565b8085161561256057918102915b93841c9390800290612535565b509250929050565b60008261258457506001612329565b8161259157506000612329565b81600181146125a757600281146125b1576125e2565b6001915050612329565b60ff8411156125c2576125c2612300565b6001841b915063ffffffff8211156125dc576125dc612300565b50612329565b5060208310610133831016604e8410600b8410161715612619575081810a63ffffffff81111561261457612614612300565b612329565b6126238383612530565b8063ffffffff0482111561263957612639612300565b029392505050565b600063ffffffff612439818516828516612575565b600063ffffffff8084168061266d5761266d61249e565b92169190910692915050565b600063ffffffff808416806126905761269061249e565b92169190910492915050565b600063ffffffff8083168181036126b5576126b5612300565b6001019392505050565b63ffffffff818116838216019080821115610f6b57610f6b61230056fe30644e72e131a029b85045b68181585d2833e84879b9709143e1f593f0000001a264697066735822122041a3ea82d4d280eb309309aec368c8a1860f15a61abf11f8a29dadc8f3a6bbc264736f6c63430008140033",
  "devdoc": {
    "errors": {
      "ReentrancyGuardReentrantCall()": [
        {
          "details": "Unauthorized reentrant call."
        }
      ]
    },
    "kind": "dev",
    "methods": {
      "consumeCode(bytes32,bytes,bytes32,bytes32,address,bytes[])": {
        "details": "Consume a code from the contract. `proof` is a zkSNARK proof data, and input is an array of circuit public inputs `input` array consists of: - merkle root of all codes in the contract - hash of unique codes nullifier to prevent double spends - the recipient of funds - optional fee that goes to the transaction sender (usually a relay)"
      },
      "getLastRoot()": {
        "details": "Returns the last root"
      },
      "hashLeftRight(address,bytes32,bytes32)": {
        "details": "Hash 2 tree leaves, returns MiMC(_left, _right)"
      },
      "isKnownRoot(bytes32)": {
        "details": "Whether the root is present in the root history"
      },
      "isSpent(bytes32)": {
        "details": "whether a note is already spent "
      },
      "isSpentArray(bytes32[])": {
        "details": "whether an array of notes is already spent "
      },
      "onERC721Received(address,address,uint256,bytes)": {
        "details": "Whenever an {IERC721} `tokenId` token is transferred to this contract via {IERC721-safeTransferFrom} by `operator` from `from`, this function is called. It must return its Solidity selector to confirm the token transfer. If any other value is returned or the interface is not implemented by the recipient, the transfer will be reverted. The selector can be obtained in Solidity with `IERC721Receiver.onERC721Received.selector`."
      },
      "setCode(bytes32,address[])": {
        "details": "Set new code.",
        "params": {
          "_commitment": "the note commitment, which is PedersenHash(nullifier + secret)"
        }
      },
      "zeros(uint256)": {
        "details": "provides Zero (Empty) elements for a MiMC MerkleTree. Up to 32 levels"
      }
    },
    "version": 1
  },
  "userdoc": {
    "kind": "user",
    "methods": {},
    "version": 1
  },
  "storageLayout": {
    "storage": [
      {
        "astId": 656,
        "contract": "contracts/useCases/AlephNFTAirdropper.sol:AlephNFTAirdropper",
        "label": "levels",
        "offset": 0,
        "slot": "0",
        "type": "t_uint32"
      },
      {
        "astId": 660,
        "contract": "contracts/useCases/AlephNFTAirdropper.sol:AlephNFTAirdropper",
        "label": "filledSubtrees",
        "offset": 0,
        "slot": "1",
        "type": "t_mapping(t_uint256,t_bytes32)"
      },
      {
        "astId": 664,
        "contract": "contracts/useCases/AlephNFTAirdropper.sol:AlephNFTAirdropper",
        "label": "roots",
        "offset": 0,
        "slot": "2",
        "type": "t_mapping(t_uint256,t_bytes32)"
      },
      {
        "astId": 670,
        "contract": "contracts/useCases/AlephNFTAirdropper.sol:AlephNFTAirdropper",
        "label": "currentRootIndex",
        "offset": 0,
        "slot": "3",
        "type": "t_uint32"
      },
      {
        "astId": 673,
        "contract": "contracts/useCases/AlephNFTAirdropper.sol:AlephNFTAirdropper",
        "label": "nextIndex",
        "offset": 4,
        "slot": "3",
        "type": "t_uint32"
      },
      {
        "astId": 145,
        "contract": "contracts/useCases/AlephNFTAirdropper.sol:AlephNFTAirdropper",
        "label": "_status",
        "offset": 0,
        "slot": "4",
        "type": "t_uint256"
      },
      {
        "astId": 243,
        "contract": "contracts/useCases/AlephNFTAirdropper.sol:AlephNFTAirdropper",
        "label": "nullifierHashes",
        "offset": 0,
        "slot": "5",
        "type": "t_mapping(t_bytes32,t_bool)"
      },
      {
        "astId": 247,
        "contract": "contracts/useCases/AlephNFTAirdropper.sol:AlephNFTAirdropper",
        "label": "commitments",
        "offset": 0,
        "slot": "6",
        "type": "t_mapping(t_bytes32,t_bool)"
      },
      {
        "astId": 252,
        "contract": "contracts/useCases/AlephNFTAirdropper.sol:AlephNFTAirdropper",
        "label": "validationModules",
        "offset": 0,
        "slot": "7",
        "type": "t_mapping(t_bytes32,t_array(t_address)dyn_storage)"
      },
      {
        "astId": 521,
        "contract": "contracts/useCases/AlephNFTAirdropper.sol:AlephNFTAirdropper",
        "label": "token",
        "offset": 0,
        "slot": "8",
        "type": "t_contract(IERC721)116"
      },
      {
        "astId": 525,
        "contract": "contracts/useCases/AlephNFTAirdropper.sol:AlephNFTAirdropper",
        "label": "TransferId",
        "offset": 0,
        "slot": "9",
        "type": "t_mapping(t_bytes32,t_uint256)"
      },
      {
        "astId": 1325,
        "contract": "contracts/useCases/AlephNFTAirdropper.sol:AlephNFTAirdropper",
        "label": "consumed",
        "offset": 0,
        "slot": "10",
        "type": "t_mapping(t_bytes32,t_uint256)"
      },
      {
        "astId": 1329,
        "contract": "contracts/useCases/AlephNFTAirdropper.sol:AlephNFTAirdropper",
        "label": "limits",
        "offset": 0,
        "slot": "11",
        "type": "t_mapping(t_bytes32,t_uint256)"
      }
    ],
    "types": {
      "t_address": {
        "encoding": "inplace",
        "label": "address",
        "numberOfBytes": "20"
      },
      "t_array(t_address)dyn_storage": {
        "base": "t_address",
        "encoding": "dynamic_array",
        "label": "address[]",
        "numberOfBytes": "32"
      },
      "t_bool": {
        "encoding": "inplace",
        "label": "bool",
        "numberOfBytes": "1"
      },
      "t_bytes32": {
        "encoding": "inplace",
        "label": "bytes32",
        "numberOfBytes": "32"
      },
      "t_contract(IERC721)116": {
        "encoding": "inplace",
        "label": "contract IERC721",
        "numberOfBytes": "20"
      },
      "t_mapping(t_bytes32,t_array(t_address)dyn_storage)": {
        "encoding": "mapping",
        "key": "t_bytes32",
        "label": "mapping(bytes32 => address[])",
        "numberOfBytes": "32",
        "value": "t_array(t_address)dyn_storage"
      },
      "t_mapping(t_bytes32,t_bool)": {
        "encoding": "mapping",
        "key": "t_bytes32",
        "label": "mapping(bytes32 => bool)",
        "numberOfBytes": "32",
        "value": "t_bool"
      },
      "t_mapping(t_bytes32,t_uint256)": {
        "encoding": "mapping",
        "key": "t_bytes32",
        "label": "mapping(bytes32 => uint256)",
        "numberOfBytes": "32",
        "value": "t_uint256"
      },
      "t_mapping(t_uint256,t_bytes32)": {
        "encoding": "mapping",
        "key": "t_uint256",
        "label": "mapping(uint256 => bytes32)",
        "numberOfBytes": "32",
        "value": "t_bytes32"
      },
      "t_uint256": {
        "encoding": "inplace",
        "label": "uint256",
        "numberOfBytes": "32"
      },
      "t_uint32": {
        "encoding": "inplace",
        "label": "uint32",
        "numberOfBytes": "4"
      }
    }
  }
}