{
  "address": "0x3fc401018e989B7586C68755c2f6Af4330eed6C0",
  "abi": [
    {
      "inputs": [
        {
          "internalType": "address",
          "name": "initialOwner",
          "type": "address"
        }
      ],
      "stateMutability": "nonpayable",
      "type": "constructor"
    },
    {
      "inputs": [
        {
          "internalType": "address",
          "name": "sender",
          "type": "address"
        },
        {
          "internalType": "uint256",
          "name": "balance",
          "type": "uint256"
        },
        {
          "internalType": "uint256",
          "name": "needed",
          "type": "uint256"
        },
        {
          "internalType": "uint256",
          "name": "tokenId",
          "type": "uint256"
        }
      ],
      "name": "ERC1155InsufficientBalance",
      "type": "error"
    },
    {
      "inputs": [
        {
          "internalType": "address",
          "name": "approver",
          "type": "address"
        }
      ],
      "name": "ERC1155InvalidApprover",
      "type": "error"
    },
    {
      "inputs": [
        {
          "internalType": "uint256",
          "name": "idsLength",
          "type": "uint256"
        },
        {
          "internalType": "uint256",
          "name": "valuesLength",
          "type": "uint256"
        }
      ],
      "name": "ERC1155InvalidArrayLength",
      "type": "error"
    },
    {
      "inputs": [
        {
          "internalType": "address",
          "name": "operator",
          "type": "address"
        }
      ],
      "name": "ERC1155InvalidOperator",
      "type": "error"
    },
    {
      "inputs": [
        {
          "internalType": "address",
          "name": "receiver",
          "type": "address"
        }
      ],
      "name": "ERC1155InvalidReceiver",
      "type": "error"
    },
    {
      "inputs": [
        {
          "internalType": "address",
          "name": "sender",
          "type": "address"
        }
      ],
      "name": "ERC1155InvalidSender",
      "type": "error"
    },
    {
      "inputs": [
        {
          "internalType": "address",
          "name": "operator",
          "type": "address"
        },
        {
          "internalType": "address",
          "name": "owner",
          "type": "address"
        }
      ],
      "name": "ERC1155MissingApprovalForAll",
      "type": "error"
    },
    {
      "inputs": [
        {
          "internalType": "address",
          "name": "owner",
          "type": "address"
        }
      ],
      "name": "OwnableInvalidOwner",
      "type": "error"
    },
    {
      "inputs": [
        {
          "internalType": "address",
          "name": "account",
          "type": "address"
        }
      ],
      "name": "OwnableUnauthorizedAccount",
      "type": "error"
    },
    {
      "anonymous": false,
      "inputs": [
        {
          "indexed": true,
          "internalType": "address",
          "name": "account",
          "type": "address"
        },
        {
          "indexed": true,
          "internalType": "address",
          "name": "operator",
          "type": "address"
        },
        {
          "indexed": false,
          "internalType": "bool",
          "name": "approved",
          "type": "bool"
        }
      ],
      "name": "ApprovalForAll",
      "type": "event"
    },
    {
      "anonymous": false,
      "inputs": [
        {
          "indexed": true,
          "internalType": "address",
          "name": "previousOwner",
          "type": "address"
        },
        {
          "indexed": true,
          "internalType": "address",
          "name": "newOwner",
          "type": "address"
        }
      ],
      "name": "OwnershipTransferred",
      "type": "event"
    },
    {
      "anonymous": false,
      "inputs": [
        {
          "indexed": true,
          "internalType": "address",
          "name": "operator",
          "type": "address"
        },
        {
          "indexed": true,
          "internalType": "address",
          "name": "from",
          "type": "address"
        },
        {
          "indexed": true,
          "internalType": "address",
          "name": "to",
          "type": "address"
        },
        {
          "indexed": false,
          "internalType": "uint256[]",
          "name": "ids",
          "type": "uint256[]"
        },
        {
          "indexed": false,
          "internalType": "uint256[]",
          "name": "values",
          "type": "uint256[]"
        }
      ],
      "name": "TransferBatch",
      "type": "event"
    },
    {
      "anonymous": false,
      "inputs": [
        {
          "indexed": true,
          "internalType": "address",
          "name": "operator",
          "type": "address"
        },
        {
          "indexed": true,
          "internalType": "address",
          "name": "from",
          "type": "address"
        },
        {
          "indexed": true,
          "internalType": "address",
          "name": "to",
          "type": "address"
        },
        {
          "indexed": false,
          "internalType": "uint256",
          "name": "id",
          "type": "uint256"
        },
        {
          "indexed": false,
          "internalType": "uint256",
          "name": "value",
          "type": "uint256"
        }
      ],
      "name": "TransferSingle",
      "type": "event"
    },
    {
      "anonymous": false,
      "inputs": [
        {
          "indexed": false,
          "internalType": "string",
          "name": "value",
          "type": "string"
        },
        {
          "indexed": true,
          "internalType": "uint256",
          "name": "id",
          "type": "uint256"
        }
      ],
      "name": "URI",
      "type": "event"
    },
    {
      "inputs": [
        {
          "internalType": "address",
          "name": "account",
          "type": "address"
        },
        {
          "internalType": "uint256",
          "name": "id",
          "type": "uint256"
        }
      ],
      "name": "balanceOf",
      "outputs": [
        {
          "internalType": "uint256",
          "name": "",
          "type": "uint256"
        }
      ],
      "stateMutability": "view",
      "type": "function"
    },
    {
      "inputs": [
        {
          "internalType": "address[]",
          "name": "accounts",
          "type": "address[]"
        },
        {
          "internalType": "uint256[]",
          "name": "ids",
          "type": "uint256[]"
        }
      ],
      "name": "balanceOfBatch",
      "outputs": [
        {
          "internalType": "uint256[]",
          "name": "",
          "type": "uint256[]"
        }
      ],
      "stateMutability": "view",
      "type": "function"
    },
    {
      "inputs": [
        {
          "internalType": "address",
          "name": "account",
          "type": "address"
        },
        {
          "internalType": "uint256",
          "name": "id",
          "type": "uint256"
        },
        {
          "internalType": "uint256",
          "name": "value",
          "type": "uint256"
        }
      ],
      "name": "burn",
      "outputs": [],
      "stateMutability": "nonpayable",
      "type": "function"
    },
    {
      "inputs": [
        {
          "internalType": "address",
          "name": "account",
          "type": "address"
        },
        {
          "internalType": "uint256[]",
          "name": "ids",
          "type": "uint256[]"
        },
        {
          "internalType": "uint256[]",
          "name": "values",
          "type": "uint256[]"
        }
      ],
      "name": "burnBatch",
      "outputs": [],
      "stateMutability": "nonpayable",
      "type": "function"
    },
    {
      "inputs": [
        {
          "internalType": "address",
          "name": "account",
          "type": "address"
        },
        {
          "internalType": "address",
          "name": "operator",
          "type": "address"
        }
      ],
      "name": "isApprovedForAll",
      "outputs": [
        {
          "internalType": "bool",
          "name": "",
          "type": "bool"
        }
      ],
      "stateMutability": "view",
      "type": "function"
    },
    {
      "inputs": [
        {
          "internalType": "address",
          "name": "account",
          "type": "address"
        },
        {
          "internalType": "uint256",
          "name": "id",
          "type": "uint256"
        },
        {
          "internalType": "uint256",
          "name": "amount",
          "type": "uint256"
        },
        {
          "internalType": "bytes",
          "name": "data",
          "type": "bytes"
        }
      ],
      "name": "mint",
      "outputs": [],
      "stateMutability": "nonpayable",
      "type": "function"
    },
    {
      "inputs": [
        {
          "internalType": "address",
          "name": "to",
          "type": "address"
        },
        {
          "internalType": "uint256[]",
          "name": "ids",
          "type": "uint256[]"
        },
        {
          "internalType": "uint256[]",
          "name": "amounts",
          "type": "uint256[]"
        },
        {
          "internalType": "bytes",
          "name": "data",
          "type": "bytes"
        }
      ],
      "name": "mintBatch",
      "outputs": [],
      "stateMutability": "nonpayable",
      "type": "function"
    },
    {
      "inputs": [],
      "name": "owner",
      "outputs": [
        {
          "internalType": "address",
          "name": "",
          "type": "address"
        }
      ],
      "stateMutability": "view",
      "type": "function"
    },
    {
      "inputs": [],
      "name": "renounceOwnership",
      "outputs": [],
      "stateMutability": "nonpayable",
      "type": "function"
    },
    {
      "inputs": [
        {
          "internalType": "address",
          "name": "from",
          "type": "address"
        },
        {
          "internalType": "address",
          "name": "to",
          "type": "address"
        },
        {
          "internalType": "uint256[]",
          "name": "ids",
          "type": "uint256[]"
        },
        {
          "internalType": "uint256[]",
          "name": "values",
          "type": "uint256[]"
        },
        {
          "internalType": "bytes",
          "name": "data",
          "type": "bytes"
        }
      ],
      "name": "safeBatchTransferFrom",
      "outputs": [],
      "stateMutability": "nonpayable",
      "type": "function"
    },
    {
      "inputs": [
        {
          "internalType": "address",
          "name": "from",
          "type": "address"
        },
        {
          "internalType": "address",
          "name": "to",
          "type": "address"
        },
        {
          "internalType": "uint256",
          "name": "id",
          "type": "uint256"
        },
        {
          "internalType": "uint256",
          "name": "value",
          "type": "uint256"
        },
        {
          "internalType": "bytes",
          "name": "data",
          "type": "bytes"
        }
      ],
      "name": "safeTransferFrom",
      "outputs": [],
      "stateMutability": "nonpayable",
      "type": "function"
    },
    {
      "inputs": [
        {
          "internalType": "address",
          "name": "operator",
          "type": "address"
        },
        {
          "internalType": "bool",
          "name": "approved",
          "type": "bool"
        }
      ],
      "name": "setApprovalForAll",
      "outputs": [],
      "stateMutability": "nonpayable",
      "type": "function"
    },
    {
      "inputs": [
        {
          "internalType": "string",
          "name": "newuri",
          "type": "string"
        }
      ],
      "name": "setURI",
      "outputs": [],
      "stateMutability": "nonpayable",
      "type": "function"
    },
    {
      "inputs": [
        {
          "internalType": "bytes4",
          "name": "interfaceId",
          "type": "bytes4"
        }
      ],
      "name": "supportsInterface",
      "outputs": [
        {
          "internalType": "bool",
          "name": "",
          "type": "bool"
        }
      ],
      "stateMutability": "view",
      "type": "function"
    },
    {
      "inputs": [
        {
          "internalType": "address",
          "name": "newOwner",
          "type": "address"
        }
      ],
      "name": "transferOwnership",
      "outputs": [],
      "stateMutability": "nonpayable",
      "type": "function"
    },
    {
      "inputs": [
        {
          "internalType": "uint256",
          "name": "",
          "type": "uint256"
        }
      ],
      "name": "uri",
      "outputs": [
        {
          "internalType": "string",
          "name": "",
          "type": "string"
        }
      ],
      "stateMutability": "view",
      "type": "function"
    }
  ],
  "transactionHash": "0x1a9251a4b215ad762ef324c78260ea12235742eb4fe0d5842ef481e1e2dc8d7e",
  "args": [
    "0xEB71ed911e4dFc35Da80103a72fE983C8c709F33"
  ],
  "numDeployments": 1,
  "solcInputHash": "7df9c5d160942847a78e4c8705ba142a",
  "bytecode": "0x60806040523480156200001157600080fd5b5060405162001a8938038062001a898339810160408190526200003491620000f7565b6040805160208101909152600081528190620000508162000093565b506001600160a01b0381166200008057604051631e4fbdf760e01b81526000600482015260240160405180910390fd5b6200008b81620000a5565b50506200029a565b6002620000a18282620001ce565b5050565b600380546001600160a01b038381166001600160a01b0319831681179093556040519116919082907f8be0079c531659141344cd1fd0a4f28419497f9722a3daafe3b4186f6b6457e090600090a35050565b6000602082840312156200010a57600080fd5b81516001600160a01b03811681146200012257600080fd5b9392505050565b634e487b7160e01b600052604160045260246000fd5b600181811c908216806200015457607f821691505b6020821081036200017557634e487b7160e01b600052602260045260246000fd5b50919050565b601f821115620001c957600081815260208120601f850160051c81016020861015620001a45750805b601f850160051c820191505b81811015620001c557828155600101620001b0565b5050505b505050565b81516001600160401b03811115620001ea57620001ea62000129565b6200020281620001fb84546200013f565b846200017b565b602080601f8311600181146200023a5760008415620002215750858301515b600019600386901b1c1916600185901b178555620001c5565b600085815260208120601f198616915b828110156200026b578886015182559484019460019091019084016200024a565b50858210156200028a5787850151600019600388901b60f8161c191681555b5050505050600190811b01905550565b6117df80620002aa6000396000f3fe608060405234801561001057600080fd5b50600436106100ff5760003560e01c8063715018a611610097578063e985e9c511610066578063e985e9c514610224578063f242432a14610237578063f2fde38b1461024a578063f5298aca1461025d57600080fd5b8063715018a6146101db578063731133e9146101e35780638da5cb5b146101f6578063a22cb4651461021157600080fd5b80631f7fdffa116100d35780631f7fdffa146101825780632eb2c2d6146101955780634e1273f4146101a85780636b20c454146101c857600080fd5b8062fdd58e1461010457806301ffc9a71461012a57806302fe53051461014d5780630e89341c14610162575b600080fd5b610117610112366004610e72565b610270565b6040519081526020015b60405180910390f35b61013d610138366004610eb2565b610298565b6040519015158152602001610121565b61016061015b366004610f75565b6102e8565b005b610175610170366004610fc6565b6102fc565b6040516101219190611025565b6101606101903660046110e7565b610390565b6101606101a3366004611180565b6103aa565b6101bb6101b636600461122a565b610416565b6040516101219190611325565b6101606101d6366004611338565b6104eb565b61016061054f565b6101606101f13660046113ac565b610563565b6003546040516001600160a01b039091168152602001610121565b61016061021f366004611401565b610577565b61013d61023236600461143d565b610586565b610160610245366004611470565b6105b4565b6101606102583660046114d5565b610613565b61016061026b3660046114f0565b61064e565b6000818152602081815260408083206001600160a01b03861684529091529020545b92915050565b60006001600160e01b03198216636cdb3d1360e11b14806102c957506001600160e01b031982166303a24d0760e21b145b8061029257506301ffc9a760e01b6001600160e01b0319831614610292565b6102f0610684565b6102f9816106b1565b50565b60606002805461030b90611523565b80601f016020809104026020016040519081016040528092919081815260200182805461033790611523565b80156103845780601f1061035957610100808354040283529160200191610384565b820191906000526020600020905b81548152906001019060200180831161036757829003601f168201915b50505050509050919050565b610398610684565b6103a4848484846106bd565b50505050565b336001600160a01b03861681148015906103cb57506103c98682610586565b155b156104015760405163711bec9160e11b81526001600160a01b038083166004830152871660248201526044015b60405180910390fd5b61040e86868686866106f5565b505050505050565b606081518351146104475781518351604051635b05999160e01b8152600481019290925260248201526044016103f8565b6000835167ffffffffffffffff81111561046357610463610ed6565b60405190808252806020026020018201604052801561048c578160200160208202803683370190505b50905060005b84518110156104e3576020808202860101516104b690602080840287010151610270565b8282815181106104c8576104c861155d565b60209081029190910101526104dc81611589565b9050610492565b509392505050565b6001600160a01b038316331480159061050b57506105098333610586565b155b1561053f57335b60405163711bec9160e11b81526001600160a01b03918216600482015290841660248201526044016103f8565b61054a83838361075c565b505050565b610557610684565b61056160006107a2565b565b61056b610684565b6103a4848484846107f4565b610582338383610851565b5050565b6001600160a01b03918216600090815260016020908152604080832093909416825291909152205460ff1690565b336001600160a01b03861681148015906105d557506105d38682610586565b155b156106065760405163711bec9160e11b81526001600160a01b038083166004830152871660248201526044016103f8565b61040e86868686866108e7565b61061b610684565b6001600160a01b03811661064557604051631e4fbdf760e01b8152600060048201526024016103f8565b6102f9816107a2565b6001600160a01b038316331480159061066e575061066c8333610586565b155b156106795733610512565b61054a838383610975565b6003546001600160a01b031633146105615760405163118cdaa760e01b81523360048201526024016103f8565b600261058282826115e8565b6001600160a01b0384166106e757604051632bfa23e760e11b8152600060048201526024016103f8565b6103a46000858585856109d9565b6001600160a01b03841661071f57604051632bfa23e760e11b8152600060048201526024016103f8565b6001600160a01b03851661074857604051626a0d4560e21b8152600060048201526024016103f8565b61075585858585856109d9565b5050505050565b6001600160a01b03831661078557604051626a0d4560e21b8152600060048201526024016103f8565b61054a8360008484604051806020016040528060008152506109d9565b600380546001600160a01b038381166001600160a01b0319831681179093556040519116919082907f8be0079c531659141344cd1fd0a4f28419497f9722a3daafe3b4186f6b6457e090600090a35050565b6001600160a01b03841661081e57604051632bfa23e760e11b8152600060048201526024016103f8565b6040805160018082526020820186905281830190815260608201859052608082019092529061040e6000878484876109d9565b6001600160a01b03821661087a5760405162ced3e160e81b8152600060048201526024016103f8565b6001600160a01b03838116600081815260016020908152604080832094871680845294825291829020805460ff191686151590811790915591519182527f17307eab39ab6107e8899845ad3d59bd9653f200f220920489ca2b5937696c31910160405180910390a3505050565b6001600160a01b03841661091157604051632bfa23e760e11b8152600060048201526024016103f8565b6001600160a01b03851661093a57604051626a0d4560e21b8152600060048201526024016103f8565b6040805160018082526020820186905281830190815260608201859052608082019092529061096c87878484876109d9565b50505050505050565b6001600160a01b03831661099e57604051626a0d4560e21b8152600060048201526024016103f8565b604080516001808252602082018590528183019081526060820184905260a08201909252600060808201818152919291610755918791859085905b6109e585858585610a2c565b6001600160a01b038416156107555782513390600103610a1e5760208481015190840151610a17838989858589610c49565b505061040e565b61040e818787878787610d6d565b8051825114610a5b5781518151604051635b05999160e01b8152600481019290925260248201526044016103f8565b3360005b8351811015610b6a576020818102858101820151908501909101516001600160a01b03881615610b12576000828152602081815260408083206001600160a01b038c16845290915290205481811015610aeb576040516303dee4c560e01b81526001600160a01b038a1660048201526024810182905260448101839052606481018490526084016103f8565b6000838152602081815260408083206001600160a01b038d16845290915290209082900390555b6001600160a01b03871615610b57576000828152602081815260408083206001600160a01b038b16845290915281208054839290610b519084906116a8565b90915550505b505080610b6390611589565b9050610a5f565b508251600103610beb5760208301516000906020840151909150856001600160a01b0316876001600160a01b0316846001600160a01b03167fc3d58168c5ae7397731d063d5bbf3d657854427343f4c083240f7aacaa2d0f628585604051610bdc929190918252602082015260400190565b60405180910390a45050610755565b836001600160a01b0316856001600160a01b0316826001600160a01b03167f4a39dc06d4c0dbc64b70af90fd698a233a518aa5d07e595d983b8c0526c8f7fb8686604051610c3a9291906116bb565b60405180910390a45050505050565b6001600160a01b0384163b1561040e5760405163f23a6e6160e01b81526001600160a01b0385169063f23a6e6190610c8d90899089908890889088906004016116e9565b6020604051808303816000875af1925050508015610cc8575060408051601f3d908101601f19168201909252610cc59181019061172e565b60015b610d31573d808015610cf6576040519150601f19603f3d011682016040523d82523d6000602084013e610cfb565b606091505b508051600003610d2957604051632bfa23e760e11b81526001600160a01b03861660048201526024016103f8565b805181602001fd5b6001600160e01b0319811663f23a6e6160e01b1461096c57604051632bfa23e760e11b81526001600160a01b03861660048201526024016103f8565b6001600160a01b0384163b1561040e5760405163bc197c8160e01b81526001600160a01b0385169063bc197c8190610db1908990899088908890889060040161174b565b6020604051808303816000875af1925050508015610dec575060408051601f3d908101601f19168201909252610de99181019061172e565b60015b610e1a573d808015610cf6576040519150601f19603f3d011682016040523d82523d6000602084013e610cfb565b6001600160e01b0319811663bc197c8160e01b1461096c57604051632bfa23e760e11b81526001600160a01b03861660048201526024016103f8565b80356001600160a01b0381168114610e6d57600080fd5b919050565b60008060408385031215610e8557600080fd5b610e8e83610e56565b946020939093013593505050565b6001600160e01b0319811681146102f957600080fd5b600060208284031215610ec457600080fd5b8135610ecf81610e9c565b9392505050565b634e487b7160e01b600052604160045260246000fd5b604051601f8201601f1916810167ffffffffffffffff81118282101715610f1557610f15610ed6565b604052919050565b600067ffffffffffffffff831115610f3757610f37610ed6565b610f4a601f8401601f1916602001610eec565b9050828152838383011115610f5e57600080fd5b828260208301376000602084830101529392505050565b600060208284031215610f8757600080fd5b813567ffffffffffffffff811115610f9e57600080fd5b8201601f81018413610faf57600080fd5b610fbe84823560208401610f1d565b949350505050565b600060208284031215610fd857600080fd5b5035919050565b6000815180845260005b8181101561100557602081850181015186830182015201610fe9565b506000602082860101526020601f19601f83011685010191505092915050565b602081526000610ecf6020830184610fdf565b600067ffffffffffffffff82111561105257611052610ed6565b5060051b60200190565b600082601f83011261106d57600080fd5b8135602061108261107d83611038565b610eec565b82815260059290921b840181019181810190868411156110a157600080fd5b8286015b848110156110bc57803583529183019183016110a5565b509695505050505050565b600082601f8301126110d857600080fd5b610ecf83833560208501610f1d565b600080600080608085870312156110fd57600080fd5b61110685610e56565b9350602085013567ffffffffffffffff8082111561112357600080fd5b61112f8883890161105c565b9450604087013591508082111561114557600080fd5b6111518883890161105c565b9350606087013591508082111561116757600080fd5b50611174878288016110c7565b91505092959194509250565b600080600080600060a0868803121561119857600080fd5b6111a186610e56565b94506111af60208701610e56565b9350604086013567ffffffffffffffff808211156111cc57600080fd5b6111d889838a0161105c565b945060608801359150808211156111ee57600080fd5b6111fa89838a0161105c565b9350608088013591508082111561121057600080fd5b5061121d888289016110c7565b9150509295509295909350565b6000806040838503121561123d57600080fd5b823567ffffffffffffffff8082111561125557600080fd5b818501915085601f83011261126957600080fd5b8135602061127961107d83611038565b82815260059290921b8401810191818101908984111561129857600080fd5b948201945b838610156112bd576112ae86610e56565b8252948201949082019061129d565b965050860135925050808211156112d357600080fd5b506112e08582860161105c565b9150509250929050565b600081518084526020808501945080840160005b8381101561131a578151875295820195908201906001016112fe565b509495945050505050565b602081526000610ecf60208301846112ea565b60008060006060848603121561134d57600080fd5b61135684610e56565b9250602084013567ffffffffffffffff8082111561137357600080fd5b61137f8783880161105c565b9350604086013591508082111561139557600080fd5b506113a28682870161105c565b9150509250925092565b600080600080608085870312156113c257600080fd5b6113cb85610e56565b93506020850135925060408501359150606085013567ffffffffffffffff8111156113f557600080fd5b611174878288016110c7565b6000806040838503121561141457600080fd5b61141d83610e56565b91506020830135801515811461143257600080fd5b809150509250929050565b6000806040838503121561145057600080fd5b61145983610e56565b915061146760208401610e56565b90509250929050565b600080600080600060a0868803121561148857600080fd5b61149186610e56565b945061149f60208701610e56565b93506040860135925060608601359150608086013567ffffffffffffffff8111156114c957600080fd5b61121d888289016110c7565b6000602082840312156114e757600080fd5b610ecf82610e56565b60008060006060848603121561150557600080fd5b61150e84610e56565b95602085013595506040909401359392505050565b600181811c9082168061153757607f821691505b60208210810361155757634e487b7160e01b600052602260045260246000fd5b50919050565b634e487b7160e01b600052603260045260246000fd5b634e487b7160e01b600052601160045260246000fd5b60006001820161159b5761159b611573565b5060010190565b601f82111561054a57600081815260208120601f850160051c810160208610156115c95750805b601f850160051c820191505b8181101561040e578281556001016115d5565b815167ffffffffffffffff81111561160257611602610ed6565b611616816116108454611523565b846115a2565b602080601f83116001811461164b57600084156116335750858301515b600019600386901b1c1916600185901b17855561040e565b600085815260208120601f198616915b8281101561167a5788860151825594840194600190910190840161165b565b50858210156116985787850151600019600388901b60f8161c191681555b5050505050600190811b01905550565b8082018082111561029257610292611573565b6040815260006116ce60408301856112ea565b82810360208401526116e081856112ea565b95945050505050565b6001600160a01b03868116825285166020820152604081018490526060810183905260a06080820181905260009061172390830184610fdf565b979650505050505050565b60006020828403121561174057600080fd5b8151610ecf81610e9c565b6001600160a01b0386811682528516602082015260a060408201819052600090611777908301866112ea565b828103606084015261178981866112ea565b9050828103608084015261179d8185610fdf565b9897505050505050505056fea26469706673582212209ec75574865e0ba6e3cca35bc75ee157e83ec6d605fb5809d0a5baca66c6148464736f6c63430008140033",
  "devdoc": {
    "errors": {
      "ERC1155InsufficientBalance(address,uint256,uint256,uint256)": [
        {
          "details": "Indicates an error related to the current `balance` of a `sender`. Used in transfers.",
          "params": {
            "balance": "Current balance for the interacting account.",
            "needed": "Minimum amount required to perform a transfer.",
            "sender": "Address whose tokens are being transferred.",
            "tokenId": "Identifier number of a token."
          }
        }
      ],
      "ERC1155InvalidApprover(address)": [
        {
          "details": "Indicates a failure with the `approver` of a token to be approved. Used in approvals.",
          "params": {
            "approver": "Address initiating an approval operation."
          }
        }
      ],
      "ERC1155InvalidArrayLength(uint256,uint256)": [
        {
          "details": "Indicates an array length mismatch between ids and values in a safeBatchTransferFrom operation. Used in batch transfers.",
          "params": {
            "idsLength": "Length of the array of token identifiers",
            "valuesLength": "Length of the array of token amounts"
          }
        }
      ],
      "ERC1155InvalidOperator(address)": [
        {
          "details": "Indicates a failure with the `operator` to be approved. Used in approvals.",
          "params": {
            "operator": "Address that may be allowed to operate on tokens without being their owner."
          }
        }
      ],
      "ERC1155InvalidReceiver(address)": [
        {
          "details": "Indicates a failure with the token `receiver`. Used in transfers.",
          "params": {
            "receiver": "Address to which tokens are being transferred."
          }
        }
      ],
      "ERC1155InvalidSender(address)": [
        {
          "details": "Indicates a failure with the token `sender`. Used in transfers.",
          "params": {
            "sender": "Address whose tokens are being transferred."
          }
        }
      ],
      "ERC1155MissingApprovalForAll(address,address)": [
        {
          "details": "Indicates a failure with the `operator`s approval. Used in transfers.",
          "params": {
            "operator": "Address that may be allowed to operate on tokens without being their owner.",
            "owner": "Address of the current owner of a token."
          }
        }
      ],
      "OwnableInvalidOwner(address)": [
        {
          "details": "The owner is not a valid owner account. (eg. `address(0)`)"
        }
      ],
      "OwnableUnauthorizedAccount(address)": [
        {
          "details": "The caller account is not authorized to perform an operation."
        }
      ]
    },
    "events": {
      "ApprovalForAll(address,address,bool)": {
        "details": "Emitted when `account` grants or revokes permission to `operator` to transfer their tokens, according to `approved`."
      },
      "TransferBatch(address,address,address,uint256[],uint256[])": {
        "details": "Equivalent to multiple {TransferSingle} events, where `operator`, `from` and `to` are the same for all transfers."
      },
      "TransferSingle(address,address,address,uint256,uint256)": {
        "details": "Emitted when `value` amount of tokens of type `id` are transferred from `from` to `to` by `operator`."
      },
      "URI(string,uint256)": {
        "details": "Emitted when the URI for token type `id` changes to `value`, if it is a non-programmatic URI. If an {URI} event was emitted for `id`, the standard https://eips.ethereum.org/EIPS/eip-1155#metadata-extensions[guarantees] that `value` will equal the value returned by {IERC1155MetadataURI-uri}."
      }
    },
    "kind": "dev",
    "methods": {
      "balanceOf(address,uint256)": {
        "details": "See {IERC1155-balanceOf}."
      },
      "balanceOfBatch(address[],uint256[])": {
        "details": "See {IERC1155-balanceOfBatch}. Requirements: - `accounts` and `ids` must have the same length."
      },
      "isApprovedForAll(address,address)": {
        "details": "See {IERC1155-isApprovedForAll}."
      },
      "owner()": {
        "details": "Returns the address of the current owner."
      },
      "renounceOwnership()": {
        "details": "Leaves the contract without owner. It will not be possible to call `onlyOwner` functions. Can only be called by the current owner. NOTE: Renouncing ownership will leave the contract without an owner, thereby disabling any functionality that is only available to the owner."
      },
      "safeBatchTransferFrom(address,address,uint256[],uint256[],bytes)": {
        "details": "See {IERC1155-safeBatchTransferFrom}."
      },
      "safeTransferFrom(address,address,uint256,uint256,bytes)": {
        "details": "See {IERC1155-safeTransferFrom}."
      },
      "setApprovalForAll(address,bool)": {
        "details": "See {IERC1155-setApprovalForAll}."
      },
      "supportsInterface(bytes4)": {
        "details": "See {IERC165-supportsInterface}."
      },
      "transferOwnership(address)": {
        "details": "Transfers ownership of the contract to a new account (`newOwner`). Can only be called by the current owner."
      },
      "uri(uint256)": {
        "details": "See {IERC1155MetadataURI-uri}. This implementation returns the same URI for *all* token types. It relies on the token type ID substitution mechanism https://eips.ethereum.org/EIPS/eip-1155#metadata[defined in the EIP]. Clients calling this function must replace the `\\{id\\}` substring with the actual token type ID."
      }
    },
    "version": 1
  },
  "userdoc": {
    "kind": "user",
    "methods": {},
    "version": 1
  },
  "storageLayout": {
    "storage": [
      {
        "astId": 326,
        "contract": "contracts/useCases/MatchTicket.sol:MatchTicket",
        "label": "_balances",
        "offset": 0,
        "slot": "0",
        "type": "t_mapping(t_uint256,t_mapping(t_address,t_uint256))"
      },
      {
        "astId": 332,
        "contract": "contracts/useCases/MatchTicket.sol:MatchTicket",
        "label": "_operatorApprovals",
        "offset": 0,
        "slot": "1",
        "type": "t_mapping(t_address,t_mapping(t_address,t_bool))"
      },
      {
        "astId": 334,
        "contract": "contracts/useCases/MatchTicket.sol:MatchTicket",
        "label": "_uri",
        "offset": 0,
        "slot": "2",
        "type": "t_string_storage"
      },
      {
        "astId": 8,
        "contract": "contracts/useCases/MatchTicket.sol:MatchTicket",
        "label": "_owner",
        "offset": 0,
        "slot": "3",
        "type": "t_address"
      }
    ],
    "types": {
      "t_address": {
        "encoding": "inplace",
        "label": "address",
        "numberOfBytes": "20"
      },
      "t_bool": {
        "encoding": "inplace",
        "label": "bool",
        "numberOfBytes": "1"
      },
      "t_mapping(t_address,t_bool)": {
        "encoding": "mapping",
        "key": "t_address",
        "label": "mapping(address => bool)",
        "numberOfBytes": "32",
        "value": "t_bool"
      },
      "t_mapping(t_address,t_mapping(t_address,t_bool))": {
        "encoding": "mapping",
        "key": "t_address",
        "label": "mapping(address => mapping(address => bool))",
        "numberOfBytes": "32",
        "value": "t_mapping(t_address,t_bool)"
      },
      "t_mapping(t_address,t_uint256)": {
        "encoding": "mapping",
        "key": "t_address",
        "label": "mapping(address => uint256)",
        "numberOfBytes": "32",
        "value": "t_uint256"
      },
      "t_mapping(t_uint256,t_mapping(t_address,t_uint256))": {
        "encoding": "mapping",
        "key": "t_uint256",
        "label": "mapping(uint256 => mapping(address => uint256))",
        "numberOfBytes": "32",
        "value": "t_mapping(t_address,t_uint256)"
      },
      "t_string_storage": {
        "encoding": "bytes",
        "label": "string",
        "numberOfBytes": "32"
      },
      "t_uint256": {
        "encoding": "inplace",
        "label": "uint256",
        "numberOfBytes": "32"
      }
    }
  }
}